{
  "contractName": "Apollo",
  "abi": [
    {
      "inputs": [
        {
          "internalType": "contract IBEP20",
          "name": "_syrup",
          "type": "address"
        },
        {
          "internalType": "contract IBEP20",
          "name": "_rewardToken",
          "type": "address"
        },
        {
          "internalType": "uint256",
          "name": "_rewardPerBlock",
          "type": "uint256"
        },
        {
          "internalType": "uint256",
          "name": "_startBlock",
          "type": "uint256"
        },
        {
          "internalType": "uint256",
          "name": "_bonusEndBlock",
          "type": "uint256"
        }
      ],
      "stateMutability": "nonpayable",
      "type": "constructor"
    },
    {
      "anonymous": false,
      "inputs": [
        {
          "indexed": true,
          "internalType": "address",
          "name": "user",
          "type": "address"
        },
        {
          "indexed": false,
          "internalType": "uint256",
          "name": "amount",
          "type": "uint256"
        }
      ],
      "name": "Deposit",
      "type": "event"
    },
    {
      "anonymous": false,
      "inputs": [
        {
          "indexed": true,
          "internalType": "address",
          "name": "user",
          "type": "address"
        },
        {
          "indexed": false,
          "internalType": "uint256",
          "name": "amount",
          "type": "uint256"
        }
      ],
      "name": "EmergencyWithdraw",
      "type": "event"
    },
    {
      "anonymous": false,
      "inputs": [
        {
          "indexed": true,
          "internalType": "address",
          "name": "previousOwner",
          "type": "address"
        },
        {
          "indexed": true,
          "internalType": "address",
          "name": "newOwner",
          "type": "address"
        }
      ],
      "name": "OwnershipTransferred",
      "type": "event"
    },
    {
      "anonymous": false,
      "inputs": [
        {
          "indexed": true,
          "internalType": "address",
          "name": "user",
          "type": "address"
        },
        {
          "indexed": false,
          "internalType": "uint256",
          "name": "amount",
          "type": "uint256"
        }
      ],
      "name": "Withdraw",
      "type": "event"
    },
    {
      "inputs": [],
      "name": "bonusEndBlock",
      "outputs": [
        {
          "internalType": "uint256",
          "name": "",
          "type": "uint256"
        }
      ],
      "stateMutability": "view",
      "type": "function"
    },
    {
      "inputs": [],
      "name": "owner",
      "outputs": [
        {
          "internalType": "address",
          "name": "",
          "type": "address"
        }
      ],
      "stateMutability": "view",
      "type": "function"
    },
    {
      "inputs": [
        {
          "internalType": "uint256",
          "name": "",
          "type": "uint256"
        }
      ],
      "name": "poolInfo",
      "outputs": [
        {
          "internalType": "contract IBEP20",
          "name": "lpToken",
          "type": "address"
        },
        {
          "internalType": "uint256",
          "name": "allocPoint",
          "type": "uint256"
        },
        {
          "internalType": "uint256",
          "name": "lastRewardBlock",
          "type": "uint256"
        },
        {
          "internalType": "uint256",
          "name": "accCakePerShare",
          "type": "uint256"
        }
      ],
      "stateMutability": "view",
      "type": "function"
    },
    {
      "inputs": [],
      "name": "renounceOwnership",
      "outputs": [],
      "stateMutability": "nonpayable",
      "type": "function"
    },
    {
      "inputs": [],
      "name": "rewardPerBlock",
      "outputs": [
        {
          "internalType": "uint256",
          "name": "",
          "type": "uint256"
        }
      ],
      "stateMutability": "view",
      "type": "function"
    },
    {
      "inputs": [],
      "name": "rewardToken",
      "outputs": [
        {
          "internalType": "contract IBEP20",
          "name": "",
          "type": "address"
        }
      ],
      "stateMutability": "view",
      "type": "function"
    },
    {
      "inputs": [],
      "name": "startBlock",
      "outputs": [
        {
          "internalType": "uint256",
          "name": "",
          "type": "uint256"
        }
      ],
      "stateMutability": "view",
      "type": "function"
    },
    {
      "inputs": [],
      "name": "syrup",
      "outputs": [
        {
          "internalType": "contract IBEP20",
          "name": "",
          "type": "address"
        }
      ],
      "stateMutability": "view",
      "type": "function"
    },
    {
      "inputs": [
        {
          "internalType": "address",
          "name": "newOwner",
          "type": "address"
        }
      ],
      "name": "transferOwnership",
      "outputs": [],
      "stateMutability": "nonpayable",
      "type": "function"
    },
    {
      "inputs": [
        {
          "internalType": "address",
          "name": "",
          "type": "address"
        }
      ],
      "name": "userInfo",
      "outputs": [
        {
          "internalType": "uint256",
          "name": "amount",
          "type": "uint256"
        },
        {
          "internalType": "uint256",
          "name": "rewardDebt",
          "type": "uint256"
        }
      ],
      "stateMutability": "view",
      "type": "function"
    },
    {
      "inputs": [],
      "name": "stopReward",
      "outputs": [],
      "stateMutability": "nonpayable",
      "type": "function"
    },
    {
      "inputs": [
        {
          "internalType": "uint256",
          "name": "_from",
          "type": "uint256"
        },
        {
          "internalType": "uint256",
          "name": "_to",
          "type": "uint256"
        }
      ],
      "name": "getMultiplier",
      "outputs": [
        {
          "internalType": "uint256",
          "name": "",
          "type": "uint256"
        }
      ],
      "stateMutability": "view",
      "type": "function"
    },
    {
      "inputs": [
        {
          "internalType": "address",
          "name": "_user",
          "type": "address"
        }
      ],
      "name": "pendingReward",
      "outputs": [
        {
          "internalType": "uint256",
          "name": "",
          "type": "uint256"
        }
      ],
      "stateMutability": "view",
      "type": "function"
    },
    {
      "inputs": [
        {
          "internalType": "uint256",
          "name": "_pid",
          "type": "uint256"
        }
      ],
      "name": "updatePool",
      "outputs": [],
      "stateMutability": "nonpayable",
      "type": "function"
    },
    {
      "inputs": [],
      "name": "massUpdatePools",
      "outputs": [],
      "stateMutability": "nonpayable",
      "type": "function"
    },
    {
      "inputs": [
        {
          "internalType": "uint256",
          "name": "_amount",
          "type": "uint256"
        }
      ],
      "name": "deposit",
      "outputs": [],
      "stateMutability": "nonpayable",
      "type": "function"
    },
    {
      "inputs": [
        {
          "internalType": "uint256",
          "name": "_amount",
          "type": "uint256"
        }
      ],
      "name": "withdraw",
      "outputs": [],
      "stateMutability": "nonpayable",
      "type": "function"
    },
    {
      "inputs": [],
      "name": "emergencyWithdraw",
      "outputs": [],
      "stateMutability": "nonpayable",
      "type": "function"
    },
    {
      "inputs": [
        {
          "internalType": "uint256",
          "name": "_amount",
          "type": "uint256"
        }
      ],
      "name": "emergencyRewardWithdraw",
      "outputs": [],
      "stateMutability": "nonpayable",
      "type": "function"
    }
  ],
  "bytecode": "0x6080604052600060065534801561001557600080fd5b506040516117ce3803806117ce833981810160405260a081101561003857600080fd5b5080516020820151604083015160608401516080909401519293919290919060006100616101d1565b600080546001600160a01b0319166001600160a01b0383169081178255604051929350917f8be0079c531659141344cd1fd0a4f28419497f9722a3daafe3b4186f6b6457e0908290a350600180546001600160a01b039687166001600160a01b03199182168117835560028054978916978316979097179096556003949094556007839055600891909155604080516080810182529485526103e86020860181815291860193845260006060870181815260048054958601815591829052965193027f8a35acfbc15ff81a39ae7d344fd709f28e8600b4aa8c65c6b64bfe7fe36bd19b8101805494909816939095169290921790955593517f8a35acfbc15ff81a39ae7d344fd709f28e8600b4aa8c65c6b64bfe7fe36bd19c830155517f8a35acfbc15ff81a39ae7d344fd709f28e8600b4aa8c65c6b64bfe7fe36bd19d82015590517f8a35acfbc15ff81a39ae7d344fd709f28e8600b4aa8c65c6b64bfe7fe36bd19e909101556006556101d5565b3390565b6115ea806101e46000396000f3fe608060405234801561001057600080fd5b50600436106101515760003560e01c806380dc0672116100cd578063b6b55f2511610081578063f2fde38b11610066578063f2fde38b14610318578063f40f0f521461034b578063f7c618c11461037e57610151565b8063b6b55f25146102f3578063db2e21bc1461031057610151565b80638ae39cac116100b25780638ae39cac146102c05780638da5cb5b146102c85780638dbb1e3a146102d057610151565b806380dc06721461028757806386a952c41461028f57610151565b80633279beab1161012457806351eb05a61161010957806351eb05a61461025a578063630b5ba114610277578063715018a61461027f57610151565b80633279beab1461023557806348cd4cb11461025257610151565b80631526fe27146101565780631959a002146101b05780631aed6553146101fc5780632e1a7d4d14610216575b600080fd5b6101736004803603602081101561016c57600080fd5b5035610386565b6040805173ffffffffffffffffffffffffffffffffffffffff90951685526020850193909352838301919091526060830152519081900360800190f35b6101e3600480360360208110156101c657600080fd5b503573ffffffffffffffffffffffffffffffffffffffff166103d4565b6040805192835260208301919091528051918290030190f35b6102046103ed565b60408051918252519081900360200190f35b6102336004803603602081101561022c57600080fd5b50356103f3565b005b6102336004803603602081101561024b57600080fd5b503561057d565b61020461070b565b6102336004803603602081101561027057600080fd5b5035610711565b610233610866565b610233610889565b61023361096f565b6102976109ec565b6040805173ffffffffffffffffffffffffffffffffffffffff9092168252519081900360200190f35b610204610a08565b610297610a0e565b610204600480360360408110156102e657600080fd5b5080359060200135610a2a565b6102336004803603602081101561030957600080fd5b5035610a6a565b610233610b99565b6102336004803603602081101561032e57600080fd5b503573ffffffffffffffffffffffffffffffffffffffff16610c39565b6102046004803603602081101561036157600080fd5b503573ffffffffffffffffffffffffffffffffffffffff16610cb9565b610297610e37565b6004818154811061039357fe5b6000918252602090912060049091020180546001820154600283015460039093015473ffffffffffffffffffffffffffffffffffffffff9092169350919084565b6005602052600090815260409020805460019091015482565b60085481565b6000600460008154811061040357fe5b600091825260208083203384526005909152604090922080546004909202909201925083111561047a576040805162461bcd60e51b815260206004820152601260248201527f77697468647261773a206e6f7420676f6f640000000000000000000000000000604482015290519081900360640190fd5b6104846000610711565b60006104be82600101546104b864e8d4a510006104b287600301548760000154610e5390919063ffffffff16565b90610eb3565b90610ef5565b905080156104ea576002546104ea9073ffffffffffffffffffffffffffffffffffffffff163383610f37565b83156105215781546104fc9085610ef5565b825582546105219073ffffffffffffffffffffffffffffffffffffffff163386610f37565b6003830154825461053c9164e8d4a51000916104b291610e53565b600183015560408051858152905133917f884edad9ce6fa2440d8a54cc123490eb96d2768479d49ff9c7366125a9424364919081900360200190a250505050565b610585610fc9565b60005473ffffffffffffffffffffffffffffffffffffffff9081169116146105f4576040805162461bcd60e51b815260206004820181905260248201527f4f776e61626c653a2063616c6c6572206973206e6f7420746865206f776e6572604482015290519081900360640190fd5b600254604080517f70a08231000000000000000000000000000000000000000000000000000000008152306004820152905173ffffffffffffffffffffffffffffffffffffffff909216916370a0823191602480820192602092909190829003018186803b15801561066557600080fd5b505afa158015610679573d6000803e3d6000fd5b505050506040513d602081101561068f57600080fd5b505181106106e4576040805162461bcd60e51b815260206004820152601060248201527f6e6f7420656e6f75676820746f6b656e00000000000000000000000000000000604482015290519081900360640190fd5b6002546107089073ffffffffffffffffffffffffffffffffffffffff163383610f37565b50565b60075481565b60006004828154811061072057fe5b90600052602060002090600402019050806002015443116107415750610708565b8054604080517f70a08231000000000000000000000000000000000000000000000000000000008152306004820152905160009273ffffffffffffffffffffffffffffffffffffffff16916370a08231916024808301926020929190829003018186803b1580156107b157600080fd5b505afa1580156107c5573d6000803e3d6000fd5b505050506040513d60208110156107db57600080fd5b50519050806107f1575043600290910155610708565b6000610801836002015443610a2a565b9050600061082e6006546104b2866001015461082860035487610e5390919063ffffffff16565b90610e53565b9050610851610846846104b28464e8d4a51000610e53565b600386015490610fcd565b60038501555050436002909201919091555050565b60045460005b818110156108855761087d81610711565b60010161086c565b5050565b610891610fc9565b60005473ffffffffffffffffffffffffffffffffffffffff908116911614610900576040805162461bcd60e51b815260206004820181905260248201527f4f776e61626c653a2063616c6c6572206973206e6f7420746865206f776e6572604482015290519081900360640190fd5b6000805460405173ffffffffffffffffffffffffffffffffffffffff909116907f8be0079c531659141344cd1fd0a4f28419497f9722a3daafe3b4186f6b6457e0908390a3600080547fffffffffffffffffffffffff0000000000000000000000000000000000000000169055565b610977610fc9565b60005473ffffffffffffffffffffffffffffffffffffffff9081169116146109e6576040805162461bcd60e51b815260206004820181905260248201527f4f776e61626c653a2063616c6c6572206973206e6f7420746865206f776e6572604482015290519081900360640190fd5b43600855565b60015473ffffffffffffffffffffffffffffffffffffffff1681565b60035481565b60005473ffffffffffffffffffffffffffffffffffffffff1690565b60006008548211610a4657610a3f8284610ef5565b9050610a64565b6008548310610a5757506000610a64565b600854610a3f9084610ef5565b92915050565b60006004600081548110610a7a57fe5b60009182526020808320338452600590915260408320600490920201925090610aa290610711565b805415610b05576000610ad782600101546104b864e8d4a510006104b287600301548760000154610e5390919063ffffffff16565b90508015610b0357600254610b039073ffffffffffffffffffffffffffffffffffffffff163383610f37565b505b8215610b3e578154610b2f9073ffffffffffffffffffffffffffffffffffffffff16333086611027565b8054610b3b9084610fcd565b81555b60038201548154610b599164e8d4a51000916104b291610e53565b600182015560408051848152905133917fe1fffcc4923d04b559f4d29a8bfc6cda04eb5b0d3c460751c2402c5c5cc9109c919081900360200190a2505050565b60006004600081548110610ba957fe5b600091825260208083203380855260059092526040909320805460049093029093018054909450610bf49273ffffffffffffffffffffffffffffffffffffffff919091169190610f37565b600080825560018201819055604080519182525133917f5fafa99d0643513820be26656b45130b01e1c03062e1266bf36f88cbd3bd9695919081900360200190a25050565b610c41610fc9565b60005473ffffffffffffffffffffffffffffffffffffffff908116911614610cb0576040805162461bcd60e51b815260206004820181905260248201527f4f776e61626c653a2063616c6c6572206973206e6f7420746865206f776e6572604482015290519081900360640190fd5b610708816110c2565b6000806004600081548110610cca57fe5b6000918252602080832073ffffffffffffffffffffffffffffffffffffffff878116855260058352604080862060049586029093016003810154815483517f70a082310000000000000000000000000000000000000000000000000000000081523098810198909852925191985093969395939491909216926370a082319260248083019392829003018186803b158015610d6457600080fd5b505afa158015610d78573d6000803e3d6000fd5b505050506040513d6020811015610d8e57600080fd5b5051600285015490915043118015610da557508015155b15610e05576000610dba856002015443610a2a565b90506000610de16006546104b2886001015461082860035487610e5390919063ffffffff16565b9050610e00610df9846104b28464e8d4a51000610e53565b8590610fcd565b935050505b610e2d83600101546104b864e8d4a510006104b2868860000154610e5390919063ffffffff16565b9695505050505050565b60025473ffffffffffffffffffffffffffffffffffffffff1681565b600082610e6257506000610a64565b82820282848281610e6f57fe5b0414610eac5760405162461bcd60e51b81526004018080602001828103825260218152602001806115946021913960400191505060405180910390fd5b9392505050565b6000610eac83836040518060400160405280601a81526020017f536166654d6174683a206469766973696f6e206279207a65726f0000000000008152506111a1565b6000610eac83836040518060400160405280601e81526020017f536166654d6174683a207375627472616374696f6e206f766572666c6f770000815250611243565b6040805173ffffffffffffffffffffffffffffffffffffffff8416602482015260448082018490528251808303909101815260649091019091526020810180517bffffffffffffffffffffffffffffffffffffffffffffffffffffffff167fa9059cbb00000000000000000000000000000000000000000000000000000000179052610fc490849061129d565b505050565b3390565b600082820183811015610eac576040805162461bcd60e51b815260206004820152601b60248201527f536166654d6174683a206164646974696f6e206f766572666c6f770000000000604482015290519081900360640190fd5b6040805173ffffffffffffffffffffffffffffffffffffffff80861660248301528416604482015260648082018490528251808303909101815260849091019091526020810180517bffffffffffffffffffffffffffffffffffffffffffffffffffffffff167f23b872dd000000000000000000000000000000000000000000000000000000001790526110bc90859061129d565b50505050565b73ffffffffffffffffffffffffffffffffffffffff81166111145760405162461bcd60e51b815260040180806020018281038252602681526020018061156e6026913960400191505060405180910390fd5b6000805460405173ffffffffffffffffffffffffffffffffffffffff808516939216917f8be0079c531659141344cd1fd0a4f28419497f9722a3daafe3b4186f6b6457e091a3600080547fffffffffffffffffffffffff00000000000000000000000000000000000000001673ffffffffffffffffffffffffffffffffffffffff92909216919091179055565b6000818361122d5760405162461bcd60e51b81526004018080602001828103825283818151815260200191508051906020019080838360005b838110156111f25781810151838201526020016111da565b50505050905090810190601f16801561121f5780820380516001836020036101000a031916815260200191505b509250505060405180910390fd5b50600083858161123957fe5b0495945050505050565b600081848411156112955760405162461bcd60e51b81526020600482018181528351602484015283519092839260449091019190850190808383600083156111f25781810151838201526020016111da565b505050900390565b60606112ff826040518060400160405280602081526020017f5361666542455032303a206c6f772d6c6576656c2063616c6c206661696c65648152508573ffffffffffffffffffffffffffffffffffffffff1661135b9092919063ffffffff16565b805190915015610fc45780806020019051602081101561131e57600080fd5b5051610fc45760405162461bcd60e51b815260040180806020018281038252602a815260200180611544602a913960400191505060405180910390fd5b606061136a8484600085611372565b949350505050565b606061137d8561150a565b6113ce576040805162461bcd60e51b815260206004820152601d60248201527f416464726573733a2063616c6c20746f206e6f6e2d636f6e7472616374000000604482015290519081900360640190fd5b600060608673ffffffffffffffffffffffffffffffffffffffff1685876040518082805190602001908083835b6020831061143857805182527fffffffffffffffffffffffffffffffffffffffffffffffffffffffffffffffe090920191602091820191016113fb565b6001836020036101000a03801982511681845116808217855250505050505090500191505060006040518083038185875af1925050503d806000811461149a576040519150601f19603f3d011682016040523d82523d6000602084013e61149f565b606091505b509150915081156114b357915061136a9050565b8051156114c35780518082602001fd5b60405162461bcd60e51b81526020600482018181528651602484015286518793919283926044019190850190808383600083156111f25781810151838201526020016111da565b6000813f7fc5d2460186f7233c927e7db2dcc703c0e500b653ca82273b7bfad8045d85a47081811480159061136a57505015159291505056fe5361666542455032303a204245503230206f7065726174696f6e20646964206e6f7420737563636565644f776e61626c653a206e6577206f776e657220697320746865207a65726f2061646472657373536166654d6174683a206d756c7469706c69636174696f6e206f766572666c6f77a2646970667358221220fd61ce9c5e8a8a69f09c193af4ac95aae2d5b6758fd2bc0c4aca8641ca3a30fd64736f6c634300060c0033",
  "immutableReferences": {},
  "source": "// import \"@nomiclabs/buidler/console.sol\";\n// File: contracts/Apollo.sol\npragma solidity 0.6.12;\n\nimport \"./ApolloLib.sol\";\n\ncontract Apollo is Ownable {\n    using SafeMath for uint256;\n    using SafeBEP20 for IBEP20;\n\n    // Info of each user.\n    struct UserInfo {\n        uint256 amount;     // How many LP tokens the user has provided.\n        uint256 rewardDebt; // Reward debt. See explanation below.\n    }\n\n    // Info of each pool.\n    struct PoolInfo {\n        IBEP20 lpToken;           // Address of LP token contract.\n        uint256 allocPoint;       // How many allocation points assigned to this pool. CAKEs to distribute per block.\n        uint256 lastRewardBlock;  // Last block number that CAKEs distribution occurs.\n        uint256 accCakePerShare; // Accumulated CAKEs per share, times 1e12. See below.\n    }\n\n    // The CAKE TOKEN!\n    IBEP20 public syrup;\n    IBEP20 public rewardToken;\n\n    // CAKE tokens created per block.\n    uint256 public rewardPerBlock;\n\n    // Info of each pool.\n    PoolInfo[] public poolInfo;\n    // Info of each user that stakes LP tokens.\n    mapping (address => UserInfo) public userInfo;\n    // Total allocation poitns. Must be the sum of all allocation points in all pools.\n    uint256 private totalAllocPoint = 0;\n    // The block number when CAKE mining starts.\n    uint256 public startBlock;\n    // The block number when CAKE mining ends.\n    uint256 public bonusEndBlock;\n\n    event Deposit(address indexed user, uint256 amount);\n    event Withdraw(address indexed user, uint256 amount);\n    event EmergencyWithdraw(address indexed user, uint256 amount);\n\n    constructor(\n        IBEP20 _syrup,\n        IBEP20 _rewardToken,\n        uint256 _rewardPerBlock,\n        uint256 _startBlock,\n        uint256 _bonusEndBlock\n    ) public {\n        syrup = _syrup;\n        rewardToken = _rewardToken;\n        rewardPerBlock = _rewardPerBlock;\n        startBlock = _startBlock;\n        bonusEndBlock = _bonusEndBlock;\n\n        // staking pool\n        poolInfo.push(PoolInfo({\n            lpToken: _syrup,\n            allocPoint: 1000,\n            lastRewardBlock: startBlock,\n            accCakePerShare: 0\n        }));\n\n        totalAllocPoint = 1000;\n\n    }\n\n    function stopReward() public onlyOwner {\n        bonusEndBlock = block.number;\n    }\n\n\n    // Return reward multiplier over the given _from to _to block.\n    function getMultiplier(uint256 _from, uint256 _to) public view returns (uint256) {\n        if (_to <= bonusEndBlock) {\n            return _to.sub(_from);\n        } else if (_from >= bonusEndBlock) {\n            return 0;\n        } else {\n            return bonusEndBlock.sub(_from);\n        }\n    }\n\n    // View function to see pending Reward on frontend.\n    function pendingReward(address _user) external view returns (uint256) {\n        PoolInfo storage pool = poolInfo[0];\n        UserInfo storage user = userInfo[_user];\n        uint256 accCakePerShare = pool.accCakePerShare;\n        uint256 lpSupply = pool.lpToken.balanceOf(address(this));\n        if (block.number > pool.lastRewardBlock && lpSupply != 0) {\n            uint256 multiplier = getMultiplier(pool.lastRewardBlock, block.number);\n            uint256 cakeReward = multiplier.mul(rewardPerBlock).mul(pool.allocPoint).div(totalAllocPoint);\n            accCakePerShare = accCakePerShare.add(cakeReward.mul(1e12).div(lpSupply));\n        }\n        return user.amount.mul(accCakePerShare).div(1e12).sub(user.rewardDebt);\n    }\n\n    // Update reward variables of the given pool to be up-to-date.\n    function updatePool(uint256 _pid) public {\n        PoolInfo storage pool = poolInfo[_pid];\n        if (block.number <= pool.lastRewardBlock) {\n            return;\n        }\n        uint256 lpSupply = pool.lpToken.balanceOf(address(this));\n        if (lpSupply == 0) {\n            pool.lastRewardBlock = block.number;\n            return;\n        }\n        uint256 multiplier = getMultiplier(pool.lastRewardBlock, block.number);\n        uint256 cakeReward = multiplier.mul(rewardPerBlock).mul(pool.allocPoint).div(totalAllocPoint);\n        pool.accCakePerShare = pool.accCakePerShare.add(cakeReward.mul(1e12).div(lpSupply));\n        pool.lastRewardBlock = block.number;\n    }\n\n    // Update reward variables for all pools. Be careful of gas spending!\n    function massUpdatePools() public {\n        uint256 length = poolInfo.length;\n        for (uint256 pid = 0; pid < length; ++pid) {\n            updatePool(pid);\n        }\n    }\n\n\n    // Stake SYRUP tokens to Apollo\n    function deposit(uint256 _amount) public {\n        PoolInfo storage pool = poolInfo[0];\n        UserInfo storage user = userInfo[msg.sender];\n\n        updatePool(0);\n        if (user.amount > 0) {\n            uint256 pending = user.amount.mul(pool.accCakePerShare).div(1e12).sub(user.rewardDebt);\n            if(pending > 0) {\n                rewardToken.safeTransfer(address(msg.sender), pending);\n            }\n        }\n        if(_amount > 0) {\n            pool.lpToken.safeTransferFrom(address(msg.sender), address(this), _amount);\n            user.amount = user.amount.add(_amount);\n        }\n        user.rewardDebt = user.amount.mul(pool.accCakePerShare).div(1e12);\n\n        emit Deposit(msg.sender, _amount);\n    }\n\n    // Withdraw SYRUP tokens from STAKING.\n    function withdraw(uint256 _amount) public {\n        PoolInfo storage pool = poolInfo[0];\n        UserInfo storage user = userInfo[msg.sender];\n        require(user.amount >= _amount, \"withdraw: not good\");\n        updatePool(0);\n        uint256 pending = user.amount.mul(pool.accCakePerShare).div(1e12).sub(user.rewardDebt);\n        if(pending > 0) {\n            rewardToken.safeTransfer(address(msg.sender), pending);\n        }\n        if(_amount > 0) {\n            user.amount = user.amount.sub(_amount);\n            pool.lpToken.safeTransfer(address(msg.sender), _amount);\n        }\n        user.rewardDebt = user.amount.mul(pool.accCakePerShare).div(1e12);\n\n        emit Withdraw(msg.sender, _amount);\n    }\n\n    // Withdraw without caring about rewards. EMERGENCY ONLY.\n    function emergencyWithdraw() public {\n        PoolInfo storage pool = poolInfo[0];\n        UserInfo storage user = userInfo[msg.sender];\n        pool.lpToken.safeTransfer(address(msg.sender), user.amount);\n        user.amount = 0;\n        user.rewardDebt = 0;\n        emit EmergencyWithdraw(msg.sender, user.amount);\n    }\n\n    // Withdraw reward. EMERGENCY ONLY.\n    function emergencyRewardWithdraw(uint256 _amount) public onlyOwner {\n        require(_amount < rewardToken.balanceOf(address(this)), 'not enough token');\n        rewardToken.safeTransfer(address(msg.sender), _amount);\n    }\n\n}",
  "sourcePath": "/Users/kanthakarn/Documents/work/six-network/augent/definix-deploy/smart_chef/contracts/Apollo.sol",
  "compiler": {
    "name": "solc",
    "version": "0.6.12+commit.27d51765.Emscripten.clang"
  },
  "schemaVersion": "3.4.1",
  "updatedAt": "2021-11-10T08:48:33.267Z",
  "devdoc": {
    "kind": "dev",
    "methods": {
      "owner()": {
        "details": "Returns the address of the current owner."
      },
      "renounceOwnership()": {
        "details": "Leaves the contract without owner. It will not be possible to call `onlyOwner` functions anymore. Can only be called by the current owner. NOTE: Renouncing ownership will leave the contract without an owner, thereby removing any functionality that is only available to the owner."
      },
      "transferOwnership(address)": {
        "details": "Transfers ownership of the contract to a new account (`newOwner`). Can only be called by the current owner."
      }
    },
    "version": 1
  },
  "userdoc": {
    "kind": "user",
    "methods": {},
    "version": 1
  }
}