{
  "contractName": "BuyerFacet",
  "abi": [
    {
      "anonymous": false,
      "inputs": [
        {
          "indexed": true,
          "internalType": "uint256",
          "name": "_orderId",
          "type": "uint256"
        },
        {
          "indexed": true,
          "internalType": "address",
          "name": "_buyer",
          "type": "address"
        },
        {
          "indexed": false,
          "internalType": "uint256",
          "name": "_price",
          "type": "uint256"
        },
        {
          "indexed": true,
          "internalType": "uint256",
          "name": "_itemId",
          "type": "uint256"
        },
        {
          "indexed": false,
          "internalType": "address",
          "name": "_NFTAddress",
          "type": "address"
        },
        {
          "indexed": false,
          "internalType": "address",
          "name": "_currency",
          "type": "address"
        }
      ],
      "name": "purchase",
      "type": "event"
    },
    {
      "inputs": [
        {
          "internalType": "bytes32",
          "name": "_orderCode",
          "type": "bytes32"
        }
      ],
      "name": "purchaseOneNFT",
      "outputs": [],
      "stateMutability": "nonpayable",
      "type": "function"
    }
  ],
  "bytecode": "0x608060405234801561001057600080fd5b50611998806100206000396000f3fe608060405234801561001057600080fd5b506004361061002b5760003560e01c806383ba4d9e14610030575b600080fd5b61004a60048036038101906100459190610dc5565b61004c565b005b60006100566106cb565b90506000610063836106f8565b9050600082600a01828154811061007d5761007c611620565b5b90600052602060002090600c02019050600081600a01549050600060038111156100aa576100a96115f1565b5b8260090160009054906101000a900460ff1660038111156100ce576100cd6115f1565b5b1461010e576040517f08c379a0000000000000000000000000000000000000000000000000000000008152600401610105906111cc565b60405180910390fd5b81600b0154421115610155576040517f08c379a000000000000000000000000000000000000000000000000000000000815260040161014c90611264565b60405180910390fd5b60018114610198576040517f08c379a000000000000000000000000000000000000000000000000000000000815260040161018f90611300565b60405180910390fd5b60006101a384610730565b6000815181106101b6576101b5611620565b5b6020026020010151905060006101d78260a001516101d26108f7565b61092b565b905060006101f08360a001516101eb610961565b61092b565b9050600061021d8261020f858760a0015161099590919063ffffffff16565b61099590919063ffffffff16565b90506001151561023085604001516109ab565b15151415610383578560050160009054906101000a900473ffffffffffffffffffffffffffffffffffffffff1673ffffffffffffffffffffffffffffffffffffffff166323b872dd33866040015173ffffffffffffffffffffffffffffffffffffffff166340a58a3288606001516040518263ffffffff1660e01b81526004016102ba9190611340565b602060405180830381600087803b1580156102d457600080fd5b505af11580156102e8573d6000803e3d6000fd5b505050506040513d601f19601f8201168201806040525081019061030c9190610d6b565b856040518463ffffffff1660e01b815260040161032b93929190611069565b602060405180830381600087803b15801561034557600080fd5b505af1158015610359573d6000803e3d6000fd5b505050506040513d601f19601f8201168201806040525081019061037d9190610d98565b50610399565b61039682846109e390919063ffffffff16565b92505b8560050160009054906101000a900473ffffffffffffffffffffffffffffffffffffffff1673ffffffffffffffffffffffffffffffffffffffff166323b872dd3330866040518463ffffffff1660e01b81526004016103fa93929190611069565b602060405180830381600087803b15801561041457600080fd5b505af1158015610428573d6000803e3d6000fd5b505050506040513d601f19601f8201168201806040525081019061044c9190610d98565b508560050160009054906101000a900473ffffffffffffffffffffffffffffffffffffffff1673ffffffffffffffffffffffffffffffffffffffff166323b872dd338860030160009054906101000a900473ffffffffffffffffffffffffffffffffffffffff16846040518463ffffffff1660e01b81526004016104d293929190611069565b602060405180830381600087803b1580156104ec57600080fd5b505af1158015610500573d6000803e3d6000fd5b505050506040513d601f19601f820116820180604052508101906105249190610d98565b50836040015173ffffffffffffffffffffffffffffffffffffffff1663f242432a8760030160009054906101000a900473ffffffffffffffffffffffffffffffffffffffff1633876060015188608001516040518563ffffffff1660e01b815260040161059494939291906110a0565b600060405180830381600087803b1580156105ae57600080fd5b505af11580156105c2573d6000803e3d6000fd5b5050505060018660090160006101000a81548160ff021916908360038111156105ee576105ed6115f1565b5b02179055506106013387600001546109f9565b6106388660030160009054906101000a900473ffffffffffffffffffffffffffffffffffffffff1685604001518660600151610b34565b83600001513373ffffffffffffffffffffffffffffffffffffffff1687600001547f9b63e665b63ac9d8d72ce25da915b9d885a11df906aae6c07baf0d55e837a7c1896008015488604001518b60050160009054906101000a900473ffffffffffffffffffffffffffffffffffffffff166040516106b89392919061135b565b60405180910390a4505050505050505050565b6000807fc8fcad8db84d3cc18b4c41d551ea0ee66dd599cde068d998e57d5e09332c131c90508091505090565b60006107298260405160200161070e9190611284565b60405160208183030381529060405280519060200120610b94565b9050919050565b6060600061073c6106cb565b9050600081600a01848154811061075657610755611620565b5b90600052602060002090600c0201905080600a015467ffffffffffffffff8111156107845761078361164f565b5b6040519080825280602002602001820160405280156107bd57816020015b6107aa610cd6565b8152602001906001900390816107a25790505b50925060005b81600a01548110156108ef57600085826040516020016107e4929190611142565b604051602081830303815290604052805190602001209050600084600d01600083815260200190815260200160002054905061081f81610bbf565b6040518060e001604052908160008201548152602001600182015481526020016002820160009054906101000a900473ffffffffffffffffffffffffffffffffffffffff1673ffffffffffffffffffffffffffffffffffffffff1673ffffffffffffffffffffffffffffffffffffffff1681526020016003820154815260200160048201548152602001600582015481526020016006820154815250508684815181106108cf576108ce611620565b5b6020026020010181905250505080806108e790611526565b9150506107c3565b505050919050565b600061092660405160200161090b906111ac565b60405160208183030381529060405280519060200120610b94565b905090565b6000610959610938610be9565b61094b8486610c1d90919063ffffffff16565b610c3390919063ffffffff16565b905092915050565b600061099060405160200161097590611320565b60405160208183030381529060405280519060200120610b94565b905090565b600081836109a391906114a0565b905092915050565b60006109dc826040516020016109c19190611043565b60405160208183030381529060405280519060200120610c49565b9050919050565b600081836109f191906113bf565b905092915050565b600082604051602001610a0c919061117e565b6040516020818303038152906040528051906020012090506000610a2f82610c81565b905060008484604051602001610a469291906111ec565b60405160208183030381529060405280519060200120905060011515610a6b82610c49565b15151415610b2d5760008585604051602001610a88929190611228565b60405160208183030381529060405280519060200120905082610aaa82610b94565b81548110610abb57610aba611620565b5b9060005260206000200160009055600086604051602001610adc91906112d2565b6040516020818303038152906040528051906020012090506000610aff82610c81565b9050808790806001815401808255809150506001900390600052602060002001600090919091909150555050505b5050505050565b6000838383604051602001610b4b939291906110f8565b6040516020818303038152906040528051906020012090506000610b6e82610b94565b9050610b8d82610b8860018461099590919063ffffffff16565b610cab565b5050505050565b600080610b9f6106cb565b905080600401600084815260200190815260200160002054915050919050565b600080610bca6106cb565b9050806009016000848152602001908152602001600020915050919050565b6000610c18604051602001610bfd906112b2565b60405160208183030381529060405280519060200120610b94565b905090565b60008183610c2b9190611446565b905092915050565b60008183610c419190611415565b905092915050565b600080610c546106cb565b905080600701600084815260200190815260200160002060009054906101000a900460ff16915050919050565b600080610c8c6106cb565b9050806008016000848152602001908152602001600020915050919050565b6000610cb56106cb565b90508181600401600085815260200190815260200160002081905550505050565b6040518060e001604052806000815260200160008019168152602001600073ffffffffffffffffffffffffffffffffffffffff168152602001600081526020016000815260200160008152602001600081525090565b600081519050610d3b8161191d565b92915050565b600081519050610d5081611934565b92915050565b600081359050610d658161194b565b92915050565b600060208284031215610d8157610d8061167e565b5b6000610d8f84828501610d2c565b91505092915050565b600060208284031215610dae57610dad61167e565b5b6000610dbc84828501610d41565b91505092915050565b600060208284031215610ddb57610dda61167e565b5b6000610de984828501610d56565b91505092915050565b610dfb816114d4565b82525050565b610e12610e0d826114d4565b61156f565b82525050565b610e21816114f2565b82525050565b6000610e346019836113a3565b9150610e3f82611690565b602082019050919050565b6000610e57600a836113a3565b9150610e62826116b9565b602082019050919050565b6000610e7a6015836113a3565b9150610e85826116e2565b602082019050919050565b6000610e9d601e836113a3565b9150610ea88261170b565b602082019050919050565b6000610ec0601b836113a3565b9150610ecb82611734565b602082019050919050565b6000610ee36026836113a3565b9150610eee8261175d565b604082019050919050565b6000610f06601d836113a3565b9150610f11826117ac565b602082019050919050565b6000610f29600e836113a3565b9150610f34826117d5565b602082019050919050565b6000610f4c602c836113b4565b9150610f57826117fe565b602c82019050919050565b6000610f6f6010836113a3565b9150610f7a8261184d565b602082019050919050565b6000610f92601a836113a3565b9150610f9d82611876565b602082019050919050565b6000610fb5600083611392565b9150610fc08261189f565b600082019050919050565b6000610fd86016836113a3565b9150610fe3826118a2565b602082019050919050565b6000610ffb600d836113a3565b9150611006826118cb565b602082019050919050565b600061101e601e836113a3565b9150611029826118f4565b602082019050919050565b61103d8161151c565b82525050565b600061104e82610f3f565b915061105a8284610e01565b60148201915081905092915050565b600060608201905061107e6000830186610df2565b61108b6020830185610df2565b6110986040830184611034565b949350505050565b600060a0820190506110b56000830187610df2565b6110c26020830186610df2565b6110cf6040830185611034565b6110dc6060830184611034565b81810360808301526110ed81610fa8565b905095945050505050565b6000608082019050818103600083015261111181610e27565b90506111206020830186610df2565b61112d6040830185610df2565b61113a6060830184611034565b949350505050565b6000606082019050818103600083015261115b81610e4a565b905061116a6020830185611034565b6111776040830184611034565b9392505050565b6000604082019050818103600083015261119781610e6d565b90506111a66020830184610df2565b92915050565b600060208201905081810360008301526111c581610e90565b9050919050565b600060208201905081810360008301526111e581610eb3565b9050919050565b6000606082019050818103600083015261120581610ed6565b90506112146020830185610df2565b6112216040830184611034565b9392505050565b6000606082019050818103600083015261124181610ef9565b90506112506020830185610df2565b61125d6040830184611034565b9392505050565b6000602082019050818103600083015261127d81610f1c565b9050919050565b6000604082019050818103600083015261129d81610f62565b90506112ac6020830184610e18565b92915050565b600060208201905081810360008301526112cb81610f85565b9050919050565b600060408201905081810360008301526112eb81610fcb565b90506112fa6020830184610df2565b92915050565b6000602082019050818103600083015261131981610fee565b9050919050565b6000602082019050818103600083015261133981611011565b9050919050565b60006020820190506113556000830184611034565b92915050565b60006060820190506113706000830186611034565b61137d6020830185610df2565b61138a6040830184610df2565b949350505050565b600082825260208201905092915050565b600082825260208201905092915050565b600081905092915050565b60006113ca8261151c565b91506113d58361151c565b9250827fffffffffffffffffffffffffffffffffffffffffffffffffffffffffffffffff0382111561140a57611409611593565b5b828201905092915050565b60006114208261151c565b915061142b8361151c565b92508261143b5761143a6115c2565b5b828204905092915050565b60006114518261151c565b915061145c8361151c565b9250817fffffffffffffffffffffffffffffffffffffffffffffffffffffffffffffffff048311821515161561149557611494611593565b5b828202905092915050565b60006114ab8261151c565b91506114b68361151c565b9250828210156114c9576114c8611593565b5b828203905092915050565b60006114df826114fc565b9050919050565b60008115159050919050565b6000819050919050565b600073ffffffffffffffffffffffffffffffffffffffff82169050919050565b6000819050919050565b60006115318261151c565b91507fffffffffffffffffffffffffffffffffffffffffffffffffffffffffffffffff82141561156457611563611593565b5b600182019050919050565b600061157a82611581565b9050919050565b600061158c82611683565b9050919050565b7f4e487b7100000000000000000000000000000000000000000000000000000000600052601160045260246000fd5b7f4e487b7100000000000000000000000000000000000000000000000000000000600052601260045260246000fd5b7f4e487b7100000000000000000000000000000000000000000000000000000000600052602160045260246000fd5b7f4e487b7100000000000000000000000000000000000000000000000000000000600052603260045260246000fd5b7f4e487b7100000000000000000000000000000000000000000000000000000000600052604160045260246000fd5b600080fd5b60008160601b9050919050565b7f555345522e4e46542e49442e414d4f554e542e4f4e53454c4c00000000000000600082015250565b7f4f524445522e4954454d00000000000000000000000000000000000000000000600082015250565b7f555345522e4f524445522e4944532e4f4e53454c4c0000000000000000000000600082015250565b7f4e46544d41524b4554504c4143453a4d41524b4554504c4143452e4645450000600082015250565b7f4f5244455220495320534f4c44204f5554204f522043414e43454c0000000000600082015250565b7f555345522e4f524445522e49442e544f2e494e4445582e49532e45584953542e60008201527f4f4e53454c4c0000000000000000000000000000000000000000000000000000602082015250565b7f555345522e4f524445522e49442e544f2e494e4445582e4f4e53454c4c000000600082015250565b7f4f5244455220495320454e444544000000000000000000000000000000000000600082015250565b7f4e46544d41524b4554504c4143453a4e46542e434f4e54524143542e4841564560008201527f2e46495253542e4f574e45520000000000000000000000000000000000000000602082015250565b7f4f524445522e49442e42592e434f444500000000000000000000000000000000600082015250565b7f4e46544d41524b4554504c4143453a4645452e444543494d414c000000000000600082015250565b50565b7f555345522e4f524445522e4944532e534f4c444f555400000000000000000000600082015250565b7f494e56414c4944204f5244455200000000000000000000000000000000000000600082015250565b7f4e46544d41524b4554504c4143453a46495253542e4f574e45522e4645450000600082015250565b611926816114d4565b811461193157600080fd5b50565b61193d816114e6565b811461194857600080fd5b50565b611954816114f2565b811461195f57600080fd5b5056fea26469706673582212201ebaf5db7b6e1505c5e5705642d02287d4ae557502fcd22ee9eee99f6eabe3ee64736f6c63430008070033",
  "immutableReferences": {},
  "source": "pragma solidity ^0.8.0;\n\nimport { LibDiamond } from \"../libraries/LibDiamond.sol\";\nimport { LibItem } from \"../libraries/LibItem.sol\";\nimport { LibFeeManager } from \"../libraries/LibFeeManager.sol\";\nimport { LibSaleOrder } from \"../libraries/LibSaleOrder.sol\";\nimport \"../utils/math/SafeMath.sol\";\nimport \"../interfaces/IERC20.sol\";\nimport \"../interfaces/IERC1155.sol\";\n\ncontract BuyerFacet  {\n\n    using SafeMath for uint256;\n\n    event purchase(uint256 indexed _orderId,address indexed _buyer,uint256 _price,uint256 indexed _itemId,address _NFTAddress,address _currency);\n    \n    function purchaseOneNFT(bytes32 _orderCode) external {\n        LibDiamond.DiamondStorage storage ds = LibDiamond.diamondStorage();\n        uint256 _orderId = LibSaleOrder._getOrderIdByCode(_orderCode);\n\n        LibDiamond.SaleOrder storage _order = ds.orders[_orderId];\n\n        uint256 _itemInOrderLength = _order.itemCount;\n\n        require(_order.status == LibDiamond.OrderStatus.OnSell,\"ORDER IS SOLD OUT OR CANCEL\");\n        require(block.timestamp <= _order.sellPeriod ,\"ORDER IS ENDED\");\n        // check order is one Item and check order is exist \n        require(_itemInOrderLength == 1 ,\"INVALID ORDER\");\n        \n\n        LibDiamond.SaleItem memory _item = LibItem._getItemByOrderId(_orderId)[0];\n\n        uint256 _feeMerketPlacePrice = _calculateFee(_item.price,LibFeeManager._getFeeMarketPlace());\n        uint256 _feeFirstOwnerPrice =  _calculateFee(_item.price,LibFeeManager._getFirstOwnerFee());\n        uint256 userReciptAmountPrice = _item.price.sub(_feeMerketPlacePrice).sub(_feeFirstOwnerPrice);\n\n        if(_isHaveFirstOwner(_item.tokenContract) == true){\n            IERC20(_order.currency).transferFrom(msg.sender,IERC1155(_item.tokenContract).getFirstOwner(_item.tokenId) , _feeFirstOwnerPrice);\n        }else{\n            _feeMerketPlacePrice = _feeMerketPlacePrice.add(_feeFirstOwnerPrice);\n        }\n        \n        // transfer to market\n        IERC20(_order.currency).transferFrom(msg.sender,address(this) , _feeMerketPlacePrice);\n        // transfer to seller\n        IERC20(_order.currency).transferFrom(msg.sender,_order.owner , userReciptAmountPrice);\n        // transfer NFT to buyer\n        IERC1155(_item.tokenContract).safeTransferFrom(_order.owner,msg.sender,_item.tokenId,_item.amount,\"\");\n       \n        _order.status = LibDiamond.OrderStatus.SoldOut;\n        \n        _changeUserOrdersToSoldOut(msg.sender,_order.id);\n        // decrease user nft on sell \n        _decreaseNFTOnSell(_order.owner,_item.tokenContract,_item.tokenId);\n\n        emit purchase(_order.id,msg.sender,_order.price, _item.id,_item.tokenContract,_order.currency);\n\n    }\n    function _decreaseNFTOnSell(address _user,address _nftTokenAddress,uint256 _nftTokenId) private {\n        bytes32 _keyMapOrderIdToIndex = keccak256(abi.encode(\"USER.NFT.ID.AMOUNT.ONSELL\",_user,_nftTokenAddress,_nftTokenId));\n        uint256 _amountUserItemOnSell = LibDiamond.getUint(_keyMapOrderIdToIndex);\n        LibDiamond.setUint(_keyMapOrderIdToIndex,_amountUserItemOnSell.sub(1));\n    }\n    function _changeUserOrdersToSoldOut(address _user,uint256 _orderId) private {\n        bytes32 _keyUserOrdersOnSell = keccak256(abi.encode(\"USER.ORDER.IDS.ONSELL\",_user));\n        uint256[] storage _userOrderIds = LibDiamond.getArrayUint(_keyUserOrdersOnSell);\n        \n        bytes32 _keyMapOrderIdToIndexIsExist = keccak256(abi.encode(\"USER.ORDER.ID.TO.INDEX.IS.EXIST.ONSELL\",_user,_orderId));\n        \n        if(LibDiamond.getBool(_keyMapOrderIdToIndexIsExist) == true){\n            bytes32 _keyMapOrderIdToIndex= keccak256(abi.encode(\"USER.ORDER.ID.TO.INDEX.ONSELL\",_user,_orderId));\n        \n            delete _userOrderIds[LibDiamond.getUint(_keyMapOrderIdToIndex)];\n\n            bytes32 _keyUserOrdersSoldOut = keccak256(abi.encode(\"USER.ORDER.IDS.SOLDOUT\",_user));\n            uint256[] storage _userOrderIdsSoldOut = LibDiamond.getArrayUint(_keyUserOrdersSoldOut);\n            _userOrderIdsSoldOut.push(_orderId);\n        }    \n    }\n  \n    \n    function _calculateFee(uint256 _price,uint256 _fee) internal view returns(uint256){\n        return _price.mul(_fee).div(LibFeeManager._getFeeDecimal());\n    }\n  \n    \n    function _isHaveFirstOwner(address _nftContractAddress) private view returns(bool){\n        return LibDiamond.getBool(keccak256(abi.encodePacked(\"NFTMARKETPLACE:NFT.CONTRACT.HAVE.FIRST.OWNER\",_nftContractAddress)));\n    }\n\n    function getItemByCode(bytes32 _itemCode) private view returns(LibDiamond.SaleItem storage){\n        return LibItem._getItem(\n            LibItem._getItemIdByCode(_itemCode)\n        );\n    }\n    function _checkSellerBalance(address _tokenContract,uint256 _tokenId,address _seller,uint256 _amount) private {\n        require(\n            _amount <= _getSellerBalance(_tokenContract,_tokenId,_seller) ,\"INVALID SELLER BALANCE\"\n        );\n    }\n    function _getSellerBalance(address _tokenContract,uint256 _tokenId,address _seller) private returns(uint256) {\n        return IERC1155(_tokenContract).balanceOf(_seller,_tokenId);\n    }\n}",
  "sourcePath": "/Users/kanthakarn/Documents/work/six-network/new/nft-marketplace/contracts/facets/BuyerFacet.sol",
  "compiler": {
    "name": "solc",
    "version": "0.8.7+commit.e28d00a7.Emscripten.clang"
  },
  "schemaVersion": "3.4.1",
  "updatedAt": "2021-12-02T05:02:33.864Z",
  "networkType": "ethereum",
  "devdoc": {
    "kind": "dev",
    "methods": {},
    "version": 1
  },
  "userdoc": {
    "kind": "user",
    "methods": {},
    "version": 1
  }
}