{
  "contractName": "BuyerFacet",
  "abi": [
    {
      "anonymous": false,
      "inputs": [
        {
          "indexed": true,
          "internalType": "uint256",
          "name": "_orderId",
          "type": "uint256"
        },
        {
          "indexed": true,
          "internalType": "address",
          "name": "_buyer",
          "type": "address"
        },
        {
          "indexed": false,
          "internalType": "uint256",
          "name": "_price",
          "type": "uint256"
        },
        {
          "indexed": true,
          "internalType": "uint256",
          "name": "_itemId",
          "type": "uint256"
        },
        {
          "indexed": false,
          "internalType": "address",
          "name": "_NFTAddress",
          "type": "address"
        },
        {
          "indexed": false,
          "internalType": "address",
          "name": "_currency",
          "type": "address"
        }
      ],
      "name": "purchase",
      "type": "event"
    },
    {
      "inputs": [
        {
          "internalType": "bytes32",
          "name": "_orderCode",
          "type": "bytes32"
        }
      ],
      "name": "purchaseOneNFT",
      "outputs": [],
      "stateMutability": "nonpayable",
      "type": "function"
    }
  ],
  "bytecode": "0x608060405234801561001057600080fd5b506118e5806100206000396000f3fe608060405234801561001057600080fd5b506004361061002b5760003560e01c806383ba4d9e14610030575b600080fd5b61004a60048036038101906100459190610d7e565b61004c565b005b6000610056610684565b90506000610063836106b1565b9050600082600a01828154811061007d5761007c611596565b5b90600052602060002090600b02019050600081600a01549050600060038111156100aa576100a9611567565b5b8260090160009054906101000a900460ff1660038111156100ce576100cd611567565b5b1461010e576040517f08c379a000000000000000000000000000000000000000000000000000000000815260040161010590611162565b60405180910390fd5b60018114610151576040517f08c379a000000000000000000000000000000000000000000000000000000000815260040161014890611276565b60405180910390fd5b600061015c846106e9565b60008151811061016f5761016e611596565b5b6020026020010151905060006101908260a0015161018b6108b0565b6108e4565b905060006101a98360a001516101a461091a565b6108e4565b905060006101d6826101c8858760a0015161094e90919063ffffffff16565b61094e90919063ffffffff16565b9050600115156101e98560400151610964565b1515141561033c578560050160009054906101000a900473ffffffffffffffffffffffffffffffffffffffff1673ffffffffffffffffffffffffffffffffffffffff166323b872dd33866040015173ffffffffffffffffffffffffffffffffffffffff166340a58a3288606001516040518263ffffffff1660e01b815260040161027391906112b6565b602060405180830381600087803b15801561028d57600080fd5b505af11580156102a1573d6000803e3d6000fd5b505050506040513d601f19601f820116820180604052508101906102c59190610d24565b856040518463ffffffff1660e01b81526004016102e493929190610fff565b602060405180830381600087803b1580156102fe57600080fd5b505af1158015610312573d6000803e3d6000fd5b505050506040513d601f19601f820116820180604052508101906103369190610d51565b50610352565b61034f828461099c90919063ffffffff16565b92505b8560050160009054906101000a900473ffffffffffffffffffffffffffffffffffffffff1673ffffffffffffffffffffffffffffffffffffffff166323b872dd3330866040518463ffffffff1660e01b81526004016103b393929190610fff565b602060405180830381600087803b1580156103cd57600080fd5b505af11580156103e1573d6000803e3d6000fd5b505050506040513d601f19601f820116820180604052508101906104059190610d51565b508560050160009054906101000a900473ffffffffffffffffffffffffffffffffffffffff1673ffffffffffffffffffffffffffffffffffffffff166323b872dd338860030160009054906101000a900473ffffffffffffffffffffffffffffffffffffffff16846040518463ffffffff1660e01b815260040161048b93929190610fff565b602060405180830381600087803b1580156104a557600080fd5b505af11580156104b9573d6000803e3d6000fd5b505050506040513d601f19601f820116820180604052508101906104dd9190610d51565b50836040015173ffffffffffffffffffffffffffffffffffffffff1663f242432a8760030160009054906101000a900473ffffffffffffffffffffffffffffffffffffffff1633876060015188608001516040518563ffffffff1660e01b815260040161054d9493929190611036565b600060405180830381600087803b15801561056757600080fd5b505af115801561057b573d6000803e3d6000fd5b5050505060018660090160006101000a81548160ff021916908360038111156105a7576105a6611567565b5b02179055506105ba3387600001546109b2565b6105f18660030160009054906101000a900473ffffffffffffffffffffffffffffffffffffffff1685604001518660600151610aed565b83600001513373ffffffffffffffffffffffffffffffffffffffff1687600001547f9b63e665b63ac9d8d72ce25da915b9d885a11df906aae6c07baf0d55e837a7c1896008015488604001518b60050160009054906101000a900473ffffffffffffffffffffffffffffffffffffffff16604051610671939291906112d1565b60405180910390a4505050505050505050565b6000807fc8fcad8db84d3cc18b4c41d551ea0ee66dd599cde068d998e57d5e09332c131c90508091505090565b60006106e2826040516020016106c791906111fa565b60405160208183030381529060405280519060200120610b4d565b9050919050565b606060006106f5610684565b9050600081600a01848154811061070f5761070e611596565b5b90600052602060002090600b0201905080600a015467ffffffffffffffff81111561073d5761073c6115c5565b5b60405190808252806020026020018201604052801561077657816020015b610763610c8f565b81526020019060019003908161075b5790505b50925060005b81600a01548110156108a8576000858260405160200161079d9291906110d8565b604051602081830303815290604052805190602001209050600084600d0160008381526020019081526020016000205490506107d881610b78565b6040518060e001604052908160008201548152602001600182015481526020016002820160009054906101000a900473ffffffffffffffffffffffffffffffffffffffff1673ffffffffffffffffffffffffffffffffffffffff1673ffffffffffffffffffffffffffffffffffffffff16815260200160038201548152602001600482015481526020016005820154815260200160068201548152505086848151811061088857610887611596565b5b6020026020010181905250505080806108a09061149c565b91505061077c565b505050919050565b60006108df6040516020016108c490611142565b60405160208183030381529060405280519060200120610b4d565b905090565b60006109126108f1610ba2565b6109048486610bd690919063ffffffff16565b610bec90919063ffffffff16565b905092915050565b600061094960405160200161092e90611296565b60405160208183030381529060405280519060200120610b4d565b905090565b6000818361095c9190611416565b905092915050565b60006109958260405160200161097a9190610fd9565b60405160208183030381529060405280519060200120610c02565b9050919050565b600081836109aa9190611335565b905092915050565b6000826040516020016109c59190611114565b60405160208183030381529060405280519060200120905060006109e882610c3a565b9050600084846040516020016109ff929190611182565b60405160208183030381529060405280519060200120905060011515610a2482610c02565b15151415610ae65760008585604051602001610a419291906111be565b60405160208183030381529060405280519060200120905082610a6382610b4d565b81548110610a7457610a73611596565b5b9060005260206000200160009055600086604051602001610a959190611248565b6040516020818303038152906040528051906020012090506000610ab882610c3a565b9050808790806001815401808255809150506001900390600052602060002001600090919091909150555050505b5050505050565b6000838383604051602001610b049392919061108e565b6040516020818303038152906040528051906020012090506000610b2782610b4d565b9050610b4682610b4160018461094e90919063ffffffff16565b610c64565b5050505050565b600080610b58610684565b905080600401600084815260200190815260200160002054915050919050565b600080610b83610684565b9050806009016000848152602001908152602001600020915050919050565b6000610bd1604051602001610bb690611228565b60405160208183030381529060405280519060200120610b4d565b905090565b60008183610be491906113bc565b905092915050565b60008183610bfa919061138b565b905092915050565b600080610c0d610684565b905080600701600084815260200190815260200160002060009054906101000a900460ff16915050919050565b600080610c45610684565b9050806008016000848152602001908152602001600020915050919050565b6000610c6e610684565b90508181600401600085815260200190815260200160002081905550505050565b6040518060e001604052806000815260200160008019168152602001600073ffffffffffffffffffffffffffffffffffffffff168152602001600081526020016000815260200160008152602001600081525090565b600081519050610cf48161186a565b92915050565b600081519050610d0981611881565b92915050565b600081359050610d1e81611898565b92915050565b600060208284031215610d3a57610d396115f4565b5b6000610d4884828501610ce5565b91505092915050565b600060208284031215610d6757610d666115f4565b5b6000610d7584828501610cfa565b91505092915050565b600060208284031215610d9457610d936115f4565b5b6000610da284828501610d0f565b91505092915050565b610db48161144a565b82525050565b610dcb610dc68261144a565b6114e5565b82525050565b610dda81611468565b82525050565b6000610ded601983611319565b9150610df882611606565b602082019050919050565b6000610e10600a83611319565b9150610e1b8261162f565b602082019050919050565b6000610e33601583611319565b9150610e3e82611658565b602082019050919050565b6000610e56601e83611319565b9150610e6182611681565b602082019050919050565b6000610e79601b83611319565b9150610e84826116aa565b602082019050919050565b6000610e9c602683611319565b9150610ea7826116d3565b604082019050919050565b6000610ebf601d83611319565b9150610eca82611722565b602082019050919050565b6000610ee2602c8361132a565b9150610eed8261174b565b602c82019050919050565b6000610f05601083611319565b9150610f108261179a565b602082019050919050565b6000610f28601a83611319565b9150610f33826117c3565b602082019050919050565b6000610f4b600083611308565b9150610f56826117ec565b600082019050919050565b6000610f6e601683611319565b9150610f79826117ef565b602082019050919050565b6000610f91600d83611319565b9150610f9c82611818565b602082019050919050565b6000610fb4601e83611319565b9150610fbf82611841565b602082019050919050565b610fd381611492565b82525050565b6000610fe482610ed5565b9150610ff08284610dba565b60148201915081905092915050565b60006060820190506110146000830186610dab565b6110216020830185610dab565b61102e6040830184610fca565b949350505050565b600060a08201905061104b6000830187610dab565b6110586020830186610dab565b6110656040830185610fca565b6110726060830184610fca565b818103608083015261108381610f3e565b905095945050505050565b600060808201905081810360008301526110a781610de0565b90506110b66020830186610dab565b6110c36040830185610dab565b6110d06060830184610fca565b949350505050565b600060608201905081810360008301526110f181610e03565b90506111006020830185610fca565b61110d6040830184610fca565b9392505050565b6000604082019050818103600083015261112d81610e26565b905061113c6020830184610dab565b92915050565b6000602082019050818103600083015261115b81610e49565b9050919050565b6000602082019050818103600083015261117b81610e6c565b9050919050565b6000606082019050818103600083015261119b81610e8f565b90506111aa6020830185610dab565b6111b76040830184610fca565b9392505050565b600060608201905081810360008301526111d781610eb2565b90506111e66020830185610dab565b6111f36040830184610fca565b9392505050565b6000604082019050818103600083015261121381610ef8565b90506112226020830184610dd1565b92915050565b6000602082019050818103600083015261124181610f1b565b9050919050565b6000604082019050818103600083015261126181610f61565b90506112706020830184610dab565b92915050565b6000602082019050818103600083015261128f81610f84565b9050919050565b600060208201905081810360008301526112af81610fa7565b9050919050565b60006020820190506112cb6000830184610fca565b92915050565b60006060820190506112e66000830186610fca565b6112f36020830185610dab565b6113006040830184610dab565b949350505050565b600082825260208201905092915050565b600082825260208201905092915050565b600081905092915050565b600061134082611492565b915061134b83611492565b9250827fffffffffffffffffffffffffffffffffffffffffffffffffffffffffffffffff038211156113805761137f611509565b5b828201905092915050565b600061139682611492565b91506113a183611492565b9250826113b1576113b0611538565b5b828204905092915050565b60006113c782611492565b91506113d283611492565b9250817fffffffffffffffffffffffffffffffffffffffffffffffffffffffffffffffff048311821515161561140b5761140a611509565b5b828202905092915050565b600061142182611492565b915061142c83611492565b92508282101561143f5761143e611509565b5b828203905092915050565b600061145582611472565b9050919050565b60008115159050919050565b6000819050919050565b600073ffffffffffffffffffffffffffffffffffffffff82169050919050565b6000819050919050565b60006114a782611492565b91507fffffffffffffffffffffffffffffffffffffffffffffffffffffffffffffffff8214156114da576114d9611509565b5b600182019050919050565b60006114f0826114f7565b9050919050565b6000611502826115f9565b9050919050565b7f4e487b7100000000000000000000000000000000000000000000000000000000600052601160045260246000fd5b7f4e487b7100000000000000000000000000000000000000000000000000000000600052601260045260246000fd5b7f4e487b7100000000000000000000000000000000000000000000000000000000600052602160045260246000fd5b7f4e487b7100000000000000000000000000000000000000000000000000000000600052603260045260246000fd5b7f4e487b7100000000000000000000000000000000000000000000000000000000600052604160045260246000fd5b600080fd5b60008160601b9050919050565b7f555345522e4e46542e49442e414d4f554e542e4f4e53454c4c00000000000000600082015250565b7f4f524445522e4954454d00000000000000000000000000000000000000000000600082015250565b7f555345522e4f524445522e4944532e4f4e53454c4c0000000000000000000000600082015250565b7f4e46544d41524b4554504c4143453a4d41524b4554504c4143452e4645450000600082015250565b7f4f5244455220495320534f4c44204f5554204f522043414e43454c0000000000600082015250565b7f555345522e4f524445522e49442e544f2e494e4445582e49532e45584953542e60008201527f4f4e53454c4c0000000000000000000000000000000000000000000000000000602082015250565b7f555345522e4f524445522e49442e544f2e494e4445582e4f4e53454c4c000000600082015250565b7f4e46544d41524b4554504c4143453a4e46542e434f4e54524143542e4841564560008201527f2e46495253542e4f574e45520000000000000000000000000000000000000000602082015250565b7f4f524445522e49442e42592e434f444500000000000000000000000000000000600082015250565b7f4e46544d41524b4554504c4143453a4645452e444543494d414c000000000000600082015250565b50565b7f555345522e4f524445522e4944532e534f4c444f555400000000000000000000600082015250565b7f494e56414c4944204f5244455200000000000000000000000000000000000000600082015250565b7f4e46544d41524b4554504c4143453a46495253542e4f574e45522e4645450000600082015250565b6118738161144a565b811461187e57600080fd5b50565b61188a8161145c565b811461189557600080fd5b50565b6118a181611468565b81146118ac57600080fd5b5056fea26469706673582212205a7d64662770854c71b0ba8b96f6782e2f469f2a0dc576605c4d985bc913ba2c64736f6c63430008070033",
  "immutableReferences": {},
  "source": "pragma solidity ^0.8.0;\n\nimport { LibDiamond } from \"../libraries/LibDiamond.sol\";\nimport { LibItem } from \"../libraries/LibItem.sol\";\nimport { LibFeeManager } from \"../libraries/LibFeeManager.sol\";\nimport { LibSaleOrder } from \"../libraries/LibSaleOrder.sol\";\nimport \"../utils/math/SafeMath.sol\";\nimport \"../interfaces/IERC20.sol\";\nimport \"../interfaces/IERC1155.sol\";\n\ncontract BuyerFacet  {\n\n    using SafeMath for uint256;\n\n    event purchase(uint256 indexed _orderId,address indexed _buyer,uint256 _price,uint256 indexed _itemId,address _NFTAddress,address _currency);\n    \n    function purchaseOneNFT(bytes32 _orderCode) external {\n        LibDiamond.DiamondStorage storage ds = LibDiamond.diamondStorage();\n        uint256 _orderId = LibSaleOrder._getOrderIdByCode(_orderCode);\n        \n        LibDiamond.SaleOrder storage _order = ds.orders[_orderId];\n\n        uint256 _itemInOrderLength = _order.itemCount;\n\n        require(_order.status == LibDiamond.OrderStatus.OnSell,\"ORDER IS SOLD OUT OR CANCEL\");\n        // check order is one Item and check order is exist \n        require(_itemInOrderLength == 1 ,\"INVALID ORDER\");\n        \n\n        LibDiamond.SaleItem memory _item = LibItem._getItemByOrderId(_orderId)[0];\n\n        uint256 _feeMerketPlacePrice = _calculateFee(_item.price,LibFeeManager._getFeeMarketPlace());\n        uint256 _feeFirstOwnerPrice =  _calculateFee(_item.price,LibFeeManager._getFirstOwnerFee());\n        uint256 userReciptAmountPrice = _item.price.sub(_feeMerketPlacePrice).sub(_feeFirstOwnerPrice);\n\n        if(_isHaveFirstOwner(_item.tokenContract) == true){\n            IERC20(_order.currency).transferFrom(msg.sender,IERC1155(_item.tokenContract).getFirstOwner(_item.tokenId) , _feeFirstOwnerPrice);\n        }else{\n            _feeMerketPlacePrice = _feeMerketPlacePrice.add(_feeFirstOwnerPrice);\n        }\n        \n        // transfer to market\n        IERC20(_order.currency).transferFrom(msg.sender,address(this) , _feeMerketPlacePrice);\n        // transfer to seller\n        IERC20(_order.currency).transferFrom(msg.sender,_order.owner , userReciptAmountPrice);\n        // transfer NFT to buyer\n        IERC1155(_item.tokenContract).safeTransferFrom(_order.owner,msg.sender,_item.tokenId,_item.amount,\"\");\n       \n        _order.status = LibDiamond.OrderStatus.SoldOut;\n        \n        _changeUserOrdersToSoldOut(msg.sender,_order.id);\n        // decrease user nft on sell \n        _decreaseNFTOnSell(_order.owner,_item.tokenContract,_item.tokenId);\n\n        emit purchase(_order.id,msg.sender,_order.price, _item.id,_item.tokenContract,_order.currency);\n\n    }\n    function _decreaseNFTOnSell(address _user,address _nftTokenAddress,uint256 _nftTokenId) private {\n        bytes32 _keyMapOrderIdToIndex = keccak256(abi.encode(\"USER.NFT.ID.AMOUNT.ONSELL\",_user,_nftTokenAddress,_nftTokenId));\n        uint256 _amountUserItemOnSell = LibDiamond.getUint(_keyMapOrderIdToIndex);\n        LibDiamond.setUint(_keyMapOrderIdToIndex,_amountUserItemOnSell.sub(1));\n    }\n    function _changeUserOrdersToSoldOut(address _user,uint256 _orderId) private {\n        bytes32 _keyUserOrdersOnSell = keccak256(abi.encode(\"USER.ORDER.IDS.ONSELL\",_user));\n        uint256[] storage _userOrderIds = LibDiamond.getArrayUint(_keyUserOrdersOnSell);\n        \n        bytes32 _keyMapOrderIdToIndexIsExist = keccak256(abi.encode(\"USER.ORDER.ID.TO.INDEX.IS.EXIST.ONSELL\",_user,_orderId));\n        \n        if(LibDiamond.getBool(_keyMapOrderIdToIndexIsExist) == true){\n            bytes32 _keyMapOrderIdToIndex= keccak256(abi.encode(\"USER.ORDER.ID.TO.INDEX.ONSELL\",_user,_orderId));\n        \n            delete _userOrderIds[LibDiamond.getUint(_keyMapOrderIdToIndex)];\n\n            bytes32 _keyUserOrdersSoldOut = keccak256(abi.encode(\"USER.ORDER.IDS.SOLDOUT\",_user));\n            uint256[] storage _userOrderIdsSoldOut = LibDiamond.getArrayUint(_keyUserOrdersSoldOut);\n            _userOrderIdsSoldOut.push(_orderId);\n        }    \n    }\n  \n    \n    function _calculateFee(uint256 _price,uint256 _fee) internal view returns(uint256){\n        return _price.mul(_fee).div(LibFeeManager._getFeeDecimal());\n    }\n  \n    \n    function _isHaveFirstOwner(address _nftContractAddress) private view returns(bool){\n        return LibDiamond.getBool(keccak256(abi.encodePacked(\"NFTMARKETPLACE:NFT.CONTRACT.HAVE.FIRST.OWNER\",_nftContractAddress)));\n    }\n\n    function getItemByCode(bytes32 _itemCode) private view returns(LibDiamond.SaleItem storage){\n        return LibItem._getItem(\n            LibItem._getItemIdByCode(_itemCode)\n        );\n    }\n    function _checkSellerBalance(address _tokenContract,uint256 _tokenId,address _seller,uint256 _amount) private {\n        require(\n            _amount <= _getSellerBalance(_tokenContract,_tokenId,_seller) ,\"INVALID SELLER BALANCE\"\n        );\n    }\n    function _getSellerBalance(address _tokenContract,uint256 _tokenId,address _seller) private returns(uint256) {\n        return IERC1155(_tokenContract).balanceOf(_seller,_tokenId);\n    }\n}",
  "sourcePath": "/Users/kanthakarn/Documents/work/six-network/new/nft-marketplace/contracts/facets/BuyerFacet.sol",
  "compiler": {
    "name": "solc",
    "version": "0.8.7+commit.e28d00a7.Emscripten.clang"
  },
  "schemaVersion": "3.4.1",
  "updatedAt": "2021-11-26T09:51:18.633Z",
  "networkType": "ethereum",
  "devdoc": {
    "kind": "dev",
    "methods": {},
    "version": 1
  },
  "userdoc": {
    "kind": "user",
    "methods": {},
    "version": 1
  }
}