{
  "contractName": "MarketInfoFacet",
  "abi": [
    {
      "inputs": [
        {
          "internalType": "address",
          "name": "_user",
          "type": "address"
        }
      ],
      "name": "getUserOrders",
      "outputs": [
        {
          "components": [
            {
              "internalType": "uint256",
              "name": "id",
              "type": "uint256"
            },
            {
              "internalType": "bytes32",
              "name": "code",
              "type": "bytes32"
            },
            {
              "internalType": "string",
              "name": "description",
              "type": "string"
            },
            {
              "internalType": "address",
              "name": "owner",
              "type": "address"
            },
            {
              "internalType": "uint256",
              "name": "created",
              "type": "uint256"
            },
            {
              "internalType": "address",
              "name": "currency",
              "type": "address"
            },
            {
              "internalType": "uint256",
              "name": "amount",
              "type": "uint256"
            },
            {
              "internalType": "uint256",
              "name": "totalRemainingForSell",
              "type": "uint256"
            },
            {
              "internalType": "uint256",
              "name": "price",
              "type": "uint256"
            },
            {
              "internalType": "enum LibDiamond.OrderStatus",
              "name": "status",
              "type": "uint8"
            },
            {
              "internalType": "uint256",
              "name": "itemCount",
              "type": "uint256"
            },
            {
              "internalType": "uint256",
              "name": "sellPeriod",
              "type": "uint256"
            }
          ],
          "internalType": "struct LibDiamond.SaleOrder[]",
          "name": "saleOrders_",
          "type": "tuple[]"
        }
      ],
      "stateMutability": "view",
      "type": "function",
      "constant": true
    },
    {
      "inputs": [
        {
          "internalType": "uint256",
          "name": "_orderId",
          "type": "uint256"
        }
      ],
      "name": "getOrderItems",
      "outputs": [
        {
          "components": [
            {
              "internalType": "uint256",
              "name": "id",
              "type": "uint256"
            },
            {
              "internalType": "bytes32",
              "name": "code",
              "type": "bytes32"
            },
            {
              "internalType": "address",
              "name": "tokenContract",
              "type": "address"
            },
            {
              "internalType": "uint256",
              "name": "tokenId",
              "type": "uint256"
            },
            {
              "internalType": "uint256",
              "name": "amount",
              "type": "uint256"
            },
            {
              "internalType": "uint256",
              "name": "price",
              "type": "uint256"
            },
            {
              "internalType": "uint256",
              "name": "orderId",
              "type": "uint256"
            }
          ],
          "internalType": "struct LibDiamond.SaleItem[]",
          "name": "saleItems_",
          "type": "tuple[]"
        }
      ],
      "stateMutability": "view",
      "type": "function",
      "constant": true
    },
    {
      "inputs": [
        {
          "internalType": "uint256",
          "name": "_orderId",
          "type": "uint256"
        }
      ],
      "name": "getOrderById",
      "outputs": [
        {
          "components": [
            {
              "internalType": "uint256",
              "name": "id",
              "type": "uint256"
            },
            {
              "internalType": "bytes32",
              "name": "code",
              "type": "bytes32"
            },
            {
              "internalType": "string",
              "name": "description",
              "type": "string"
            },
            {
              "internalType": "address",
              "name": "owner",
              "type": "address"
            },
            {
              "internalType": "uint256",
              "name": "created",
              "type": "uint256"
            },
            {
              "internalType": "address",
              "name": "currency",
              "type": "address"
            },
            {
              "internalType": "uint256",
              "name": "amount",
              "type": "uint256"
            },
            {
              "internalType": "uint256",
              "name": "totalRemainingForSell",
              "type": "uint256"
            },
            {
              "internalType": "uint256",
              "name": "price",
              "type": "uint256"
            },
            {
              "internalType": "enum LibDiamond.OrderStatus",
              "name": "status",
              "type": "uint8"
            },
            {
              "internalType": "uint256",
              "name": "itemCount",
              "type": "uint256"
            },
            {
              "internalType": "uint256",
              "name": "sellPeriod",
              "type": "uint256"
            }
          ],
          "internalType": "struct LibDiamond.SaleOrder",
          "name": "",
          "type": "tuple"
        }
      ],
      "stateMutability": "view",
      "type": "function",
      "constant": true
    },
    {
      "inputs": [
        {
          "internalType": "bytes32",
          "name": "_code",
          "type": "bytes32"
        }
      ],
      "name": "getOrderIdByCode",
      "outputs": [
        {
          "internalType": "uint256",
          "name": "",
          "type": "uint256"
        }
      ],
      "stateMutability": "view",
      "type": "function",
      "constant": true
    },
    {
      "inputs": [],
      "name": "getOrderLength",
      "outputs": [
        {
          "internalType": "uint256",
          "name": "",
          "type": "uint256"
        }
      ],
      "stateMutability": "view",
      "type": "function",
      "constant": true
    },
    {
      "inputs": [
        {
          "internalType": "bytes32",
          "name": "_code",
          "type": "bytes32"
        }
      ],
      "name": "getItemByCode",
      "outputs": [
        {
          "components": [
            {
              "internalType": "uint256",
              "name": "id",
              "type": "uint256"
            },
            {
              "internalType": "bytes32",
              "name": "code",
              "type": "bytes32"
            },
            {
              "internalType": "address",
              "name": "tokenContract",
              "type": "address"
            },
            {
              "internalType": "uint256",
              "name": "tokenId",
              "type": "uint256"
            },
            {
              "internalType": "uint256",
              "name": "amount",
              "type": "uint256"
            },
            {
              "internalType": "uint256",
              "name": "price",
              "type": "uint256"
            },
            {
              "internalType": "uint256",
              "name": "orderId",
              "type": "uint256"
            }
          ],
          "internalType": "struct LibDiamond.SaleItem",
          "name": "",
          "type": "tuple"
        }
      ],
      "stateMutability": "view",
      "type": "function",
      "constant": true
    },
    {
      "inputs": [
        {
          "internalType": "bytes32",
          "name": "_code",
          "type": "bytes32"
        }
      ],
      "name": "_getItemIdByCode",
      "outputs": [
        {
          "internalType": "uint256",
          "name": "",
          "type": "uint256"
        }
      ],
      "stateMutability": "view",
      "type": "function",
      "constant": true
    },
    {
      "inputs": [],
      "name": "getItemLength",
      "outputs": [
        {
          "internalType": "uint256",
          "name": "",
          "type": "uint256"
        }
      ],
      "stateMutability": "view",
      "type": "function",
      "constant": true
    },
    {
      "inputs": [
        {
          "internalType": "bytes32",
          "name": "_orderCode",
          "type": "bytes32"
        }
      ],
      "name": "orderIsReadyForSellByCode",
      "outputs": [
        {
          "internalType": "bool",
          "name": "",
          "type": "bool"
        }
      ],
      "stateMutability": "nonpayable",
      "type": "function"
    },
    {
      "inputs": [
        {
          "internalType": "uint256",
          "name": "_orderId",
          "type": "uint256"
        }
      ],
      "name": "orderIsReadyForSell",
      "outputs": [
        {
          "internalType": "bool",
          "name": "",
          "type": "bool"
        }
      ],
      "stateMutability": "nonpayable",
      "type": "function"
    },
    {
      "inputs": [
        {
          "internalType": "address",
          "name": "_user",
          "type": "address"
        }
      ],
      "name": "getUserOrderOnSell",
      "outputs": [
        {
          "components": [
            {
              "internalType": "uint256",
              "name": "id",
              "type": "uint256"
            },
            {
              "internalType": "bytes32",
              "name": "code",
              "type": "bytes32"
            },
            {
              "internalType": "string",
              "name": "description",
              "type": "string"
            },
            {
              "internalType": "address",
              "name": "owner",
              "type": "address"
            },
            {
              "internalType": "uint256",
              "name": "created",
              "type": "uint256"
            },
            {
              "internalType": "address",
              "name": "currency",
              "type": "address"
            },
            {
              "internalType": "uint256",
              "name": "amount",
              "type": "uint256"
            },
            {
              "internalType": "uint256",
              "name": "totalRemainingForSell",
              "type": "uint256"
            },
            {
              "internalType": "uint256",
              "name": "price",
              "type": "uint256"
            },
            {
              "internalType": "enum LibDiamond.OrderStatus",
              "name": "status",
              "type": "uint8"
            },
            {
              "internalType": "uint256",
              "name": "itemCount",
              "type": "uint256"
            },
            {
              "internalType": "uint256",
              "name": "sellPeriod",
              "type": "uint256"
            }
          ],
          "internalType": "struct LibDiamond.SaleOrder[]",
          "name": "ordersReturn_",
          "type": "tuple[]"
        }
      ],
      "stateMutability": "view",
      "type": "function",
      "constant": true
    },
    {
      "inputs": [
        {
          "internalType": "address",
          "name": "_user",
          "type": "address"
        }
      ],
      "name": "getUserItems",
      "outputs": [
        {
          "internalType": "uint256[]",
          "name": "",
          "type": "uint256[]"
        }
      ],
      "stateMutability": "view",
      "type": "function",
      "constant": true
    },
    {
      "inputs": [
        {
          "internalType": "address",
          "name": "_user",
          "type": "address"
        }
      ],
      "name": "getUserOrderIdSoldOut",
      "outputs": [
        {
          "internalType": "uint256[]",
          "name": "",
          "type": "uint256[]"
        }
      ],
      "stateMutability": "view",
      "type": "function",
      "constant": true
    },
    {
      "inputs": [
        {
          "internalType": "address",
          "name": "_user",
          "type": "address"
        }
      ],
      "name": "getUserOrderSoldOut",
      "outputs": [
        {
          "components": [
            {
              "internalType": "uint256",
              "name": "id",
              "type": "uint256"
            },
            {
              "internalType": "bytes32",
              "name": "code",
              "type": "bytes32"
            },
            {
              "internalType": "string",
              "name": "description",
              "type": "string"
            },
            {
              "internalType": "address",
              "name": "owner",
              "type": "address"
            },
            {
              "internalType": "uint256",
              "name": "created",
              "type": "uint256"
            },
            {
              "internalType": "address",
              "name": "currency",
              "type": "address"
            },
            {
              "internalType": "uint256",
              "name": "amount",
              "type": "uint256"
            },
            {
              "internalType": "uint256",
              "name": "totalRemainingForSell",
              "type": "uint256"
            },
            {
              "internalType": "uint256",
              "name": "price",
              "type": "uint256"
            },
            {
              "internalType": "enum LibDiamond.OrderStatus",
              "name": "status",
              "type": "uint8"
            },
            {
              "internalType": "uint256",
              "name": "itemCount",
              "type": "uint256"
            },
            {
              "internalType": "uint256",
              "name": "sellPeriod",
              "type": "uint256"
            }
          ],
          "internalType": "struct LibDiamond.SaleOrder[]",
          "name": "ordersReturn_",
          "type": "tuple[]"
        }
      ],
      "stateMutability": "view",
      "type": "function",
      "constant": true
    },
    {
      "inputs": [
        {
          "internalType": "address",
          "name": "_user",
          "type": "address"
        }
      ],
      "name": "getUserOrderIdOnSell",
      "outputs": [
        {
          "internalType": "uint256[]",
          "name": "",
          "type": "uint256[]"
        }
      ],
      "stateMutability": "view",
      "type": "function",
      "constant": true
    }
  ],
  "bytecode": "0x608060405234801561001057600080fd5b5061211b806100206000396000f3fe608060405234801561001057600080fd5b50600436106100f55760003560e01c80639d4971b711610097578063ce6019b411610066578063ce6019b4146102e6578063e94b1bc414610316578063f6d7abc114610346578063fb13e2eb14610376576100f5565b80639d4971b714610238578063b4a655d414610256578063b783ab5014610286578063c89cad5c146102b6576100f5565b80634362bca5116100d35780634362bca51461018a5780635b916cc5146101a857806363c69f08146101d8578063816ffe6614610208576100f5565b806315e482e3146100fa5780632f866c141461012a57806342b50a7a1461015a575b600080fd5b610114600480360381019061010f9190611396565b6103a6565b6040516101219190611ad3565b60405180910390f35b610144600480360381019061013f9190611396565b610433565b6040516101519190611ad3565b60405180910390f35b610174600480360381019061016f91906113f0565b6104c0565b6040516101819190611c5b565b60405180910390f35b6101926106ad565b60405161019f9190611c7d565b60405180910390f35b6101c260048036038101906101bd9190611396565b6106bc565b6040516101cf9190611ab1565b60405180910390f35b6101f260048036038101906101ed9190611396565b610789565b6040516101ff9190611ab1565b60405180910390f35b610222600480360381019061021d91906113f0565b61079b565b60405161022f9190611af5565b60405180910390f35b610240610984565b60405161024d9190611c7d565b60405180910390f35b610270600480360381019061026b91906113c3565b610993565b60405161027d9190611c40565b60405180910390f35b6102a0600480360381019061029b91906113c3565b610a48565b6040516102ad9190611af5565b60405180910390f35b6102d060048036038101906102cb91906113c3565b610a67565b6040516102dd9190611c7d565b60405180910390f35b61030060048036038101906102fb9190611396565b610a79565b60405161030d9190611ad3565b60405180910390f35b610330600480360381019061032b91906113c3565b610b06565b60405161033d9190611c7d565b60405180910390f35b610360600480360381019061035b9190611396565b610b18565b60405161036d9190611ab1565b60405180910390f35b610390600480360381019061038b91906113f0565b610be5565b60405161039d9190611a8f565b60405180910390f35b60606000826040516020016103bb9190611b4c565b6040516020818303038152906040528051906020012090506103dc81610bf7565b80548060200260200160405190810160405280929190818152602001828054801561042657602002820191906000526020600020905b815481526020019060010190808311610412575b5050505050915050919050565b60606000826040516020016104489190611c12565b60405160208183030381529060405280519060200120905061046981610bf7565b8054806020026020016040519081016040528092919081815260200182805480156104b357602002820191906000526020600020905b81548152602001906001019080831161049f575b5050505050915050919050565b6104c861124a565b6104d182610c21565b60405180610180016040529081600082015481526020016001820154815260200160028201805461050190611e1a565b80601f016020809104026020016040519081016040528092919081815260200182805461052d90611e1a565b801561057a5780601f1061054f5761010080835404028352916020019161057a565b820191906000526020600020905b81548152906001019060200180831161055d57829003601f168201915b505050505081526020016003820160009054906101000a900473ffffffffffffffffffffffffffffffffffffffff1673ffffffffffffffffffffffffffffffffffffffff1673ffffffffffffffffffffffffffffffffffffffff168152602001600482015481526020016005820160009054906101000a900473ffffffffffffffffffffffffffffffffffffffff1673ffffffffffffffffffffffffffffffffffffffff1673ffffffffffffffffffffffffffffffffffffffff1681526020016006820154815260200160078201548152602001600882015481526020016009820160009054906101000a900460ff16600381111561067c5761067b611ec4565b5b600381111561068e5761068d611ec4565b5b8152602001600a8201548152602001600b820154815250509050919050565b60006106b7610c5a565b905090565b606060006106c983610433565b9050805167ffffffffffffffff8111156106e6576106e5611f51565b5b60405190808252806020026020018201604052801561071f57816020015b61070c61124a565b8152602001906001900390816107045790505b50915060005b81518110156107825761075182828151811061074457610743611f22565b5b60200260200101516104c0565b83828151811061076457610763611f22565b5b6020026020010181905250808061077a90611e4c565b915050610725565b5050919050565b606061079482610c72565b9050919050565b6000806107a7836104c0565b9050600060038111156107bd576107bc611ec4565b5b81610120015160038111156107d5576107d4611ec4565b5b146107e457600091505061097f565b8061016001514211156107fb57600091505061097f565b60005b81610140015181101561097857600061081682610f31565b6040518060e001604052908160008201548152602001600182015481526020016002820160009054906101000a900473ffffffffffffffffffffffffffffffffffffffff1673ffffffffffffffffffffffffffffffffffffffff1673ffffffffffffffffffffffffffffffffffffffff16815260200160038201548152602001600482015481526020016005820154815260200160068201548152505090508060800151816040015173ffffffffffffffffffffffffffffffffffffffff1662fdd58e856060015184606001516040518363ffffffff1660e01b8152600401610900929190611a66565b602060405180830381600087803b15801561091a57600080fd5b505af115801561092e573d6000803e3d6000fd5b505050506040513d601f19601f82011682018060405250810190610952919061141d565b1015610964576000935050505061097f565b50808061097090611e4c565b9150506107fe565b5060019150505b919050565b600061098e610f5b565b905090565b61099b6112ec565b6109a482610f76565b6040518060e001604052908160008201548152602001600182015481526020016002820160009054906101000a900473ffffffffffffffffffffffffffffffffffffffff1673ffffffffffffffffffffffffffffffffffffffff1673ffffffffffffffffffffffffffffffffffffffff1681526020016003820154815260200160048201548152602001600582015481526020016006820154815250509050919050565b600080610a5483610b06565b9050610a5f8161079b565b915050919050565b6000610a7282610fbb565b9050919050565b6060600082604051602001610a8e9190611b4c565b604051602081830303815290604052805190602001209050610aaf81610bf7565b805480602002602001604051908101604052809291908181526020018280548015610af957602002820191906000526020600020905b815481526020019060010190808311610ae5575b5050505050915050919050565b6000610b1182610ff3565b9050919050565b60606000610b25836103a6565b9050805167ffffffffffffffff811115610b4257610b41611f51565b5b604051908082528060200260200182016040528015610b7b57816020015b610b6861124a565b815260200190600190039081610b605790505b50915060005b8151811015610bde57610bad828281518110610ba057610b9f611f22565b5b60200260200101516104c0565b838281518110610bc057610bbf611f22565b5b60200260200101819052508080610bd690611e4c565b915050610b81565b5050919050565b6060610bf08261102b565b9050919050565b600080610c026111f2565b9050806008016000848152602001908152602001600020915050919050565b600080610c2c6111f2565b905080600a018381548110610c4457610c43611f22565b5b90600052602060002090600c0201915050919050565b600080610c656111f2565b905080600e015491505090565b60606000610c7e6111f2565b9050600081600b0160008573ffffffffffffffffffffffffffffffffffffffff1673ffffffffffffffffffffffffffffffffffffffff16815260200190815260200160002054905060005b81811015610f295760008582604051602001610ce6929190611b7a565b604051602081830303815290604052805190602001209050600084600c016000838152602001908152602001600020549050610d2181610c21565b604051806101800160405290816000820154815260200160018201548152602001600282018054610d5190611e1a565b80601f0160208091040260200160405190810160405280929190818152602001828054610d7d90611e1a565b8015610dca5780601f10610d9f57610100808354040283529160200191610dca565b820191906000526020600020905b815481529060010190602001808311610dad57829003601f168201915b505050505081526020016003820160009054906101000a900473ffffffffffffffffffffffffffffffffffffffff1673ffffffffffffffffffffffffffffffffffffffff1673ffffffffffffffffffffffffffffffffffffffff168152602001600482015481526020016005820160009054906101000a900473ffffffffffffffffffffffffffffffffffffffff1673ffffffffffffffffffffffffffffffffffffffff1673ffffffffffffffffffffffffffffffffffffffff1681526020016006820154815260200160078201548152602001600882015481526020016009820160009054906101000a900460ff166003811115610ecc57610ecb611ec4565b5b6003811115610ede57610edd611ec4565b5b8152602001600a8201548152602001600b82015481525050868481518110610f0957610f08611f22565b5b602002602001018190525050508080610f2190611e4c565b915050610cc9565b505050919050565b600080610f3c6111f2565b9050806009016000848152602001908152602001600020915050919050565b600080610f666111f2565b905080600a018054905091505090565b600080610fa883604051602001610f8d9190611be4565b6040516020818303038152906040528051906020012061121f565b9050610fb381610f31565b915050919050565b6000610fec82604051602001610fd19190611be4565b6040516020818303038152906040528051906020012061121f565b9050919050565b6000611024826040516020016110099190611bb6565b6040516020818303038152906040528051906020012061121f565b9050919050565b606060006110376111f2565b9050600081600a01848154811061105157611050611f22565b5b90600052602060002090600c0201905080600a015467ffffffffffffffff81111561107f5761107e611f51565b5b6040519080825280602002602001820160405280156110b857816020015b6110a56112ec565b81526020019060019003908161109d5790505b50925060005b81600a01548110156111ea57600085826040516020016110df929190611b10565b604051602081830303815290604052805190602001209050600084600d01600083815260200190815260200160002054905061111a81610f31565b6040518060e001604052908160008201548152602001600182015481526020016002820160009054906101000a900473ffffffffffffffffffffffffffffffffffffffff1673ffffffffffffffffffffffffffffffffffffffff1673ffffffffffffffffffffffffffffffffffffffff1681526020016003820154815260200160048201548152602001600582015481526020016006820154815250508684815181106111ca576111c9611f22565b5b6020026020010181905250505080806111e290611e4c565b9150506110be565b505050919050565b6000807fc8fcad8db84d3cc18b4c41d551ea0ee66dd599cde068d998e57d5e09332c131c90508091505090565b60008061122a6111f2565b905080600401600084815260200190815260200160002054915050919050565b604051806101800160405280600081526020016000801916815260200160608152602001600073ffffffffffffffffffffffffffffffffffffffff16815260200160008152602001600073ffffffffffffffffffffffffffffffffffffffff168152602001600081526020016000815260200160008152602001600060038111156112d8576112d7611ec4565b5b815260200160008152602001600081525090565b6040518060e001604052806000815260200160008019168152602001600073ffffffffffffffffffffffffffffffffffffffff168152602001600081526020016000815260200160008152602001600081525090565b600081359050611351816120a0565b92915050565b600081359050611366816120b7565b92915050565b60008135905061137b816120ce565b92915050565b600081519050611390816120ce565b92915050565b6000602082840312156113ac576113ab611f80565b5b60006113ba84828501611342565b91505092915050565b6000602082840312156113d9576113d8611f80565b5b60006113e784828501611357565b91505092915050565b60006020828403121561140657611405611f80565b5b60006114148482850161136c565b91505092915050565b60006020828403121561143357611432611f80565b5b600061144184828501611381565b91505092915050565b60006114568383611724565b60e08301905092915050565b600061146e8383611840565b905092915050565b60006114828383611a48565b60208301905092915050565b61149781611d70565b82525050565b6114a681611d70565b82525050565b60006114b782611cc8565b6114c18185611d1b565b93506114cc83611c98565b8060005b838110156114fd5781516114e4888261144a565b97506114ef83611cf4565b9250506001810190506114d0565b5085935050505092915050565b600061151582611cd3565b61151f8185611d2c565b93508360208202850161153185611ca8565b8060005b8581101561156d578484038952815161154e8582611462565b945061155983611d01565b925060208a01995050600181019050611535565b50829750879550505050505092915050565b600061158a82611cde565b6115948185611d3d565b935061159f83611cb8565b8060005b838110156115d05781516115b78882611476565b97506115c283611d0e565b9250506001810190506115a3565b5085935050505092915050565b6115e681611d82565b82525050565b6115f581611d8e565b82525050565b61160481611d8e565b82525050565b61161381611dd5565b82525050565b600061162482611ce9565b61162e8185611d4e565b935061163e818560208601611de7565b61164781611f85565b840191505092915050565b600061165f600a83611d5f565b915061166a82611f96565b602082019050919050565b6000611682601583611d5f565b915061168d82611fbf565b602082019050919050565b60006116a5600a83611d5f565b91506116b082611fe8565b602082019050919050565b60006116c8601083611d5f565b91506116d382612011565b602082019050919050565b60006116eb600c83611d5f565b91506116f68261203a565b602082019050919050565b600061170e601683611d5f565b915061171982612063565b602082019050919050565b60e08201600082015161173a6000850182611a48565b50602082015161174d60208501826115ec565b506040820151611760604085018261148e565b5060608201516117736060850182611a48565b5060808201516117866080850182611a48565b5060a082015161179960a0850182611a48565b5060c08201516117ac60c0850182611a48565b50505050565b60e0820160008201516117c86000850182611a48565b5060208201516117db60208501826115ec565b5060408201516117ee604085018261148e565b5060608201516118016060850182611a48565b5060808201516118146080850182611a48565b5060a082015161182760a0850182611a48565b5060c082015161183a60c0850182611a48565b50505050565b6000610180830160008301516118596000860182611a48565b50602083015161186c60208601826115ec565b50604083015184820360408601526118848282611619565b9150506060830151611899606086018261148e565b5060808301516118ac6080860182611a48565b5060a08301516118bf60a086018261148e565b5060c08301516118d260c0860182611a48565b5060e08301516118e560e0860182611a48565b506101008301516118fa610100860182611a48565b5061012083015161190f61012086018261160a565b50610140830151611924610140860182611a48565b50610160830151611939610160860182611a48565b508091505092915050565b60006101808301600083015161195d6000860182611a48565b50602083015161197060208601826115ec565b50604083015184820360408601526119888282611619565b915050606083015161199d606086018261148e565b5060808301516119b06080860182611a48565b5060a08301516119c360a086018261148e565b5060c08301516119d660c0860182611a48565b5060e08301516119e960e0860182611a48565b506101008301516119fe610100860182611a48565b50610120830151611a1361012086018261160a565b50610140830151611a28610140860182611a48565b50610160830151611a3d610160860182611a48565b508091505092915050565b611a5181611dcb565b82525050565b611a6081611dcb565b82525050565b6000604082019050611a7b600083018561149d565b611a886020830184611a57565b9392505050565b60006020820190508181036000830152611aa981846114ac565b905092915050565b60006020820190508181036000830152611acb818461150a565b905092915050565b60006020820190508181036000830152611aed818461157f565b905092915050565b6000602082019050611b0a60008301846115dd565b92915050565b60006060820190508181036000830152611b2981611652565b9050611b386020830185611a57565b611b456040830184611a57565b9392505050565b60006040820190508181036000830152611b6581611675565b9050611b74602083018461149d565b92915050565b60006060820190508181036000830152611b9381611698565b9050611ba2602083018561149d565b611baf6040830184611a57565b9392505050565b60006040820190508181036000830152611bcf816116bb565b9050611bde60208301846115fb565b92915050565b60006040820190508181036000830152611bfd816116de565b9050611c0c60208301846115fb565b92915050565b60006040820190508181036000830152611c2b81611701565b9050611c3a602083018461149d565b92915050565b600060e082019050611c5560008301846117b2565b92915050565b60006020820190508181036000830152611c758184611944565b905092915050565b6000602082019050611c926000830184611a57565b92915050565b6000819050602082019050919050565b6000819050602082019050919050565b6000819050602082019050919050565b600081519050919050565b600081519050919050565b600081519050919050565b600081519050919050565b6000602082019050919050565b6000602082019050919050565b6000602082019050919050565b600082825260208201905092915050565b600082825260208201905092915050565b600082825260208201905092915050565b600082825260208201905092915050565b600082825260208201905092915050565b6000611d7b82611dab565b9050919050565b60008115159050919050565b6000819050919050565b6000819050611da68261208c565b919050565b600073ffffffffffffffffffffffffffffffffffffffff82169050919050565b6000819050919050565b6000611de082611d98565b9050919050565b60005b83811015611e05578082015181840152602081019050611dea565b83811115611e14576000848401525b50505050565b60006002820490506001821680611e3257607f821691505b60208210811415611e4657611e45611ef3565b5b50919050565b6000611e5782611dcb565b91507fffffffffffffffffffffffffffffffffffffffffffffffffffffffffffffffff821415611e8a57611e89611e95565b5b600182019050919050565b7f4e487b7100000000000000000000000000000000000000000000000000000000600052601160045260246000fd5b7f4e487b7100000000000000000000000000000000000000000000000000000000600052602160045260246000fd5b7f4e487b7100000000000000000000000000000000000000000000000000000000600052602260045260246000fd5b7f4e487b7100000000000000000000000000000000000000000000000000000000600052603260045260246000fd5b7f4e487b7100000000000000000000000000000000000000000000000000000000600052604160045260246000fd5b600080fd5b6000601f19601f8301169050919050565b7f4f524445522e4954454d00000000000000000000000000000000000000000000600082015250565b7f555345522e4f524445522e4944532e4f4e53454c4c0000000000000000000000600082015250565b7f555345522e4f5244455200000000000000000000000000000000000000000000600082015250565b7f4f524445522e49442e42592e434f444500000000000000000000000000000000600082015250565b7f4974656d49644279436f64650000000000000000000000000000000000000000600082015250565b7f555345522e4f524445522e4944532e534f4c444f555400000000000000000000600082015250565b6004811061209d5761209c611ec4565b5b50565b6120a981611d70565b81146120b457600080fd5b50565b6120c081611d8e565b81146120cb57600080fd5b50565b6120d781611dcb565b81146120e257600080fd5b5056fea2646970667358221220b0fd3086a81c6fcdb171142bcea1192cd8e91ebbf11db8dc0fa6218f51b4bd7664736f6c63430008070033",
  "immutableReferences": {},
  "source": "pragma solidity ^0.8.0;\n\nimport { LibDiamond } from \"../libraries/LibDiamond.sol\";\nimport { LibCurrency } from \"../libraries/LibCurrency.sol\";\nimport { LibSaleOrder } from \"../libraries/LibSaleOrder.sol\";\nimport { LibItem } from \"../libraries/LibItem.sol\";\nimport \"../utils/math/SafeMath.sol\";\nimport \"../interfaces/ISellerFacet.sol\";\nimport \"../interfaces/IERC1155.sol\";\n\ncontract MarketInfoFacet {\n\n    function getUserOrders(address _user) external view returns(LibDiamond.SaleOrder[] memory saleOrders_) {\n        return LibSaleOrder._getUserOrders(_user);\n    }\n\n    function getOrderItems(uint256 _orderId) external view returns (LibDiamond.SaleItem[] memory saleItems_) {\n        return LibItem._getItemByOrderId(_orderId);\n    }\n    \n    function getOrderById(uint256 _orderId) public view returns(LibDiamond.SaleOrder memory){\n        return LibSaleOrder._getOrder(_orderId);\n    }\n\n    function getOrderIdByCode(bytes32 _code) public view returns(uint256){\n        return LibSaleOrder._getOrderIdByCode(_code);\n    }\n\n    function getOrderLength() external view returns(uint256){\n        return LibSaleOrder._getOrderCount();\n    }\n\n    function getItemByCode(bytes32 _code) external view returns(LibDiamond.SaleItem memory){\n        return LibItem._getItemByCode(_code);\n    }\n\n    function _getItemIdByCode(bytes32 _code) external view returns(uint256){\n        return LibItem._getItemIdByCode(_code);\n    }\n\n    function getItemLength() external view returns(uint256){\n        return LibItem._getItemCount();\n    }\n\n    function orderIsReadyForSellByCode(bytes32 _orderCode) external returns(bool){\n        uint256 _orderId = getOrderIdByCode(_orderCode);\n        return orderIsReadyForSell(_orderId);\n    }\n    \n    function orderIsReadyForSell(uint256 _orderId) public returns(bool){\n        LibDiamond.SaleOrder memory _order = getOrderById(_orderId);\n        if(_order.status != LibDiamond.OrderStatus.OnSell){\n            return false;\n        }\n        if(block.timestamp > _order.sellPeriod){\n            return false;\n        }\n        for(uint256 _itemId = 0 ; _itemId < _order.itemCount ; _itemId++){\n            LibDiamond.SaleItem memory _item = LibItem._getItem(_itemId);\n            if(IERC1155(_item.tokenContract).balanceOf(_order.owner, _item.tokenId) < _item.amount){\n                return false;\n            }\n        }\n        return true;\n    }\n\n    function getUserOrderOnSell (address _user) public view returns(LibDiamond.SaleOrder[] memory ordersReturn_){\n        uint256[] memory _orderIds = getUserOrderIdOnSell(_user);\n        ordersReturn_ = new LibDiamond.SaleOrder[](_orderIds.length);\n        for(uint256 _index = 0 ; _index < _orderIds.length ; _index ++){\n            ordersReturn_[_index] = getOrderById(_orderIds[_index]);\n        }\n        return ordersReturn_;\n    }\n\n    function getUserItems (address _user) public view returns(uint256[] memory){\n        bytes32 _keyUserOrdersOnSell = keccak256(abi.encode(\"USER.ORDER.IDS.ONSELL\",_user));\n        return LibDiamond.getArrayUint(_keyUserOrdersOnSell);\n    }\n  \n    function getUserOrderIdSoldOut (address _user) public view returns(uint256[] memory){\n        bytes32 _keyUserOrdersSoldOut = keccak256(abi.encode(\"USER.ORDER.IDS.SOLDOUT\",_user));\n        return LibDiamond.getArrayUint(_keyUserOrdersSoldOut);\n    }\n \n    function getUserOrderSoldOut (address _user) public view returns(LibDiamond.SaleOrder[] memory ordersReturn_){\n        uint256[] memory _orderIds = getUserOrderIdSoldOut(_user);\n        ordersReturn_ = new LibDiamond.SaleOrder[](_orderIds.length);\n        for(uint256 _index = 0 ; _index < _orderIds.length ; _index ++){\n            ordersReturn_[_index] = getOrderById(_orderIds[_index]);\n        }\n        return ordersReturn_;\n    }\n\n    function getUserOrderIdOnSell (address _user) public view returns(uint256[] memory){\n        bytes32 _keyUserOrdersOnSell = keccak256(abi.encode(\"USER.ORDER.IDS.ONSELL\",_user));\n        return LibDiamond.getArrayUint(_keyUserOrdersOnSell);\n    }\n}\n",
  "sourcePath": "/Users/kanthakarn/Documents/work/six-network/new/nft-marketplace/contracts/facets/MarketInfoFacet.sol",
  "compiler": {
    "name": "solc",
    "version": "0.8.7+commit.e28d00a7.Emscripten.clang"
  },
  "schemaVersion": "3.4.1",
  "updatedAt": "2021-12-02T05:02:33.874Z",
  "networkType": "ethereum",
  "devdoc": {
    "kind": "dev",
    "methods": {},
    "version": 1
  },
  "userdoc": {
    "kind": "user",
    "methods": {},
    "version": 1
  }
}