{
  "contractName": "MarketInfoFacet",
  "abi": [
    {
      "inputs": [
        {
          "internalType": "address",
          "name": "_user",
          "type": "address"
        }
      ],
      "name": "getUserOrders",
      "outputs": [
        {
          "components": [
            {
              "internalType": "uint256",
              "name": "id",
              "type": "uint256"
            },
            {
              "internalType": "bytes32",
              "name": "code",
              "type": "bytes32"
            },
            {
              "internalType": "string",
              "name": "description",
              "type": "string"
            },
            {
              "internalType": "address",
              "name": "owner",
              "type": "address"
            },
            {
              "internalType": "uint256",
              "name": "created",
              "type": "uint256"
            },
            {
              "internalType": "address",
              "name": "currency",
              "type": "address"
            },
            {
              "internalType": "uint256",
              "name": "amount",
              "type": "uint256"
            },
            {
              "internalType": "uint256",
              "name": "totalRemainingForSell",
              "type": "uint256"
            },
            {
              "internalType": "uint256",
              "name": "price",
              "type": "uint256"
            },
            {
              "internalType": "enum LibDiamond.OrderStatus",
              "name": "status",
              "type": "uint8"
            },
            {
              "internalType": "uint256",
              "name": "itemCount",
              "type": "uint256"
            }
          ],
          "internalType": "struct LibDiamond.SaleOrder[]",
          "name": "saleOrders_",
          "type": "tuple[]"
        }
      ],
      "stateMutability": "view",
      "type": "function",
      "constant": true
    },
    {
      "inputs": [
        {
          "internalType": "uint256",
          "name": "_orderId",
          "type": "uint256"
        }
      ],
      "name": "getOrderItems",
      "outputs": [
        {
          "components": [
            {
              "internalType": "uint256",
              "name": "id",
              "type": "uint256"
            },
            {
              "internalType": "bytes32",
              "name": "code",
              "type": "bytes32"
            },
            {
              "internalType": "address",
              "name": "tokenContract",
              "type": "address"
            },
            {
              "internalType": "uint256",
              "name": "tokenId",
              "type": "uint256"
            },
            {
              "internalType": "uint256",
              "name": "amount",
              "type": "uint256"
            },
            {
              "internalType": "uint256",
              "name": "price",
              "type": "uint256"
            },
            {
              "internalType": "uint256",
              "name": "orderId",
              "type": "uint256"
            }
          ],
          "internalType": "struct LibDiamond.SaleItem[]",
          "name": "saleItems_",
          "type": "tuple[]"
        }
      ],
      "stateMutability": "view",
      "type": "function",
      "constant": true
    },
    {
      "inputs": [
        {
          "internalType": "uint256",
          "name": "_orderId",
          "type": "uint256"
        }
      ],
      "name": "getOrderById",
      "outputs": [
        {
          "components": [
            {
              "internalType": "uint256",
              "name": "id",
              "type": "uint256"
            },
            {
              "internalType": "bytes32",
              "name": "code",
              "type": "bytes32"
            },
            {
              "internalType": "string",
              "name": "description",
              "type": "string"
            },
            {
              "internalType": "address",
              "name": "owner",
              "type": "address"
            },
            {
              "internalType": "uint256",
              "name": "created",
              "type": "uint256"
            },
            {
              "internalType": "address",
              "name": "currency",
              "type": "address"
            },
            {
              "internalType": "uint256",
              "name": "amount",
              "type": "uint256"
            },
            {
              "internalType": "uint256",
              "name": "totalRemainingForSell",
              "type": "uint256"
            },
            {
              "internalType": "uint256",
              "name": "price",
              "type": "uint256"
            },
            {
              "internalType": "enum LibDiamond.OrderStatus",
              "name": "status",
              "type": "uint8"
            },
            {
              "internalType": "uint256",
              "name": "itemCount",
              "type": "uint256"
            }
          ],
          "internalType": "struct LibDiamond.SaleOrder",
          "name": "",
          "type": "tuple"
        }
      ],
      "stateMutability": "view",
      "type": "function",
      "constant": true
    },
    {
      "inputs": [
        {
          "internalType": "bytes32",
          "name": "_code",
          "type": "bytes32"
        }
      ],
      "name": "getOrderIdByCode",
      "outputs": [
        {
          "internalType": "uint256",
          "name": "",
          "type": "uint256"
        }
      ],
      "stateMutability": "view",
      "type": "function",
      "constant": true
    },
    {
      "inputs": [],
      "name": "getOrderLength",
      "outputs": [
        {
          "internalType": "uint256",
          "name": "",
          "type": "uint256"
        }
      ],
      "stateMutability": "view",
      "type": "function",
      "constant": true
    },
    {
      "inputs": [
        {
          "internalType": "bytes32",
          "name": "_code",
          "type": "bytes32"
        }
      ],
      "name": "getItemByCode",
      "outputs": [
        {
          "components": [
            {
              "internalType": "uint256",
              "name": "id",
              "type": "uint256"
            },
            {
              "internalType": "bytes32",
              "name": "code",
              "type": "bytes32"
            },
            {
              "internalType": "address",
              "name": "tokenContract",
              "type": "address"
            },
            {
              "internalType": "uint256",
              "name": "tokenId",
              "type": "uint256"
            },
            {
              "internalType": "uint256",
              "name": "amount",
              "type": "uint256"
            },
            {
              "internalType": "uint256",
              "name": "price",
              "type": "uint256"
            },
            {
              "internalType": "uint256",
              "name": "orderId",
              "type": "uint256"
            }
          ],
          "internalType": "struct LibDiamond.SaleItem",
          "name": "",
          "type": "tuple"
        }
      ],
      "stateMutability": "view",
      "type": "function",
      "constant": true
    },
    {
      "inputs": [
        {
          "internalType": "bytes32",
          "name": "_code",
          "type": "bytes32"
        }
      ],
      "name": "_getItemIdByCode",
      "outputs": [
        {
          "internalType": "uint256",
          "name": "",
          "type": "uint256"
        }
      ],
      "stateMutability": "view",
      "type": "function",
      "constant": true
    },
    {
      "inputs": [],
      "name": "getItemLength",
      "outputs": [
        {
          "internalType": "uint256",
          "name": "",
          "type": "uint256"
        }
      ],
      "stateMutability": "view",
      "type": "function",
      "constant": true
    },
    {
      "inputs": [
        {
          "internalType": "bytes32",
          "name": "_orderCode",
          "type": "bytes32"
        }
      ],
      "name": "orderIsReadyForSell",
      "outputs": [
        {
          "internalType": "bool",
          "name": "",
          "type": "bool"
        }
      ],
      "stateMutability": "nonpayable",
      "type": "function"
    },
    {
      "inputs": [
        {
          "internalType": "address",
          "name": "_user",
          "type": "address"
        }
      ],
      "name": "getUserOrderOnSell",
      "outputs": [
        {
          "components": [
            {
              "internalType": "uint256",
              "name": "id",
              "type": "uint256"
            },
            {
              "internalType": "bytes32",
              "name": "code",
              "type": "bytes32"
            },
            {
              "internalType": "string",
              "name": "description",
              "type": "string"
            },
            {
              "internalType": "address",
              "name": "owner",
              "type": "address"
            },
            {
              "internalType": "uint256",
              "name": "created",
              "type": "uint256"
            },
            {
              "internalType": "address",
              "name": "currency",
              "type": "address"
            },
            {
              "internalType": "uint256",
              "name": "amount",
              "type": "uint256"
            },
            {
              "internalType": "uint256",
              "name": "totalRemainingForSell",
              "type": "uint256"
            },
            {
              "internalType": "uint256",
              "name": "price",
              "type": "uint256"
            },
            {
              "internalType": "enum LibDiamond.OrderStatus",
              "name": "status",
              "type": "uint8"
            },
            {
              "internalType": "uint256",
              "name": "itemCount",
              "type": "uint256"
            }
          ],
          "internalType": "struct LibDiamond.SaleOrder[]",
          "name": "ordersReturn_",
          "type": "tuple[]"
        }
      ],
      "stateMutability": "view",
      "type": "function",
      "constant": true
    },
    {
      "inputs": [
        {
          "internalType": "address",
          "name": "_user",
          "type": "address"
        }
      ],
      "name": "getUserItems",
      "outputs": [
        {
          "internalType": "uint256[]",
          "name": "",
          "type": "uint256[]"
        }
      ],
      "stateMutability": "view",
      "type": "function",
      "constant": true
    },
    {
      "inputs": [
        {
          "internalType": "address",
          "name": "_user",
          "type": "address"
        }
      ],
      "name": "getUserOrderIdSoldOut",
      "outputs": [
        {
          "internalType": "uint256[]",
          "name": "",
          "type": "uint256[]"
        }
      ],
      "stateMutability": "view",
      "type": "function",
      "constant": true
    },
    {
      "inputs": [
        {
          "internalType": "address",
          "name": "_user",
          "type": "address"
        }
      ],
      "name": "getUserOrderSoldOut",
      "outputs": [
        {
          "components": [
            {
              "internalType": "uint256",
              "name": "id",
              "type": "uint256"
            },
            {
              "internalType": "bytes32",
              "name": "code",
              "type": "bytes32"
            },
            {
              "internalType": "string",
              "name": "description",
              "type": "string"
            },
            {
              "internalType": "address",
              "name": "owner",
              "type": "address"
            },
            {
              "internalType": "uint256",
              "name": "created",
              "type": "uint256"
            },
            {
              "internalType": "address",
              "name": "currency",
              "type": "address"
            },
            {
              "internalType": "uint256",
              "name": "amount",
              "type": "uint256"
            },
            {
              "internalType": "uint256",
              "name": "totalRemainingForSell",
              "type": "uint256"
            },
            {
              "internalType": "uint256",
              "name": "price",
              "type": "uint256"
            },
            {
              "internalType": "enum LibDiamond.OrderStatus",
              "name": "status",
              "type": "uint8"
            },
            {
              "internalType": "uint256",
              "name": "itemCount",
              "type": "uint256"
            }
          ],
          "internalType": "struct LibDiamond.SaleOrder[]",
          "name": "ordersReturn_",
          "type": "tuple[]"
        }
      ],
      "stateMutability": "view",
      "type": "function",
      "constant": true
    },
    {
      "inputs": [
        {
          "internalType": "address",
          "name": "_user",
          "type": "address"
        }
      ],
      "name": "getUserOrderIdOnSell",
      "outputs": [
        {
          "internalType": "uint256[]",
          "name": "",
          "type": "uint256[]"
        }
      ],
      "stateMutability": "view",
      "type": "function",
      "constant": true
    }
  ],
  "bytecode": "0x608060405234801561001057600080fd5b5061206d806100206000396000f3fe608060405234801561001057600080fd5b50600436106100ea5760003560e01c80639d4971b71161008c578063ce6019b411610066578063ce6019b4146102ab578063e94b1bc4146102db578063f6d7abc11461030b578063fb13e2eb1461033b576100ea565b80639d4971b71461022d578063b4a655d41461024b578063c89cad5c1461027b576100ea565b80634362bca5116100c85780634362bca51461017f5780634c31426b1461019d5780635b916cc5146101cd57806363c69f08146101fd576100ea565b806315e482e3146100ef5780632f866c141461011f57806342b50a7a1461014f575b600080fd5b61010960048036038101906101049190611312565b61036b565b6040516101169190611a25565b60405180910390f35b61013960048036038101906101349190611312565b6103f8565b6040516101469190611a25565b60405180910390f35b6101696004803603810190610164919061136c565b610485565b6040516101769190611bad565b60405180910390f35b610187610668565b6040516101949190611bcf565b60405180910390f35b6101b760048036038101906101b2919061133f565b610677565b6040516101c49190611a47565b60405180910390f35b6101e760048036038101906101e29190611312565b610851565b6040516101f49190611a03565b60405180910390f35b61021760048036038101906102129190611312565b61091e565b6040516102249190611a03565b60405180910390f35b610235610930565b6040516102429190611bcf565b60405180910390f35b6102656004803603810190610260919061133f565b61093f565b6040516102729190611b92565b60405180910390f35b6102956004803603810190610290919061133f565b6109f4565b6040516102a29190611bcf565b60405180910390f35b6102c560048036038101906102c09190611312565b610a06565b6040516102d29190611a25565b60405180910390f35b6102f560048036038101906102f0919061133f565b610a93565b6040516103029190611bcf565b60405180910390f35b61032560048036038101906103209190611312565b610aa5565b6040516103329190611a03565b60405180910390f35b6103556004803603810190610350919061136c565b610b72565b60405161036291906119e1565b60405180910390f35b60606000826040516020016103809190611a9e565b6040516020818303038152906040528051906020012090506103a181610b84565b8054806020026020016040519081016040528092919081815260200182805480156103eb57602002820191906000526020600020905b8154815260200190600101908083116103d7575b5050505050915050919050565b606060008260405160200161040d9190611b64565b60405160208183030381529060405280519060200120905061042e81610b84565b80548060200260200160405190810160405280929190818152602001828054801561047857602002820191906000526020600020905b815481526020019060010190808311610464575b5050505050915050919050565b61048d6111cd565b61049682610bae565b6040518061016001604052908160008201548152602001600182015481526020016002820180546104c690611d6c565b80601f01602080910402602001604051908101604052809291908181526020018280546104f290611d6c565b801561053f5780601f106105145761010080835404028352916020019161053f565b820191906000526020600020905b81548152906001019060200180831161052257829003601f168201915b505050505081526020016003820160009054906101000a900473ffffffffffffffffffffffffffffffffffffffff1673ffffffffffffffffffffffffffffffffffffffff1673ffffffffffffffffffffffffffffffffffffffff168152602001600482015481526020016005820160009054906101000a900473ffffffffffffffffffffffffffffffffffffffff1673ffffffffffffffffffffffffffffffffffffffff1673ffffffffffffffffffffffffffffffffffffffff1681526020016006820154815260200160078201548152602001600882015481526020016009820160009054906101000a900460ff16600381111561064157610640611e16565b5b600381111561065357610652611e16565b5b8152602001600a820154815250509050919050565b6000610672610be7565b905090565b60008061068b61068684610a93565b610485565b9050600060038111156106a1576106a0611e16565b5b81610120015160038111156106b9576106b8611e16565b5b146106c857600091505061084c565b60005b8161014001518110156108455760006106e382610bff565b6040518060e001604052908160008201548152602001600182015481526020016002820160009054906101000a900473ffffffffffffffffffffffffffffffffffffffff1673ffffffffffffffffffffffffffffffffffffffff1673ffffffffffffffffffffffffffffffffffffffff16815260200160038201548152602001600482015481526020016005820154815260200160068201548152505090508060800151816040015173ffffffffffffffffffffffffffffffffffffffff1662fdd58e856060015184606001516040518363ffffffff1660e01b81526004016107cd9291906119b8565b602060405180830381600087803b1580156107e757600080fd5b505af11580156107fb573d6000803e3d6000fd5b505050506040513d601f19601f8201168201806040525081019061081f9190611399565b1015610831576000935050505061084c565b50808061083d90611d9e565b9150506106cb565b5060019150505b919050565b6060600061085e836103f8565b9050805167ffffffffffffffff81111561087b5761087a611ea3565b5b6040519080825280602002602001820160405280156108b457816020015b6108a16111cd565b8152602001906001900390816108995790505b50915060005b8151811015610917576108e68282815181106108d9576108d8611e74565b5b6020026020010151610485565b8382815181106108f9576108f8611e74565b5b6020026020010181905250808061090f90611d9e565b9150506108ba565b5050919050565b606061092982610c29565b9050919050565b600061093a610ede565b905090565b610947611268565b61095082610ef9565b6040518060e001604052908160008201548152602001600182015481526020016002820160009054906101000a900473ffffffffffffffffffffffffffffffffffffffff1673ffffffffffffffffffffffffffffffffffffffff1673ffffffffffffffffffffffffffffffffffffffff1681526020016003820154815260200160048201548152602001600582015481526020016006820154815250509050919050565b60006109ff82610f3e565b9050919050565b6060600082604051602001610a1b9190611a9e565b604051602081830303815290604052805190602001209050610a3c81610b84565b805480602002602001604051908101604052809291908181526020018280548015610a8657602002820191906000526020600020905b815481526020019060010190808311610a72575b5050505050915050919050565b6000610a9e82610f76565b9050919050565b60606000610ab28361036b565b9050805167ffffffffffffffff811115610acf57610ace611ea3565b5b604051908082528060200260200182016040528015610b0857816020015b610af56111cd565b815260200190600190039081610aed5790505b50915060005b8151811015610b6b57610b3a828281518110610b2d57610b2c611e74565b5b6020026020010151610485565b838281518110610b4d57610b4c611e74565b5b60200260200101819052508080610b6390611d9e565b915050610b0e565b5050919050565b6060610b7d82610fae565b9050919050565b600080610b8f611175565b9050806008016000848152602001908152602001600020915050919050565b600080610bb9611175565b905080600a018381548110610bd157610bd0611e74565b5b90600052602060002090600b0201915050919050565b600080610bf2611175565b905080600e015491505090565b600080610c0a611175565b9050806009016000848152602001908152602001600020915050919050565b60606000610c35611175565b9050600081600b0160008573ffffffffffffffffffffffffffffffffffffffff1673ffffffffffffffffffffffffffffffffffffffff16815260200190815260200160002054905060005b81811015610ed65760008582604051602001610c9d929190611acc565b604051602081830303815290604052805190602001209050600084600c016000838152602001908152602001600020549050610cd881610bae565b604051806101600160405290816000820154815260200160018201548152602001600282018054610d0890611d6c565b80601f0160208091040260200160405190810160405280929190818152602001828054610d3490611d6c565b8015610d815780601f10610d5657610100808354040283529160200191610d81565b820191906000526020600020905b815481529060010190602001808311610d6457829003601f168201915b505050505081526020016003820160009054906101000a900473ffffffffffffffffffffffffffffffffffffffff1673ffffffffffffffffffffffffffffffffffffffff1673ffffffffffffffffffffffffffffffffffffffff168152602001600482015481526020016005820160009054906101000a900473ffffffffffffffffffffffffffffffffffffffff1673ffffffffffffffffffffffffffffffffffffffff1673ffffffffffffffffffffffffffffffffffffffff1681526020016006820154815260200160078201548152602001600882015481526020016009820160009054906101000a900460ff166003811115610e8357610e82611e16565b5b6003811115610e9557610e94611e16565b5b8152602001600a82015481525050868481518110610eb657610eb5611e74565b5b602002602001018190525050508080610ece90611d9e565b915050610c80565b505050919050565b600080610ee9611175565b905080600a018054905091505090565b600080610f2b83604051602001610f109190611b36565b604051602081830303815290604052805190602001206111a2565b9050610f3681610bff565b915050919050565b6000610f6f82604051602001610f549190611b36565b604051602081830303815290604052805190602001206111a2565b9050919050565b6000610fa782604051602001610f8c9190611b08565b604051602081830303815290604052805190602001206111a2565b9050919050565b60606000610fba611175565b9050600081600a018481548110610fd457610fd3611e74565b5b90600052602060002090600b0201905080600a015467ffffffffffffffff81111561100257611001611ea3565b5b60405190808252806020026020018201604052801561103b57816020015b611028611268565b8152602001906001900390816110205790505b50925060005b81600a015481101561116d5760008582604051602001611062929190611a62565b604051602081830303815290604052805190602001209050600084600d01600083815260200190815260200160002054905061109d81610bff565b6040518060e001604052908160008201548152602001600182015481526020016002820160009054906101000a900473ffffffffffffffffffffffffffffffffffffffff1673ffffffffffffffffffffffffffffffffffffffff1673ffffffffffffffffffffffffffffffffffffffff16815260200160038201548152602001600482015481526020016005820154815260200160068201548152505086848151811061114d5761114c611e74565b5b60200260200101819052505050808061116590611d9e565b915050611041565b505050919050565b6000807fc8fcad8db84d3cc18b4c41d551ea0ee66dd599cde068d998e57d5e09332c131c90508091505090565b6000806111ad611175565b905080600401600084815260200190815260200160002054915050919050565b604051806101600160405280600081526020016000801916815260200160608152602001600073ffffffffffffffffffffffffffffffffffffffff16815260200160008152602001600073ffffffffffffffffffffffffffffffffffffffff1681526020016000815260200160008152602001600081526020016000600381111561125b5761125a611e16565b5b8152602001600081525090565b6040518060e001604052806000815260200160008019168152602001600073ffffffffffffffffffffffffffffffffffffffff168152602001600081526020016000815260200160008152602001600081525090565b6000813590506112cd81611ff2565b92915050565b6000813590506112e281612009565b92915050565b6000813590506112f781612020565b92915050565b60008151905061130c81612020565b92915050565b60006020828403121561132857611327611ed2565b5b6000611336848285016112be565b91505092915050565b60006020828403121561135557611354611ed2565b5b6000611363848285016112d3565b91505092915050565b60006020828403121561138257611381611ed2565b5b6000611390848285016112e8565b91505092915050565b6000602082840312156113af576113ae611ed2565b5b60006113bd848285016112fd565b91505092915050565b60006113d283836116a0565b60e08301905092915050565b60006113ea83836117bc565b905092915050565b60006113fe838361199a565b60208301905092915050565b61141381611cc2565b82525050565b61142281611cc2565b82525050565b600061143382611c1a565b61143d8185611c6d565b935061144883611bea565b8060005b8381101561147957815161146088826113c6565b975061146b83611c46565b92505060018101905061144c565b5085935050505092915050565b600061149182611c25565b61149b8185611c7e565b9350836020820285016114ad85611bfa565b8060005b858110156114e957848403895281516114ca85826113de565b94506114d583611c53565b925060208a019950506001810190506114b1565b50829750879550505050505092915050565b600061150682611c30565b6115108185611c8f565b935061151b83611c0a565b8060005b8381101561154c57815161153388826113f2565b975061153e83611c60565b92505060018101905061151f565b5085935050505092915050565b61156281611cd4565b82525050565b61157181611ce0565b82525050565b61158081611ce0565b82525050565b61158f81611d27565b82525050565b60006115a082611c3b565b6115aa8185611ca0565b93506115ba818560208601611d39565b6115c381611ed7565b840191505092915050565b60006115db600a83611cb1565b91506115e682611ee8565b602082019050919050565b60006115fe601583611cb1565b915061160982611f11565b602082019050919050565b6000611621600a83611cb1565b915061162c82611f3a565b602082019050919050565b6000611644601083611cb1565b915061164f82611f63565b602082019050919050565b6000611667600c83611cb1565b915061167282611f8c565b602082019050919050565b600061168a601683611cb1565b915061169582611fb5565b602082019050919050565b60e0820160008201516116b6600085018261199a565b5060208201516116c96020850182611568565b5060408201516116dc604085018261140a565b5060608201516116ef606085018261199a565b506080820151611702608085018261199a565b5060a082015161171560a085018261199a565b5060c082015161172860c085018261199a565b50505050565b60e082016000820151611744600085018261199a565b5060208201516117576020850182611568565b50604082015161176a604085018261140a565b50606082015161177d606085018261199a565b506080820151611790608085018261199a565b5060a08201516117a360a085018261199a565b5060c08201516117b660c085018261199a565b50505050565b6000610160830160008301516117d5600086018261199a565b5060208301516117e86020860182611568565b50604083015184820360408601526118008282611595565b9150506060830151611815606086018261140a565b506080830151611828608086018261199a565b5060a083015161183b60a086018261140a565b5060c083015161184e60c086018261199a565b5060e083015161186160e086018261199a565b5061010083015161187661010086018261199a565b5061012083015161188b610120860182611586565b506101408301516118a061014086018261199a565b508091505092915050565b6000610160830160008301516118c4600086018261199a565b5060208301516118d76020860182611568565b50604083015184820360408601526118ef8282611595565b9150506060830151611904606086018261140a565b506080830151611917608086018261199a565b5060a083015161192a60a086018261140a565b5060c083015161193d60c086018261199a565b5060e083015161195060e086018261199a565b5061010083015161196561010086018261199a565b5061012083015161197a610120860182611586565b5061014083015161198f61014086018261199a565b508091505092915050565b6119a381611d1d565b82525050565b6119b281611d1d565b82525050565b60006040820190506119cd6000830185611419565b6119da60208301846119a9565b9392505050565b600060208201905081810360008301526119fb8184611428565b905092915050565b60006020820190508181036000830152611a1d8184611486565b905092915050565b60006020820190508181036000830152611a3f81846114fb565b905092915050565b6000602082019050611a5c6000830184611559565b92915050565b60006060820190508181036000830152611a7b816115ce565b9050611a8a60208301856119a9565b611a9760408301846119a9565b9392505050565b60006040820190508181036000830152611ab7816115f1565b9050611ac66020830184611419565b92915050565b60006060820190508181036000830152611ae581611614565b9050611af46020830185611419565b611b0160408301846119a9565b9392505050565b60006040820190508181036000830152611b2181611637565b9050611b306020830184611577565b92915050565b60006040820190508181036000830152611b4f8161165a565b9050611b5e6020830184611577565b92915050565b60006040820190508181036000830152611b7d8161167d565b9050611b8c6020830184611419565b92915050565b600060e082019050611ba7600083018461172e565b92915050565b60006020820190508181036000830152611bc781846118ab565b905092915050565b6000602082019050611be460008301846119a9565b92915050565b6000819050602082019050919050565b6000819050602082019050919050565b6000819050602082019050919050565b600081519050919050565b600081519050919050565b600081519050919050565b600081519050919050565b6000602082019050919050565b6000602082019050919050565b6000602082019050919050565b600082825260208201905092915050565b600082825260208201905092915050565b600082825260208201905092915050565b600082825260208201905092915050565b600082825260208201905092915050565b6000611ccd82611cfd565b9050919050565b60008115159050919050565b6000819050919050565b6000819050611cf882611fde565b919050565b600073ffffffffffffffffffffffffffffffffffffffff82169050919050565b6000819050919050565b6000611d3282611cea565b9050919050565b60005b83811015611d57578082015181840152602081019050611d3c565b83811115611d66576000848401525b50505050565b60006002820490506001821680611d8457607f821691505b60208210811415611d9857611d97611e45565b5b50919050565b6000611da982611d1d565b91507fffffffffffffffffffffffffffffffffffffffffffffffffffffffffffffffff821415611ddc57611ddb611de7565b5b600182019050919050565b7f4e487b7100000000000000000000000000000000000000000000000000000000600052601160045260246000fd5b7f4e487b7100000000000000000000000000000000000000000000000000000000600052602160045260246000fd5b7f4e487b7100000000000000000000000000000000000000000000000000000000600052602260045260246000fd5b7f4e487b7100000000000000000000000000000000000000000000000000000000600052603260045260246000fd5b7f4e487b7100000000000000000000000000000000000000000000000000000000600052604160045260246000fd5b600080fd5b6000601f19601f8301169050919050565b7f4f524445522e4954454d00000000000000000000000000000000000000000000600082015250565b7f555345522e4f524445522e4944532e4f4e53454c4c0000000000000000000000600082015250565b7f555345522e4f5244455200000000000000000000000000000000000000000000600082015250565b7f4f524445522e49442e42592e434f444500000000000000000000000000000000600082015250565b7f4974656d49644279436f64650000000000000000000000000000000000000000600082015250565b7f555345522e4f524445522e4944532e534f4c444f555400000000000000000000600082015250565b60048110611fef57611fee611e16565b5b50565b611ffb81611cc2565b811461200657600080fd5b50565b61201281611ce0565b811461201d57600080fd5b50565b61202981611d1d565b811461203457600080fd5b5056fea2646970667358221220a269afa90717d36d9cc7d1cf9a491f7531eaac0aa1c6fbc235ba948387ef850264736f6c63430008070033",
  "immutableReferences": {},
  "source": "pragma solidity ^0.8.0;\n\nimport { LibDiamond } from \"../libraries/LibDiamond.sol\";\nimport { LibCurrency } from \"../libraries/LibCurrency.sol\";\nimport { LibSaleOrder } from \"../libraries/LibSaleOrder.sol\";\nimport { LibItem } from \"../libraries/LibItem.sol\";\nimport \"../utils/math/SafeMath.sol\";\nimport \"../interfaces/ISellerFacet.sol\";\nimport \"../interfaces/IERC1155.sol\";\n\ncontract MarketInfoFacet {\n\n    function getUserOrders(address _user) external view returns(LibDiamond.SaleOrder[] memory saleOrders_) {\n        return LibSaleOrder._getUserOrders(_user);\n    }\n\n    function getOrderItems(uint256 _orderId) external view returns (LibDiamond.SaleItem[] memory saleItems_) {\n        return LibItem._getItemByOrderId(_orderId);\n    }\n    \n    function getOrderById(uint256 _orderId) public view returns(LibDiamond.SaleOrder memory){\n        return LibSaleOrder._getOrder(_orderId);\n    }\n    function getOrderIdByCode(bytes32 _code) public view returns(uint256){\n        return LibSaleOrder._getOrderIdByCode(_code);\n    }\n    function getOrderLength() external view returns(uint256){\n        return LibSaleOrder._getOrderCount();\n    }\n\n    function getItemByCode(bytes32 _code) external view returns(LibDiamond.SaleItem memory){\n        return LibItem._getItemByCode(_code);\n    }\n\n    function _getItemIdByCode(bytes32 _code) external view returns(uint256){\n        return LibItem._getItemIdByCode(_code);\n    }\n\n    function getItemLength() external view returns(uint256){\n        return LibItem._getItemCount();\n    }\n    function orderIsReadyForSell(bytes32 _orderCode) external returns(bool){\n        LibDiamond.SaleOrder memory _order = getOrderById(getOrderIdByCode(_orderCode));\n        if(_order.status != LibDiamond.OrderStatus.OnSell){\n            return false;\n        }\n        for(uint256 _itemId = 0 ; _itemId < _order.itemCount ; _itemId++){\n            LibDiamond.SaleItem memory _item = LibItem._getItem(_itemId);\n            if(IERC1155(_item.tokenContract).balanceOf(_order.owner, _item.tokenId) < _item.amount){\n                return false;\n            }\n        }\n        return true;\n    }\n    function getUserOrderOnSell (address _user) public view returns(LibDiamond.SaleOrder[] memory ordersReturn_){\n        uint256[] memory _orderIds = getUserOrderIdOnSell(_user);\n        ordersReturn_ = new LibDiamond.SaleOrder[](_orderIds.length);\n        for(uint256 _index = 0 ; _index < _orderIds.length ; _index ++){\n            ordersReturn_[_index] = getOrderById(_orderIds[_index]);\n        }\n        return ordersReturn_;\n    }\n\n    function getUserItems (address _user) public view returns(uint256[] memory){\n        bytes32 _keyUserOrdersOnSell = keccak256(abi.encode(\"USER.ORDER.IDS.ONSELL\",_user));\n        return LibDiamond.getArrayUint(_keyUserOrdersOnSell);\n    }\n  \n    function getUserOrderIdSoldOut (address _user) public view returns(uint256[] memory){\n        bytes32 _keyUserOrdersSoldOut = keccak256(abi.encode(\"USER.ORDER.IDS.SOLDOUT\",_user));\n        return LibDiamond.getArrayUint(_keyUserOrdersSoldOut);\n    }\n \n    function getUserOrderSoldOut (address _user) public view returns(LibDiamond.SaleOrder[] memory ordersReturn_){\n        uint256[] memory _orderIds = getUserOrderIdSoldOut(_user);\n        ordersReturn_ = new LibDiamond.SaleOrder[](_orderIds.length);\n        for(uint256 _index = 0 ; _index < _orderIds.length ; _index ++){\n            ordersReturn_[_index] = getOrderById(_orderIds[_index]);\n        }\n        return ordersReturn_;\n    }\n    function getUserOrderIdOnSell (address _user) public view returns(uint256[] memory){\n        bytes32 _keyUserOrdersOnSell = keccak256(abi.encode(\"USER.ORDER.IDS.ONSELL\",_user));\n        return LibDiamond.getArrayUint(_keyUserOrdersOnSell);\n    }\n}\n",
  "sourcePath": "/Users/kanthakarn/Documents/work/six-network/new/nft-marketplace/contracts/facets/MarketInfoFacet.sol",
  "compiler": {
    "name": "solc",
    "version": "0.8.7+commit.e28d00a7.Emscripten.clang"
  },
  "schemaVersion": "3.4.1",
  "updatedAt": "2021-11-26T09:51:18.644Z",
  "networkType": "ethereum",
  "devdoc": {
    "kind": "dev",
    "methods": {},
    "version": 1
  },
  "userdoc": {
    "kind": "user",
    "methods": {},
    "version": 1
  }
}