{
  "contractName": "ProposalFacet",
  "abi": [
    {
      "anonymous": false,
      "inputs": [
        {
          "indexed": true,
          "internalType": "address",
          "name": "proposer",
          "type": "address"
        },
        {
          "indexed": true,
          "internalType": "enum LibDiamond.ProposalType",
          "name": "proposalType",
          "type": "uint8"
        },
        {
          "indexed": true,
          "internalType": "uint256",
          "name": "proposalIndex",
          "type": "uint256"
        }
      ],
      "name": "Propose",
      "type": "event"
    },
    {
      "inputs": [
        {
          "internalType": "string",
          "name": "_ipfsHash",
          "type": "string"
        },
        {
          "internalType": "enum LibDiamond.ProposalType",
          "name": "_proposalType",
          "type": "uint8"
        },
        {
          "internalType": "uint256",
          "name": "_startTimestamp",
          "type": "uint256"
        },
        {
          "internalType": "uint256",
          "name": "_endTimestamp",
          "type": "uint256"
        },
        {
          "internalType": "uint256",
          "name": "_optionsCount",
          "type": "uint256"
        },
        {
          "internalType": "uint256",
          "name": "_minimumVotingPower",
          "type": "uint256"
        }
      ],
      "name": "propose",
      "outputs": [],
      "stateMutability": "nonpayable",
      "type": "function"
    },
    {
      "inputs": [
        {
          "internalType": "uint256",
          "name": "_proposalIndex",
          "type": "uint256"
        }
      ],
      "name": "getProposal",
      "outputs": [
        {
          "components": [
            {
              "internalType": "uint256",
              "name": "proposalIndex",
              "type": "uint256"
            },
            {
              "internalType": "string",
              "name": "ipfsHash",
              "type": "string"
            },
            {
              "internalType": "enum LibDiamond.ProposalType",
              "name": "proposalType",
              "type": "uint8"
            },
            {
              "internalType": "address",
              "name": "proposer",
              "type": "address"
            },
            {
              "internalType": "uint256",
              "name": "startTimestamp",
              "type": "uint256"
            },
            {
              "internalType": "uint256",
              "name": "endTimestamp",
              "type": "uint256"
            },
            {
              "internalType": "uint256",
              "name": "optionsCount",
              "type": "uint256"
            },
            {
              "internalType": "uint256",
              "name": "minimumVotingPower",
              "type": "uint256"
            },
            {
              "internalType": "uint256",
              "name": "totalVotingPower",
              "type": "uint256"
            },
            {
              "internalType": "uint256[]",
              "name": "optionVotingPower",
              "type": "uint256[]"
            }
          ],
          "internalType": "struct LibDiamond.Proposal",
          "name": "",
          "type": "tuple"
        }
      ],
      "stateMutability": "view",
      "type": "function"
    },
    {
      "inputs": [],
      "name": "getAllProposal",
      "outputs": [
        {
          "components": [
            {
              "internalType": "uint256",
              "name": "proposalIndex",
              "type": "uint256"
            },
            {
              "internalType": "string",
              "name": "ipfsHash",
              "type": "string"
            },
            {
              "internalType": "enum LibDiamond.ProposalType",
              "name": "proposalType",
              "type": "uint8"
            },
            {
              "internalType": "address",
              "name": "proposer",
              "type": "address"
            },
            {
              "internalType": "uint256",
              "name": "startTimestamp",
              "type": "uint256"
            },
            {
              "internalType": "uint256",
              "name": "endTimestamp",
              "type": "uint256"
            },
            {
              "internalType": "uint256",
              "name": "optionsCount",
              "type": "uint256"
            },
            {
              "internalType": "uint256",
              "name": "minimumVotingPower",
              "type": "uint256"
            },
            {
              "internalType": "uint256",
              "name": "totalVotingPower",
              "type": "uint256"
            },
            {
              "internalType": "uint256[]",
              "name": "optionVotingPower",
              "type": "uint256[]"
            }
          ],
          "internalType": "struct LibDiamond.Proposal[]",
          "name": "",
          "type": "tuple[]"
        }
      ],
      "stateMutability": "view",
      "type": "function"
    },
    {
      "inputs": [
        {
          "internalType": "enum LibDiamond.ProposalType",
          "name": "_proposalType",
          "type": "uint8"
        }
      ],
      "name": "getAllProposalOfType",
      "outputs": [
        {
          "components": [
            {
              "internalType": "uint256",
              "name": "proposalIndex",
              "type": "uint256"
            },
            {
              "internalType": "string",
              "name": "ipfsHash",
              "type": "string"
            },
            {
              "internalType": "enum LibDiamond.ProposalType",
              "name": "proposalType",
              "type": "uint8"
            },
            {
              "internalType": "address",
              "name": "proposer",
              "type": "address"
            },
            {
              "internalType": "uint256",
              "name": "startTimestamp",
              "type": "uint256"
            },
            {
              "internalType": "uint256",
              "name": "endTimestamp",
              "type": "uint256"
            },
            {
              "internalType": "uint256",
              "name": "optionsCount",
              "type": "uint256"
            },
            {
              "internalType": "uint256",
              "name": "minimumVotingPower",
              "type": "uint256"
            },
            {
              "internalType": "uint256",
              "name": "totalVotingPower",
              "type": "uint256"
            },
            {
              "internalType": "uint256[]",
              "name": "optionVotingPower",
              "type": "uint256[]"
            }
          ],
          "internalType": "struct LibDiamond.Proposal[]",
          "name": "",
          "type": "tuple[]"
        }
      ],
      "stateMutability": "view",
      "type": "function"
    },
    {
      "inputs": [
        {
          "internalType": "uint256",
          "name": "_proposalIndex",
          "type": "uint256"
        },
        {
          "internalType": "uint256",
          "name": "_optionIndex",
          "type": "uint256"
        }
      ],
      "name": "getVotingPowers",
      "outputs": [
        {
          "internalType": "uint256",
          "name": "",
          "type": "uint256"
        }
      ],
      "stateMutability": "view",
      "type": "function"
    },
    {
      "inputs": [
        {
          "internalType": "uint256",
          "name": "_proposalIndex",
          "type": "uint256"
        },
        {
          "internalType": "uint256",
          "name": "_optionIndex",
          "type": "uint256"
        },
        {
          "internalType": "address",
          "name": "voter",
          "type": "address"
        }
      ],
      "name": "getVotingPowersOfAddress",
      "outputs": [
        {
          "internalType": "uint256",
          "name": "",
          "type": "uint256"
        }
      ],
      "stateMutability": "view",
      "type": "function"
    },
    {
      "inputs": [],
      "name": "getDefaultMinimumVotingPowers",
      "outputs": [
        {
          "internalType": "uint256",
          "name": "",
          "type": "uint256"
        }
      ],
      "stateMutability": "view",
      "type": "function"
    },
    {
      "inputs": [
        {
          "internalType": "uint256",
          "name": "_proposalIndex",
          "type": "uint256"
        }
      ],
      "name": "isProposalCompleted",
      "outputs": [
        {
          "internalType": "bool",
          "name": "",
          "type": "bool"
        }
      ],
      "stateMutability": "view",
      "type": "function"
    },
    {
      "inputs": [
        {
          "internalType": "uint256",
          "name": "_votingPowers",
          "type": "uint256"
        }
      ],
      "name": "setDefaultMinimumVotingPowers",
      "outputs": [],
      "stateMutability": "nonpayable",
      "type": "function"
    }
  ],
  "bytecode": "0x608060405234801561001057600080fd5b50612a20806100206000396000f3fe608060405234801561001057600080fd5b50600436106100935760003560e01c80637b236b52116100665780637b236b5214610132578063b3c0685514610162578063c67e315b14610192578063c7f758a8146101ae578063cf5b6cd0146101de57610093565b806343344983146100985780635ee8223c146100b657806376fda17a146100e65780637a3de7d514610102575b600080fd5b6100a06101fc565b6040516100ad91906124de565b60405180910390f35b6100d060048036038101906100cb9190611dcb565b61046e565b6040516100dd919061261d565b60405180910390f35b61010060048036038101906100fb9190611d66565b6104e9565b005b61011c60048036038101906101179190611c9c565b6104fd565b60405161012991906124de565b60405180910390f35b61014c60048036038101906101479190611d8f565b6107f2565b604051610159919061261d565b60405180910390f35b61017c60048036038101906101779190611d66565b610898565b6040516101899190612500565b60405180910390f35b6101ac60048036038101906101a79190611cc5565b610b12565b005b6101c860048036038101906101c39190611d66565b611365565b6040516101d591906125fb565b60405180910390f35b6101e66115da565b6040516101f3919061261d565b60405180910390f35b6060600061020861162d565b905080600901805480602002602001604051908101604052809291908181526020016000905b828210156104645783829060005260206000209060090201604051806101400160405290816000820154815260200160018201805461026c906127f2565b80601f0160208091040260200160405190810160405280929190818152602001828054610298906127f2565b80156102e55780601f106102ba576101008083540402835291602001916102e5565b820191906000526020600020905b8154815290600101906020018083116102c857829003601f168201915b505050505081526020016002820160009054906101000a900460ff166002811115610339577f4e487b7100000000000000000000000000000000000000000000000000000000600052602160045260246000fd5b6002811115610371577f4e487b7100000000000000000000000000000000000000000000000000000000600052602160045260246000fd5b81526020016002820160019054906101000a900473ffffffffffffffffffffffffffffffffffffffff1673ffffffffffffffffffffffffffffffffffffffff1673ffffffffffffffffffffffffffffffffffffffff16815260200160038201548152602001600482015481526020016005820154815260200160068201548152602001600782015481526020016008820180548060200260200160405190810160405280929190818152602001828054801561044c57602002820191906000526020600020905b815481526020019060010190808311610438575b5050505050815250508152602001906001019061022e565b5050505091505090565b60008061047961162d565b905080600d016000868152602001908152602001600020600085815260200190815260200160002060008473ffffffffffffffffffffffffffffffffffffffff1673ffffffffffffffffffffffffffffffffffffffff168152602001908152602001600020549150509392505050565b6104f161165a565b6104fa816116f5565b50565b6060600061050961162d565b905080600b01600084600281111561054a577f4e487b7100000000000000000000000000000000000000000000000000000000600052602160045260246000fd5b6002811115610582577f4e487b7100000000000000000000000000000000000000000000000000000000600052602160045260246000fd5b8152602001908152602001600020805480602002602001604051908101604052809291908181526020016000905b828210156107e6578382906000526020600020906009020160405180610140016040529081600082015481526020016001820180546105ee906127f2565b80601f016020809104026020016040519081016040528092919081815260200182805461061a906127f2565b80156106675780601f1061063c57610100808354040283529160200191610667565b820191906000526020600020905b81548152906001019060200180831161064a57829003601f168201915b505050505081526020016002820160009054906101000a900460ff1660028111156106bb577f4e487b7100000000000000000000000000000000000000000000000000000000600052602160045260246000fd5b60028111156106f3577f4e487b7100000000000000000000000000000000000000000000000000000000600052602160045260246000fd5b81526020016002820160019054906101000a900473ffffffffffffffffffffffffffffffffffffffff1673ffffffffffffffffffffffffffffffffffffffff1673ffffffffffffffffffffffffffffffffffffffff1681526020016003820154815260200160048201548152602001600582015481526020016006820154815260200160078201548152602001600882018054806020026020016040519081016040528092919081815260200182805480156107ce57602002820191906000526020600020905b8154815260200190600101908083116107ba575b505050505081525050815260200190600101906105b0565b50505050915050919050565b6000806107fd61162d565b905080600901848154811061083b577f4e487b7100000000000000000000000000000000000000000000000000000000600052603260045260246000fd5b90600052602060002090600902016008018381548110610884577f4e487b7100000000000000000000000000000000000000000000000000000000600052603260045260246000fd5b906000526020600020015491505092915050565b6000806108a361162d565b905060008160090184815481106108e3577f4e487b7100000000000000000000000000000000000000000000000000000000600052603260045260246000fd5b90600052602060002090600902016040518061014001604052908160008201548152602001600182018054610917906127f2565b80601f0160208091040260200160405190810160405280929190818152602001828054610943906127f2565b80156109905780601f1061096557610100808354040283529160200191610990565b820191906000526020600020905b81548152906001019060200180831161097357829003601f168201915b505050505081526020016002820160009054906101000a900460ff1660028111156109e4577f4e487b7100000000000000000000000000000000000000000000000000000000600052602160045260246000fd5b6002811115610a1c577f4e487b7100000000000000000000000000000000000000000000000000000000600052602160045260246000fd5b81526020016002820160019054906101000a900473ffffffffffffffffffffffffffffffffffffffff1673ffffffffffffffffffffffffffffffffffffffff1673ffffffffffffffffffffffffffffffffffffffff168152602001600382015481526020016004820154815260200160058201548152602001600682015481526020016007820154815260200160088201805480602002602001604051908101604052809291908181526020018280548015610af757602002820191906000526020600020905b815481526020019060010190808311610ae3575b50505050508152505090508060a00151421192505050919050565b3073ffffffffffffffffffffffffffffffffffffffff16635760a40533876040518363ffffffff1660e01b8152600401610b4d9291906124b5565b60206040518083038186803b158015610b6557600080fd5b505afa158015610b79573d6000803e3d6000fd5b505050506040513d601f19601f82011682018060405250810190610b9d9190611c73565b610bdc576040517f08c379a0000000000000000000000000000000000000000000000000000000008152600401610bd39061259b565b60405180910390fd5b610bf58660405180602001604052806000815250611746565b15610c35576040517f08c379a0000000000000000000000000000000000000000000000000000000008152600401610c2c9061255b565b60405180910390fd5b428411610c77576040517f08c379a0000000000000000000000000000000000000000000000000000000008152600401610c6e9061253b565b60405180910390fd5b838311610cb9576040517f08c379a0000000000000000000000000000000000000000000000000000000008152600401610cb09061257b565b60405180910390fd5b60018211610cfc576040517f08c379a0000000000000000000000000000000000000000000000000000000008152600401610cf3906125bb565b60405180910390fd5b6000610d456040518060600160405280602581526020016129c660259139604051602001610d2a919061249e565b6040516020818303038152906040528051906020012061175c565b905080831115610d8a576040517f08c379a0000000000000000000000000000000000000000000000000000000008152600401610d81906125db565b60405180910390fd5b6000610d9461162d565b905060008467ffffffffffffffff811115610dd8577f4e487b7100000000000000000000000000000000000000000000000000000000600052604160045260246000fd5b604051908082528060200260200182016040528015610e065781602001602082028036833780820191505090505b50905060008260090180549050905060006040518061014001604052808381526020018c81526020018b6002811115610e68577f4e487b7100000000000000000000000000000000000000000000000000000000600052602160045260246000fd5b81526020013373ffffffffffffffffffffffffffffffffffffffff1681526020018a81526020018981526020018881526020018781526020016000815260200184815250905083600901819080600181540180825580915050600190039060005260206000209060090201600090919091909150600082015181600001556020820151816001019080519060200190610f02929190611a26565b5060408201518160020160006101000a81548160ff02191690836002811115610f54577f4e487b7100000000000000000000000000000000000000000000000000000000600052602160045260246000fd5b021790555060608201518160020160016101000a81548173ffffffffffffffffffffffffffffffffffffffff021916908373ffffffffffffffffffffffffffffffffffffffff1602179055506080820151816003015560a0820151816004015560c0820151816005015560e082015181600601556101008201518160070155610120820151816008019080519060200190610ff0929190611aac565b505050836009018054905084600a018190555083600b0160008b6002811115611042577f4e487b7100000000000000000000000000000000000000000000000000000000600052602160045260246000fd5b600281111561107a577f4e487b7100000000000000000000000000000000000000000000000000000000600052602160045260246000fd5b81526020019081526020016000208190806001815401808255809150506001900390600052602060002090600902016000909190919091506000820151816000015560208201518160010190805190602001906110d8929190611a26565b5060408201518160020160006101000a81548160ff0219169083600281111561112a577f4e487b7100000000000000000000000000000000000000000000000000000000600052602160045260246000fd5b021790555060608201518160020160016101000a81548173ffffffffffffffffffffffffffffffffffffffff021916908373ffffffffffffffffffffffffffffffffffffffff1602179055506080820151816003015560a0820151816004015560c0820151816005015560e0820151816006015561010082015181600701556101208201518160080190805190602001906111c6929190611aac565b50505083600b0160008b6002811115611208577f4e487b7100000000000000000000000000000000000000000000000000000000600052602160045260246000fd5b6002811115611240577f4e487b7100000000000000000000000000000000000000000000000000000000600052602160045260246000fd5b81526020019081526020016000208054905084600c0160008c6002811115611291577f4e487b7100000000000000000000000000000000000000000000000000000000600052602160045260246000fd5b60028111156112c9577f4e487b7100000000000000000000000000000000000000000000000000000000600052602160045260246000fd5b815260200190815260200160002081905550818a6002811115611315577f4e487b7100000000000000000000000000000000000000000000000000000000600052602160045260246000fd5b3373ffffffffffffffffffffffffffffffffffffffff167fdbb5b2d91411adf7c8377bd852ed2b4ab55951fadf2cbacde9de91d17108029260405160405180910390a45050505050505050505050565b61136d611af9565b600061137761162d565b90508060090183815481106113b5577f4e487b7100000000000000000000000000000000000000000000000000000000600052603260045260246000fd5b906000526020600020906009020160405180610140016040529081600082015481526020016001820180546113e9906127f2565b80601f0160208091040260200160405190810160405280929190818152602001828054611415906127f2565b80156114625780601f1061143757610100808354040283529160200191611462565b820191906000526020600020905b81548152906001019060200180831161144557829003601f168201915b505050505081526020016002820160009054906101000a900460ff1660028111156114b6577f4e487b7100000000000000000000000000000000000000000000000000000000600052602160045260246000fd5b60028111156114ee577f4e487b7100000000000000000000000000000000000000000000000000000000600052602160045260246000fd5b81526020016002820160019054906101000a900473ffffffffffffffffffffffffffffffffffffffff1673ffffffffffffffffffffffffffffffffffffffff1673ffffffffffffffffffffffffffffffffffffffff1681526020016003820154815260200160048201548152602001600582015481526020016006820154815260200160078201548152602001600882018054806020026020016040519081016040528092919081815260200182805480156115c957602002820191906000526020600020905b8154815260200190600101908083116115b5575b505050505081525050915050919050565b6000806040518060600160405280602281526020016129a460229139604051602001611606919061249e565b6040516020818303038152906040528051906020012090506116278161175c565b91505090565b6000807fc8fcad8db84d3cc18b4c41d551ea0ee66dd599cde068d998e57d5e09332c131c90508091505090565b61166261162d565b60030160009054906101000a900473ffffffffffffffffffffffffffffffffffffffff1673ffffffffffffffffffffffffffffffffffffffff163373ffffffffffffffffffffffffffffffffffffffff16146116f3576040517f08c379a00000000000000000000000000000000000000000000000000000000081526004016116ea9061251b565b60405180910390fd5b565b60006040518060600160405280602281526020016129a460229139604051602001611720919061249e565b6040516020818303038152906040528051906020012090506117428183611787565b5050565b60008061175384846117b2565b14905092915050565b60008061176761162d565b905080600401600084815260200190815260200160002054915050919050565b600061179161162d565b90508181600401600085815260200190815260200160002081905550505050565b600080839050600083905060008251905080825110156117d157815190505b60005b818110156119cc57828181518110611815577f4e487b7100000000000000000000000000000000000000000000000000000000600052603260045260246000fd5b602001015160f81c60f81b7effffffffffffffffffffffffffffffffffffffffffffffffffffffffffffff191684828151811061187b577f4e487b7100000000000000000000000000000000000000000000000000000000600052603260045260246000fd5b602001015160f81c60f81b7effffffffffffffffffffffffffffffffffffffffffffffffffffffffffffff191610156118da577fffffffffffffffffffffffffffffffffffffffffffffffffffffffffffffffff945050505050611a20565b828181518110611913577f4e487b7100000000000000000000000000000000000000000000000000000000600052603260045260246000fd5b602001015160f81c60f81b7effffffffffffffffffffffffffffffffffffffffffffffffffffffffffffff1916848281518110611979577f4e487b7100000000000000000000000000000000000000000000000000000000600052603260045260246000fd5b602001015160f81c60f81b7effffffffffffffffffffffffffffffffffffffffffffffffffffffffffffff191611156119b9576001945050505050611a20565b80806119c490612824565b9150506117d4565b50815183511015611a02577fffffffffffffffffffffffffffffffffffffffffffffffffffffffffffffffff9350505050611a20565b815183511115611a185760019350505050611a20565b600093505050505b92915050565b828054611a32906127f2565b90600052602060002090601f016020900481019282611a545760008555611a9b565b82601f10611a6d57805160ff1916838001178555611a9b565b82800160010185558215611a9b579182015b82811115611a9a578251825591602001919060010190611a7f565b5b509050611aa89190611b9a565b5090565b828054828255906000526020600020908101928215611ae8579160200282015b82811115611ae7578251825591602001919060010190611acc565b5b509050611af59190611b9a565b5090565b604051806101400160405280600081526020016060815260200160006002811115611b4d577f4e487b7100000000000000000000000000000000000000000000000000000000600052602160045260246000fd5b8152602001600073ffffffffffffffffffffffffffffffffffffffff1681526020016000815260200160008152602001600081526020016000815260200160008152602001606081525090565b5b80821115611bb3576000816000905550600101611b9b565b5090565b6000611bca611bc584612669565b612638565b905082815260208101848484011115611be257600080fd5b611bed8482856127b0565b509392505050565b600081359050611c048161294e565b92915050565b600081519050611c1981612965565b92915050565b600081359050611c2e8161297c565b92915050565b600082601f830112611c4557600080fd5b8135611c55848260208601611bb7565b91505092915050565b600081359050611c6d8161298c565b92915050565b600060208284031215611c8557600080fd5b6000611c9384828501611c0a565b91505092915050565b600060208284031215611cae57600080fd5b6000611cbc84828501611c1f565b91505092915050565b60008060008060008060c08789031215611cde57600080fd5b600087013567ffffffffffffffff811115611cf857600080fd5b611d0489828a01611c34565b9650506020611d1589828a01611c1f565b9550506040611d2689828a01611c5e565b9450506060611d3789828a01611c5e565b9350506080611d4889828a01611c5e565b92505060a0611d5989828a01611c5e565b9150509295509295509295565b600060208284031215611d7857600080fd5b6000611d8684828501611c5e565b91505092915050565b60008060408385031215611da257600080fd5b6000611db085828601611c5e565b9250506020611dc185828601611c5e565b9150509250929050565b600080600060608486031215611de057600080fd5b6000611dee86828701611c5e565b9350506020611dff86828701611c5e565b9250506040611e1086828701611bf5565b9150509250925092565b6000611e2683836122be565b905092915050565b6000611e3a8383612480565b60208301905092915050565b611e4f81612743565b82525050565b611e5e81612743565b82525050565b6000611e6f826126b9565b611e7981856126f4565b935083602082028501611e8b85612699565b8060005b85811015611ec75784840389528151611ea88582611e1a565b9450611eb3836126da565b925060208a01995050600181019050611e8f565b50829750879550505050505092915050565b6000611ee4826126c4565b611eee8185612705565b9350611ef9836126a9565b8060005b83811015611f2a578151611f118882611e2e565b9750611f1c836126e7565b925050600181019050611efd565b5085935050505092915050565b611f4081612755565b82525050565b611f4f8161279e565b82525050565b611f5e8161279e565b82525050565b6000611f6f826126cf565b611f798185612716565b9350611f898185602086016127bf565b611f9281612929565b840191505092915050565b6000611fa8826126cf565b611fb28185612738565b9350611fc28185602086016127bf565b80840191505092915050565b6000611fdb602283612727565b91507f4c69624469616d6f6e643a204d75737420626520636f6e7472616374206f776e60008301527f65720000000000000000000000000000000000000000000000000000000000006020830152604082019050919050565b6000612041603f83612727565b91507f50726f706f73616c46616365743a2070726f706f73616c20737461727420746960008301527f6d65206d7573742062652067726561746572207468616e2070726573656e74006020830152604082019050919050565b60006120a7603283612727565b91507f50726f706f73616c46616365743a2070726f706f73616c206d6574616461746160008301527f206d757374206e6f7420626520656d70747900000000000000000000000000006020830152604082019050919050565b600061210d603a83612727565b91507f50726f706f73616c46616365743a2070726f706f73616c206475726174696f6e60008301527f206d7573742062652067726561746572207468616e207a65726f0000000000006020830152604082019050919050565b6000612173602483612727565b91507f50726f706f73616c46616365743a2070726f706f73657220756e617574686f7260008301527f697a6564000000000000000000000000000000000000000000000000000000006020830152604082019050919050565b60006121d9603583612727565b91507f50726f706f73616c46616365743a206f7074696f6e7320636f756e74206d757360008301527f742062652067726561746572207468616e206f6e6500000000000000000000006020830152604082019050919050565b600061223f604c83612727565b91507f50726f706f73616c46616365743a206f7074696f6e7320636f756e74206d757360008301527f74206265206c657373207468616e206f7220657175616c20746f206d6178206f60208301527f7074696f6e7320636f756e7400000000000000000000000000000000000000006040830152606082019050919050565b6000610140830160008301516122d76000860182612480565b50602083015184820360208601526122ef8282611f64565b91505060408301516123046040860182611f46565b5060608301516123176060860182611e46565b50608083015161232a6080860182612480565b5060a083015161233d60a0860182612480565b5060c083015161235060c0860182612480565b5060e083015161236360e0860182612480565b50610100830151612378610100860182612480565b506101208301518482036101208601526123928282611ed9565b9150508091505092915050565b6000610140830160008301516123b86000860182612480565b50602083015184820360208601526123d08282611f64565b91505060408301516123e56040860182611f46565b5060608301516123f86060860182611e46565b50608083015161240b6080860182612480565b5060a083015161241e60a0860182612480565b5060c083015161243160c0860182612480565b5060e083015161244460e0860182612480565b50610100830151612459610100860182612480565b506101208301518482036101208601526124738282611ed9565b9150508091505092915050565b61248981612794565b82525050565b61249881612794565b82525050565b60006124aa8284611f9d565b915081905092915050565b60006040820190506124ca6000830185611e55565b6124d76020830184611f55565b9392505050565b600060208201905081810360008301526124f88184611e64565b905092915050565b60006020820190506125156000830184611f37565b92915050565b6000602082019050818103600083015261253481611fce565b9050919050565b6000602082019050818103600083015261255481612034565b9050919050565b600060208201905081810360008301526125748161209a565b9050919050565b6000602082019050818103600083015261259481612100565b9050919050565b600060208201905081810360008301526125b481612166565b9050919050565b600060208201905081810360008301526125d4816121cc565b9050919050565b600060208201905081810360008301526125f481612232565b9050919050565b60006020820190508181036000830152612615818461239f565b905092915050565b6000602082019050612632600083018461248f565b92915050565b6000604051905081810181811067ffffffffffffffff8211171561265f5761265e6128fa565b5b8060405250919050565b600067ffffffffffffffff821115612684576126836128fa565b5b601f19601f8301169050602081019050919050565b6000819050602082019050919050565b6000819050602082019050919050565b600081519050919050565b600081519050919050565b600081519050919050565b6000602082019050919050565b6000602082019050919050565b600082825260208201905092915050565b600082825260208201905092915050565b600082825260208201905092915050565b600082825260208201905092915050565b600081905092915050565b600061274e82612774565b9050919050565b60008115159050919050565b600081905061276f8261293a565b919050565b600073ffffffffffffffffffffffffffffffffffffffff82169050919050565b6000819050919050565b60006127a982612761565b9050919050565b82818337600083830152505050565b60005b838110156127dd5780820151818401526020810190506127c2565b838111156127ec576000848401525b50505050565b6000600282049050600182168061280a57607f821691505b6020821081141561281e5761281d6128cb565b5b50919050565b600061282f82612794565b91507fffffffffffffffffffffffffffffffffffffffffffffffffffffffffffffffff8214156128625761286161286d565b5b600182019050919050565b7f4e487b7100000000000000000000000000000000000000000000000000000000600052601160045260246000fd5b7f4e487b7100000000000000000000000000000000000000000000000000000000600052602160045260246000fd5b7f4e487b7100000000000000000000000000000000000000000000000000000000600052602260045260246000fd5b7f4e487b7100000000000000000000000000000000000000000000000000000000600052604160045260246000fd5b6000601f19601f8301169050919050565b6003811061294b5761294a61289c565b5b50565b61295781612743565b811461296257600080fd5b50565b61296e81612755565b811461297957600080fd5b50565b6003811061298957600080fd5b50565b61299581612794565b81146129a057600080fd5b5056fe7666696e69782e766f74696e672e64656661756c745f6d696e696d756d5f766f74657666696e69782e766f74696e672e64656661756c745f6d6178696d756d5f6f7074696f6e73a2646970667358221220171f2b617ff2d832d06ffd1fbfa8702174aa85de64d558aa3ef9f43a4635f2a964736f6c63430008000033",
  "immutableReferences": {},
  "source": "// SPDX-License-Identifier: MIT\npragma solidity ^0.8.0;\n\nimport \"../utils/math/SafeMath.sol\";\nimport \"../utils/Strings.sol\";\nimport \"../interfaces/IProposalFacet.sol\";\nimport \"../interfaces/IProposerFacet.sol\";\nimport {LibDiamond} from \"../libraries/LibDiamond.sol\";\nimport {LibKeyChain} from \"../libraries/LibKeyChain.sol\";\n\ncontract ProposalFacet is IProposalFacet {\n    using SafeMath for uint256;\n\n    event Propose(address indexed proposer, LibDiamond.ProposalType indexed proposalType, uint256 indexed proposalIndex);\n\n    function propose(string memory _ipfsHash, LibDiamond.ProposalType _proposalType, uint256 _startTimestamp, uint256 _endTimestamp, uint256 _optionsCount, uint256 _minimumVotingPower) external override {\n        require(IProposerFacet(address(this)).isProposable(msg.sender, _proposalType), \"ProposalFacet: proposer unauthorized\");\n        require(!Strings.equal(_ipfsHash, \"\"), \"ProposalFacet: proposal metadata must not be empty\");\n        require(_startTimestamp > block.timestamp, \"ProposalFacet: proposal start time must be greater than present\");\n        require(_endTimestamp > _startTimestamp, \"ProposalFacet: proposal duration must be greater than zero\");\n        require(_optionsCount > 1, \"ProposalFacet: options count must be greater than one\");\n\n        uint maxOptionsCount = LibDiamond.getUint(keccak256(abi.encodePacked(LibKeyChain.KEY_DEFAULT_MAXIMUM_OPTIONS)));\n        require(_optionsCount <= maxOptionsCount, \"ProposalFacet: options count must be less than or equal to max options count\");\n\n        LibDiamond.DiamondStorage storage ds = LibDiamond.diamondStorage();\n\n        uint256[] memory optionVotingPower = new uint256[](_optionsCount);\n\n        uint256 proposalIndex = ds.proposals.length;\n\n        LibDiamond.Proposal memory proposal = LibDiamond.Proposal({\n            proposalIndex: proposalIndex,\n            ipfsHash: _ipfsHash,\n            proposalType: _proposalType,\n            proposer: msg.sender,\n            startTimestamp: _startTimestamp,\n            endTimestamp: _endTimestamp,\n            optionsCount: _optionsCount,\n            minimumVotingPower: _minimumVotingPower,\n            totalVotingPower: 0,\n            optionVotingPower: optionVotingPower\n        });\n\n        ds.proposals.push(proposal);\n        ds.proposalsLength = ds.proposals.length;\n\n        ds.proposalsByType[_proposalType].push(proposal);\n        ds.proposalsLengthByType[_proposalType] = ds\n            .proposalsByType[_proposalType]\n            .length;\n\n        emit Propose(msg.sender, _proposalType, proposalIndex);\n    }\n\n    function getProposal(uint256 _proposalIndex)\n        public\n        view\n        override\n        returns (LibDiamond.Proposal memory)\n    {\n        LibDiamond.DiamondStorage storage ds = LibDiamond.diamondStorage();\n        return ds.proposals[_proposalIndex];\n    }\n\n    function getAllProposal()\n        public\n        view\n        override\n        returns (LibDiamond.Proposal[] memory)\n    {\n        LibDiamond.DiamondStorage storage ds = LibDiamond.diamondStorage();\n        return ds.proposals;\n    }\n\n    function getAllProposalOfType(LibDiamond.ProposalType _proposalType)\n        public\n        view\n        override\n        returns (LibDiamond.Proposal[] memory)\n    {\n        LibDiamond.DiamondStorage storage ds = LibDiamond.diamondStorage();\n        return ds.proposalsByType[_proposalType];\n    }\n\n    function getVotingPowers(uint256 _proposalIndex, uint256 _optionIndex)\n        public\n        view\n        override\n        returns (uint256)\n    {\n        LibDiamond.DiamondStorage storage ds = LibDiamond.diamondStorage();\n        return ds.proposals[_proposalIndex].optionVotingPower[_optionIndex];\n    }\n\n    function getVotingPowersOfAddress(\n        uint256 _proposalIndex,\n        uint256 _optionIndex,\n        address voter\n    ) public view override returns (uint256) {\n        LibDiamond.DiamondStorage storage ds = LibDiamond.diamondStorage();\n        return ds.votedPowers[_proposalIndex][_optionIndex][voter];\n    }\n\n    function getDefaultMinimumVotingPowers()\n        public\n        view\n        override\n        returns (uint256)\n    {\n        bytes32 key = keccak256(\n            abi.encodePacked(LibKeyChain.KEY_DEFAULT_MINIMUM_VOTE)\n        );\n        return LibDiamond.getUint(key);\n    }\n\n    function isProposalCompleted(uint256 _proposalIndex)\n        public\n        view\n        override\n        returns (bool)\n    {\n        LibDiamond.DiamondStorage storage ds = LibDiamond.diamondStorage();\n        LibDiamond.Proposal memory proposal = ds.proposals[_proposalIndex];\n        return block.timestamp > proposal.endTimestamp;\n    }\n\n    function setDefaultMinimumVotingPowers(uint256 _votingPowers)\n        external\n        override\n    {\n        LibDiamond.enforceIsContractOwner();\n        _setDefaultMinimumVotingPowers(_votingPowers);\n    }\n\n    function _setDefaultMinimumVotingPowers(uint256 _votingPowers) internal {\n        bytes32 key = keccak256(\n            abi.encodePacked(LibKeyChain.KEY_DEFAULT_MINIMUM_VOTE)\n        );\n        LibDiamond.setUint(key, _votingPowers);\n    }\n}\n",
  "sourcePath": "/Users/kanthakarn/Documents/work/six-network/tmp/definix-vfinix-voting/contracts/facets/ProposalFacet.sol",
  "compiler": {
    "name": "solc",
    "version": "0.8.0+commit.c7dfd78e.Emscripten.clang"
  },
  "schemaVersion": "3.4.1",
  "updatedAt": "2021-12-16T05:02:22.711Z",
  "devdoc": {
    "kind": "dev",
    "methods": {},
    "version": 1
  },
  "userdoc": {
    "kind": "user",
    "methods": {},
    "version": 1
  }
}