{
  "contractName": "RewardFacet",
  "abi": [
    {
      "anonymous": false,
      "inputs": [
        {
          "indexed": false,
          "internalType": "uint256",
          "name": "_accFinixPerShare",
          "type": "uint256"
        }
      ],
      "name": "AccFinixPerShare",
      "type": "event"
    },
    {
      "anonymous": false,
      "inputs": [
        {
          "indexed": false,
          "internalType": "uint256",
          "name": "_pending",
          "type": "uint256"
        }
      ],
      "name": "Pending",
      "type": "event"
    },
    {
      "anonymous": false,
      "inputs": [
        {
          "indexed": false,
          "internalType": "uint256",
          "name": "_userRewardDebt",
          "type": "uint256"
        }
      ],
      "name": "UserRewardDebt",
      "type": "event"
    },
    {
      "anonymous": false,
      "inputs": [
        {
          "indexed": false,
          "internalType": "uint256",
          "name": "_userTotalVotes",
          "type": "uint256"
        }
      ],
      "name": "UserTotalVotes",
      "type": "event"
    },
    {
      "inputs": [
        {
          "internalType": "uint256",
          "name": "_rewardPerBlock",
          "type": "uint256"
        },
        {
          "internalType": "uint256",
          "name": "_startBlock",
          "type": "uint256"
        },
        {
          "internalType": "uint256",
          "name": "_bonusEndBlock",
          "type": "uint256"
        }
      ],
      "name": "init",
      "outputs": [],
      "stateMutability": "nonpayable",
      "type": "function"
    },
    {
      "inputs": [],
      "name": "stopReward",
      "outputs": [],
      "stateMutability": "nonpayable",
      "type": "function"
    },
    {
      "inputs": [
        {
          "internalType": "uint256",
          "name": "_from",
          "type": "uint256"
        },
        {
          "internalType": "uint256",
          "name": "_to",
          "type": "uint256"
        }
      ],
      "name": "getMultiplier",
      "outputs": [
        {
          "internalType": "uint256",
          "name": "",
          "type": "uint256"
        }
      ],
      "stateMutability": "view",
      "type": "function",
      "constant": true
    },
    {
      "inputs": [
        {
          "internalType": "address",
          "name": "_user",
          "type": "address"
        }
      ],
      "name": "pendingReward",
      "outputs": [
        {
          "internalType": "uint256",
          "name": "",
          "type": "uint256"
        }
      ],
      "stateMutability": "view",
      "type": "function",
      "constant": true
    },
    {
      "inputs": [
        {
          "internalType": "address",
          "name": "_user",
          "type": "address"
        },
        {
          "internalType": "uint256",
          "name": "_amount",
          "type": "uint256"
        }
      ],
      "name": "deposit",
      "outputs": [],
      "stateMutability": "nonpayable",
      "type": "function"
    },
    {
      "inputs": [
        {
          "internalType": "address",
          "name": "_user",
          "type": "address"
        }
      ],
      "name": "harvest",
      "outputs": [],
      "stateMutability": "nonpayable",
      "type": "function"
    },
    {
      "inputs": [],
      "name": "updatePool",
      "outputs": [],
      "stateMutability": "nonpayable",
      "type": "function"
    },
    {
      "inputs": [],
      "name": "rewardPerBlock",
      "outputs": [
        {
          "internalType": "uint256",
          "name": "",
          "type": "uint256"
        }
      ],
      "stateMutability": "view",
      "type": "function",
      "constant": true
    },
    {
      "inputs": [],
      "name": "accFinixPerShare",
      "outputs": [
        {
          "internalType": "uint256",
          "name": "",
          "type": "uint256"
        }
      ],
      "stateMutability": "view",
      "type": "function",
      "constant": true
    },
    {
      "inputs": [],
      "name": "startBlock",
      "outputs": [
        {
          "internalType": "uint256",
          "name": "",
          "type": "uint256"
        }
      ],
      "stateMutability": "view",
      "type": "function",
      "constant": true
    },
    {
      "inputs": [],
      "name": "bonusEndBlock",
      "outputs": [
        {
          "internalType": "uint256",
          "name": "",
          "type": "uint256"
        }
      ],
      "stateMutability": "view",
      "type": "function",
      "constant": true
    },
    {
      "inputs": [],
      "name": "lastRewardBlock",
      "outputs": [
        {
          "internalType": "uint256",
          "name": "",
          "type": "uint256"
        }
      ],
      "stateMutability": "view",
      "type": "function",
      "constant": true
    },
    {
      "inputs": [
        {
          "internalType": "address",
          "name": "_user",
          "type": "address"
        }
      ],
      "name": "userRewardDebt",
      "outputs": [
        {
          "internalType": "uint256",
          "name": "",
          "type": "uint256"
        }
      ],
      "stateMutability": "view",
      "type": "function",
      "constant": true
    }
  ],
  "bytecode": "0x608060405234801561001057600080fd5b50611b1e806100206000396000f3fe608060405234801561001057600080fd5b50600436106100cf5760003560e01c806380dc06721161008c5780638dbb1e3a116100665780638dbb1e3a146101da578063a9f8d1811461020a578063e3161ddd14610228578063f40f0f5214610232576100cf565b806380dc0672146101965780638ae39cac146101a05780638cd8db8a146101be576100cf565b80630e5c011e146100d45780630f6474f4146100f05780631aed65531461010e57806347e7ef241461012c57806348cd4cb1146101485780634bf6f9e714610166575b600080fd5b6100ee60048036038101906100e99190611427565b610262565b005b6100f8610563565b6040516101059190611842565b60405180910390f35b6101166105ce565b6040516101239190611842565b60405180910390f35b61014660048036038101906101419190611450565b610639565b005b610150610972565b60405161015d9190611842565b60405180910390f35b610180600480360381019061017b9190611427565b6109dd565b60405161018d9190611842565b60405180910390f35b61019e610a4c565b005b6101a8610abb565b6040516101b59190611842565b60405180910390f35b6101d860048036038101906101d3919061151a565b610b26565b005b6101f460048036038101906101ef91906114de565b610c62565b6040516102019190611842565b60405180910390f35b610212610cda565b60405161021f9190611842565b60405180910390f35b610230610d45565b005b61024c60048036038101906102479190611427565b610d4f565b6040516102599190611842565b60405180910390f35b600061029160405160200161027690611789565b60405160208183030381529060405280519060200120610f96565b905060006102c26040516020016102a790611774565b60405160208183030381529060405280519060200120610f96565b90508073ffffffffffffffffffffffffffffffffffffffff16634641257d6040518163ffffffff1660e01b8152600401600060405180830381600087803b15801561030c57600080fd5b505af1158015610320573d6000803e3d6000fd5b5050505061032c610fe1565b60003073ffffffffffffffffffffffffffffffffffffffff16639d3c259a856040518263ffffffff1660e01b8152600401610367919061179e565b60206040518083038186803b15801561037f57600080fd5b505afa158015610393573d6000803e3d6000fd5b505050506040513d601f19601f820116820180604052508101906103b791906114b5565b90506000811115610523576103cb846109dd565b6103fc64e8d4a510006103ee6103df610563565b8561112290919063ffffffff16565b61113890919063ffffffff16565b111561052257600061044f610410866109dd565b61044164e8d4a51000610433610424610563565b8761112290919063ffffffff16565b61113890919063ffffffff16565b61114e90919063ffffffff16565b90507f4e2c5ab35c5a6c864cb37f0d4b556e39e83aa85e744306ad9fd3ad7cc933028b816040516104809190611842565b60405180910390a16000811115610520578373ffffffffffffffffffffffffffffffffffffffff1663a9059cbb86836040518363ffffffff1660e01b81526004016104cc9291906117b9565b602060405180830381600087803b1580156104e657600080fd5b505af11580156104fa573d6000803e3d6000fd5b505050506040513d601f19601f8201168201806040525081019061051e919061148c565b505b505b5b61055d8461055864e8d4a5100061054a61053b610563565b8661112290919063ffffffff16565b61113890919063ffffffff16565b611164565b50505050565b60006105c96040518060400160405280601a81526020017f7646696e69782e6163635f66696e69785f7065725f73686172650000000000008152506040516020016105ae9190611735565b604051602081830303815290604052805190602001206111cf565b905090565b60006106346040518060400160405280601681526020017f7646696e69782e626f6e75735f656e645f626c6f636b000000000000000000008152506040516020016106199190611735565b604051602081830303815290604052805190602001206111cf565b905090565b3073ffffffffffffffffffffffffffffffffffffffff163373ffffffffffffffffffffffffffffffffffffffff16146106a7576040517f08c379a000000000000000000000000000000000000000000000000000000000815260040161069e906117e2565b60405180910390fd5b60006106d66040516020016106bb90611789565b60405160208183030381529060405280519060200120610f96565b90506106e0610fe1565b60003073ffffffffffffffffffffffffffffffffffffffff16639d3c259a856040518263ffffffff1660e01b815260040161071b919061179e565b60206040518083038186803b15801561073357600080fd5b505afa158015610747573d6000803e3d6000fd5b505050506040513d601f19601f8201168201806040525081019061076b91906114b5565b9050828110156107b0576040517f08c379a00000000000000000000000000000000000000000000000000000000081526004016107a790611822565b60405180910390fd5b60006107c5848361114e90919063ffffffff16565b90506000811115610931576107d9856109dd565b61080a64e8d4a510006107fc6107ed610563565b8561112290919063ffffffff16565b61113890919063ffffffff16565b111561093057600061085d61081e876109dd565b61084f64e8d4a51000610841610832610563565b8761112290919063ffffffff16565b61113890919063ffffffff16565b61114e90919063ffffffff16565b90507f4e2c5ab35c5a6c864cb37f0d4b556e39e83aa85e744306ad9fd3ad7cc933028b8160405161088e9190611842565b60405180910390a1600081111561092e578373ffffffffffffffffffffffffffffffffffffffff1663a9059cbb87836040518363ffffffff1660e01b81526004016108da9291906117b9565b602060405180830381600087803b1580156108f457600080fd5b505af1158015610908573d6000803e3d6000fd5b505050506040513d601f19601f8201168201806040525081019061092c919061148c565b505b505b5b61096b8561096664e8d4a51000610958610949610563565b8761112290919063ffffffff16565b61113890919063ffffffff16565b611164565b5050505050565b60006109d86040518060400160405280601281526020017f7646696e69782e73746172745f626c6f636b00000000000000000000000000008152506040516020016109bd9190611735565b604051602081830303815290604052805190602001206111cf565b905090565b6000610a456040518060400160405280601781526020017f7646696e69782e757365725f7265776172645f6465627400000000000000000081525083604051602001610a2a92919061174c565b604051602081830303815290604052805190602001206111cf565b9050919050565b610a546111fa565b610ab96040518060400160405280601681526020017f7646696e69782e626f6e75735f656e645f626c6f636b00000000000000000000815250604051602001610a9d9190611735565b6040516020818303038152906040528051906020012043611295565b565b6000610b216040518060400160405280601781526020017f7646696e69782e7265776172645f7065725f626c6f636b000000000000000000815250604051602001610b069190611735565b604051602081830303815290604052805190602001206111cf565b905090565b610b2e6111fa565b610b936040518060400160405280601281526020017f7646696e69782e73746172745f626c6f636b0000000000000000000000000000815250604051602001610b779190611735565b6040516020818303038152906040528051906020012083611295565b610bf86040518060400160405280601781526020017f7646696e69782e7265776172645f7065725f626c6f636b000000000000000000815250604051602001610bdc9190611735565b6040516020818303038152906040528051906020012084611295565b610c5d6040518060400160405280601681526020017f7646696e69782e626f6e75735f656e645f626c6f636b00000000000000000000815250604051602001610c419190611735565b6040516020818303038152906040528051906020012082611295565b505050565b6000610c6c6105ce565b82111580610c8157506000610c7f6105ce565b145b15610ca057610c99838361114e90919063ffffffff16565b9050610cd4565b610ca86105ce565b8310610cb75760009050610cd4565b610cd183610cc36105ce565b61114e90919063ffffffff16565b90505b92915050565b6000610d406040518060400160405280601c81526020017f7646696e69782e6c6173745f7265776172645f7065725f626c6f636b00000000815250604051602001610d259190611735565b604051602081830303815290604052805190602001206111cf565b905090565b610d4d610fe1565b565b6000803073ffffffffffffffffffffffffffffffffffffffff166318160ddd6040518163ffffffff1660e01b815260040160206040518083038186803b158015610d9857600080fd5b505afa158015610dac573d6000803e3d6000fd5b505050506040513d601f19601f82011682018060405250810190610dd091906114b5565b90506000610ddc610563565b9050610de6610cda565b43118015610df5575060008214155b15610e75576000610e0d610e07610cda565b43610c62565b90506000610e2b610e1c610abb565b8361112290919063ffffffff16565b9050610e70610e5a85610e4c64e8d4a510008561112290919063ffffffff16565b61113890919063ffffffff16565b610e62610563565b6112c090919063ffffffff16565b925050505b60003073ffffffffffffffffffffffffffffffffffffffff16639d3c259a866040518263ffffffff1660e01b8152600401610eb0919061179e565b60206040518083038186803b158015610ec857600080fd5b505afa158015610edc573d6000803e3d6000fd5b505050506040513d601f19601f82011682018060405250810190610f0091906114b5565b9050610f0b856109dd565b610f3564e8d4a51000610f27858561112290919063ffffffff16565b61113890919063ffffffff16565b1115610f8957610f7f610f47866109dd565b610f7164e8d4a51000610f63868661112290919063ffffffff16565b61113890919063ffffffff16565b61114e90919063ffffffff16565b9350505050610f91565b600093505050505b919050565b600080610fa16112d6565b905080600501600084815260200190815260200160002060009054906101000a900473ffffffffffffffffffffffffffffffffffffffff16915050919050565b610fe9610cda565b4311610ff457611120565b60003073ffffffffffffffffffffffffffffffffffffffff166318160ddd6040518163ffffffff1660e01b815260040160206040518083038186803b15801561103c57600080fd5b505afa158015611050573d6000803e3d6000fd5b505050506040513d601f19601f8201168201806040525081019061107491906114b5565b90506000611080610cda565b14156110955761108f43611303565b50611120565b60006110a86110a2610cda565b43610c62565b905060006110c66110b7610abb565b8361112290919063ffffffff16565b905061111361110e6110f8856110ea64e8d4a510008661112290919063ffffffff16565b61113890919063ffffffff16565b611100610563565b6112c090919063ffffffff16565b61136b565b61111c43611303565b5050505b565b60008183611130919061190b565b905092915050565b6000818361114691906118da565b905092915050565b6000818361115c9190611965565b905092915050565b6111cb6040518060400160405280601781526020017f7646696e69782e757365725f7265776172645f64656274000000000000000000815250836040516020016111af92919061174c565b6040516020818303038152906040528051906020012082611295565b5050565b6000806111da6112d6565b905080600401600084815260200190815260200160002054915050919050565b6112026112d6565b60030160009054906101000a900473ffffffffffffffffffffffffffffffffffffffff1673ffffffffffffffffffffffffffffffffffffffff163373ffffffffffffffffffffffffffffffffffffffff1614611293576040517f08c379a000000000000000000000000000000000000000000000000000000000815260040161128a90611802565b60405180910390fd5b565b600061129f6112d6565b90508181600401600085815260200190815260200160002081905550505050565b600081836112ce9190611884565b905092915050565b6000807fc8fcad8db84d3cc18b4c41d551ea0ee66dd599cde068d998e57d5e09332c131c90508091505090565b6113686040518060400160405280601c81526020017f7646696e69782e6c6173745f7265776172645f7065725f626c6f636b0000000081525060405160200161134c9190611735565b6040516020818303038152906040528051906020012082611295565b50565b6113d06040518060400160405280601a81526020017f7646696e69782e6163635f66696e69785f7065725f73686172650000000000008152506040516020016113b49190611735565b6040516020818303038152906040528051906020012082611295565b50565b6000813590506113e281611aa3565b92915050565b6000815190506113f781611aba565b92915050565b60008135905061140c81611ad1565b92915050565b60008151905061142181611ad1565b92915050565b60006020828403121561143957600080fd5b6000611447848285016113d3565b91505092915050565b6000806040838503121561146357600080fd5b6000611471858286016113d3565b9250506020611482858286016113fd565b9150509250929050565b60006020828403121561149e57600080fd5b60006114ac848285016113e8565b91505092915050565b6000602082840312156114c757600080fd5b60006114d584828501611412565b91505092915050565b600080604083850312156114f157600080fd5b60006114ff858286016113fd565b9250506020611510858286016113fd565b9150509250929050565b60008060006060848603121561152f57600080fd5b600061153d868287016113fd565b935050602061154e868287016113fd565b925050604061155f868287016113fd565b9150509250925092565b61157281611999565b82525050565b61158961158482611999565b611a14565b82525050565b600061159a8261185d565b6115a48185611879565b93506115b48185602086016119e1565b80840191505092915050565b60006115cd601b83611868565b91507f53484f554c442043414c4c2042592054484953204144445245535300000000006000830152602082019050919050565b600061160d602283611868565b91507f4c69624469616d6f6e643a204d75737420626520636f6e7472616374206f776e60008301527f65720000000000000000000000000000000000000000000000000000000000006020830152604082019050919050565b6000611673600f83611879565b91507f4175746f4865726f646f747573563200000000000000000000000000000000006000830152600f82019050919050565b60006116b3600583611879565b91507f46494e49580000000000000000000000000000000000000000000000000000006000830152600582019050919050565b60006116f3600e83611868565b91507f494e56414c494420414d4f554e540000000000000000000000000000000000006000830152602082019050919050565b61172f816119d7565b82525050565b6000611741828461158f565b915081905092915050565b6000611758828561158f565b91506117648284611578565b6014820191508190509392505050565b600061177f82611666565b9150819050919050565b6000611794826116a6565b9150819050919050565b60006020820190506117b36000830184611569565b92915050565b60006040820190506117ce6000830185611569565b6117db6020830184611726565b9392505050565b600060208201905081810360008301526117fb816115c0565b9050919050565b6000602082019050818103600083015261181b81611600565b9050919050565b6000602082019050818103600083015261183b816116e6565b9050919050565b60006020820190506118576000830184611726565b92915050565b600081519050919050565b600082825260208201905092915050565b600081905092915050565b600061188f826119d7565b915061189a836119d7565b9250827fffffffffffffffffffffffffffffffffffffffffffffffffffffffffffffffff038211156118cf576118ce611a38565b5b828201905092915050565b60006118e5826119d7565b91506118f0836119d7565b925082611900576118ff611a67565b5b828204905092915050565b6000611916826119d7565b9150611921836119d7565b9250817fffffffffffffffffffffffffffffffffffffffffffffffffffffffffffffffff048311821515161561195a57611959611a38565b5b828202905092915050565b6000611970826119d7565b915061197b836119d7565b92508282101561198e5761198d611a38565b5b828203905092915050565b60006119a4826119b7565b9050919050565b60008115159050919050565b600073ffffffffffffffffffffffffffffffffffffffff82169050919050565b6000819050919050565b60005b838110156119ff5780820151818401526020810190506119e4565b83811115611a0e576000848401525b50505050565b6000611a1f82611a26565b9050919050565b6000611a3182611a96565b9050919050565b7f4e487b7100000000000000000000000000000000000000000000000000000000600052601160045260246000fd5b7f4e487b7100000000000000000000000000000000000000000000000000000000600052601260045260246000fd5b60008160601b9050919050565b611aac81611999565b8114611ab757600080fd5b50565b611ac3816119ab565b8114611ace57600080fd5b50565b611ada816119d7565b8114611ae557600080fd5b5056fea264697066735822122054fa5595e38cb55309ff831ab746f6692bbd70ea28fa5f95f26d9e5fc35c242964736f6c63430008000033",
  "immutableReferences": {},
  "source": "pragma solidity ^0.8.0;\n\nimport { LibDiamond } from \"../libraries/LibDiamond.sol\";\nimport \"../utils/math/SafeMath.sol\";\nimport \"../interfaces/IKIP7.sol\";\nimport \"../interfaces/IUsageFacet.sol\";\nimport \"../interfaces/IRewardFacet.sol\";\nimport \"../interfaces/IAutoHerodotusV2.sol\";\n\ncontract RewardFacet is IRewardFacet {\n\n    using SafeMath for uint256;\n\n    string constant private KEY_VFINIX_REWARD_PER_BLOCK = \"vFinix.reward_per_block\";\n    string constant private KEY_VFINIX_ACC_FINIX_PER_SHARE = \"vFinix.acc_finix_per_share\";\n    string constant private KEY_VFINIX_REWARD_START_BLOCK = \"vFinix.start_block\";\n    string constant private KEY_VFINIX_REWARD_END_BLOCK = \"vFinix.bonus_end_block\";\n    string constant private KEY_VFINIX_USER_REWARD_DEBT = \"vFinix.user_reward_debt\";\n    string constant private KEY_VFINIX_LAST_REWARD_PER_BLOCK = \"vFinix.last_reward_per_block\";\n\n    function init (\n        uint256 _rewardPerBlock,\n        uint256 _startBlock,\n        uint256 _bonusEndBlock\n    ) external {\n        LibDiamond.enforceIsContractOwner();\n        LibDiamond.setUint(keccak256(abi.encodePacked(KEY_VFINIX_REWARD_START_BLOCK)),_startBlock);\n        LibDiamond.setUint(keccak256(abi.encodePacked(KEY_VFINIX_REWARD_PER_BLOCK)),_rewardPerBlock);\n        LibDiamond.setUint(keccak256(abi.encodePacked(KEY_VFINIX_REWARD_END_BLOCK)),_bonusEndBlock);\n    }\n\n    function stopReward() external {\n        LibDiamond.enforceIsContractOwner();\n        LibDiamond.setUint(keccak256(abi.encodePacked(KEY_VFINIX_REWARD_END_BLOCK)),block.number);\n    }\n\n    function getMultiplier(uint256 _from, uint256 _to) public view returns (uint256) {\n        if (_to <= bonusEndBlock() || bonusEndBlock() == 0) {\n            return _to.sub(_from);\n        } else if (_from >= bonusEndBlock()) {\n            return 0;\n        } else {\n            return bonusEndBlock().sub(_from);\n        }\n    }\n\n    function pendingReward(address _user) external view returns (uint256) {\n        uint256 lpSupply = IKIP7(address(this)).totalSupply();\n        uint256 accFinixPerShare_ = accFinixPerShare();\n        if (block.number > lastRewardBlock() && lpSupply != 0) {\n            uint256 multiplier = getMultiplier(lastRewardBlock(), block.number);\n            uint256 finixReward = multiplier.mul(rewardPerBlock());\n            // accCakePerShare = accCakePerShare.add(cakeReward.mul(1e12).div(lpSupply));\n            accFinixPerShare_ = accFinixPerShare().add(finixReward.mul(1e12).div(lpSupply));\n        }\n        uint256 userTotalVotes = IUsageFacet(address(this)).getTotalVotes(_user);\n        if(userTotalVotes.mul(accFinixPerShare_).div(1e12) > userRewardDebt(_user)) {\n            return userTotalVotes.mul(accFinixPerShare_).div(1e12).sub(userRewardDebt(_user));\n        }\n        return 0;\n    }\n\n    event Pending(uint256 _pending);\n    event UserRewardDebt(uint256 _userRewardDebt);\n    event AccFinixPerShare(uint256 _accFinixPerShare);\n    event UserTotalVotes(uint256 _userTotalVotes);\n\n    function deposit(address _user, uint256 _amount) public override {\n        // LibDiamond.enforceIsContractOwner();\n        require(msg.sender == address(this),\"SHOULD CALL BY THIS ADDRESS\");\n        address FINIX = LibDiamond.getAddress(keccak256(abi.encodePacked(\"FINIX\")));\n\n        _updatePool();\n        uint256 userTotalVotes = IUsageFacet(address(this)).getTotalVotes(_user);\n        require(userTotalVotes >= _amount,\"INVALID AMOUNT\");\n        uint256 previousAmount = userTotalVotes.sub(_amount);\n        if (previousAmount > 0) {\n            if(previousAmount.mul(accFinixPerShare()).div(1e12) > userRewardDebt(_user)) {\n                uint256 pending = previousAmount.mul(accFinixPerShare()).div(1e12).sub(userRewardDebt(_user));\n                emit Pending(pending);\n                if(pending > 0) {\n                    IKIP7(FINIX).transfer(_user, pending);\n                }\n            }\n        }\n        _setUserRewardDebt(_user, userTotalVotes.mul(accFinixPerShare()).div(1e12));\n\n    }\n\n    function harvest(address _user) public override {\n        address FINIX = LibDiamond.getAddress(keccak256(abi.encodePacked(\"FINIX\")));\n        address autoHeroV2 = LibDiamond.getAddress(keccak256(abi.encodePacked(\"AutoHerodotusV2\")));\n        IAutoHerodotusV2(autoHeroV2).harvest();\n        _updatePool();\n        uint256 userTotalVotes = IUsageFacet(address(this)).getTotalVotes(_user);\n        if (userTotalVotes > 0) {\n            if(userTotalVotes.mul(accFinixPerShare()).div(1e12) > userRewardDebt(_user)) {\n                uint256 pending = userTotalVotes.mul(accFinixPerShare()).div(1e12).sub(userRewardDebt(_user));\n                emit Pending(pending);\n                if(pending > 0) {\n                    IKIP7(FINIX).transfer(_user, pending);\n                }\n            }\n        }\n        _setUserRewardDebt(_user, userTotalVotes.mul(accFinixPerShare()).div(1e12));\n    }\n\n    function updatePool() public override {\n        _updatePool();\n    }\n\n    function _updatePool() internal {\n        if (block.number <= lastRewardBlock()) {\n            return;\n        }\n        uint256 lpSupply = IKIP7(address(this)).totalSupply();\n        if (lastRewardBlock() == 0) { \n            _setLastRewardBlock(block.number);\n            return;\n        }\n        uint256 multiplier = getMultiplier(lastRewardBlock(), block.number);\n        uint256 finixReward = multiplier.mul(rewardPerBlock());\n        _setAccFinixPerShare(accFinixPerShare().add(finixReward.mul(1e12).div(lpSupply)));\n        _setLastRewardBlock(block.number);\n    }\n\n\n    function rewardPerBlock() public view returns(uint256) {\n        return LibDiamond.getUint(keccak256(abi.encodePacked(KEY_VFINIX_REWARD_PER_BLOCK)));\n    }\n\n    function _setAccFinixPerShare(uint256 _accFinixPerShare) internal {\n        LibDiamond.setUint(keccak256(abi.encodePacked(KEY_VFINIX_ACC_FINIX_PER_SHARE)),_accFinixPerShare);\n    }\n    function accFinixPerShare() public view returns(uint256) {\n        return LibDiamond.getUint(keccak256(abi.encodePacked(KEY_VFINIX_ACC_FINIX_PER_SHARE)));\n    }\n\n    function startBlock() public view returns(uint256) {\n        return LibDiamond.getUint(keccak256(abi.encodePacked(KEY_VFINIX_REWARD_START_BLOCK)));\n    }\n\n    function bonusEndBlock() public view returns(uint256) {\n        return LibDiamond.getUint(keccak256(abi.encodePacked(KEY_VFINIX_REWARD_END_BLOCK)));\n    }\n\n    function _setLastRewardBlock(uint256 _lastRewardBlock) internal{\n        return LibDiamond.setUint(keccak256(abi.encodePacked(KEY_VFINIX_LAST_REWARD_PER_BLOCK)),_lastRewardBlock);\n    }\n    function lastRewardBlock() public view returns(uint256) {\n        return LibDiamond.getUint(keccak256(abi.encodePacked(KEY_VFINIX_LAST_REWARD_PER_BLOCK)));\n    }\n\n    function _setUserRewardDebt(address _user,uint256 _rewardDebt) internal {\n        // KEY_VFINIX_USER_REWARD_DEBT\n        LibDiamond.setUint(keccak256(abi.encodePacked(KEY_VFINIX_USER_REWARD_DEBT,_user)),_rewardDebt);\n    }\n    function userRewardDebt(address _user) public view returns(uint256) {\n        // KEY_VFINIX_USER_REWARD_DEBT\n        return LibDiamond.getUint(keccak256(abi.encodePacked(KEY_VFINIX_USER_REWARD_DEBT,_user)));\n    }\n\n}",
  "sourcePath": "/Users/kanthakarn/Documents/work/six-network/definix-vfinix/contracts/facets/RewardFacet.sol",
  "compiler": {
    "name": "solc",
    "version": "0.8.0+commit.c7dfd78e.Emscripten.clang"
  },
  "schemaVersion": "3.4.1",
  "updatedAt": "2021-10-22T08:23:17.586Z",
  "networkType": "ethereum",
  "devdoc": {
    "kind": "dev",
    "methods": {},
    "version": 1
  },
  "userdoc": {
    "kind": "user",
    "methods": {},
    "version": 1
  }
}