{
  "contractName": "RewardFacet",
  "abi": [
    {
      "anonymous": false,
      "inputs": [
        {
          "indexed": false,
          "internalType": "uint256",
          "name": "_accFinixPerShare",
          "type": "uint256"
        }
      ],
      "name": "AccFinixPerShare",
      "type": "event"
    },
    {
      "anonymous": false,
      "inputs": [
        {
          "indexed": false,
          "internalType": "uint256",
          "name": "_pending",
          "type": "uint256"
        }
      ],
      "name": "Pending",
      "type": "event"
    },
    {
      "anonymous": false,
      "inputs": [
        {
          "indexed": false,
          "internalType": "uint256",
          "name": "_userRewardDebt",
          "type": "uint256"
        }
      ],
      "name": "UserRewardDebt",
      "type": "event"
    },
    {
      "anonymous": false,
      "inputs": [
        {
          "indexed": false,
          "internalType": "uint256",
          "name": "_userTotalVotes",
          "type": "uint256"
        }
      ],
      "name": "UserTotalVotes",
      "type": "event"
    },
    {
      "inputs": [
        {
          "internalType": "uint256",
          "name": "_rewardPerBlock",
          "type": "uint256"
        },
        {
          "internalType": "uint256",
          "name": "_startBlock",
          "type": "uint256"
        },
        {
          "internalType": "uint256",
          "name": "_bonusEndBlock",
          "type": "uint256"
        }
      ],
      "name": "init",
      "outputs": [],
      "stateMutability": "nonpayable",
      "type": "function"
    },
    {
      "inputs": [],
      "name": "stopReward",
      "outputs": [],
      "stateMutability": "nonpayable",
      "type": "function"
    },
    {
      "inputs": [
        {
          "internalType": "uint256",
          "name": "_from",
          "type": "uint256"
        },
        {
          "internalType": "uint256",
          "name": "_to",
          "type": "uint256"
        }
      ],
      "name": "getMultiplier",
      "outputs": [
        {
          "internalType": "uint256",
          "name": "",
          "type": "uint256"
        }
      ],
      "stateMutability": "view",
      "type": "function",
      "constant": true
    },
    {
      "inputs": [
        {
          "internalType": "address",
          "name": "_user",
          "type": "address"
        }
      ],
      "name": "pendingReward",
      "outputs": [
        {
          "internalType": "uint256",
          "name": "",
          "type": "uint256"
        }
      ],
      "stateMutability": "view",
      "type": "function",
      "constant": true
    },
    {
      "inputs": [
        {
          "internalType": "address",
          "name": "_user",
          "type": "address"
        }
      ],
      "name": "harvest",
      "outputs": [],
      "stateMutability": "nonpayable",
      "type": "function"
    },
    {
      "inputs": [],
      "name": "updatePool",
      "outputs": [],
      "stateMutability": "nonpayable",
      "type": "function"
    },
    {
      "inputs": [],
      "name": "rewardPerBlock",
      "outputs": [
        {
          "internalType": "uint256",
          "name": "",
          "type": "uint256"
        }
      ],
      "stateMutability": "view",
      "type": "function",
      "constant": true
    },
    {
      "inputs": [],
      "name": "accFinixPerShare",
      "outputs": [
        {
          "internalType": "uint256",
          "name": "",
          "type": "uint256"
        }
      ],
      "stateMutability": "view",
      "type": "function",
      "constant": true
    },
    {
      "inputs": [],
      "name": "startBlock",
      "outputs": [
        {
          "internalType": "uint256",
          "name": "",
          "type": "uint256"
        }
      ],
      "stateMutability": "view",
      "type": "function",
      "constant": true
    },
    {
      "inputs": [],
      "name": "bonusEndBlock",
      "outputs": [
        {
          "internalType": "uint256",
          "name": "",
          "type": "uint256"
        }
      ],
      "stateMutability": "view",
      "type": "function",
      "constant": true
    },
    {
      "inputs": [],
      "name": "lastRewardBlock",
      "outputs": [
        {
          "internalType": "uint256",
          "name": "",
          "type": "uint256"
        }
      ],
      "stateMutability": "view",
      "type": "function",
      "constant": true
    },
    {
      "inputs": [
        {
          "internalType": "address",
          "name": "_user",
          "type": "address"
        }
      ],
      "name": "userRewardDebt",
      "outputs": [
        {
          "internalType": "uint256",
          "name": "",
          "type": "uint256"
        }
      ],
      "stateMutability": "view",
      "type": "function",
      "constant": true
    }
  ],
  "bytecode": "0x608060405234801561001057600080fd5b506116b2806100206000396000f3fe608060405234801561001057600080fd5b50600436106100b45760003560e01c80638ae39cac116100715780638ae39cac146101695780638cd8db8a146101875780638dbb1e3a146101a3578063a9f8d181146101d3578063e3161ddd146101f1578063f40f0f52146101fb576100b4565b80630e5c011e146100b95780630f6474f4146100d55780631aed6553146100f357806348cd4cb1146101115780634bf6f9e71461012f57806380dc06721461015f575b600080fd5b6100d360048036038101906100ce91906110b7565b61022b565b005b6100dd61052c565b6040516100ea91906113d6565b60405180910390f35b6100fb610597565b60405161010891906113d6565b60405180910390f35b610119610602565b60405161012691906113d6565b60405180910390f35b610149600480360381019061014491906110b7565b61066d565b60405161015691906113d6565b60405180910390f35b6101676106dc565b005b61017161074b565b60405161017e91906113d6565b60405180910390f35b6101a1600480360381019061019c919061116e565b6107b6565b005b6101bd60048036038101906101b89190611132565b6108f2565b6040516101ca91906113d6565b60405180910390f35b6101db61096a565b6040516101e891906113d6565b60405180910390f35b6101f96109d5565b005b610215600480360381019061021091906110b7565b6109df565b60405161022291906113d6565b60405180910390f35b600061025a60405160200161023f9061135d565b60405160208183030381529060405280519060200120610c2d565b9050600061028b60405160200161027090611348565b60405160208183030381529060405280519060200120610c2d565b90508073ffffffffffffffffffffffffffffffffffffffff16634641257d6040518163ffffffff1660e01b8152600401600060405180830381600087803b1580156102d557600080fd5b505af11580156102e9573d6000803e3d6000fd5b505050506102f5610c78565b60003073ffffffffffffffffffffffffffffffffffffffff16639d3c259a856040518263ffffffff1660e01b81526004016103309190611372565b60206040518083038186803b15801561034857600080fd5b505afa15801561035c573d6000803e3d6000fd5b505050506040513d601f19601f820116820180604052508101906103809190611109565b905060008111156104ec576103948461066d565b6103c564e8d4a510006103b76103a861052c565b85610db290919063ffffffff16565b610dc890919063ffffffff16565b11156104eb5760006104186103d98661066d565b61040a64e8d4a510006103fc6103ed61052c565b87610db290919063ffffffff16565b610dc890919063ffffffff16565b610dde90919063ffffffff16565b90507f4e2c5ab35c5a6c864cb37f0d4b556e39e83aa85e744306ad9fd3ad7cc933028b8160405161044991906113d6565b60405180910390a160008111156104e9578373ffffffffffffffffffffffffffffffffffffffff1663a9059cbb86836040518363ffffffff1660e01b815260040161049592919061138d565b602060405180830381600087803b1580156104af57600080fd5b505af11580156104c3573d6000803e3d6000fd5b505050506040513d601f19601f820116820180604052508101906104e791906110e0565b505b505b5b6105268461052164e8d4a5100061051361050461052c565b86610db290919063ffffffff16565b610dc890919063ffffffff16565b610df4565b50505050565b60006105926040518060400160405280601a81526020017f7646696e69782e6163635f66696e69785f7065725f73686172650000000000008152506040516020016105779190611309565b60405160208183030381529060405280519060200120610e5f565b905090565b60006105fd6040518060400160405280601681526020017f7646696e69782e626f6e75735f656e645f626c6f636b000000000000000000008152506040516020016105e29190611309565b60405160208183030381529060405280519060200120610e5f565b905090565b60006106686040518060400160405280601281526020017f7646696e69782e73746172745f626c6f636b000000000000000000000000000081525060405160200161064d9190611309565b60405160208183030381529060405280519060200120610e5f565b905090565b60006106d56040518060400160405280601781526020017f7646696e69782e757365725f7265776172645f64656274000000000000000000815250836040516020016106ba929190611320565b60405160208183030381529060405280519060200120610e5f565b9050919050565b6106e4610e8a565b6107496040518060400160405280601681526020017f7646696e69782e626f6e75735f656e645f626c6f636b0000000000000000000081525060405160200161072d9190611309565b6040516020818303038152906040528051906020012043610f25565b565b60006107b16040518060400160405280601781526020017f7646696e69782e7265776172645f7065725f626c6f636b0000000000000000008152506040516020016107969190611309565b60405160208183030381529060405280519060200120610e5f565b905090565b6107be610e8a565b6108236040518060400160405280601281526020017f7646696e69782e73746172745f626c6f636b00000000000000000000000000008152506040516020016108079190611309565b6040516020818303038152906040528051906020012084610f25565b6108886040518060400160405280601781526020017f7646696e69782e7265776172645f7065725f626c6f636b00000000000000000081525060405160200161086c9190611309565b6040516020818303038152906040528051906020012083610f25565b6108ed6040518060400160405280601681526020017f7646696e69782e626f6e75735f656e645f626c6f636b000000000000000000008152506040516020016108d19190611309565b6040516020818303038152906040528051906020012082610f25565b505050565b60006108fc610597565b821115806109115750600061090f610597565b145b15610930576109298383610dde90919063ffffffff16565b9050610964565b610938610597565b83106109475760009050610964565b61096183610953610597565b610dde90919063ffffffff16565b90505b92915050565b60006109d06040518060400160405280601c81526020017f7646696e69782e6c6173745f7265776172645f7065725f626c6f636b000000008152506040516020016109b59190611309565b60405160208183030381529060405280519060200120610e5f565b905090565b6109dd610c78565b565b6000803073ffffffffffffffffffffffffffffffffffffffff166318160ddd6040518163ffffffff1660e01b815260040160206040518083038186803b158015610a2857600080fd5b505afa158015610a3c573d6000803e3d6000fd5b505050506040513d601f19601f82011682018060405250810190610a609190611109565b90506000610a6c61052c565b9050610a7661096a565b43118015610a85575060008214155b15610b05576000610a9d610a9761096a565b436108f2565b90506000610abb610aac61074b565b83610db290919063ffffffff16565b9050610b00610aea85610adc64e8d4a5100085610db290919063ffffffff16565b610dc890919063ffffffff16565b610af261052c565b610f5090919063ffffffff16565b925050505b60003073ffffffffffffffffffffffffffffffffffffffff16639d3c259a866040518263ffffffff1660e01b8152600401610b409190611372565b60206040518083038186803b158015610b5857600080fd5b505afa158015610b6c573d6000803e3d6000fd5b505050506040513d601f19601f82011682018060405250810190610b909190611109565b9050610b9b8561066d565b610bcc64e8d4a51000610bbe610baf61052c565b85610db290919063ffffffff16565b610dc890919063ffffffff16565b1115610c2057610c16610bde8661066d565b610c0864e8d4a51000610bfa8686610db290919063ffffffff16565b610dc890919063ffffffff16565b610dde90919063ffffffff16565b9350505050610c28565b600093505050505b919050565b600080610c38610f66565b905080600501600084815260200190815260200160002060009054906101000a900473ffffffffffffffffffffffffffffffffffffffff16915050919050565b610c8061096a565b4311610c8b57610db0565b60003073ffffffffffffffffffffffffffffffffffffffff166318160ddd6040518163ffffffff1660e01b815260040160206040518083038186803b158015610cd357600080fd5b505afa158015610ce7573d6000803e3d6000fd5b505050506040513d601f19601f82011682018060405250810190610d0b9190611109565b90506000811415610d2557610d1f43610f93565b50610db0565b6000610d38610d3261096a565b436108f2565b90506000610d56610d4761074b565b83610db290919063ffffffff16565b9050610da3610d9e610d8885610d7a64e8d4a5100086610db290919063ffffffff16565b610dc890919063ffffffff16565b610d9061052c565b610f5090919063ffffffff16565b610ffb565b610dac43610f93565b5050505b565b60008183610dc0919061149f565b905092915050565b60008183610dd6919061146e565b905092915050565b60008183610dec91906114f9565b905092915050565b610e5b6040518060400160405280601781526020017f7646696e69782e757365725f7265776172645f6465627400000000000000000081525083604051602001610e3f929190611320565b6040516020818303038152906040528051906020012082610f25565b5050565b600080610e6a610f66565b905080600401600084815260200190815260200160002054915050919050565b610e92610f66565b60030160009054906101000a900473ffffffffffffffffffffffffffffffffffffffff1673ffffffffffffffffffffffffffffffffffffffff163373ffffffffffffffffffffffffffffffffffffffff1614610f23576040517f08c379a0000000000000000000000000000000000000000000000000000000008152600401610f1a906113b6565b60405180910390fd5b565b6000610f2f610f66565b90508181600401600085815260200190815260200160002081905550505050565b60008183610f5e9190611418565b905092915050565b6000807fc8fcad8db84d3cc18b4c41d551ea0ee66dd599cde068d998e57d5e09332c131c90508091505090565b610ff86040518060400160405280601c81526020017f7646696e69782e6c6173745f7265776172645f7065725f626c6f636b00000000815250604051602001610fdc9190611309565b6040516020818303038152906040528051906020012082610f25565b50565b6110606040518060400160405280601a81526020017f7646696e69782e6163635f66696e69785f7065725f73686172650000000000008152506040516020016110449190611309565b6040516020818303038152906040528051906020012082610f25565b50565b60008135905061107281611637565b92915050565b6000815190506110878161164e565b92915050565b60008135905061109c81611665565b92915050565b6000815190506110b181611665565b92915050565b6000602082840312156110c957600080fd5b60006110d784828501611063565b91505092915050565b6000602082840312156110f257600080fd5b600061110084828501611078565b91505092915050565b60006020828403121561111b57600080fd5b6000611129848285016110a2565b91505092915050565b6000806040838503121561114557600080fd5b60006111538582860161108d565b92505060206111648582860161108d565b9150509250929050565b60008060006060848603121561118357600080fd5b60006111918682870161108d565b93505060206111a28682870161108d565b92505060406111b38682870161108d565b9150509250925092565b6111c68161152d565b82525050565b6111dd6111d88261152d565b6115a8565b82525050565b60006111ee826113f1565b6111f8818561140d565b9350611208818560208601611575565b80840191505092915050565b60006112216022836113fc565b91507f4c69624469616d6f6e643a204d75737420626520636f6e7472616374206f776e60008301527f65720000000000000000000000000000000000000000000000000000000000006020830152604082019050919050565b6000611287600f8361140d565b91507f4175746f4865726f646f747573563200000000000000000000000000000000006000830152600f82019050919050565b60006112c760058361140d565b91507f46494e49580000000000000000000000000000000000000000000000000000006000830152600582019050919050565b6113038161156b565b82525050565b600061131582846111e3565b915081905092915050565b600061132c82856111e3565b915061133882846111cc565b6014820191508190509392505050565b60006113538261127a565b9150819050919050565b6000611368826112ba565b9150819050919050565b600060208201905061138760008301846111bd565b92915050565b60006040820190506113a260008301856111bd565b6113af60208301846112fa565b9392505050565b600060208201905081810360008301526113cf81611214565b9050919050565b60006020820190506113eb60008301846112fa565b92915050565b600081519050919050565b600082825260208201905092915050565b600081905092915050565b60006114238261156b565b915061142e8361156b565b9250827fffffffffffffffffffffffffffffffffffffffffffffffffffffffffffffffff03821115611463576114626115cc565b5b828201905092915050565b60006114798261156b565b91506114848361156b565b925082611494576114936115fb565b5b828204905092915050565b60006114aa8261156b565b91506114b58361156b565b9250817fffffffffffffffffffffffffffffffffffffffffffffffffffffffffffffffff04831182151516156114ee576114ed6115cc565b5b828202905092915050565b60006115048261156b565b915061150f8361156b565b925082821015611522576115216115cc565b5b828203905092915050565b60006115388261154b565b9050919050565b60008115159050919050565b600073ffffffffffffffffffffffffffffffffffffffff82169050919050565b6000819050919050565b60005b83811015611593578082015181840152602081019050611578565b838111156115a2576000848401525b50505050565b60006115b3826115ba565b9050919050565b60006115c58261162a565b9050919050565b7f4e487b7100000000000000000000000000000000000000000000000000000000600052601160045260246000fd5b7f4e487b7100000000000000000000000000000000000000000000000000000000600052601260045260246000fd5b60008160601b9050919050565b6116408161152d565b811461164b57600080fd5b50565b6116578161153f565b811461166257600080fd5b50565b61166e8161156b565b811461167957600080fd5b5056fea2646970667358221220a92ecdda28d443ea118c3f8eb496ee5867dbab58b6bf4e2c80d3e41beb8d9be164736f6c63430008000033",
  "immutableReferences": {},
  "source": "pragma solidity ^0.8.0;\n\nimport { LibDiamond } from \"../libraries/LibDiamond.sol\";\nimport \"../utils/math/SafeMath.sol\";\nimport \"../interfaces/IKIP7.sol\";\nimport \"../interfaces/IUsageFacet.sol\";\nimport \"../interfaces/IRewardFacet.sol\";\nimport \"../interfaces/IAutoHerodotusV2.sol\";\n\ncontract RewardFacet is IRewardFacet {\n\n    using SafeMath for uint256;\n\n    string constant private KEY_VFINIX_REWARD_PER_BLOCK = \"vFinix.reward_per_block\";\n    string constant private KEY_VFINIX_ACC_FINIX_PER_SHARE = \"vFinix.acc_finix_per_share\";\n    string constant private KEY_VFINIX_REWARD_START_BLOCK = \"vFinix.start_block\";\n    string constant private KEY_VFINIX_REWARD_END_BLOCK = \"vFinix.bonus_end_block\";\n    string constant private KEY_VFINIX_USER_REWARD_DEBT = \"vFinix.user_reward_debt\";\n    string constant private KEY_VFINIX_LAST_REWARD_PER_BLOCK = \"vFinix.last_reward_per_block\";\n\n    function init (\n        uint256 _rewardPerBlock,\n        uint256 _startBlock,\n        uint256 _bonusEndBlock\n    ) external {\n        LibDiamond.enforceIsContractOwner();\n        LibDiamond.setUint(keccak256(abi.encodePacked(KEY_VFINIX_REWARD_START_BLOCK)),_rewardPerBlock);\n        LibDiamond.setUint(keccak256(abi.encodePacked(KEY_VFINIX_REWARD_PER_BLOCK)),_startBlock);\n        LibDiamond.setUint(keccak256(abi.encodePacked(KEY_VFINIX_REWARD_END_BLOCK)),_bonusEndBlock);\n    }\n\n    function stopReward() external {\n        LibDiamond.enforceIsContractOwner();\n        LibDiamond.setUint(keccak256(abi.encodePacked(KEY_VFINIX_REWARD_END_BLOCK)),block.number);\n    }\n\n    function getMultiplier(uint256 _from, uint256 _to) public view returns (uint256) {\n        if (_to <= bonusEndBlock() || bonusEndBlock() == 0) {\n            return _to.sub(_from);\n        } else if (_from >= bonusEndBlock()) {\n            return 0;\n        } else {\n            return bonusEndBlock().sub(_from);\n        }\n    }\n\n    function pendingReward(address _user) external view returns (uint256) {\n        uint256 lpSupply = IKIP7(address(this)).totalSupply();\n        uint256 accFinixPerShare_ = accFinixPerShare();\n        if (block.number > lastRewardBlock() && lpSupply != 0) {\n            uint256 multiplier = getMultiplier(lastRewardBlock(), block.number);\n            uint256 finixReward = multiplier.mul(rewardPerBlock());\n            // accCakePerShare = accCakePerShare.add(cakeReward.mul(1e12).div(lpSupply));\n            accFinixPerShare_ = accFinixPerShare().add(finixReward.mul(1e12).div(lpSupply));\n        }\n        uint256 userTotalVotes = IUsageFacet(address(this)).getTotalVotes(_user);\n        if(userTotalVotes.mul(accFinixPerShare()).div(1e12) > userRewardDebt(_user)) {\n            return userTotalVotes.mul(accFinixPerShare_).div(1e12).sub(userRewardDebt(_user));\n        }\n        return 0;\n    }\n\n    event Pending(uint256 _pending);\n    event UserRewardDebt(uint256 _userRewardDebt);\n    event AccFinixPerShare(uint256 _accFinixPerShare);\n    event UserTotalVotes(uint256 _userTotalVotes);\n\n    function harvest(address _user) public override {\n        address FINIX = LibDiamond.getAddress(keccak256(abi.encodePacked(\"FINIX\")));\n        address autoHeroV2 = LibDiamond.getAddress(keccak256(abi.encodePacked(\"AutoHerodotusV2\")));\n        IAutoHerodotusV2(autoHeroV2).harvest();\n        _updatePool();\n        uint256 userTotalVotes = IUsageFacet(address(this)).getTotalVotes(_user);\n        if (userTotalVotes > 0) {\n            if(userTotalVotes.mul(accFinixPerShare()).div(1e12) > userRewardDebt(_user)) {\n                uint256 pending = userTotalVotes.mul(accFinixPerShare()).div(1e12).sub(userRewardDebt(_user));\n                emit Pending(pending);\n                if(pending > 0) {\n                    IKIP7(FINIX).transfer(_user, pending);\n                }\n            }\n        }\n        _setUserRewardDebt(_user, userTotalVotes.mul(accFinixPerShare()).div(1e12));\n    }\n\n    function updatePool() public override {\n        _updatePool();\n    }\n\n    function _updatePool() internal {\n        if (block.number <= lastRewardBlock()) {\n            return;\n        }\n        uint256 lpSupply = IKIP7(address(this)).totalSupply();\n        if (lpSupply == 0) { \n            _setLastRewardBlock(block.number);\n            return;\n        }\n        uint256 multiplier = getMultiplier(lastRewardBlock(), block.number);\n        uint256 finixReward = multiplier.mul(rewardPerBlock());\n        _setAccFinixPerShare(accFinixPerShare().add(finixReward.mul(1e12).div(lpSupply)));\n        _setLastRewardBlock(block.number);\n    }\n\n\n    function rewardPerBlock() public view returns(uint256) {\n        return LibDiamond.getUint(keccak256(abi.encodePacked(KEY_VFINIX_REWARD_PER_BLOCK)));\n    }\n\n    function _setAccFinixPerShare(uint256 _accFinixPerShare) internal {\n        LibDiamond.setUint(keccak256(abi.encodePacked(KEY_VFINIX_ACC_FINIX_PER_SHARE)),_accFinixPerShare);\n    }\n    function accFinixPerShare() public view returns(uint256) {\n        return LibDiamond.getUint(keccak256(abi.encodePacked(KEY_VFINIX_ACC_FINIX_PER_SHARE)));\n    }\n\n    function startBlock() public view returns(uint256) {\n        return LibDiamond.getUint(keccak256(abi.encodePacked(KEY_VFINIX_REWARD_START_BLOCK)));\n    }\n\n    function bonusEndBlock() public view returns(uint256) {\n        return LibDiamond.getUint(keccak256(abi.encodePacked(KEY_VFINIX_REWARD_END_BLOCK)));\n    }\n\n    function _setLastRewardBlock(uint256 _lastRewardBlock) internal{\n        return LibDiamond.setUint(keccak256(abi.encodePacked(KEY_VFINIX_LAST_REWARD_PER_BLOCK)),_lastRewardBlock);\n    }\n    function lastRewardBlock() public view returns(uint256) {\n        return LibDiamond.getUint(keccak256(abi.encodePacked(KEY_VFINIX_LAST_REWARD_PER_BLOCK)));\n    }\n\n    function _setUserRewardDebt(address _user,uint256 _rewardDebt) internal {\n        // KEY_VFINIX_USER_REWARD_DEBT\n        LibDiamond.setUint(keccak256(abi.encodePacked(KEY_VFINIX_USER_REWARD_DEBT,_user)),_rewardDebt);\n    }\n    function userRewardDebt(address _user) public view returns(uint256) {\n        // KEY_VFINIX_USER_REWARD_DEBT\n        return LibDiamond.getUint(keccak256(abi.encodePacked(KEY_VFINIX_USER_REWARD_DEBT,_user)));\n    }\n\n}",
  "sourcePath": "/Users/zatan007/go/src/github.com/definix-vfinix/contracts/facets/RewardFacet.sol",
  "compiler": {
    "name": "solc",
    "version": "0.8.0+commit.c7dfd78e.Emscripten.clang"
  },
  "schemaVersion": "3.4.1",
  "updatedAt": "2021-09-29T08:54:04.211Z",
  "networkType": "ethereum",
  "devdoc": {
    "kind": "dev",
    "methods": {},
    "version": 1
  },
  "userdoc": {
    "kind": "user",
    "methods": {},
    "version": 1
  }
}