{
  "contractName": "SellerFacet",
  "abi": [
    {
      "anonymous": false,
      "inputs": [
        {
          "indexed": true,
          "internalType": "uint256",
          "name": "orderId",
          "type": "uint256"
        },
        {
          "indexed": false,
          "internalType": "uint256",
          "name": "itemId",
          "type": "uint256"
        },
        {
          "indexed": false,
          "internalType": "address",
          "name": "tokenContract",
          "type": "address"
        },
        {
          "indexed": false,
          "internalType": "uint256",
          "name": "tokenId",
          "type": "uint256"
        },
        {
          "indexed": false,
          "internalType": "uint256",
          "name": "amount",
          "type": "uint256"
        }
      ],
      "name": "ItemCreated",
      "type": "event"
    },
    {
      "anonymous": false,
      "inputs": [
        {
          "indexed": false,
          "internalType": "address",
          "name": "owner",
          "type": "address"
        },
        {
          "indexed": true,
          "internalType": "uint256",
          "name": "_orderId",
          "type": "uint256"
        }
      ],
      "name": "OrderCancel",
      "type": "event"
    },
    {
      "anonymous": false,
      "inputs": [
        {
          "indexed": false,
          "internalType": "address",
          "name": "owner",
          "type": "address"
        },
        {
          "indexed": true,
          "internalType": "uint256",
          "name": "id",
          "type": "uint256"
        },
        {
          "indexed": false,
          "internalType": "address",
          "name": "currency",
          "type": "address"
        },
        {
          "indexed": false,
          "internalType": "uint256",
          "name": "amount",
          "type": "uint256"
        },
        {
          "indexed": false,
          "internalType": "uint256",
          "name": "price",
          "type": "uint256"
        }
      ],
      "name": "OrderCreated",
      "type": "event"
    },
    {
      "inputs": [
        {
          "components": [
            {
              "internalType": "address",
              "name": "_tokenContract",
              "type": "address"
            },
            {
              "internalType": "string",
              "name": "_description",
              "type": "string"
            },
            {
              "internalType": "uint256",
              "name": "_tokenId",
              "type": "uint256"
            },
            {
              "internalType": "uint256",
              "name": "_amount",
              "type": "uint256"
            },
            {
              "internalType": "uint256",
              "name": "_price",
              "type": "uint256"
            },
            {
              "internalType": "address",
              "name": "_currency",
              "type": "address"
            },
            {
              "internalType": "uint256",
              "name": "_sellPeriod",
              "type": "uint256"
            }
          ],
          "internalType": "struct LibDiamond.CreateSaleOrderOneItem",
          "name": "param",
          "type": "tuple"
        }
      ],
      "name": "sellNFTOneItem",
      "outputs": [],
      "stateMutability": "nonpayable",
      "type": "function"
    },
    {
      "inputs": [
        {
          "internalType": "bytes32",
          "name": "_orderCode",
          "type": "bytes32"
        }
      ],
      "name": "cancelOneOrder",
      "outputs": [],
      "stateMutability": "nonpayable",
      "type": "function"
    }
  ],
  "bytecode": "0x608060405234801561001057600080fd5b5061243b806100206000396000f3fe608060405234801561001057600080fd5b50600436106100365760003560e01c8063345958111461003b5780635188be8e14610057575b600080fd5b610055600480360381019061005091906115af565b610073565b005b610071600480360381019061006c91906115dc565b6103f9565b005b600061007e8261050b565b9050600061008b82610543565b9050600033836040516020016100a2929190611b66565b604051602081830303815290604052805190602001209050600115156100c78261057c565b151514610109576040517f08c379a000000000000000000000000000000000000000000000000000000000815260040161010090611adc565b60405180910390fd5b3373ffffffffffffffffffffffffffffffffffffffff168260030160009054906101000a900473ffffffffffffffffffffffffffffffffffffffff1673ffffffffffffffffffffffffffffffffffffffff161461019b576040517f08c379a000000000000000000000000000000000000000000000000000000000815260040161019290611cb2565b60405180910390fd5b600060038111156101af576101ae611f82565b5b8260090160009054906101000a900460ff1660038111156101d3576101d2611f82565b5b14610213576040517f08c379a000000000000000000000000000000000000000000000000000000000815260040161020a90611a04565b60405180910390fd5b60028260090160006101000a81548160ff0219169083600381111561023b5761023a611f82565b5b02179055506000336040516020016102539190611b38565b6040516020818303038152906040528051906020012090506000610276826105b4565b90506000338660405160200161028d929190611ba2565b604051602081830303815290604052805190602001209050816102af826105de565b815481106102c0576102bf611fe0565b5b90600052602060002001600090556000336040516020016102e19190611a8e565b6040516020818303038152906040528051906020012090506000610304826105b4565b905080889080600181540180825580915050600190039060005260206000200160009091909190915055600061033989610609565b60008151811061034c5761034b611fe0565b5b6020026020010151905061038d8860030160009054906101000a900473ffffffffffffffffffffffffffffffffffffffff16826040015183606001516107d0565b87600001547fc62ea7d6dbbe6bae28aad53c0aafb30aac976285ac8d17598f119feff584f5198960030160009054906101000a900473ffffffffffffffffffffffffffffffffffffffff166040516103e5919061197b565b60405180910390a250505050505050505050565b6001816060013514610440576040517f08c379a000000000000000000000000000000000000000000000000000000000815260040161043790611d00565b60405180910390fd5b61045b8160000160208101906104569190611582565b610830565b6104768160a00160208101906104719190611582565b610882565b61049c81600001602081019061048c9190611582565b82604001358360600135336108d4565b60006104d98280602001906104b19190611d65565b338560a00160208101906104c59190611582565b866080013587606001358860c0013561097f565b9050610507818360000160208101906104f29190611582565b84604001358560600135866080013533610b29565b5050565b600061053c826040516020016105219190611c56565b604051602081830303815290604052805190602001206105de565b9050919050565b60008061054e610c14565b905080600a01838154811061056657610565611fe0565b5b90600052602060002090600c0201915050919050565b600080610587610c14565b905080600701600084815260200190815260200160002060009054906101000a900460ff16915050919050565b6000806105bf610c14565b9050806008016000848152602001908152602001600020915050919050565b6000806105e9610c14565b905080600401600084815260200190815260200160002054915050919050565b60606000610615610c14565b9050600081600a01848154811061062f5761062e611fe0565b5b90600052602060002090600c0201905080600a015467ffffffffffffffff81111561065d5761065c61200f565b5b60405190808252806020026020018201604052801561069657816020015b61068361142b565b81526020019060019003908161067b5790505b50925060005b81600a01548110156107c857600085826040516020016106bd929190611afc565b604051602081830303815290604052805190602001209050600084600d0160008381526020019081526020016000205490506106f881610c41565b6040518060e001604052908160008201548152602001600182015481526020016002820160009054906101000a900473ffffffffffffffffffffffffffffffffffffffff1673ffffffffffffffffffffffffffffffffffffffff1673ffffffffffffffffffffffffffffffffffffffff1681526020016003820154815260200160048201548152602001600582015481526020016006820154815250508684815181106107a8576107a7611fe0565b5b6020026020010181905250505080806107c090611ee6565b91505061069c565b505050919050565b60008383836040516020016107e793929190611a44565b604051602081830303815290604052805190602001209050600061080a826105de565b905061082982610824600184610c6b90919063ffffffff16565b610c81565b5050505050565b6001151561083d82610cac565b15151461087f576040517f08c379a000000000000000000000000000000000000000000000000000000000815260040161087690611abc565b60405180910390fd5b50565b6001151561088f82610ce9565b1515146108d1576040517f08c379a00000000000000000000000000000000000000000000000000000000081526004016108c890611a24565b60405180910390fd5b50565b60006108e1858584610d26565b905060006108f0838787610dbd565b905081841115610935576040517f08c379a000000000000000000000000000000000000000000000000000000000815260040161092c90611d00565b60405180910390fd5b808211610977576040517f08c379a000000000000000000000000000000000000000000000000000000000815260040161096e90611d00565b60405180910390fd5b505050505050565b60008061098a610c14565b9050600081600a01805490506040516020016109a69190611cd2565b604051602081830303815290604052805190602001209050600060405180610180016040528084600a018054905081526020018381526020018c8c8080601f016020809104026020016040519081016040528093929190818152602001838380828437600081840152601f19601f8201169050808301925050505050505081526020018a73ffffffffffffffffffffffffffffffffffffffff1681526020014281526020018973ffffffffffffffffffffffffffffffffffffffff16815260200187815260200187815260200188815260200160006003811115610a8d57610a8c611f82565b5b815260200160008152602001868152509050610ab08984600a0180549050610e00565b82600a01805490507fff9ce7996099c0f566b43480bd270f1e673861f76d037eca9b46d12032ae07e08a8a898b604051610aed9493929190611996565b60405180910390a2610afe81610edb565b610b19600184600a0180549050610c6b90919063ffffffff16565b9350505050979650505050505050565b600086610b34611186565b604051602001610b45929190611c1a565b60405160208183030381529060405280519060200120905060006040518060e00160405280610b72611186565b81526020018381526020018873ffffffffffffffffffffffffffffffffffffffff168152602001878152602001868152602001858152602001898152509050610bbc83888861119e565b877f912e35e17132cc874c73a4270fb3b782fd18266f462ddf8bc0671a6f5069114d610be6611186565b898989604051610bf99493929190611d20565b60405180910390a2610c0a816111fe565b5050505050505050565b6000807fc8fcad8db84d3cc18b4c41d551ea0ee66dd599cde068d998e57d5e09332c131c90508091505090565b600080610c4c610c14565b9050806009016000848152602001908152602001600020915050919050565b60008183610c799190611e3a565b905092915050565b6000610c8b610c14565b90508181600401600085815260200190815260200160002081905550505050565b60008082604051602001610cc09190611955565b604051602081830303815290604052805190602001209050610ce18161057c565b915050919050565b60008082604051602001610cfd919061192f565b604051602081830303815290604052805190602001209050610d1e8161057c565b915050919050565b60008373ffffffffffffffffffffffffffffffffffffffff1662fdd58e83856040518363ffffffff1660e01b8152600401610d629291906119db565b602060405180830381600087803b158015610d7c57600080fd5b505af1158015610d90573d6000803e3d6000fd5b505050506040513d601f19601f82011682018060405250810190610db49190611625565b90509392505050565b600080848484604051602001610dd593929190611a44565b604051602081830303815290604052805190602001209050610df6816105de565b9150509392505050565b600082604051602001610e139190611b38565b6040516020818303038152906040528051906020012090506000610e36826105b4565b905060008484604051602001610e4d929190611ba2565b604051602081830303815290604052805190602001209050610e73818380549050610c81565b60008585604051602001610e88929190611b66565b604051602081830303815290604052805190602001209050610eab816001611388565b82859080600181540180825580915050600190039060005260206000200160009091909190915055505050505050565b6000610ee5610c14565b90506000610ef16113c6565b905080836000018181525050610f318360200151604051602001610f159190611c56565b6040516020818303038152906040528051906020012082610c81565b81600a018390806001815401808255809150506001900390600052602060002090600c020160009091909190915060008201518160000155602082015181600101556040820151816002019080519060200190610f8f929190611481565b5060608201518160030160006101000a81548173ffffffffffffffffffffffffffffffffffffffff021916908373ffffffffffffffffffffffffffffffffffffffff1602179055506080820151816004015560a08201518160050160006101000a81548173ffffffffffffffffffffffffffffffffffffffff021916908373ffffffffffffffffffffffffffffffffffffffff16021790555060c0820151816006015560e0820151816007015561010082015181600801556101208201518160090160006101000a81548160ff0219169083600381111561107357611072611f82565b5b021790555061014082015181600a015561016082015181600b01555050600082600b016000856060015173ffffffffffffffffffffffffffffffffffffffff1673ffffffffffffffffffffffffffffffffffffffff1681526020019081526020016000205490506001816110e79190611de4565b83600b016000866060015173ffffffffffffffffffffffffffffffffffffffff1673ffffffffffffffffffffffffffffffffffffffff168152602001908152602001600020819055506000846060015182604051602001611149929190611bde565b604051602081830303815290604052805190602001209050846000015184600c016000838152602001908152602001600020819055505050505050565b600080611191610c14565b905080600e015491505090565b60008383836040516020016111b593929190611a44565b60405160208183030381529060405280519060200120905060006111d8826105de565b90506111f7826111f26001846113e190919063ffffffff16565b610c81565b5050505050565b6000611208610c14565b9050600081600a018360c001518154811061122657611225611fe0565b5b90600052602060002090600c0201905081600e0154836000018181525050611256836020015184600001516113f7565b8282600901600084600e01548152602001908152602001600020600082015181600001556020820151816001015560408201518160020160006101000a81548173ffffffffffffffffffffffffffffffffffffffff021916908373ffffffffffffffffffffffffffffffffffffffff160217905550606082015181600301556080820151816004015560a0820151816005015560c08201518160060155905050600182600e01546113079190611de4565b82600e018190555060008360c0015182600a015460405160200161132c929190611afc565b604051602081830303815290604052805190602001209050836000015183600d0160008381526020019081526020016000208190555061137a600183600a01546113e190919063ffffffff16565b82600a018190555050505050565b6000611392610c14565b90508181600701600085815260200190815260200160002060006101000a81548160ff021916908315150217905550505050565b6000806113d1610c14565b905080600a018054905091505090565b600081836113ef9190611de4565b905092915050565b6114278260405160200161140b9190611c84565b6040516020818303038152906040528051906020012082610c81565b5050565b6040518060e001604052806000815260200160008019168152602001600073ffffffffffffffffffffffffffffffffffffffff168152602001600081526020016000815260200160008152602001600081525090565b82805461148d90611eb4565b90600052602060002090601f0160209004810192826114af57600085556114f6565b82601f106114c857805160ff19168380011785556114f6565b828001600101855582156114f6579182015b828111156114f55782518255916020019190600101906114da565b5b5090506115039190611507565b5090565b5b80821115611520576000816000905550600101611508565b5090565b600081359050611533816123c0565b92915050565b600081359050611548816123d7565b92915050565b600060e0828403121561156457611563612043565b5b81905092915050565b60008151905061157c816123ee565b92915050565b60006020828403121561159857611597612057565b5b60006115a684828501611524565b91505092915050565b6000602082840312156115c5576115c4612057565b5b60006115d384828501611539565b91505092915050565b6000602082840312156115f2576115f1612057565b5b600082013567ffffffffffffffff8111156116105761160f612052565b5b61161c8482850161154e565b91505092915050565b60006020828403121561163b5761163a612057565b5b60006116498482850161156d565b91505092915050565b61165b81611e6e565b82525050565b61167261166d82611e6e565b611f2f565b82525050565b61168181611e80565b82525050565b6000611694601483611dc8565b915061169f82612069565b602082019050919050565b60006116b7601083611dc8565b91506116c282612092565b602082019050919050565b60006116da601983611dc8565b91506116e5826120bb565b602082019050919050565b60006116fd601583611dc8565b9150611708826120e4565b602082019050919050565b6000611720601783611dd9565b915061172b8261210d565b601782019050919050565b6000611743601483611dc8565b915061174e82612136565b602082019050919050565b6000611766601583611dc8565b91506117718261215f565b602082019050919050565b6000611789600a83611dc8565b915061179482612188565b602082019050919050565b60006117ac601583611dc8565b91506117b7826121b1565b602082019050919050565b60006117cf602683611dc8565b91506117da826121da565b604082019050919050565b60006117f2601d83611dc8565b91506117fd82612229565b602082019050919050565b6000611815600a83611dc8565b915061182082612252565b602082019050919050565b6000611838600983611dc8565b91506118438261227b565b602082019050919050565b600061185b601083611dc8565b9150611866826122a4565b602082019050919050565b600061187e602283611dd9565b9150611889826122cd565b602282019050919050565b60006118a1600c83611dc8565b91506118ac8261231c565b602082019050919050565b60006118c4601383611dc8565b91506118cf82612345565b602082019050919050565b60006118e7600a83611dc8565b91506118f28261236e565b602082019050919050565b600061190a600e83611dc8565b915061191582612397565b602082019050919050565b61192981611eaa565b82525050565b600061193a82611713565b91506119468284611661565b60148201915081905092915050565b600061196082611871565b915061196c8284611661565b60148201915081905092915050565b60006020820190506119906000830184611652565b92915050565b60006080820190506119ab6000830187611652565b6119b86020830186611652565b6119c56040830185611920565b6119d26060830184611920565b95945050505050565b60006040820190506119f06000830185611652565b6119fd6020830184611920565b9392505050565b60006020820190508181036000830152611a1d81611687565b9050919050565b60006020820190508181036000830152611a3d816116aa565b9050919050565b60006080820190508181036000830152611a5d816116cd565b9050611a6c6020830186611652565b611a796040830185611652565b611a866060830184611920565b949350505050565b60006040820190508181036000830152611aa7816116f0565b9050611ab66020830184611652565b92915050565b60006020820190508181036000830152611ad581611736565b9050919050565b60006020820190508181036000830152611af581611759565b9050919050565b60006060820190508181036000830152611b158161177c565b9050611b246020830185611920565b611b316040830184611920565b9392505050565b60006040820190508181036000830152611b518161179f565b9050611b606020830184611652565b92915050565b60006060820190508181036000830152611b7f816117c2565b9050611b8e6020830185611652565b611b9b6040830184611920565b9392505050565b60006060820190508181036000830152611bbb816117e5565b9050611bca6020830185611652565b611bd76040830184611920565b9392505050565b60006060820190508181036000830152611bf781611808565b9050611c066020830185611652565b611c136040830184611920565b9392505050565b60006060820190508181036000830152611c338161182b565b9050611c426020830185611920565b611c4f6040830184611920565b9392505050565b60006040820190508181036000830152611c6f8161184e565b9050611c7e6020830184611678565b92915050565b60006040820190508181036000830152611c9d81611894565b9050611cac6020830184611678565b92915050565b60006020820190508181036000830152611ccb816118b7565b9050919050565b60006040820190508181036000830152611ceb816118da565b9050611cfa6020830184611920565b92915050565b60006020820190508181036000830152611d19816118fd565b9050919050565b6000608082019050611d356000830187611920565b611d426020830186611652565b611d4f6040830185611920565b611d5c6060830184611920565b95945050505050565b60008083356001602003843603038112611d8257611d81612048565b5b80840192508235915067ffffffffffffffff821115611da457611da361203e565b5b602083019250600182023603831315611dc057611dbf61204d565b5b509250929050565b600082825260208201905092915050565b600081905092915050565b6000611def82611eaa565b9150611dfa83611eaa565b9250827fffffffffffffffffffffffffffffffffffffffffffffffffffffffffffffffff03821115611e2f57611e2e611f53565b5b828201905092915050565b6000611e4582611eaa565b9150611e5083611eaa565b925082821015611e6357611e62611f53565b5b828203905092915050565b6000611e7982611e8a565b9050919050565b6000819050919050565b600073ffffffffffffffffffffffffffffffffffffffff82169050919050565b6000819050919050565b60006002820490506001821680611ecc57607f821691505b60208210811415611ee057611edf611fb1565b5b50919050565b6000611ef182611eaa565b91507fffffffffffffffffffffffffffffffffffffffffffffffffffffffffffffffff821415611f2457611f23611f53565b5b600182019050919050565b6000611f3a82611f41565b9050919050565b6000611f4c8261205c565b9050919050565b7f4e487b7100000000000000000000000000000000000000000000000000000000600052601160045260246000fd5b7f4e487b7100000000000000000000000000000000000000000000000000000000600052602160045260246000fd5b7f4e487b7100000000000000000000000000000000000000000000000000000000600052602260045260246000fd5b7f4e487b7100000000000000000000000000000000000000000000000000000000600052603260045260246000fd5b7f4e487b7100000000000000000000000000000000000000000000000000000000600052604160045260246000fd5b600080fd5b600080fd5b600080fd5b600080fd5b600080fd5b600080fd5b60008160601b9050919050565b7f494e56414c4944204f5244455220535441545553000000000000000000000000600082015250565b7f494e56414c49442043555252454e435900000000000000000000000000000000600082015250565b7f555345522e4e46542e49442e414d4f554e542e4f4e53454c4c00000000000000600082015250565b7f555345522e4f524445522e4944532e43414e43454c0000000000000000000000600082015250565b7f4e46544d41524b4554504c4143452e43555252454e4359000000000000000000600082015250565b7f494e56414c4944204e465420434f4e5452414354000000000000000000000000600082015250565b7f4f52444552204944204953204e4f542045584953540000000000000000000000600082015250565b7f4f524445522e4954454d00000000000000000000000000000000000000000000600082015250565b7f555345522e4f524445522e4944532e4f4e53454c4c0000000000000000000000600082015250565b7f555345522e4f524445522e49442e544f2e494e4445582e49532e45584953542e60008201527f4f4e53454c4c0000000000000000000000000000000000000000000000000000602082015250565b7f555345522e4f524445522e49442e544f2e494e4445582e4f4e53454c4c000000600082015250565b7f555345522e4f5244455200000000000000000000000000000000000000000000600082015250565b7f4954454d2e434f44450000000000000000000000000000000000000000000000600082015250565b7f4f524445522e49442e42592e434f444500000000000000000000000000000000600082015250565b7f4e46544d41524b4554504c4143452e4e4654434f4e54524143542e4953414c4c60008201527f4f57000000000000000000000000000000000000000000000000000000000000602082015250565b7f4974656d49644279436f64650000000000000000000000000000000000000000600082015250565b7f494e56414c4944204f574e4552204f5244455200000000000000000000000000600082015250565b7f4f524445522e434f444500000000000000000000000000000000000000000000600082015250565b7f494e56414c494420414d4f554e54000000000000000000000000000000000000600082015250565b6123c981611e6e565b81146123d457600080fd5b50565b6123e081611e80565b81146123eb57600080fd5b50565b6123f781611eaa565b811461240257600080fd5b5056fea2646970667358221220f4e1860747b94dadf4aceeebca7983ec3ceb537c9f4b4ef46b3124babe4d4b4964736f6c63430008070033",
  "immutableReferences": {},
  "source": "pragma solidity ^0.8.0;\n\nimport { LibDiamond } from \"../libraries/LibDiamond.sol\";\nimport { LibCurrency } from \"../libraries/LibCurrency.sol\";\nimport { LibSaleOrder } from \"../libraries/LibSaleOrder.sol\";\nimport { LibNFTContract } from \"../libraries/LibNFTContract.sol\";\nimport { LibItem } from \"../libraries/LibItem.sol\";\nimport \"../utils/math/SafeMath.sol\";\nimport \"../interfaces/ISellerFacet.sol\";\nimport \"../interfaces/IERC1155.sol\";\n\ncontract SellerFacet is ISellerFacet{\n\n    using SafeMath for uint256;\n    event OrderCancel(address owner,uint256 indexed _orderId);\n    event OrderCreated(address owner,uint256 indexed id,address currency,uint256 amount,uint256 price);\n    event ItemCreated(uint256 indexed orderId, uint256 itemId,address tokenContract, uint256 tokenId,uint256 amount);\n\n    function sellNFTOneItem(LibDiamond.CreateSaleOrderOneItem calldata param) external override{\n\n        require(param._amount == 1,\"INVALID AMOUNT\");\n        \n        _checkNFTContractIsAllow(param._tokenContract);\n\n        _checkCurrencyIsAllow(param._currency);\n        \n        _checkSellerBalance(param._tokenContract,param._tokenId,param._amount,msg.sender);\n\n        uint256 _orderId = _createSaleOrder(param._description, msg.sender, param._currency, param._price,param._amount,param._sellPeriod);\n\n        _addItemToOrder(_orderId,param._tokenContract,param._tokenId,param._amount,param._price,msg.sender);\n        \n    }\n    function cancelOneOrder(bytes32 _orderCode) external {\n        uint256 _orderId = LibSaleOrder._getOrderIdByCode(_orderCode);\n        LibDiamond.SaleOrder storage _order = LibSaleOrder._getOrder(_orderId);\n        \n        bytes32 _keyMapOrderIdToIndexIsExist = keccak256(abi.encode(\"USER.ORDER.ID.TO.INDEX.IS.EXIST.ONSELL\",msg.sender,_orderId));\n        require(LibDiamond.getBool(_keyMapOrderIdToIndexIsExist) == true,\"ORDER ID IS NOT EXIST\");\n        require(_order.owner == msg.sender,\"INVALID OWNER ORDER\");\n        require(_order.status == LibDiamond.OrderStatus.OnSell,\"INVALID ORDER STATUS\");\n\n        _order.status = LibDiamond.OrderStatus.Cancel;\n\n        bytes32 _keyUserOrdersOnSell = keccak256(abi.encode(\"USER.ORDER.IDS.ONSELL\",msg.sender));\n        uint256[] storage _userOrderIds = LibDiamond.getArrayUint(_keyUserOrdersOnSell);\n        \n        bytes32 _keyMapOrderIdToIndex= keccak256(abi.encode(\"USER.ORDER.ID.TO.INDEX.ONSELL\",msg.sender,_orderId));\n        \n        delete _userOrderIds[LibDiamond.getUint(_keyMapOrderIdToIndex)];\n\n        bytes32 _keyUserOrdersCancel = keccak256(abi.encode(\"USER.ORDER.IDS.CANCEL\",msg.sender));\n        uint256[] storage _userOrderIdsCancel = LibDiamond.getArrayUint(_keyUserOrdersCancel);\n        _userOrderIdsCancel.push(_orderId);\n\n        LibDiamond.SaleItem memory _item = LibItem._getItemByOrderId(_orderId)[0];\n        _decreaseNFTOnSell(_order.owner,_item.tokenContract,_item.tokenId);\n        emit OrderCancel(_order.owner,_order.id);\n            \n    }\n    function _createSaleOrder(string calldata _description,address _owner,address _currency,uint256 _price,uint256 _amount,uint256 _sellPeriod) private returns(uint256){\n        LibDiamond.DiamondStorage storage ds = LibDiamond.diamondStorage();\n        bytes32 _code = keccak256(abi.encode(\"ORDER.CODE\",ds.orders.length));\n        LibDiamond.SaleOrder memory _order = LibDiamond.SaleOrder({\n            id: ds.orders.length,\n            code: _code,\n            description: _description,\n            owner: _owner,\n            created: block.timestamp,\n            currency: _currency,\n            amount:_amount,\n            totalRemainingForSell:_amount,\n            price: _price,\n            status: LibDiamond.OrderStatus.OnSell,\n            itemCount : 0,\n            sellPeriod : _sellPeriod\n        });\n        \n        _addUserOrdersOnSell(_owner,ds.orders.length);\n        emit OrderCreated(_owner,ds.orders.length,_currency,_amount,_price);\n        \n        LibSaleOrder._addOrder(_order);\n\n        return ds.orders.length.sub(1);\n\n    }\n    function _decreaseNFTOnSell(address _user,address _nftTokenAddress,uint256 _nftTokenId) private {\n        bytes32 _keyMapOrderIdToIndex = keccak256(abi.encode(\"USER.NFT.ID.AMOUNT.ONSELL\",_user,_nftTokenAddress,_nftTokenId));\n        uint256 _amountUserItemOnSell = LibDiamond.getUint(_keyMapOrderIdToIndex);\n        LibDiamond.setUint(_keyMapOrderIdToIndex,_amountUserItemOnSell.sub(1));\n    }\n\n    function _addItemToOrder(uint256 _orderId, address _tokenContract, uint256 _tokenId,uint256 _amount,uint256 _price,address _owner) private{\n        bytes32 _code = keccak256(abi.encode(\"ITEM.CODE\",_orderId,LibItem._getItemCount()));\n        LibDiamond.SaleItem memory _item = LibDiamond.SaleItem({\n            id: LibItem._getItemCount(),\n            code: _code,\n            tokenContract: _tokenContract,\n            tokenId: _tokenId,\n            amount: _amount,\n            orderId: _orderId,\n            price: _price\n        });\n        _increaseNFTOnSell(_owner,_tokenContract,_tokenId);\n        emit ItemCreated(_orderId, LibItem._getItemCount(),_tokenContract, _tokenId,_amount);\n\n        LibItem._addItem(_item);\n    }\n\n    function _increaseNFTOnSell(address _user,address _nftTokenAddress,uint256 _nftTokenId) private {\n        bytes32 _keyMapOrderIdToIndex = keccak256(abi.encode(\"USER.NFT.ID.AMOUNT.ONSELL\",_user,_nftTokenAddress,_nftTokenId));\n        uint256 _amountUserItemOnSell = LibDiamond.getUint(_keyMapOrderIdToIndex);\n        LibDiamond.setUint(_keyMapOrderIdToIndex,_amountUserItemOnSell.add(1));\n    }\n\n    function _getNFTOnSell(address _user,address _nftTokenAddress,uint256 _nftTokenId) private  view returns(uint256){\n        bytes32 _keyMapOrderIdToIndex = keccak256(abi.encode(\"USER.NFT.ID.AMOUNT.ONSELL\",_user,_nftTokenAddress,_nftTokenId));\n        return LibDiamond.getUint(_keyMapOrderIdToIndex);\n    }\n    function _addUserOrdersOnSell(address _user,uint256 _orderId) private {\n        bytes32 _keyUserOrdersOnSell = keccak256(abi.encode(\"USER.ORDER.IDS.ONSELL\",_user));\n        uint256[] storage _userOrderIds = LibDiamond.getArrayUint(_keyUserOrdersOnSell);\n        \n        bytes32 _keyMapOrderIdToIndex= keccak256(abi.encode(\"USER.ORDER.ID.TO.INDEX.ONSELL\",_user,_orderId));\n        LibDiamond.setUint(_keyMapOrderIdToIndex,_userOrderIds.length);\n\n        bytes32 _keyMapOrderIdToIndexIsExist = keccak256(abi.encode(\"USER.ORDER.ID.TO.INDEX.IS.EXIST.ONSELL\",_user,_orderId));\n        LibDiamond.setBool(_keyMapOrderIdToIndexIsExist,true);\n        _userOrderIds.push(_orderId);\n        \n    }\n    function _checkNFTContractIsAllow(address _nftContract) private view{\n        require(LibNFTContract._isAllowNFTContract(_nftContract) == true,\"INVALID NFT CONTRACT\");\n    }\n\n    function _checkSellerBalance(address _tokenContract,uint256 _tokenId,uint256 _amount,address _seller) private{     \n        uint256 _amountUserBalance = _getSellerBalance(_tokenContract,_tokenId,_seller);   \n        uint256 _amountOnSell = _getNFTOnSell(_seller,_tokenContract,_tokenId);\n      \n        require(_amount <= _amountUserBalance ,\"INVALID AMOUNT\");\n        require(_amountUserBalance > _amountOnSell,\"INVALID AMOUNT\");\n    }\n\n    function _checkCurrencyIsAllow(address _currency) private view{\n        require(LibCurrency._isAllowCurrency(_currency) == true,\"INVALID CURRENCY\");\n    }\n    \n    function _getSellerBalance(address _tokenContract,uint256 _tokenId,address _seller) private returns(uint256) {\n        return IERC1155(_tokenContract).balanceOf(_seller,_tokenId);\n    }\n    \n}\n",
  "sourcePath": "/Users/kanthakarn/Documents/work/six-network/new/nft-marketplace/contracts/facets/SellerFacet.sol",
  "compiler": {
    "name": "solc",
    "version": "0.8.7+commit.e28d00a7.Emscripten.clang"
  },
  "schemaVersion": "3.4.1",
  "updatedAt": "2021-12-02T05:02:33.846Z",
  "networkType": "ethereum",
  "devdoc": {
    "kind": "dev",
    "methods": {},
    "version": 1
  },
  "userdoc": {
    "kind": "user",
    "methods": {},
    "version": 1
  }
}