{
  "contractName": "SellerFacet",
  "abi": [
    {
      "anonymous": false,
      "inputs": [
        {
          "indexed": true,
          "internalType": "uint256",
          "name": "orderId",
          "type": "uint256"
        },
        {
          "indexed": false,
          "internalType": "uint256",
          "name": "itemId",
          "type": "uint256"
        },
        {
          "indexed": false,
          "internalType": "address",
          "name": "tokenContract",
          "type": "address"
        },
        {
          "indexed": false,
          "internalType": "uint256",
          "name": "tokenId",
          "type": "uint256"
        },
        {
          "indexed": false,
          "internalType": "uint256",
          "name": "amount",
          "type": "uint256"
        }
      ],
      "name": "ItemCreated",
      "type": "event"
    },
    {
      "anonymous": false,
      "inputs": [
        {
          "indexed": false,
          "internalType": "address",
          "name": "owner",
          "type": "address"
        },
        {
          "indexed": true,
          "internalType": "uint256",
          "name": "_orderId",
          "type": "uint256"
        }
      ],
      "name": "OrderCancel",
      "type": "event"
    },
    {
      "anonymous": false,
      "inputs": [
        {
          "indexed": false,
          "internalType": "address",
          "name": "owner",
          "type": "address"
        },
        {
          "indexed": true,
          "internalType": "uint256",
          "name": "id",
          "type": "uint256"
        },
        {
          "indexed": false,
          "internalType": "address",
          "name": "currency",
          "type": "address"
        },
        {
          "indexed": false,
          "internalType": "uint256",
          "name": "amount",
          "type": "uint256"
        },
        {
          "indexed": false,
          "internalType": "uint256",
          "name": "price",
          "type": "uint256"
        }
      ],
      "name": "OrderCreated",
      "type": "event"
    },
    {
      "inputs": [
        {
          "components": [
            {
              "internalType": "address",
              "name": "_tokenContract",
              "type": "address"
            },
            {
              "internalType": "string",
              "name": "_description",
              "type": "string"
            },
            {
              "internalType": "uint256",
              "name": "_tokenId",
              "type": "uint256"
            },
            {
              "internalType": "uint256",
              "name": "_amount",
              "type": "uint256"
            },
            {
              "internalType": "uint256",
              "name": "_price",
              "type": "uint256"
            },
            {
              "internalType": "address",
              "name": "_currency",
              "type": "address"
            }
          ],
          "internalType": "struct LibDiamond.CreateSaleOrderOneItem",
          "name": "param",
          "type": "tuple"
        }
      ],
      "name": "sellNFTOneItem",
      "outputs": [],
      "stateMutability": "nonpayable",
      "type": "function"
    },
    {
      "inputs": [
        {
          "internalType": "bytes32",
          "name": "_orderCode",
          "type": "bytes32"
        }
      ],
      "name": "cancelOneOrder",
      "outputs": [],
      "stateMutability": "nonpayable",
      "type": "function"
    }
  ],
  "bytecode": "0x608060405234801561001057600080fd5b50612421806100206000396000f3fe608060405234801561001057600080fd5b50600436106100365760003560e01c8063345958111461003b5780634a215e5014610057575b600080fd5b61005560048036038101906100509190611595565b610073565b005b610071600480360381019061006c91906115c2565b6103f9565b005b600061007e82610503565b9050600061008b8261053b565b9050600033836040516020016100a2929190611b4c565b604051602081830303815290604052805190602001209050600115156100c782610574565b151514610109576040517f08c379a000000000000000000000000000000000000000000000000000000000815260040161010090611ac2565b60405180910390fd5b3373ffffffffffffffffffffffffffffffffffffffff168260030160009054906101000a900473ffffffffffffffffffffffffffffffffffffffff1673ffffffffffffffffffffffffffffffffffffffff161461019b576040517f08c379a000000000000000000000000000000000000000000000000000000000815260040161019290611c98565b60405180910390fd5b600060038111156101af576101ae611f68565b5b8260090160009054906101000a900460ff1660038111156101d3576101d2611f68565b5b14610213576040517f08c379a000000000000000000000000000000000000000000000000000000000815260040161020a906119ea565b60405180910390fd5b60028260090160006101000a81548160ff0219169083600381111561023b5761023a611f68565b5b02179055506000336040516020016102539190611b1e565b6040516020818303038152906040528051906020012090506000610276826105ac565b90506000338660405160200161028d929190611b88565b604051602081830303815290604052805190602001209050816102af826105d6565b815481106102c0576102bf611fc6565b5b90600052602060002001600090556000336040516020016102e19190611a74565b6040516020818303038152906040528051906020012090506000610304826105ac565b905080889080600181540180825580915050600190039060005260206000200160009091909190915055600061033989610601565b60008151811061034c5761034b611fc6565b5b6020026020010151905061038d8860030160009054906101000a900473ffffffffffffffffffffffffffffffffffffffff16826040015183606001516107c8565b87600001547fc62ea7d6dbbe6bae28aad53c0aafb30aac976285ac8d17598f119feff584f5198960030160009054906101000a900473ffffffffffffffffffffffffffffffffffffffff166040516103e59190611961565b60405180910390a250505050505050505050565b6001816060013514610440576040517f08c379a000000000000000000000000000000000000000000000000000000000815260040161043790611ce6565b60405180910390fd5b61045b8160000160208101906104569190611568565b610828565b6104768160a00160208101906104719190611568565b61087a565b61049c81600001602081019061048c9190611568565b82604001358360600135336108cc565b60006104d48280602001906104b19190611d4b565b338560a00160208101906104c59190611568565b86608001358760600135610977565b90506104ff818360000160208101906104ed9190611568565b84604001356001866080013533610b1a565b5050565b6000610534826040516020016105199190611c3c565b604051602081830303815290604052805190602001206105d6565b9050919050565b600080610546610c05565b905080600a01838154811061055e5761055d611fc6565b5b90600052602060002090600b0201915050919050565b60008061057f610c05565b905080600701600084815260200190815260200160002060009054906101000a900460ff16915050919050565b6000806105b7610c05565b9050806008016000848152602001908152602001600020915050919050565b6000806105e1610c05565b905080600401600084815260200190815260200160002054915050919050565b6060600061060d610c05565b9050600081600a01848154811061062757610626611fc6565b5b90600052602060002090600b0201905080600a015467ffffffffffffffff81111561065557610654611ff5565b5b60405190808252806020026020018201604052801561068e57816020015b61067b611411565b8152602001906001900390816106735790505b50925060005b81600a01548110156107c057600085826040516020016106b5929190611ae2565b604051602081830303815290604052805190602001209050600084600d0160008381526020019081526020016000205490506106f081610c32565b6040518060e001604052908160008201548152602001600182015481526020016002820160009054906101000a900473ffffffffffffffffffffffffffffffffffffffff1673ffffffffffffffffffffffffffffffffffffffff1673ffffffffffffffffffffffffffffffffffffffff1681526020016003820154815260200160048201548152602001600582015481526020016006820154815250508684815181106107a05761079f611fc6565b5b6020026020010181905250505080806107b890611ecc565b915050610694565b505050919050565b60008383836040516020016107df93929190611a2a565b6040516020818303038152906040528051906020012090506000610802826105d6565b90506108218261081c600184610c5c90919063ffffffff16565b610c72565b5050505050565b6001151561083582610c9d565b151514610877576040517f08c379a000000000000000000000000000000000000000000000000000000000815260040161086e90611aa2565b60405180910390fd5b50565b6001151561088782610cda565b1515146108c9576040517f08c379a00000000000000000000000000000000000000000000000000000000081526004016108c090611a0a565b60405180910390fd5b50565b60006108d9858584610d17565b905060006108e8838787610dae565b90508184111561092d576040517f08c379a000000000000000000000000000000000000000000000000000000000815260040161092490611ce6565b60405180910390fd5b80821161096f576040517f08c379a000000000000000000000000000000000000000000000000000000000815260040161096690611ce6565b60405180910390fd5b505050505050565b600080610982610c05565b9050600081600a018054905060405160200161099e9190611cb8565b604051602081830303815290604052805190602001209050600060405180610160016040528084600a018054905081526020018381526020018b8b8080601f016020809104026020016040519081016040528093929190818152602001838380828437600081840152601f19601f8201169050808301925050505050505081526020018973ffffffffffffffffffffffffffffffffffffffff1681526020014281526020018873ffffffffffffffffffffffffffffffffffffffff16815260200186815260200186815260200187815260200160006003811115610a8557610a84611f68565b5b815260200160008152509050610aa28884600a0180549050610df1565b82600a01805490507fff9ce7996099c0f566b43480bd270f1e673861f76d037eca9b46d12032ae07e08989888a604051610adf949392919061197c565b60405180910390a2610af081610ecc565b610b0b600184600a0180549050610c5c90919063ffffffff16565b93505050509695505050505050565b600086610b2561116c565b604051602001610b36929190611c00565b60405160208183030381529060405280519060200120905060006040518060e00160405280610b6361116c565b81526020018381526020018873ffffffffffffffffffffffffffffffffffffffff168152602001878152602001868152602001858152602001898152509050610bad838888611184565b877f912e35e17132cc874c73a4270fb3b782fd18266f462ddf8bc0671a6f5069114d610bd761116c565b898989604051610bea9493929190611d06565b60405180910390a2610bfb816111e4565b5050505050505050565b6000807fc8fcad8db84d3cc18b4c41d551ea0ee66dd599cde068d998e57d5e09332c131c90508091505090565b600080610c3d610c05565b9050806009016000848152602001908152602001600020915050919050565b60008183610c6a9190611e20565b905092915050565b6000610c7c610c05565b90508181600401600085815260200190815260200160002081905550505050565b60008082604051602001610cb1919061193b565b604051602081830303815290604052805190602001209050610cd281610574565b915050919050565b60008082604051602001610cee9190611915565b604051602081830303815290604052805190602001209050610d0f81610574565b915050919050565b60008373ffffffffffffffffffffffffffffffffffffffff1662fdd58e83856040518363ffffffff1660e01b8152600401610d539291906119c1565b602060405180830381600087803b158015610d6d57600080fd5b505af1158015610d81573d6000803e3d6000fd5b505050506040513d601f19601f82011682018060405250810190610da5919061160b565b90509392505050565b600080848484604051602001610dc693929190611a2a565b604051602081830303815290604052805190602001209050610de7816105d6565b9150509392505050565b600082604051602001610e049190611b1e565b6040516020818303038152906040528051906020012090506000610e27826105ac565b905060008484604051602001610e3e929190611b88565b604051602081830303815290604052805190602001209050610e64818380549050610c72565b60008585604051602001610e79929190611b4c565b604051602081830303815290604052805190602001209050610e9c81600161136e565b82859080600181540180825580915050600190039060005260206000200160009091909190915055505050505050565b6000610ed6610c05565b90506000610ee26113ac565b905080836000018181525050610f228360200151604051602001610f069190611c3c565b6040516020818303038152906040528051906020012082610c72565b81600a018390806001815401808255809150506001900390600052602060002090600b020160009091909190915060008201518160000155602082015181600101556040820151816002019080519060200190610f80929190611467565b5060608201518160030160006101000a81548173ffffffffffffffffffffffffffffffffffffffff021916908373ffffffffffffffffffffffffffffffffffffffff1602179055506080820151816004015560a08201518160050160006101000a81548173ffffffffffffffffffffffffffffffffffffffff021916908373ffffffffffffffffffffffffffffffffffffffff16021790555060c0820151816006015560e0820151816007015561010082015181600801556101208201518160090160006101000a81548160ff0219169083600381111561106457611063611f68565b5b021790555061014082015181600a01555050600082600b016000856060015173ffffffffffffffffffffffffffffffffffffffff1673ffffffffffffffffffffffffffffffffffffffff1681526020019081526020016000205490506001816110cd9190611dca565b83600b016000866060015173ffffffffffffffffffffffffffffffffffffffff1673ffffffffffffffffffffffffffffffffffffffff16815260200190815260200160002081905550600084606001518260405160200161112f929190611bc4565b604051602081830303815290604052805190602001209050846000015184600c016000838152602001908152602001600020819055505050505050565b600080611177610c05565b905080600e015491505090565b600083838360405160200161119b93929190611a2a565b60405160208183030381529060405280519060200120905060006111be826105d6565b90506111dd826111d86001846113c790919063ffffffff16565b610c72565b5050505050565b60006111ee610c05565b9050600081600a018360c001518154811061120c5761120b611fc6565b5b90600052602060002090600b0201905081600e015483600001818152505061123c836020015184600001516113dd565b8282600901600084600e01548152602001908152602001600020600082015181600001556020820151816001015560408201518160020160006101000a81548173ffffffffffffffffffffffffffffffffffffffff021916908373ffffffffffffffffffffffffffffffffffffffff160217905550606082015181600301556080820151816004015560a0820151816005015560c08201518160060155905050600182600e01546112ed9190611dca565b82600e018190555060008360c0015182600a0154604051602001611312929190611ae2565b604051602081830303815290604052805190602001209050836000015183600d01600083815260200190815260200160002081905550611360600183600a01546113c790919063ffffffff16565b82600a018190555050505050565b6000611378610c05565b90508181600701600085815260200190815260200160002060006101000a81548160ff021916908315150217905550505050565b6000806113b7610c05565b905080600a018054905091505090565b600081836113d59190611dca565b905092915050565b61140d826040516020016113f19190611c6a565b6040516020818303038152906040528051906020012082610c72565b5050565b6040518060e001604052806000815260200160008019168152602001600073ffffffffffffffffffffffffffffffffffffffff168152602001600081526020016000815260200160008152602001600081525090565b82805461147390611e9a565b90600052602060002090601f01602090048101928261149557600085556114dc565b82601f106114ae57805160ff19168380011785556114dc565b828001600101855582156114dc579182015b828111156114db5782518255916020019190600101906114c0565b5b5090506114e991906114ed565b5090565b5b808211156115065760008160009055506001016114ee565b5090565b600081359050611519816123a6565b92915050565b60008135905061152e816123bd565b92915050565b600060c0828403121561154a57611549612029565b5b81905092915050565b600081519050611562816123d4565b92915050565b60006020828403121561157e5761157d61203d565b5b600061158c8482850161150a565b91505092915050565b6000602082840312156115ab576115aa61203d565b5b60006115b98482850161151f565b91505092915050565b6000602082840312156115d8576115d761203d565b5b600082013567ffffffffffffffff8111156115f6576115f5612038565b5b61160284828501611534565b91505092915050565b6000602082840312156116215761162061203d565b5b600061162f84828501611553565b91505092915050565b61164181611e54565b82525050565b61165861165382611e54565b611f15565b82525050565b61166781611e66565b82525050565b600061167a601483611dae565b91506116858261204f565b602082019050919050565b600061169d601083611dae565b91506116a882612078565b602082019050919050565b60006116c0601983611dae565b91506116cb826120a1565b602082019050919050565b60006116e3601583611dae565b91506116ee826120ca565b602082019050919050565b6000611706601783611dbf565b9150611711826120f3565b601782019050919050565b6000611729601483611dae565b91506117348261211c565b602082019050919050565b600061174c601583611dae565b915061175782612145565b602082019050919050565b600061176f600a83611dae565b915061177a8261216e565b602082019050919050565b6000611792601583611dae565b915061179d82612197565b602082019050919050565b60006117b5602683611dae565b91506117c0826121c0565b604082019050919050565b60006117d8601d83611dae565b91506117e38261220f565b602082019050919050565b60006117fb600a83611dae565b915061180682612238565b602082019050919050565b600061181e600983611dae565b915061182982612261565b602082019050919050565b6000611841601083611dae565b915061184c8261228a565b602082019050919050565b6000611864602283611dbf565b915061186f826122b3565b602282019050919050565b6000611887600c83611dae565b915061189282612302565b602082019050919050565b60006118aa601383611dae565b91506118b58261232b565b602082019050919050565b60006118cd600a83611dae565b91506118d882612354565b602082019050919050565b60006118f0600e83611dae565b91506118fb8261237d565b602082019050919050565b61190f81611e90565b82525050565b6000611920826116f9565b915061192c8284611647565b60148201915081905092915050565b600061194682611857565b91506119528284611647565b60148201915081905092915050565b60006020820190506119766000830184611638565b92915050565b60006080820190506119916000830187611638565b61199e6020830186611638565b6119ab6040830185611906565b6119b86060830184611906565b95945050505050565b60006040820190506119d66000830185611638565b6119e36020830184611906565b9392505050565b60006020820190508181036000830152611a038161166d565b9050919050565b60006020820190508181036000830152611a2381611690565b9050919050565b60006080820190508181036000830152611a43816116b3565b9050611a526020830186611638565b611a5f6040830185611638565b611a6c6060830184611906565b949350505050565b60006040820190508181036000830152611a8d816116d6565b9050611a9c6020830184611638565b92915050565b60006020820190508181036000830152611abb8161171c565b9050919050565b60006020820190508181036000830152611adb8161173f565b9050919050565b60006060820190508181036000830152611afb81611762565b9050611b0a6020830185611906565b611b176040830184611906565b9392505050565b60006040820190508181036000830152611b3781611785565b9050611b466020830184611638565b92915050565b60006060820190508181036000830152611b65816117a8565b9050611b746020830185611638565b611b816040830184611906565b9392505050565b60006060820190508181036000830152611ba1816117cb565b9050611bb06020830185611638565b611bbd6040830184611906565b9392505050565b60006060820190508181036000830152611bdd816117ee565b9050611bec6020830185611638565b611bf96040830184611906565b9392505050565b60006060820190508181036000830152611c1981611811565b9050611c286020830185611906565b611c356040830184611906565b9392505050565b60006040820190508181036000830152611c5581611834565b9050611c64602083018461165e565b92915050565b60006040820190508181036000830152611c838161187a565b9050611c92602083018461165e565b92915050565b60006020820190508181036000830152611cb18161189d565b9050919050565b60006040820190508181036000830152611cd1816118c0565b9050611ce06020830184611906565b92915050565b60006020820190508181036000830152611cff816118e3565b9050919050565b6000608082019050611d1b6000830187611906565b611d286020830186611638565b611d356040830185611906565b611d426060830184611906565b95945050505050565b60008083356001602003843603038112611d6857611d6761202e565b5b80840192508235915067ffffffffffffffff821115611d8a57611d89612024565b5b602083019250600182023603831315611da657611da5612033565b5b509250929050565b600082825260208201905092915050565b600081905092915050565b6000611dd582611e90565b9150611de083611e90565b9250827fffffffffffffffffffffffffffffffffffffffffffffffffffffffffffffffff03821115611e1557611e14611f39565b5b828201905092915050565b6000611e2b82611e90565b9150611e3683611e90565b925082821015611e4957611e48611f39565b5b828203905092915050565b6000611e5f82611e70565b9050919050565b6000819050919050565b600073ffffffffffffffffffffffffffffffffffffffff82169050919050565b6000819050919050565b60006002820490506001821680611eb257607f821691505b60208210811415611ec657611ec5611f97565b5b50919050565b6000611ed782611e90565b91507fffffffffffffffffffffffffffffffffffffffffffffffffffffffffffffffff821415611f0a57611f09611f39565b5b600182019050919050565b6000611f2082611f27565b9050919050565b6000611f3282612042565b9050919050565b7f4e487b7100000000000000000000000000000000000000000000000000000000600052601160045260246000fd5b7f4e487b7100000000000000000000000000000000000000000000000000000000600052602160045260246000fd5b7f4e487b7100000000000000000000000000000000000000000000000000000000600052602260045260246000fd5b7f4e487b7100000000000000000000000000000000000000000000000000000000600052603260045260246000fd5b7f4e487b7100000000000000000000000000000000000000000000000000000000600052604160045260246000fd5b600080fd5b600080fd5b600080fd5b600080fd5b600080fd5b600080fd5b60008160601b9050919050565b7f494e56414c4944204f5244455220535441545553000000000000000000000000600082015250565b7f494e56414c49442043555252454e435900000000000000000000000000000000600082015250565b7f555345522e4e46542e49442e414d4f554e542e4f4e53454c4c00000000000000600082015250565b7f555345522e4f524445522e4944532e43414e43454c0000000000000000000000600082015250565b7f4e46544d41524b4554504c4143452e43555252454e4359000000000000000000600082015250565b7f494e56414c4944204e465420434f4e5452414354000000000000000000000000600082015250565b7f4f52444552204944204953204e4f542045584953540000000000000000000000600082015250565b7f4f524445522e4954454d00000000000000000000000000000000000000000000600082015250565b7f555345522e4f524445522e4944532e4f4e53454c4c0000000000000000000000600082015250565b7f555345522e4f524445522e49442e544f2e494e4445582e49532e45584953542e60008201527f4f4e53454c4c0000000000000000000000000000000000000000000000000000602082015250565b7f555345522e4f524445522e49442e544f2e494e4445582e4f4e53454c4c000000600082015250565b7f555345522e4f5244455200000000000000000000000000000000000000000000600082015250565b7f4954454d2e434f44450000000000000000000000000000000000000000000000600082015250565b7f4f524445522e49442e42592e434f444500000000000000000000000000000000600082015250565b7f4e46544d41524b4554504c4143452e4e4654434f4e54524143542e4953414c4c60008201527f4f57000000000000000000000000000000000000000000000000000000000000602082015250565b7f4974656d49644279436f64650000000000000000000000000000000000000000600082015250565b7f494e56414c4944204f574e4552204f5244455200000000000000000000000000600082015250565b7f4f524445522e434f444500000000000000000000000000000000000000000000600082015250565b7f494e56414c494420414d4f554e54000000000000000000000000000000000000600082015250565b6123af81611e54565b81146123ba57600080fd5b50565b6123c681611e66565b81146123d157600080fd5b50565b6123dd81611e90565b81146123e857600080fd5b5056fea26469706673582212203721900f3cded1fe04782b327c7475ac00c5faa34b2f90681fd44ceb50f9e02464736f6c63430008070033",
  "immutableReferences": {},
  "source": "pragma solidity ^0.8.0;\n\nimport { LibDiamond } from \"../libraries/LibDiamond.sol\";\nimport { LibCurrency } from \"../libraries/LibCurrency.sol\";\nimport { LibSaleOrder } from \"../libraries/LibSaleOrder.sol\";\nimport { LibNFTContract } from \"../libraries/LibNFTContract.sol\";\nimport { LibItem } from \"../libraries/LibItem.sol\";\nimport \"../utils/math/SafeMath.sol\";\nimport \"../interfaces/ISellerFacet.sol\";\nimport \"../interfaces/IERC1155.sol\";\n\ncontract SellerFacet is ISellerFacet{\n\n    using SafeMath for uint256;\n    event OrderCancel(address owner,uint256 indexed _orderId);\n    event OrderCreated(address owner,uint256 indexed id,address currency,uint256 amount,uint256 price);\n    event ItemCreated(uint256 indexed orderId, uint256 itemId,address tokenContract, uint256 tokenId,uint256 amount);\n\n    function sellNFTOneItem(LibDiamond.CreateSaleOrderOneItem calldata param) external override{\n\n        \n\n        require(param._amount == 1,\"INVALID AMOUNT\");\n        \n\n        _checkNFTContractIsAllow(param._tokenContract);\n\n        _checkCurrencyIsAllow(param._currency);\n        \n        _checkSellerBalance(param._tokenContract,param._tokenId,param._amount,msg.sender);\n\n        uint256 _orderId = _createSaleOrder(param._description, msg.sender, param._currency, param._price,param._amount);\n\n        _addItemToOrder(_orderId,param._tokenContract,param._tokenId,1,param._price,msg.sender);\n        \n    }\n    function cancelOneOrder(bytes32 _orderCode) external {\n        uint256 _orderId = LibSaleOrder._getOrderIdByCode(_orderCode);\n        LibDiamond.SaleOrder storage _order = LibSaleOrder._getOrder(_orderId);\n        \n        bytes32 _keyMapOrderIdToIndexIsExist = keccak256(abi.encode(\"USER.ORDER.ID.TO.INDEX.IS.EXIST.ONSELL\",msg.sender,_orderId));\n        require(LibDiamond.getBool(_keyMapOrderIdToIndexIsExist) == true,\"ORDER ID IS NOT EXIST\");\n        require(_order.owner == msg.sender,\"INVALID OWNER ORDER\");\n        require(_order.status == LibDiamond.OrderStatus.OnSell,\"INVALID ORDER STATUS\");\n\n        _order.status = LibDiamond.OrderStatus.Cancel;\n\n        bytes32 _keyUserOrdersOnSell = keccak256(abi.encode(\"USER.ORDER.IDS.ONSELL\",msg.sender));\n        uint256[] storage _userOrderIds = LibDiamond.getArrayUint(_keyUserOrdersOnSell);\n        \n        bytes32 _keyMapOrderIdToIndex= keccak256(abi.encode(\"USER.ORDER.ID.TO.INDEX.ONSELL\",msg.sender,_orderId));\n        \n        delete _userOrderIds[LibDiamond.getUint(_keyMapOrderIdToIndex)];\n\n        bytes32 _keyUserOrdersCancel = keccak256(abi.encode(\"USER.ORDER.IDS.CANCEL\",msg.sender));\n        uint256[] storage _userOrderIdsCancel = LibDiamond.getArrayUint(_keyUserOrdersCancel);\n        _userOrderIdsCancel.push(_orderId);\n\n        LibDiamond.SaleItem memory _item = LibItem._getItemByOrderId(_orderId)[0];\n        _decreaseNFTOnSell(_order.owner,_item.tokenContract,_item.tokenId);\n        emit OrderCancel(_order.owner,_order.id);\n            \n    }\n    function _createSaleOrder(string calldata _description,address _owner,address _currency,uint256 _price,uint256 _amount) private returns(uint256){\n        LibDiamond.DiamondStorage storage ds = LibDiamond.diamondStorage();\n        bytes32 _code = keccak256(abi.encode(\"ORDER.CODE\",ds.orders.length));\n        LibDiamond.SaleOrder memory _order = LibDiamond.SaleOrder({\n            id: ds.orders.length,\n            code: _code,\n            description: _description,\n            owner: _owner,\n            created: block.timestamp,\n            currency: _currency,\n            amount:_amount,\n            totalRemainingForSell:_amount,\n            price: _price,\n            status: LibDiamond.OrderStatus.OnSell,\n            itemCount : 0\n        });\n        \n        _addUserOrdersOnSell(_owner,ds.orders.length);\n        emit OrderCreated(_owner,ds.orders.length,_currency,_amount,_price);\n        \n        LibSaleOrder._addOrder(_order);\n\n        return ds.orders.length.sub(1);\n\n    }\n    function _decreaseNFTOnSell(address _user,address _nftTokenAddress,uint256 _nftTokenId) private {\n        bytes32 _keyMapOrderIdToIndex = keccak256(abi.encode(\"USER.NFT.ID.AMOUNT.ONSELL\",_user,_nftTokenAddress,_nftTokenId));\n        uint256 _amountUserItemOnSell = LibDiamond.getUint(_keyMapOrderIdToIndex);\n        LibDiamond.setUint(_keyMapOrderIdToIndex,_amountUserItemOnSell.sub(1));\n    }\n\n    function _addItemToOrder(uint256 _orderId, address _tokenContract, uint256 _tokenId,uint256 _amount,uint256 _price,address _owner) private{\n        bytes32 _code = keccak256(abi.encode(\"ITEM.CODE\",_orderId,LibItem._getItemCount()));\n        LibDiamond.SaleItem memory _item = LibDiamond.SaleItem({\n            id: LibItem._getItemCount(),\n            code: _code,\n            tokenContract: _tokenContract,\n            tokenId: _tokenId,\n            amount: _amount,\n            orderId: _orderId,\n            price: _price\n        });\n        _increaseNFTOnSell(_owner,_tokenContract,_tokenId);\n        emit ItemCreated(_orderId, LibItem._getItemCount(),_tokenContract, _tokenId,_amount);\n\n        LibItem._addItem(_item);\n    }\n\n    function _increaseNFTOnSell(address _user,address _nftTokenAddress,uint256 _nftTokenId) private {\n        bytes32 _keyMapOrderIdToIndex = keccak256(abi.encode(\"USER.NFT.ID.AMOUNT.ONSELL\",_user,_nftTokenAddress,_nftTokenId));\n        uint256 _amountUserItemOnSell = LibDiamond.getUint(_keyMapOrderIdToIndex);\n        LibDiamond.setUint(_keyMapOrderIdToIndex,_amountUserItemOnSell.add(1));\n    }\n\n    function _getNFTOnSell(address _user,address _nftTokenAddress,uint256 _nftTokenId) private  view returns(uint256){\n        bytes32 _keyMapOrderIdToIndex = keccak256(abi.encode(\"USER.NFT.ID.AMOUNT.ONSELL\",_user,_nftTokenAddress,_nftTokenId));\n        return LibDiamond.getUint(_keyMapOrderIdToIndex);\n    }\n    function _addUserOrdersOnSell(address _user,uint256 _orderId) private {\n        bytes32 _keyUserOrdersOnSell = keccak256(abi.encode(\"USER.ORDER.IDS.ONSELL\",_user));\n        uint256[] storage _userOrderIds = LibDiamond.getArrayUint(_keyUserOrdersOnSell);\n        \n        bytes32 _keyMapOrderIdToIndex= keccak256(abi.encode(\"USER.ORDER.ID.TO.INDEX.ONSELL\",_user,_orderId));\n        LibDiamond.setUint(_keyMapOrderIdToIndex,_userOrderIds.length);\n\n        bytes32 _keyMapOrderIdToIndexIsExist = keccak256(abi.encode(\"USER.ORDER.ID.TO.INDEX.IS.EXIST.ONSELL\",_user,_orderId));\n        LibDiamond.setBool(_keyMapOrderIdToIndexIsExist,true);\n        _userOrderIds.push(_orderId);\n        \n    }\n    function _checkNFTContractIsAllow(address _nftContract) private view{\n        require(LibNFTContract._isAllowNFTContract(_nftContract) == true,\"INVALID NFT CONTRACT\");\n    }\n\n    function _checkSellerBalance(address _tokenContract,uint256 _tokenId,uint256 _amount,address _seller) private{     \n        uint256 _amountUserBalance = _getSellerBalance(_tokenContract,_tokenId,_seller);   \n        uint256 _amountOnSell = _getNFTOnSell(_seller,_tokenContract,_tokenId);\n      \n        require(_amount <= _amountUserBalance ,\"INVALID AMOUNT\");\n        require(_amountUserBalance > _amountOnSell,\"INVALID AMOUNT\");\n    }\n\n    function _checkCurrencyIsAllow(address _currency) private view{\n        require(LibCurrency._isAllowCurrency(_currency) == true,\"INVALID CURRENCY\");\n    }\n    \n    function _getSellerBalance(address _tokenContract,uint256 _tokenId,address _seller) private returns(uint256) {\n        return IERC1155(_tokenContract).balanceOf(_seller,_tokenId);\n    }\n    \n}\n",
  "sourcePath": "/Users/kanthakarn/Documents/work/six-network/new/nft-marketplace/contracts/facets/SellerFacet.sol",
  "compiler": {
    "name": "solc",
    "version": "0.8.7+commit.e28d00a7.Emscripten.clang"
  },
  "schemaVersion": "3.4.1",
  "updatedAt": "2021-11-26T09:51:18.611Z",
  "networkType": "ethereum",
  "devdoc": {
    "kind": "dev",
    "methods": {},
    "version": 1
  },
  "userdoc": {
    "kind": "user",
    "methods": {},
    "version": 1
  }
}