{
  "contractName": "TokenFacet",
  "abi": [
    {
      "inputs": [],
      "name": "totalSupply",
      "outputs": [
        {
          "internalType": "uint256",
          "name": "",
          "type": "uint256"
        }
      ],
      "stateMutability": "view",
      "type": "function",
      "constant": true
    },
    {
      "inputs": [],
      "name": "totalSupplyAllTimeMint",
      "outputs": [
        {
          "internalType": "uint256",
          "name": "",
          "type": "uint256"
        }
      ],
      "stateMutability": "view",
      "type": "function",
      "constant": true
    },
    {
      "inputs": [],
      "name": "totalSupplyAllTimeBurn",
      "outputs": [
        {
          "internalType": "uint256",
          "name": "",
          "type": "uint256"
        }
      ],
      "stateMutability": "view",
      "type": "function",
      "constant": true
    },
    {
      "inputs": [
        {
          "internalType": "address",
          "name": "account",
          "type": "address"
        }
      ],
      "name": "balanceOf",
      "outputs": [
        {
          "internalType": "uint256",
          "name": "",
          "type": "uint256"
        }
      ],
      "stateMutability": "view",
      "type": "function",
      "constant": true
    },
    {
      "inputs": [
        {
          "internalType": "address",
          "name": "recipient",
          "type": "address"
        },
        {
          "internalType": "uint256",
          "name": "amount",
          "type": "uint256"
        }
      ],
      "name": "transfer",
      "outputs": [
        {
          "internalType": "bool",
          "name": "",
          "type": "bool"
        }
      ],
      "stateMutability": "nonpayable",
      "type": "function"
    },
    {
      "inputs": [
        {
          "internalType": "address",
          "name": "owner",
          "type": "address"
        },
        {
          "internalType": "address",
          "name": "spender",
          "type": "address"
        }
      ],
      "name": "allowance",
      "outputs": [
        {
          "internalType": "uint256",
          "name": "",
          "type": "uint256"
        }
      ],
      "stateMutability": "view",
      "type": "function",
      "constant": true
    },
    {
      "inputs": [
        {
          "internalType": "address",
          "name": "spender",
          "type": "address"
        },
        {
          "internalType": "uint256",
          "name": "amount",
          "type": "uint256"
        }
      ],
      "name": "approve",
      "outputs": [
        {
          "internalType": "bool",
          "name": "",
          "type": "bool"
        }
      ],
      "stateMutability": "nonpayable",
      "type": "function"
    },
    {
      "inputs": [
        {
          "internalType": "address",
          "name": "sender",
          "type": "address"
        },
        {
          "internalType": "address",
          "name": "recipient",
          "type": "address"
        },
        {
          "internalType": "uint256",
          "name": "amount",
          "type": "uint256"
        }
      ],
      "name": "transferFrom",
      "outputs": [
        {
          "internalType": "bool",
          "name": "",
          "type": "bool"
        }
      ],
      "stateMutability": "nonpayable",
      "type": "function"
    },
    {
      "inputs": [
        {
          "internalType": "address",
          "name": "recipient",
          "type": "address"
        },
        {
          "internalType": "uint256",
          "name": "amount",
          "type": "uint256"
        }
      ],
      "name": "safeTransfer",
      "outputs": [],
      "stateMutability": "nonpayable",
      "type": "function"
    },
    {
      "inputs": [
        {
          "internalType": "address",
          "name": "recipient",
          "type": "address"
        },
        {
          "internalType": "uint256",
          "name": "amount",
          "type": "uint256"
        },
        {
          "internalType": "bytes",
          "name": "data",
          "type": "bytes"
        }
      ],
      "name": "safeTransfer",
      "outputs": [],
      "stateMutability": "nonpayable",
      "type": "function"
    },
    {
      "inputs": [
        {
          "internalType": "address",
          "name": "sender",
          "type": "address"
        },
        {
          "internalType": "address",
          "name": "recipient",
          "type": "address"
        },
        {
          "internalType": "uint256",
          "name": "amount",
          "type": "uint256"
        }
      ],
      "name": "safeTransferFrom",
      "outputs": [],
      "stateMutability": "nonpayable",
      "type": "function"
    },
    {
      "inputs": [
        {
          "internalType": "address",
          "name": "sender",
          "type": "address"
        },
        {
          "internalType": "address",
          "name": "recipient",
          "type": "address"
        },
        {
          "internalType": "uint256",
          "name": "amount",
          "type": "uint256"
        },
        {
          "internalType": "bytes",
          "name": "data",
          "type": "bytes"
        }
      ],
      "name": "safeTransferFrom",
      "outputs": [],
      "stateMutability": "nonpayable",
      "type": "function"
    },
    {
      "inputs": [],
      "name": "name",
      "outputs": [
        {
          "internalType": "string",
          "name": "",
          "type": "string"
        }
      ],
      "stateMutability": "pure",
      "type": "function",
      "constant": true
    },
    {
      "inputs": [],
      "name": "symbol",
      "outputs": [
        {
          "internalType": "string",
          "name": "",
          "type": "string"
        }
      ],
      "stateMutability": "pure",
      "type": "function",
      "constant": true
    },
    {
      "inputs": [],
      "name": "decimals",
      "outputs": [
        {
          "internalType": "uint8",
          "name": "",
          "type": "uint8"
        }
      ],
      "stateMutability": "pure",
      "type": "function",
      "constant": true
    }
  ],
  "bytecode": "0x608060405234801561001057600080fd5b50610df0806100206000396000f3fe608060405234801561001057600080fd5b50600436106100f55760003560e01c806370a0823111610097578063cd457e6311610066578063cd457e6314610286578063dca2fb5c146102a4578063dd62ed3e146102c2578063eb795549146102f2576100f5565b806370a08231146101ec57806395d89b411461021c578063a9059cbb1461023a578063b88d4fde1461026a576100f5565b806323b872dd116100d357806323b872dd14610166578063313ce56714610196578063423f6cef146101b457806342842e0e146101d0576100f5565b806306fdde03146100fa578063095ea7b31461011857806318160ddd14610148575b600080fd5b61010261030e565b60405161010f9190610b40565b60405180910390f35b610132600480360381019061012d919061086a565b61034b565b60405161013f9190610b25565b60405180910390f35b610150610388565b60405161015d9190610c02565b60405180910390f35b610180600480360381019061017b91906107a0565b6103a0565b60405161018d9190610b25565b60405180910390f35b61019e6103dd565b6040516101ab9190610c1d565b60405180910390f35b6101ce60048036038101906101c9919061086a565b6103e6565b005b6101ea60048036038101906101e591906107a0565b610421565b005b6102066004803603810190610201919061073b565b61045c565b6040516102139190610c02565b60405180910390f35b6102246104b3565b6040516102319190610b40565b60405180910390f35b610254600480360381019061024f919061086a565b6104f0565b6040516102619190610b25565b60405180910390f35b610284600480360381019061027f91906107ef565b61052d565b005b61028e610568565b60405161029b9190610c02565b60405180910390f35b6102ac610580565b6040516102b99190610c02565b60405180910390f35b6102dc60048036038101906102d79190610764565b610598565b6040516102e99190610c02565b60405180910390f35b61030c600480360381019061030791906108a6565b6105ac565b005b60606040518060400160405280600c81526020017f446566696e697820566f74650000000000000000000000000000000000000000815250905090565b60006040517f08c379a000000000000000000000000000000000000000000000000000000000815260040161037f90610b62565b60405180910390fd5b6000806103936105e7565b905080600d015491505090565b60006040517f08c379a00000000000000000000000000000000000000000000000000000000081526004016103d490610be2565b60405180910390fd5b60006012905090565b6040517f08c379a000000000000000000000000000000000000000000000000000000000815260040161041890610bc2565b60405180910390fd5b6040517f08c379a000000000000000000000000000000000000000000000000000000000815260040161045390610ba2565b60405180910390fd5b6000806104676105e7565b90508060100160008473ffffffffffffffffffffffffffffffffffffffff1673ffffffffffffffffffffffffffffffffffffffff16815260200190815260200160002054915050919050565b60606040518060400160405280600681526020017f7646494e49580000000000000000000000000000000000000000000000000000815250905090565b60006040517f08c379a000000000000000000000000000000000000000000000000000000000815260040161052490610b82565b60405180910390fd5b6040517f08c379a000000000000000000000000000000000000000000000000000000000815260040161055f90610ba2565b60405180910390fd5b6000806105736105e7565b905080600f015491505090565b60008061058b6105e7565b905080600e015491505090565b60006105a48383610614565b905092915050565b6040517f08c379a00000000000000000000000000000000000000000000000000000000081526004016105de90610bc2565b60405180910390fd5b6000807fc8fcad8db84d3cc18b4c41d551ea0ee66dd599cde068d998e57d5e09332c131c90508091505090565b60008061061f6105e7565b90508060110160008573ffffffffffffffffffffffffffffffffffffffff1673ffffffffffffffffffffffffffffffffffffffff16815260200190815260200160002060008473ffffffffffffffffffffffffffffffffffffffff1673ffffffffffffffffffffffffffffffffffffffff1681526020019081526020016000205491505092915050565b60006106bc6106b784610c69565b610c38565b9050828152602081018484840111156106d457600080fd5b6106df848285610d0a565b509392505050565b6000813590506106f681610d8c565b92915050565b600082601f83011261070d57600080fd5b813561071d8482602086016106a9565b91505092915050565b60008135905061073581610da3565b92915050565b60006020828403121561074d57600080fd5b600061075b848285016106e7565b91505092915050565b6000806040838503121561077757600080fd5b6000610785858286016106e7565b9250506020610796858286016106e7565b9150509250929050565b6000806000606084860312156107b557600080fd5b60006107c3868287016106e7565b93505060206107d4868287016106e7565b92505060406107e586828701610726565b9150509250925092565b6000806000806080858703121561080557600080fd5b6000610813878288016106e7565b9450506020610824878288016106e7565b935050604061083587828801610726565b925050606085013567ffffffffffffffff81111561085257600080fd5b61085e878288016106fc565b91505092959194509250565b6000806040838503121561087d57600080fd5b600061088b858286016106e7565b925050602061089c85828601610726565b9150509250929050565b6000806000606084860312156108bb57600080fd5b60006108c9868287016106e7565b93505060206108da86828701610726565b925050604084013567ffffffffffffffff8111156108f757600080fd5b610903868287016106fc565b9150509250925092565b61091681610cc7565b82525050565b600061092782610c99565b6109318185610ca4565b9350610941818560208601610d19565b61094a81610d7b565b840191505092915050565b6000610962601d83610ca4565b91507f5646494e49583a20617070726f7665206e6f7420737570706f727465640000006000830152602082019050919050565b60006109a2601e83610ca4565b91507f5646494e49583a207472616e73666572206e6f7420737570706f7274656400006000830152602082019050919050565b60006109e2602683610ca4565b91507f5646494e49583a20736166655472616e7366657246726f6d206e6f742073757060008301527f706f7274656400000000000000000000000000000000000000000000000000006020830152604082019050919050565b6000610a48602283610ca4565b91507f5646494e49583a20736166655472616e73666572206e6f7420737570706f727460008301527f65640000000000000000000000000000000000000000000000000000000000006020830152604082019050919050565b6000610aae602283610ca4565b91507f5646494e49583a207472616e7366657246726f6d206e6f7420737570706f727460008301527f65640000000000000000000000000000000000000000000000000000000000006020830152604082019050919050565b610b1081610cf3565b82525050565b610b1f81610cfd565b82525050565b6000602082019050610b3a600083018461090d565b92915050565b60006020820190508181036000830152610b5a818461091c565b905092915050565b60006020820190508181036000830152610b7b81610955565b9050919050565b60006020820190508181036000830152610b9b81610995565b9050919050565b60006020820190508181036000830152610bbb816109d5565b9050919050565b60006020820190508181036000830152610bdb81610a3b565b9050919050565b60006020820190508181036000830152610bfb81610aa1565b9050919050565b6000602082019050610c176000830184610b07565b92915050565b6000602082019050610c326000830184610b16565b92915050565b6000604051905081810181811067ffffffffffffffff82111715610c5f57610c5e610d4c565b5b8060405250919050565b600067ffffffffffffffff821115610c8457610c83610d4c565b5b601f19601f8301169050602081019050919050565b600081519050919050565b600082825260208201905092915050565b6000610cc082610cd3565b9050919050565b60008115159050919050565b600073ffffffffffffffffffffffffffffffffffffffff82169050919050565b6000819050919050565b600060ff82169050919050565b82818337600083830152505050565b60005b83811015610d37578082015181840152602081019050610d1c565b83811115610d46576000848401525b50505050565b7f4e487b7100000000000000000000000000000000000000000000000000000000600052604160045260246000fd5b6000601f19601f8301169050919050565b610d9581610cb5565b8114610da057600080fd5b50565b610dac81610cf3565b8114610db757600080fd5b5056fea26469706673582212209ae20488d0b1320c8f34eba9b7d29538ca12180782dee0281492eea7fe4fd03364736f6c63430008000033",
  "immutableReferences": {},
  "source": "// SPDX-License-Identifier: MIT\npragma solidity ^0.8.0;\n\nimport { LibDiamond } from \"../libraries/LibDiamond.sol\";\nimport \"../interfaces/IKIP7.sol\";\n\ncontract TokenFacet is IKIP7 {\n\n    string private constant _NAME = \"Definix Vote\";\n    string private constant _SYMBOL = \"vFINIX\";\n    uint8 private constant _DECIMALS = 18;\n   \n   function finix() internal view returns (address finix_) {\n       finix_ = LibDiamond.getAddress(keccak256(abi.encodePacked(\"FINIX\")));\n   }\n\n    function totalSupply() external override view returns (uint256) {\n        LibDiamond.DiamondStorage storage ds = LibDiamond.diamondStorage();\n        return ds.totalSupply;\n    }\n\n    function totalSupplyAllTimeMint() external view returns (uint256){\n         LibDiamond.DiamondStorage storage ds = LibDiamond.diamondStorage();\n        return ds.totalSupplyAllTimeMint;\n    }\n\n    function totalSupplyAllTimeBurn() external view returns (uint256){\n         LibDiamond.DiamondStorage storage ds = LibDiamond.diamondStorage();\n        return ds.totalSupplyAllTimeBurn;\n    }\n\n    function balanceOf(address account) external override view returns (uint256){\n        LibDiamond.DiamondStorage storage ds = LibDiamond.diamondStorage();\n        return ds.balances[account];\n    }\n\n    function transfer(address recipient, uint256 amount) external override returns (bool){\n        revert(\"VFINIX: transfer not supported\");\n    }\n\n    function allowance(address owner, address spender) external override view returns (uint256){\n        return LibDiamond.allowance(owner,spender);\n    }\n\n    function approve(address spender, uint256 amount) external override returns (bool){\n        revert(\"VFINIX: approve not supported\");\n    }\n\n    function transferFrom(address sender, address recipient, uint256 amount) external override returns (bool){\n        revert(\"VFINIX: transferFrom not supported\");\n    }\n\n    function safeTransfer(address recipient, uint256 amount, bytes memory data) external override{\n        revert(\"VFINIX: safeTransfer not supported\");\n    }\n\n    function safeTransfer(address recipient, uint256 amount) external override {\n        revert(\"VFINIX: safeTransfer not supported\");\n    }\n\n    function safeTransferFrom(address sender, address recipient, uint256 amount, bytes memory data) external override {\n        revert(\"VFINIX: safeTransferFrom not supported\");\n\n    }\n\n    function safeTransferFrom(address sender, address recipient, uint256 amount) external override{\n        revert(\"VFINIX: safeTransferFrom not supported\");\n\n    }\n\n  \n    function name() public pure returns (string memory) {\n        return _NAME;\n    }\n\n   \n    function symbol() public pure returns (string memory) {\n        return _SYMBOL;\n    }\n\n    \n    function decimals() public pure returns (uint8) {\n        return _DECIMALS;\n    }\n}\n",
  "sourcePath": "/Users/kanthakarn/Documents/work/six-network/definix-vfinix/contracts/facets/TokenFacet.sol",
  "compiler": {
    "name": "solc",
    "version": "0.8.0+commit.c7dfd78e.Emscripten.clang"
  },
  "schemaVersion": "3.4.1",
  "updatedAt": "2021-10-22T08:23:17.527Z",
  "networkType": "ethereum",
  "devdoc": {
    "kind": "dev",
    "methods": {
      "allowance(address,address)": {
        "details": "Returns the remaining number of tokens that `spender` will be allowed to spend on behalf of `owner` through `transferFrom`. This is zero by default. This value changes when `approve` or `transferFrom` are called."
      },
      "approve(address,uint256)": {
        "details": "Sets `amount` as the allowance of `spender` over the caller's tokens. Returns a boolean value indicating whether the operation succeeded. > Beware that changing an allowance with this method brings the risk that someone may use both the old and the new allowance by unfortunate transaction ordering. One possible solution to mitigate this race condition is to first reduce the spender's allowance to 0 and set the desired value afterwards: https://github.com/ethereum/EIPs/issues/20#issuecomment-263524729 Emits an `Approval` event."
      },
      "balanceOf(address)": {
        "details": "Returns the amount of tokens owned by `account`."
      },
      "safeTransfer(address,uint256)": {
        "details": "Moves `amount` tokens from the caller's account to `recipient`."
      },
      "safeTransfer(address,uint256,bytes)": {
        "details": "Moves `amount` tokens from the caller's account to `recipient`."
      },
      "safeTransferFrom(address,address,uint256)": {
        "details": "Moves `amount` tokens from `sender` to `recipient` using the allowance mechanism. `amount` is then deducted from the caller's allowance."
      },
      "safeTransferFrom(address,address,uint256,bytes)": {
        "details": "Moves `amount` tokens from `sender` to `recipient` using the allowance mechanism. `amount` is then deducted from the caller's allowance."
      },
      "totalSupply()": {
        "details": "Returns the amount of tokens in existence."
      },
      "transfer(address,uint256)": {
        "details": "Moves `amount` tokens from the caller's account to `recipient`. Returns a boolean value indicating whether the operation succeeded. Emits a `Transfer` event."
      },
      "transferFrom(address,address,uint256)": {
        "details": "Moves `amount` tokens from `sender` to `recipient` using the allowance mechanism. `amount` is then deducted from the caller's allowance. Returns a boolean value indicating whether the operation succeeded. Emits a `Transfer` event."
      }
    },
    "version": 1
  },
  "userdoc": {
    "kind": "user",
    "methods": {},
    "version": 1
  }
}