{
  "contractName": "UsageFacet",
  "abi": [
    {
      "inputs": [
        {
          "internalType": "bytes32",
          "name": "_serviceId",
          "type": "bytes32"
        },
        {
          "internalType": "uint256",
          "name": "_amount",
          "type": "uint256"
        }
      ],
      "name": "approveToService",
      "outputs": [],
      "stateMutability": "nonpayable",
      "type": "function"
    },
    {
      "inputs": [
        {
          "internalType": "bytes32",
          "name": "_serviceId",
          "type": "bytes32"
        },
        {
          "internalType": "address",
          "name": "_holder",
          "type": "address"
        }
      ],
      "name": "getServiceAllowance",
      "outputs": [
        {
          "internalType": "uint256",
          "name": "",
          "type": "uint256"
        }
      ],
      "stateMutability": "view",
      "type": "function",
      "constant": true
    },
    {
      "inputs": [
        {
          "internalType": "address",
          "name": "_serviceContract",
          "type": "address"
        },
        {
          "internalType": "bytes32",
          "name": "_serviceId",
          "type": "bytes32"
        },
        {
          "internalType": "string",
          "name": "_serviceName",
          "type": "string"
        }
      ],
      "name": "registerService",
      "outputs": [],
      "stateMutability": "nonpayable",
      "type": "function"
    },
    {
      "inputs": [
        {
          "internalType": "address",
          "name": "_holder",
          "type": "address"
        }
      ],
      "name": "getTotalVotes",
      "outputs": [
        {
          "internalType": "uint256",
          "name": "totalVotes_",
          "type": "uint256"
        }
      ],
      "stateMutability": "view",
      "type": "function",
      "constant": true
    },
    {
      "inputs": [
        {
          "internalType": "address",
          "name": "_holder",
          "type": "address"
        }
      ],
      "name": "getAvailableVotes",
      "outputs": [
        {
          "internalType": "uint256",
          "name": "availableVotes_",
          "type": "uint256"
        }
      ],
      "stateMutability": "view",
      "type": "function",
      "constant": true
    },
    {
      "inputs": [
        {
          "internalType": "address",
          "name": "_holder",
          "type": "address"
        }
      ],
      "name": "getTotalUsingVotes",
      "outputs": [
        {
          "internalType": "uint256",
          "name": "totalUsingVote_",
          "type": "uint256"
        }
      ],
      "stateMutability": "view",
      "type": "function",
      "constant": true
    },
    {
      "inputs": [
        {
          "internalType": "bytes32",
          "name": "_serviceId",
          "type": "bytes32"
        },
        {
          "internalType": "address",
          "name": "_holder",
          "type": "address"
        },
        {
          "internalType": "uint256",
          "name": "_amount",
          "type": "uint256"
        }
      ],
      "name": "addVotesToService",
      "outputs": [],
      "stateMutability": "nonpayable",
      "type": "function"
    },
    {
      "inputs": [
        {
          "internalType": "bytes32",
          "name": "_serviceId",
          "type": "bytes32"
        },
        {
          "internalType": "address",
          "name": "_holder",
          "type": "address"
        },
        {
          "internalType": "uint256",
          "name": "_amount",
          "type": "uint256"
        }
      ],
      "name": "removeVotesFromService",
      "outputs": [],
      "stateMutability": "nonpayable",
      "type": "function"
    },
    {
      "inputs": [
        {
          "internalType": "address",
          "name": "_serviceContract",
          "type": "address"
        },
        {
          "internalType": "bytes32",
          "name": "_serviceId",
          "type": "bytes32"
        },
        {
          "internalType": "address",
          "name": "_holder",
          "type": "address"
        }
      ],
      "name": "getVotesOnService",
      "outputs": [
        {
          "internalType": "uint256",
          "name": "",
          "type": "uint256"
        }
      ],
      "stateMutability": "view",
      "type": "function",
      "constant": true
    }
  ],
  "bytecode": "0x608060405234801561001057600080fd5b506116fe806100206000396000f3fe608060405234801561001057600080fd5b50600436106100935760003560e01c80639d3c259a116100665780639d3c259a14610130578063a57d7f5914610160578063c35f91c51461017c578063ca2c694c14610198578063d3ec2acd146101c857610093565b8063130bc7a514610098578063279b5c43146100b457806336c2c632146100d05780639620f52114610100575b600080fd5b6100b260048036038101906100ad9190611030565b6101f8565b005b6100ce60048036038101906100c99190610fe1565b61026b565b005b6100ea60048036038101906100e59190610eea565b6103bf565b6040516100f791906114a8565b60405180910390f35b61011a60048036038101906101159190610ec1565b6103d5565b60405161012791906114a8565b60405180910390f35b61014a60048036038101906101459190610ec1565b6103e7565b60405161015791906114a8565b60405180910390f35b61017a60048036038101906101759190610f39565b610479565b005b61019660048036038101906101919190610fe1565b610686565b005b6101b260048036038101906101ad9190610fa5565b6108ba565b6040516101bf91906114a8565b60405180910390f35b6101e260048036038101906101dd9190610ec1565b61092c565b6040516101ef91906114a8565b60405180910390f35b60006040518060400160405280601881526020017f7646696e69782e736572766963655f616c6c6f77616e6365000000000000000081525033846040516020016102449392919061135e565b604051602081830303815290604052805190602001209050610266818361093e565b505050565b60006040518060400160405280600e81526020017f7646696e69782e7365727669636500000000000000000000000000000000000081525033856040516020016102b79392919061135e565b604051602081830303815290604052805190602001209050600115156102dc82610969565b15151461031e576040517f08c379a000000000000000000000000000000000000000000000000000000000815260040161031590611488565b60405180910390fd5b600061032b3386866109a1565b905082811015610370576040517f08c379a000000000000000000000000000000000000000000000000000000000815260040161036790611428565b60405180910390fd5b600061037b85610a1b565b9050610399856103948684610a8a90919063ffffffff16565b610aa0565b6103b73387876103b28887610a8a90919063ffffffff16565b610b0b565b505050505050565b60006103cc8484846109a1565b90509392505050565b60006103e082610a1b565b9050919050565b60003073ffffffffffffffffffffffffffffffffffffffff166370a08231836040518263ffffffff1660e01b81526004016104229190611313565b60206040518083038186803b15801561043a57600080fd5b505afa15801561044e573d6000803e3d6000fd5b505050506040513d601f19601f82011682018060405250810190610472919061106c565b9050919050565b610481610b82565b60006040518060400160405280600e81526020017f7646696e69782e7365727669636500000000000000000000000000000000000081525085856040516020016104cd9392919061135e565b604051602081830303815290604052805190602001209050600015156104f282610969565b151514610534576040517f08c379a000000000000000000000000000000000000000000000000000000000815260040161052b90611448565b60405180910390fd5b600061053e610c1d565b905060008160120180549050905061055a838261ffff1661093e565b610565836001610c4a565b600060405180606001604052808973ffffffffffffffffffffffffffffffffffffffff16815260200188815260200187878080601f016020809104026020016040519081016040528093929190818152602001838380828437600081840152601f19601f8201169050808301925050505050505081525090508260120181908060018154018082558091505060019003906000526020600020906003020160009091909190915060008201518160000160006101000a81548173ffffffffffffffffffffffffffffffffffffffff021916908373ffffffffffffffffffffffffffffffffffffffff160217905550602082015181600101556040820151816002019080519060200190610679929190610d80565b5050505050505050505050565b60006040518060400160405280600e81526020017f7646696e69782e7365727669636500000000000000000000000000000000000081525033856040516020016106d29392919061135e565b604051602081830303815290604052805190602001209050600115156106f782610969565b151514610739576040517f08c379a000000000000000000000000000000000000000000000000000000000815260040161073090611488565b60405180910390fd5b600061074484610c88565b905082811015610789576040517f08c379a000000000000000000000000000000000000000000000000000000000815260040161078090611468565b60405180910390fd5b60006040518060400160405280601881526020017f7646696e69782e736572766963655f616c6c6f77616e6365000000000000000081525085876040516020016107d59392919061135e565b60405160208183030381529060405280519060200120905060006107f882610d3f565b90508481101561083d576040517f08c379a000000000000000000000000000000000000000000000000000000000815260040161083490611408565b60405180910390fd5b600061084887610a1b565b9050610866876108618884610d6a90919063ffffffff16565b610aa0565b6000610873338a8a6109a1565b9050610893338a8a61088e8b86610d6a90919063ffffffff16565b610b0b565b6108af846108aa8986610a8a90919063ffffffff16565b61093e565b505050505050505050565b60006109246040518060400160405280601881526020017f7646696e69782e736572766963655f616c6c6f77616e6365000000000000000081525083856040516020016109099392919061135e565b60405160208183030381529060405280519060200120610d3f565b905092915050565b600061093782610c88565b9050919050565b6000610948610c1d565b90508181600401600085815260200190815260200160002081905550505050565b600080610974610c1d565b905080600701600084815260200190815260200160002060009054906101000a900460ff16915050919050565b6000806040518060400160405280601281526020017f7646696e69782e736572766963655f75736500000000000000000000000000008152508585856040516020016109f0949392919061139c565b604051602081830303815290604052805190602001209050610a1181610d3f565b9150509392505050565b6000610a836040518060400160405280601081526020017f7646696e69782e746f74616c5f7573650000000000000000000000000000000081525083604051602001610a6892919061132e565b60405160208183030381529060405280519060200120610d3f565b9050919050565b60008183610a989190611535565b905092915050565b610b076040518060400160405280601081526020017f7646696e69782e746f74616c5f7573650000000000000000000000000000000081525083604051602001610aeb92919061132e565b604051602081830303815290604052805190602001208261093e565b5050565b60006040518060400160405280601281526020017f7646696e69782e736572766963655f7573650000000000000000000000000000815250858585604051602001610b59949392919061139c565b604051602081830303815290604052805190602001209050610b7b818361093e565b5050505050565b610b8a610c1d565b60030160009054906101000a900473ffffffffffffffffffffffffffffffffffffffff1673ffffffffffffffffffffffffffffffffffffffff163373ffffffffffffffffffffffffffffffffffffffff1614610c1b576040517f08c379a0000000000000000000000000000000000000000000000000000000008152600401610c12906113e8565b60405180910390fd5b565b6000807fc8fcad8db84d3cc18b4c41d551ea0ee66dd599cde068d998e57d5e09332c131c90508091505090565b6000610c54610c1d565b90508181600701600085815260200190815260200160002060006101000a81548160ff021916908315150217905550505050565b6000803073ffffffffffffffffffffffffffffffffffffffff166370a08231846040518263ffffffff1660e01b8152600401610cc49190611313565b60206040518083038186803b158015610cdc57600080fd5b505afa158015610cf0573d6000803e3d6000fd5b505050506040513d601f19601f82011682018060405250810190610d14919061106c565b90506000610d2184610a1b565b9050610d368183610a8a90919063ffffffff16565b92505050919050565b600080610d4a610c1d565b905080600401600084815260200190815260200160002054915050919050565b60008183610d7891906114df565b905092915050565b828054610d8c906115e2565b90600052602060002090601f016020900481019282610dae5760008555610df5565b82601f10610dc757805160ff1916838001178555610df5565b82800160010185558215610df5579182015b82811115610df4578251825591602001919060010190610dd9565b5b509050610e029190610e06565b5090565b5b80821115610e1f576000816000905550600101610e07565b5090565b600081359050610e3281611683565b92915050565b600081359050610e478161169a565b92915050565b60008083601f840112610e5f57600080fd5b8235905067ffffffffffffffff811115610e7857600080fd5b602083019150836001820283011115610e9057600080fd5b9250929050565b600081359050610ea6816116b1565b92915050565b600081519050610ebb816116b1565b92915050565b600060208284031215610ed357600080fd5b6000610ee184828501610e23565b91505092915050565b600080600060608486031215610eff57600080fd5b6000610f0d86828701610e23565b9350506020610f1e86828701610e38565b9250506040610f2f86828701610e23565b9150509250925092565b60008060008060608587031215610f4f57600080fd5b6000610f5d87828801610e23565b9450506020610f6e87828801610e38565b935050604085013567ffffffffffffffff811115610f8b57600080fd5b610f9787828801610e4d565b925092505092959194509250565b60008060408385031215610fb857600080fd5b6000610fc685828601610e38565b9250506020610fd785828601610e23565b9150509250929050565b600080600060608486031215610ff657600080fd5b600061100486828701610e38565b935050602061101586828701610e23565b925050604061102686828701610e97565b9150509250925092565b6000806040838503121561104357600080fd5b600061105185828601610e38565b925050602061106285828601610e97565b9150509250929050565b60006020828403121561107e57600080fd5b600061108c84828501610eac565b91505092915050565b61109e81611569565b82525050565b6110ad8161157b565b82525050565b60006110be826114c3565b6110c881856114ce565b93506110d88185602086016115af565b6110e181611672565b840191505092915050565b60006110f96022836114ce565b91507f4c69624469616d6f6e643a204d75737420626520636f6e7472616374206f776e60008301527f65720000000000000000000000000000000000000000000000000000000000006020830152604082019050919050565b600061115f601f836114ce565b91507f7646696e69783a20416d6f756e742065786365656420616c6c6f77616e6365006000830152602082019050919050565b600061119f602d836114ce565b91507f7646696e69783a206e6f7420656e6f75676820566f746573206f6e207365727660008301527f69636520746f2072656d6f7665000000000000000000000000000000000000006020830152604082019050919050565b60006112056029836114ce565b91507f7646696e69783a2053657276696365277320616c7265616479206265656e207260008301527f65676973746572656400000000000000000000000000000000000000000000006020830152604082019050919050565b600061126b6022836114ce565b91507f7646696e69783a204e6f7420656e6f75676820617661696c61626c6520566f7460008301527f65730000000000000000000000000000000000000000000000000000000000006020830152604082019050919050565b60006112d1601f836114ce565b91507f7646696e69783a205365727669636520646f6573206e6f7420657869737473006000830152602082019050919050565b61130d816115a5565b82525050565b60006020820190506113286000830184611095565b92915050565b6000604082019050818103600083015261134881856110b3565b90506113576020830184611095565b9392505050565b6000606082019050818103600083015261137881866110b3565b90506113876020830185611095565b61139460408301846110a4565b949350505050565b600060808201905081810360008301526113b681876110b3565b90506113c56020830186611095565b6113d260408301856110a4565b6113df6060830184611095565b95945050505050565b60006020820190508181036000830152611401816110ec565b9050919050565b6000602082019050818103600083015261142181611152565b9050919050565b6000602082019050818103600083015261144181611192565b9050919050565b60006020820190508181036000830152611461816111f8565b9050919050565b600060208201905081810360008301526114818161125e565b9050919050565b600060208201905081810360008301526114a1816112c4565b9050919050565b60006020820190506114bd6000830184611304565b92915050565b600081519050919050565b600082825260208201905092915050565b60006114ea826115a5565b91506114f5836115a5565b9250827fffffffffffffffffffffffffffffffffffffffffffffffffffffffffffffffff0382111561152a57611529611614565b5b828201905092915050565b6000611540826115a5565b915061154b836115a5565b92508282101561155e5761155d611614565b5b828203905092915050565b600061157482611585565b9050919050565b6000819050919050565b600073ffffffffffffffffffffffffffffffffffffffff82169050919050565b6000819050919050565b60005b838110156115cd5780820151818401526020810190506115b2565b838111156115dc576000848401525b50505050565b600060028204905060018216806115fa57607f821691505b6020821081141561160e5761160d611643565b5b50919050565b7f4e487b7100000000000000000000000000000000000000000000000000000000600052601160045260246000fd5b7f4e487b7100000000000000000000000000000000000000000000000000000000600052602260045260246000fd5b6000601f19601f8301169050919050565b61168c81611569565b811461169757600080fd5b50565b6116a38161157b565b81146116ae57600080fd5b50565b6116ba816115a5565b81146116c557600080fd5b5056fea2646970667358221220ed704a365c9f71b87c5b960fa4c8a37ca4a467e62ab805c010309696e6c8750964736f6c63430008000033",
  "immutableReferences": {},
  "source": "// SPDX-License-Identifier: MIT\npragma solidity ^0.8.0;\n\nimport { LibDiamond } from \"../libraries/LibDiamond.sol\";\nimport \"../interfaces/IUsageFacet.sol\";\nimport \"../interfaces/IKIP7.sol\";\nimport \"../utils/math/SafeMath.sol\";\n\ncontract UsageFacet is IUsageFacet {\n\n    using SafeMath for uint256;\n\n    string constant VFINIX_SERVICE = \"vFinix.service\";\n    string constant VFINIX_SERVICE_USE = \"vFinix.service_use\";\n    string constant VFINIX_TOTAL_USE = \"vFinix.total_use\";\n    string constant VFINIX_SERVICE_ALLOWANCE = \"vFinix.service_allowance\";\n    \n    function approveToService(bytes32 _serviceId, uint256 _amount) public {\n        bytes32 allowanceKey = keccak256(abi.encode(VFINIX_SERVICE_ALLOWANCE, msg.sender, _serviceId));\n        LibDiamond.setUint(allowanceKey, _amount);\n    }\n\n    function getServiceAllowance(bytes32 _serviceId, address _holder) public view returns (uint256) {\n        return LibDiamond.getUint(keccak256(abi.encode(VFINIX_SERVICE_ALLOWANCE, _holder, _serviceId)));\n    }\n\n    // register services by integrating contract\n    function registerService(address _serviceContract, bytes32 _serviceId, string calldata _serviceName) external override{\n        LibDiamond.enforceIsContractOwner();\n        bytes32 serviceKey = keccak256(abi.encode(VFINIX_SERVICE, _serviceContract, _serviceId));\n        // Service must not been register before.\n        require(LibDiamond.getBool(serviceKey) == false,\"vFinix: Service's already been registered\");\n        // Locate storage\n        LibDiamond.DiamondStorage storage ds = LibDiamond.diamondStorage();\n        uint16 serviceCount = uint16(ds.services.length);\n        // Map New Service to index\n        LibDiamond.setUint(serviceKey,uint256(serviceCount));\n        // Mapping existing of service\n        LibDiamond.setBool(serviceKey,true);\n        // Create new Service\n        LibDiamond.Service memory newService = LibDiamond.Service(\n            _serviceContract,\n            _serviceId,\n            _serviceName\n        );\n        // // Add new Service\n        ds.services.push(newService);\n    }\n    \n    function getTotalVotes(address _holder) external override view returns(uint256 totalVotes_) {\n        totalVotes_ = IKIP7(address(this)).balanceOf(_holder);\n    }\n    \n    function getAvailableVotes(address _holder) external override view returns(uint256 availableVotes_) {\n        return _getAvailableVotes(_holder);\n    }\n    function getTotalUsingVotes(address _holder) external override view returns(uint256 totalUsingVote_) {\n        return _getTotalUsingVotes(_holder);\n    }\n\n    function addVotesToService(bytes32 _serviceId, address _holder, uint256 _amount) external override {\n        bytes32 serviceKey = keccak256(abi.encode(VFINIX_SERVICE, msg.sender, _serviceId));\n        require(LibDiamond.getBool(serviceKey) == true, \"vFinix: Service does not exists\");\n\n        // Total votes\n        uint256 availableVotes = _getAvailableVotes(_holder);\n        require(availableVotes >= _amount, \"vFinix: Not enough available Votes\");\n        \n        // Get holder allowance\n        bytes32 allowanceKey = keccak256(abi.encode(VFINIX_SERVICE_ALLOWANCE, _holder, _serviceId));\n        uint256 holderAllowance = LibDiamond.getUint(allowanceKey);\n        require(holderAllowance >= _amount, \"vFinix: Amount exceed allowance\");\n\n        // Set total using votes\n        uint256 usingVotes = _getTotalUsingVotes(_holder);\n        _setTotalUsingVotes(_holder, usingVotes.add(_amount));\n\n        // Set using on service\n        uint256 usingServiceVotes = _getVotesOnService(msg.sender, _serviceId,_holder);\n        _setVotesOnService(msg.sender, _serviceId, _holder, usingServiceVotes.add(_amount));\n\n        // Subtract from holder allowance\n        LibDiamond.setUint(allowanceKey, holderAllowance.sub(_amount));\n    }\n\n    function removeVotesFromService(bytes32 _serviceId,address _holder, uint256 _amount) external override {\n        bytes32 serviceKey = keccak256(abi.encode(VFINIX_SERVICE,msg.sender,_serviceId));\n        require(LibDiamond.getBool(serviceKey) == true,\"vFinix: Service does not exists\");\n        \n        // Check wether how many votes on the services\n        uint256 votesOnService = _getVotesOnService(msg.sender, _serviceId, _holder);\n        require(votesOnService >= _amount , \"vFinix: not enough Votes on service to remove\");\n\n        // Set total using votes\n        uint256 usingVotes = _getTotalUsingVotes(_holder);\n        _setTotalUsingVotes(_holder, usingVotes.sub(_amount));\n\n        // Set using on service\n        _setVotesOnService(msg.sender, _serviceId, _holder, votesOnService.sub(_amount));\n    }\n\n    function getVotesOnService(address _serviceContract,bytes32 _serviceId,address _holder) external override view returns(uint256) {\n        return _getVotesOnService(_serviceContract, _serviceId, _holder);\n    }\n\n    function _setVotesOnService(address _serviceContract,bytes32 _serviceId,address _holder,uint256 _amount) internal {\n        bytes32 usingServiceKey = keccak256(abi.encode(VFINIX_SERVICE_USE,_serviceContract,_serviceId,_holder));\n        LibDiamond.setUint(usingServiceKey,_amount);\n    }\n\n    function _getVotesOnService(address _serviceContract,bytes32 _serviceId,address _holder) internal view returns(uint256) {\n        bytes32 usingServiceKey = keccak256(abi.encode(VFINIX_SERVICE_USE,_serviceContract,_serviceId,_holder));\n        return LibDiamond.getUint(usingServiceKey);\n    }\n\n    function _getAvailableVotes(address _holder) internal view returns(uint256 availableVotes_) {\n        uint256 totalVotes_ = IKIP7(address(this)).balanceOf(_holder);\n        uint256 usingVotes = _getTotalUsingVotes(_holder);\n        return totalVotes_.sub(usingVotes);\n    }\n\n    function _getTotalUsingVotes(address _holder) internal view returns(uint256 totalUsingVote_) {\n        totalUsingVote_ = LibDiamond.getUint(keccak256(abi.encode(VFINIX_TOTAL_USE,_holder)));\n    }\n\n    function _setTotalUsingVotes(address _holder,uint256 _votes) internal {\n        LibDiamond.setUint(keccak256(abi.encode(VFINIX_TOTAL_USE,_holder)),_votes);\n    }\n}\n",
  "sourcePath": "/Users/kanthakarn/Documents/work/six-network/definix-vfinix/contracts/facets/UsageFacet.sol",
  "compiler": {
    "name": "solc",
    "version": "0.8.0+commit.c7dfd78e.Emscripten.clang"
  },
  "schemaVersion": "3.4.1",
  "updatedAt": "2021-12-10T06:48:51.216Z",
  "networkType": "ethereum",
  "devdoc": {
    "kind": "dev",
    "methods": {},
    "version": 1
  },
  "userdoc": {
    "kind": "user",
    "methods": {},
    "version": 1
  }
}