{
  "contractName": "VaultFacet",
  "abi": [
    {
      "anonymous": false,
      "inputs": [
        {
          "indexed": false,
          "internalType": "address",
          "name": "_user",
          "type": "address"
        },
        {
          "indexed": true,
          "internalType": "uint256",
          "name": "_lockAmount",
          "type": "uint256"
        },
        {
          "indexed": false,
          "internalType": "uint256",
          "name": "_vFinixAmount",
          "type": "uint256"
        },
        {
          "indexed": true,
          "internalType": "uint256",
          "name": "_lockIndex",
          "type": "uint256"
        },
        {
          "indexed": true,
          "internalType": "bytes32",
          "name": "_lockKey",
          "type": "bytes32"
        }
      ],
      "name": "FinixLock",
      "type": "event"
    },
    {
      "anonymous": false,
      "inputs": [
        {
          "indexed": false,
          "internalType": "address",
          "name": "_user",
          "type": "address"
        },
        {
          "indexed": false,
          "internalType": "uint256",
          "name": "_finixTranferAmount",
          "type": "uint256"
        },
        {
          "indexed": false,
          "internalType": "uint256",
          "name": "_vfinixBurnAmount",
          "type": "uint256"
        },
        {
          "indexed": false,
          "internalType": "uint256",
          "name": "_unlockIndex",
          "type": "uint256"
        }
      ],
      "name": "finixUnlock",
      "type": "event"
    },
    {
      "inputs": [
        {
          "internalType": "address",
          "name": "_user",
          "type": "address"
        }
      ],
      "name": "lockCount",
      "outputs": [
        {
          "internalType": "uint256",
          "name": "",
          "type": "uint256"
        }
      ],
      "stateMutability": "view",
      "type": "function",
      "constant": true
    },
    {
      "inputs": [
        {
          "internalType": "enum LibDiamond.LockLevel",
          "name": "_level",
          "type": "uint8"
        },
        {
          "internalType": "uint256",
          "name": "_lockAmount",
          "type": "uint256"
        }
      ],
      "name": "lock",
      "outputs": [],
      "stateMutability": "nonpayable",
      "type": "function"
    },
    {
      "inputs": [
        {
          "internalType": "uint256",
          "name": "_lockIndex",
          "type": "uint256"
        }
      ],
      "name": "unlock",
      "outputs": [],
      "stateMutability": "nonpayable",
      "type": "function"
    },
    {
      "inputs": [],
      "name": "getTotalFinixLock",
      "outputs": [
        {
          "internalType": "uint256",
          "name": "totalFinixLock_",
          "type": "uint256"
        },
        {
          "internalType": "uint256",
          "name": "totalFinixLockAtLevel1_",
          "type": "uint256"
        },
        {
          "internalType": "uint256",
          "name": "totalFinixLockAtLevel2_",
          "type": "uint256"
        },
        {
          "internalType": "uint256",
          "name": "totalFinixLockAtLevel3_",
          "type": "uint256"
        },
        {
          "internalType": "uint256",
          "name": "totalLockCount_",
          "type": "uint256"
        },
        {
          "internalType": "uint256",
          "name": "totalLockLevel1Count_",
          "type": "uint256"
        },
        {
          "internalType": "uint256",
          "name": "totalLockLevel2Count_",
          "type": "uint256"
        },
        {
          "internalType": "uint256",
          "name": "totalLockLevel3Count_",
          "type": "uint256"
        }
      ],
      "stateMutability": "view",
      "type": "function",
      "constant": true
    },
    {
      "inputs": [],
      "name": "getAllLockPeriods",
      "outputs": [
        {
          "components": [
            {
              "internalType": "uint256",
              "name": "_period1",
              "type": "uint256"
            },
            {
              "internalType": "uint256",
              "name": "_period2",
              "type": "uint256"
            },
            {
              "internalType": "uint256",
              "name": "_period3",
              "type": "uint256"
            },
            {
              "internalType": "uint256",
              "name": "_multiplier1",
              "type": "uint256"
            },
            {
              "internalType": "uint256",
              "name": "_multiplier2",
              "type": "uint256"
            },
            {
              "internalType": "uint256",
              "name": "_multiplier3",
              "type": "uint256"
            },
            {
              "internalType": "uint256",
              "name": "_minimum1",
              "type": "uint256"
            },
            {
              "internalType": "uint256",
              "name": "_minimum2",
              "type": "uint256"
            },
            {
              "internalType": "uint256",
              "name": "_minimum3",
              "type": "uint256"
            },
            {
              "internalType": "uint256",
              "name": "_penaltyPeriod1",
              "type": "uint256"
            },
            {
              "internalType": "uint256",
              "name": "_penaltyPeriod2",
              "type": "uint256"
            },
            {
              "internalType": "uint256",
              "name": "_penaltyPeriod3",
              "type": "uint256"
            },
            {
              "internalType": "uint256",
              "name": "_penaltyRate1",
              "type": "uint256"
            },
            {
              "internalType": "uint256",
              "name": "_penaltyRate2",
              "type": "uint256"
            },
            {
              "internalType": "uint256",
              "name": "_penaltyRate3",
              "type": "uint256"
            },
            {
              "internalType": "uint256",
              "name": "_penaltyRateDecimal1",
              "type": "uint256"
            },
            {
              "internalType": "uint256",
              "name": "_penaltyRateDecimal2",
              "type": "uint256"
            },
            {
              "internalType": "uint256",
              "name": "_penaltyRateDecimal3",
              "type": "uint256"
            }
          ],
          "internalType": "struct LibDiamond.ParamLockPeriods",
          "name": "param_",
          "type": "tuple"
        }
      ],
      "stateMutability": "view",
      "type": "function",
      "constant": true
    },
    {
      "inputs": [
        {
          "components": [
            {
              "internalType": "uint256",
              "name": "_period1",
              "type": "uint256"
            },
            {
              "internalType": "uint256",
              "name": "_period2",
              "type": "uint256"
            },
            {
              "internalType": "uint256",
              "name": "_period3",
              "type": "uint256"
            },
            {
              "internalType": "uint256",
              "name": "_multiplier1",
              "type": "uint256"
            },
            {
              "internalType": "uint256",
              "name": "_multiplier2",
              "type": "uint256"
            },
            {
              "internalType": "uint256",
              "name": "_multiplier3",
              "type": "uint256"
            },
            {
              "internalType": "uint256",
              "name": "_minimum1",
              "type": "uint256"
            },
            {
              "internalType": "uint256",
              "name": "_minimum2",
              "type": "uint256"
            },
            {
              "internalType": "uint256",
              "name": "_minimum3",
              "type": "uint256"
            },
            {
              "internalType": "uint256",
              "name": "_penaltyPeriod1",
              "type": "uint256"
            },
            {
              "internalType": "uint256",
              "name": "_penaltyPeriod2",
              "type": "uint256"
            },
            {
              "internalType": "uint256",
              "name": "_penaltyPeriod3",
              "type": "uint256"
            },
            {
              "internalType": "uint256",
              "name": "_penaltyRate1",
              "type": "uint256"
            },
            {
              "internalType": "uint256",
              "name": "_penaltyRate2",
              "type": "uint256"
            },
            {
              "internalType": "uint256",
              "name": "_penaltyRate3",
              "type": "uint256"
            },
            {
              "internalType": "uint256",
              "name": "_penaltyRateDecimal1",
              "type": "uint256"
            },
            {
              "internalType": "uint256",
              "name": "_penaltyRateDecimal2",
              "type": "uint256"
            },
            {
              "internalType": "uint256",
              "name": "_penaltyRateDecimal3",
              "type": "uint256"
            }
          ],
          "internalType": "struct LibDiamond.ParamLockPeriods",
          "name": "param_",
          "type": "tuple"
        }
      ],
      "name": "setUpLockPeriods",
      "outputs": [],
      "stateMutability": "nonpayable",
      "type": "function"
    },
    {
      "inputs": [
        {
          "internalType": "enum LibDiamond.LockLevel",
          "name": "_level",
          "type": "uint8"
        },
        {
          "internalType": "uint256",
          "name": "_period",
          "type": "uint256"
        },
        {
          "internalType": "uint256",
          "name": "_multiplier",
          "type": "uint256"
        },
        {
          "internalType": "uint256",
          "name": "_mininum",
          "type": "uint256"
        },
        {
          "internalType": "uint256",
          "name": "_penaltyPeriod",
          "type": "uint256"
        },
        {
          "internalType": "uint256",
          "name": "_penaltyRate",
          "type": "uint256"
        },
        {
          "internalType": "uint256",
          "name": "_penaltyRateDecimal",
          "type": "uint256"
        }
      ],
      "name": "setLockPeriod",
      "outputs": [],
      "stateMutability": "nonpayable",
      "type": "function"
    },
    {
      "inputs": [
        {
          "internalType": "enum LibDiamond.LockLevel",
          "name": "_level",
          "type": "uint8"
        }
      ],
      "name": "getLockPeriod",
      "outputs": [
        {
          "internalType": "uint256",
          "name": "period_",
          "type": "uint256"
        },
        {
          "internalType": "uint256",
          "name": "multiplier_",
          "type": "uint256"
        },
        {
          "internalType": "uint256",
          "name": "minimum_",
          "type": "uint256"
        },
        {
          "internalType": "uint256",
          "name": "penaltyPeriod_",
          "type": "uint256"
        },
        {
          "internalType": "uint256",
          "name": "penaltyRate_",
          "type": "uint256"
        },
        {
          "internalType": "uint256",
          "name": "penaltyRateDecimal_",
          "type": "uint256"
        }
      ],
      "stateMutability": "view",
      "type": "function",
      "constant": true
    }
  ],
  "bytecode": "0x608060405234801561001057600080fd5b50614116806100206000396000f3fe608060405234801561001057600080fd5b50600436106100885760003560e01c8063bfe524481161005b578063bfe5244814610116578063c00b3de91461013b578063df03458614610159578063f8b4cfc61461018957610088565b80633955f2a41461008d5780636198e339146100a95780637066a399146100c5578063b759d603146100e1575b600080fd5b6100a760048036038101906100a2919061331b565b6101a5565b005b6100c360048036038101906100be9190613345565b610952565b005b6100df60048036038101906100da919061327d565b610fbf565b005b6100fb60048036038101906100f69190613218565b61123a565b60405161010d96959493929190613cb0565b60405180910390f35b61011e611261565b604051610132989796959493929190613d11565b60405180910390f35b6101436115c5565b6040516101509190613c79565b60405180910390f35b610173600480360381019061016e91906131c6565b611dba565b6040516101809190613c95565b60405180910390f35b6101a3600480360381019061019e9190613241565b611e11565b005b6101ad61244d565b6102196040518060400160405280600b81526020017f6c6f636b5f706572696f6400000000000000000000000000000000000000000081525060006040516020016101f9929190613abc565b6040516020818303038152906040528051906020012082600001516124e8565b6102856040518060400160405280600b81526020017f6c6f636b5f706572696f640000000000000000000000000000000000000000008152506000604051602001610265929190613a89565b6040516020818303038152906040528051906020012082606001516124e8565b6102f16040518060400160405280600b81526020017f6c6f636b5f706572696f6400000000000000000000000000000000000000000081525060006040516020016102d19291906139bd565b604051602081830303815290604052805190602001208260c001516124e8565b61035e6040518060400160405280600b81526020017f6c6f636b5f706572696f64000000000000000000000000000000000000000000815250600060405160200161033d9291906139f0565b604051602081830303815290604052805190602001208261012001516124e8565b6103cb6040518060400160405280600b81526020017f6c6f636b5f706572696f6400000000000000000000000000000000000000000081525060006040516020016103aa929190613a23565b604051602081830303815290604052805190602001208261018001516124e8565b6104386040518060400160405280600b81526020017f6c6f636b5f706572696f640000000000000000000000000000000000000000008152506000604051602001610417929190613a56565b60405160208183030381529060405280519060200120826101e001516124e8565b6104a46040518060400160405280600b81526020017f6c6f636b5f706572696f640000000000000000000000000000000000000000008152506001604051602001610484929190613abc565b6040516020818303038152906040528051906020012082602001516124e8565b6105106040518060400160405280600b81526020017f6c6f636b5f706572696f6400000000000000000000000000000000000000000081525060016040516020016104f0929190613a89565b6040516020818303038152906040528051906020012082608001516124e8565b61057c6040518060400160405280600b81526020017f6c6f636b5f706572696f64000000000000000000000000000000000000000000815250600160405160200161055c9291906139bd565b604051602081830303815290604052805190602001208260e001516124e8565b6105e96040518060400160405280600b81526020017f6c6f636b5f706572696f6400000000000000000000000000000000000000000081525060016040516020016105c89291906139f0565b604051602081830303815290604052805190602001208261014001516124e8565b6106566040518060400160405280600b81526020017f6c6f636b5f706572696f640000000000000000000000000000000000000000008152506001604051602001610635929190613a23565b60405160208183030381529060405280519060200120826101a001516124e8565b6106c36040518060400160405280600b81526020017f6c6f636b5f706572696f6400000000000000000000000000000000000000000081525060016040516020016106a2929190613a56565b604051602081830303815290604052805190602001208261020001516124e8565b61072f6040518060400160405280600b81526020017f6c6f636b5f706572696f64000000000000000000000000000000000000000000815250600260405160200161070f929190613abc565b6040516020818303038152906040528051906020012082604001516124e8565b61079b6040518060400160405280600b81526020017f6c6f636b5f706572696f64000000000000000000000000000000000000000000815250600260405160200161077b929190613a89565b604051602081830303815290604052805190602001208260a001516124e8565b6108086040518060400160405280600b81526020017f6c6f636b5f706572696f6400000000000000000000000000000000000000000081525060026040516020016107e79291906139bd565b604051602081830303815290604052805190602001208261010001516124e8565b6108756040518060400160405280600b81526020017f6c6f636b5f706572696f6400000000000000000000000000000000000000000081525060026040516020016108549291906139f0565b604051602081830303815290604052805190602001208261016001516124e8565b6108e26040518060400160405280600b81526020017f6c6f636b5f706572696f6400000000000000000000000000000000000000000081525060026040516020016108c1929190613a23565b60405160208183030381529060405280519060200120826101c001516124e8565b61094f6040518060400160405280600b81526020017f6c6f636b5f706572696f64000000000000000000000000000000000000000000815250600260405160200161092e929190613a56565b604051602081830303815290604052805190602001208261022001516124e8565b50565b600061095c612513565b9050600061098d60405160200161097290613aef565b60405160208183030381529060405280519060200120612540565b90503073ffffffffffffffffffffffffffffffffffffffff16630e5c011e336040518263ffffffff1660e01b81526004016109c89190613b19565b600060405180830381600087803b1580156109e257600080fd5b505af11580156109f6573d6000803e3d6000fd5b5050505060003384604051602001610a0f929190613b6b565b60405160208183030381529060405280519060200120905060008360080160008381526020019081526020016000209050600015158160070160009054906101000a900460ff16151514610a98576040517f08c379a0000000000000000000000000000000000000000000000000000000008152600401610a8f90613c59565b60405180910390fd5b600015158160070160019054906101000a900460ff16151514610af0576040517f08c379a0000000000000000000000000000000000000000000000000000000008152600401610ae790613c39565b60405180910390fd5b6000610b0c8260010160009054906101000a900460ff1661258b565b5050505050905060003073ffffffffffffffffffffffffffffffffffffffff1663d3ec2acd336040518263ffffffff1660e01b8152600401610b4e9190613b19565b60206040518083038186803b158015610b6657600080fd5b505afa158015610b7a573d6000803e3d6000fd5b505050506040513d601f19601f82011682018060405250810190610b9e919061336e565b90508260030154811015610be7576040517f08c379a0000000000000000000000000000000000000000000000000000000008152600401610bde90613c19565b60405180910390fd5b818360040154610bf79190613de7565b421015610c77576000610c2d604051602001610c1290613b04565b60405160208183030381529060405280519060200120612540565b905060018460070160006101000a81548160ff021916908315150217905550428460060181905550610c6333856003015461280d565b610c7181856003015461288a565b50610f64565b60018360070160016101000a81548160ff021916908315150217905550610ca233846003015461280d565b600086600a0160003373ffffffffffffffffffffffffffffffffffffffff1673ffffffffffffffffffffffffffffffffffffffff168152602001908152602001600020549050610cff84600201548261290790919063ffffffff16565b87600a0160003373ffffffffffffffffffffffffffffffffffffffff1673ffffffffffffffffffffffffffffffffffffffff168152602001908152602001600020819055508573ffffffffffffffffffffffffffffffffffffffff1663a9059cbb3386600201546040518363ffffffff1660e01b8152600401610d83929190613b6b565b602060405180830381600087803b158015610d9d57600080fd5b505af1158015610db1573d6000803e3d6000fd5b505050506040513d601f19601f82011682018060405250810190610dd591906131ef565b50610dde61291d565b610df88460010160009054906101000a900460ff16612a00565b610ea5846002015488600c0160008760010160009054906101000a900460ff166002811115610e50577f4e487b7100000000000000000000000000000000000000000000000000000000600052602160045260246000fd5b6002811115610e88577f4e487b7100000000000000000000000000000000000000000000000000000000600052602160045260246000fd5b81526020019081526020016000205461290790919063ffffffff16565b87600c0160008660010160009054906101000a900460ff166002811115610ef5577f4e487b7100000000000000000000000000000000000000000000000000000000600052602160045260246000fd5b6002811115610f2d577f4e487b7100000000000000000000000000000000000000000000000000000000600052602160045260246000fd5b815260200190815260200160002081905550610f5a846002015488600b015461290790919063ffffffff16565b87600b0181905550505b610f718360030154612ae8565b7fbd51e7b85833294fa3b641f07baa1f34589b18c2ed25996c8949afa23cc6e2be33846002015485600301548a604051610fae9493929190613b94565b60405180910390a150505050505050565b610fc761244d565b61102e6040518060400160405280600b81526020017f6c6f636b5f706572696f6400000000000000000000000000000000000000000081525088604051602001611012929190613abc565b60405160208183030381529060405280519060200120876124e8565b6110956040518060400160405280600b81526020017f6c6f636b5f706572696f6400000000000000000000000000000000000000000081525088604051602001611079929190613a89565b60405160208183030381529060405280519060200120866124e8565b6110fc6040518060400160405280600b81526020017f6c6f636b5f706572696f64000000000000000000000000000000000000000000815250886040516020016110e09291906139bd565b60405160208183030381529060405280519060200120856124e8565b6111636040518060400160405280600b81526020017f6c6f636b5f706572696f64000000000000000000000000000000000000000000815250886040516020016111479291906139f0565b60405160208183030381529060405280519060200120846124e8565b6111ca6040518060400160405280600b81526020017f6c6f636b5f706572696f64000000000000000000000000000000000000000000815250886040516020016111ae929190613a23565b60405160208183030381529060405280519060200120836124e8565b6112316040518060400160405280600b81526020017f6c6f636b5f706572696f6400000000000000000000000000000000000000000081525088604051602001611215929190613a56565b60405160208183030381529060405280519060200120826124e8565b50505050505050565b60008060008060008061124c8761258b565b95509550955095509550955091939550919395565b6000806000806000806000806000611277612513565b905080600b0154985080600c0160008060028111156112bf577f4e487b7100000000000000000000000000000000000000000000000000000000600052602160045260246000fd5b60028111156112f7577f4e487b7100000000000000000000000000000000000000000000000000000000600052602160045260246000fd5b815260200190815260200160002054975080600c01600060016002811115611348577f4e487b7100000000000000000000000000000000000000000000000000000000600052602160045260246000fd5b6002811115611380577f4e487b7100000000000000000000000000000000000000000000000000000000600052602160045260246000fd5b815260200190815260200160002054965080600c0160006002808111156113d0577f4e487b7100000000000000000000000000000000000000000000000000000000600052602160045260246000fd5b6002811115611408577f4e487b7100000000000000000000000000000000000000000000000000000000600052602160045260246000fd5b815260200190815260200160002054955061147d6040518060400160405280600a81526020017f6c6f636b5f636f756e7400000000000000000000000000000000000000000000815250604051602001611462919061397e565b60405160208183030381529060405280519060200120612b17565b94506114e66040518060400160405280600a81526020017f6c6f636b5f636f756e740000000000000000000000000000000000000000000081525060006040516020016114cb929190613995565b60405160208183030381529060405280519060200120612b17565b935061154f6040518060400160405280600a81526020017f6c6f636b5f636f756e74000000000000000000000000000000000000000000008152506001604051602001611534929190613995565b60405160208183030381529060405280519060200120612b17565b92506115b86040518060400160405280600a81526020017f6c6f636b5f636f756e7400000000000000000000000000000000000000000000815250600260405160200161159d929190613995565b60405160208183030381529060405280519060200120612b17565b9150509091929394959697565b6115cd612f30565b6116346040518060400160405280600b81526020017f6c6f636b5f706572696f640000000000000000000000000000000000000000008152506000604051602001611619929190613abc565b60405160208183030381529060405280519060200120612b17565b8160000181815250506116a46040518060400160405280600b81526020017f6c6f636b5f706572696f640000000000000000000000000000000000000000008152506000604051602001611689929190613a89565b60405160208183030381529060405280519060200120612b17565b8160600181815250506117146040518060400160405280600b81526020017f6c6f636b5f706572696f6400000000000000000000000000000000000000000081525060006040516020016116f99291906139bd565b60405160208183030381529060405280519060200120612b17565b8160c00181815250506117846040518060400160405280600b81526020017f6c6f636b5f706572696f6400000000000000000000000000000000000000000081525060006040516020016117699291906139f0565b60405160208183030381529060405280519060200120612b17565b816101200181815250506117f56040518060400160405280600b81526020017f6c6f636b5f706572696f6400000000000000000000000000000000000000000081525060006040516020016117da929190613a23565b60405160208183030381529060405280519060200120612b17565b816101800181815250506118666040518060400160405280600b81526020017f6c6f636b5f706572696f64000000000000000000000000000000000000000000815250600060405160200161184b929190613a56565b60405160208183030381529060405280519060200120612b17565b816101e00181815250506118d76040518060400160405280600b81526020017f6c6f636b5f706572696f6400000000000000000000000000000000000000000081525060016040516020016118bc929190613abc565b60405160208183030381529060405280519060200120612b17565b8160200181815250506119476040518060400160405280600b81526020017f6c6f636b5f706572696f64000000000000000000000000000000000000000000815250600160405160200161192c929190613a89565b60405160208183030381529060405280519060200120612b17565b8160800181815250506119b76040518060400160405280600b81526020017f6c6f636b5f706572696f64000000000000000000000000000000000000000000815250600160405160200161199c9291906139bd565b60405160208183030381529060405280519060200120612b17565b8160e0018181525050611a276040518060400160405280600b81526020017f6c6f636b5f706572696f640000000000000000000000000000000000000000008152506001604051602001611a0c9291906139f0565b60405160208183030381529060405280519060200120612b17565b81610140018181525050611a986040518060400160405280600b81526020017f6c6f636b5f706572696f640000000000000000000000000000000000000000008152506001604051602001611a7d929190613a23565b60405160208183030381529060405280519060200120612b17565b816101a0018181525050611b096040518060400160405280600b81526020017f6c6f636b5f706572696f640000000000000000000000000000000000000000008152506001604051602001611aee929190613a56565b60405160208183030381529060405280519060200120612b17565b81610200018181525050611b7a6040518060400160405280600b81526020017f6c6f636b5f706572696f640000000000000000000000000000000000000000008152506002604051602001611b5f929190613abc565b60405160208183030381529060405280519060200120612b17565b816040018181525050611bea6040518060400160405280600b81526020017f6c6f636b5f706572696f640000000000000000000000000000000000000000008152506002604051602001611bcf929190613a89565b60405160208183030381529060405280519060200120612b17565b8160a0018181525050611c5a6040518060400160405280600b81526020017f6c6f636b5f706572696f640000000000000000000000000000000000000000008152506002604051602001611c3f9291906139bd565b60405160208183030381529060405280519060200120612b17565b81610100018181525050611ccb6040518060400160405280600b81526020017f6c6f636b5f706572696f640000000000000000000000000000000000000000008152506002604051602001611cb09291906139f0565b60405160208183030381529060405280519060200120612b17565b81610160018181525050611d3c6040518060400160405280600b81526020017f6c6f636b5f706572696f640000000000000000000000000000000000000000008152506002604051602001611d21929190613a23565b60405160208183030381529060405280519060200120612b17565b816101c0018181525050611dad6040518060400160405280600b81526020017f6c6f636b5f706572696f640000000000000000000000000000000000000000008152506002604051602001611d92929190613a56565b60405160208183030381529060405280519060200120612b17565b8161022001818152505090565b600080611dc5612513565b90508060090160008473ffffffffffffffffffffffffffffffffffffffff1673ffffffffffffffffffffffffffffffffffffffff16815260200190815260200160002054915050919050565b6000611e1b612513565b9050600080611e298561258b565b505050925092505080841015611e74576040517f08c379a0000000000000000000000000000000000000000000000000000000008152600401611e6b90613bd9565b60405180910390fd5b6000611ea3604051602001611e8890613aef565b60405160208183030381529060405280519060200120612540565b90508073ffffffffffffffffffffffffffffffffffffffff166323b872dd3330886040518463ffffffff1660e01b8152600401611ee293929190613b34565b602060405180830381600087803b158015611efc57600080fd5b505af1158015611f10573d6000803e3d6000fd5b505050506040513d601f19601f82011682018060405250810190611f3491906131ef565b506000611f5d600a611f4f8689612b4290919063ffffffff16565b612b5890919063ffffffff16565b905060008560090160003373ffffffffffffffffffffffffffffffffffffffff1673ffffffffffffffffffffffffffffffffffffffff168152602001908152602001600020549050600086600a0160003373ffffffffffffffffffffffffffffffffffffffff1673ffffffffffffffffffffffffffffffffffffffff16815260200190815260200160002054905060003383604051602001612000929190613b6b565b6040516020818303038152906040528051906020012090506040518061012001604052808481526020018b6002811115612063577f4e487b7100000000000000000000000000000000000000000000000000000000600052602160045260246000fd5b81526020018a81526020018581526020014281526020016000815260200160008152602001600015158152602001600015158152508860080160008381526020019081526020016000206000820151816000015560208201518160010160006101000a81548160ff02191690836002811115612108577f4e487b7100000000000000000000000000000000000000000000000000000000600052602160045260246000fd5b021790555060408201518160020155606082015181600301556080820151816004015560a0820151816005015560c0820151816006015560e08201518160070160006101000a81548160ff0219169083151502179055506101008201518160070160016101000a81548160ff02191690831515021790555090505080838a7f4d59d3a90adc412330c80c1d7838fb3075658ced387b288fd1dc7ef2ea7a1f3d33886040516121b7929190613b6b565b60405180910390a46121d3600184612b6e90919063ffffffff16565b8860090160003373ffffffffffffffffffffffffffffffffffffffff1673ffffffffffffffffffffffffffffffffffffffff1681526020019081526020016000208190555061222b8983612b6e90919063ffffffff16565b88600a0160003373ffffffffffffffffffffffffffffffffffffffff1673ffffffffffffffffffffffffffffffffffffffff16815260200190815260200160002081905550612278612b84565b6122818a612c67565b6123198989600c0160008d60028111156122c4577f4e487b7100000000000000000000000000000000000000000000000000000000600052602160045260246000fd5b60028111156122fc577f4e487b7100000000000000000000000000000000000000000000000000000000600052602160045260246000fd5b815260200190815260200160002054612b6e90919063ffffffff16565b88600c0160008c6002811115612358577f4e487b7100000000000000000000000000000000000000000000000000000000600052602160045260246000fd5b6002811115612390577f4e487b7100000000000000000000000000000000000000000000000000000000600052602160045260246000fd5b8152602001908152602001600020819055506123b98989600b0154612b6e90919063ffffffff16565b88600b01819055506123cb338561288a565b6123d484612d4f565b3073ffffffffffffffffffffffffffffffffffffffff166347e7ef2433866040518363ffffffff1660e01b815260040161240f929190613b6b565b600060405180830381600087803b15801561242957600080fd5b505af115801561243d573d6000803e3d6000fd5b5050505050505050505050505050565b612455612513565b60030160009054906101000a900473ffffffffffffffffffffffffffffffffffffffff1673ffffffffffffffffffffffffffffffffffffffff163373ffffffffffffffffffffffffffffffffffffffff16146124e6576040517f08c379a00000000000000000000000000000000000000000000000000000000081526004016124dd90613bf9565b60405180910390fd5b565b60006124f2612513565b90508181600401600085815260200190815260200160002081905550505050565b6000807fc8fcad8db84d3cc18b4c41d551ea0ee66dd599cde068d998e57d5e09332c131c90508091505090565b60008061254b612513565b905080600501600084815260200190815260200160002060009054906101000a900473ffffffffffffffffffffffffffffffffffffffff16915050919050565b6000806000806000806125fa6040518060400160405280600b81526020017f6c6f636b5f706572696f64000000000000000000000000000000000000000000815250886040516020016125df929190613abc565b60405160208183030381529060405280519060200120612b17565b95506126626040518060400160405280600b81526020017f6c6f636b5f706572696f6400000000000000000000000000000000000000000081525088604051602001612647929190613a89565b60405160208183030381529060405280519060200120612b17565b94506126ca6040518060400160405280600b81526020017f6c6f636b5f706572696f64000000000000000000000000000000000000000000815250886040516020016126af9291906139bd565b60405160208183030381529060405280519060200120612b17565b93506127326040518060400160405280600b81526020017f6c6f636b5f706572696f64000000000000000000000000000000000000000000815250886040516020016127179291906139f0565b60405160208183030381529060405280519060200120612b17565b925061279a6040518060400160405280600b81526020017f6c6f636b5f706572696f640000000000000000000000000000000000000000008152508860405160200161277f929190613a23565b60405160208183030381529060405280519060200120612b17565b91506128026040518060400160405280600b81526020017f6c6f636b5f706572696f64000000000000000000000000000000000000000000815250886040516020016127e7929190613a56565b60405160208183030381529060405280519060200120612b17565b905091939550919395565b61281681612d7e565b6128208282612dad565b600073ffffffffffffffffffffffffffffffffffffffff168273ffffffffffffffffffffffffffffffffffffffff167fddf252ad1be2c89b69c2b068fc378daa952ba7f163c4a11628f55a4df523b3ef8360405161287e9190613c95565b60405180910390a35050565b61289381612e57565b61289d8282612e86565b8173ffffffffffffffffffffffffffffffffffffffff16600073ffffffffffffffffffffffffffffffffffffffff167fddf252ad1be2c89b69c2b068fc378daa952ba7f163c4a11628f55a4df523b3ef836040516128fb9190613c95565b60405180910390a35050565b600081836129159190613ec8565b905092915050565b60006129836040518060400160405280600a81526020017f6c6f636b5f636f756e7400000000000000000000000000000000000000000000815250604051602001612968919061397e565b60405160208183030381529060405280519060200120612b17565b90506129fd6040518060400160405280600a81526020017f6c6f636b5f636f756e74000000000000000000000000000000000000000000008152506040516020016129ce919061397e565b604051602081830303815290604052805190602001206129f860018461290790919063ffffffff16565b6124e8565b50565b6000612a686040518060400160405280600a81526020017f6c6f636b5f636f756e740000000000000000000000000000000000000000000081525083604051602001612a4d929190613995565b60405160208183030381529060405280519060200120612b17565b9050612ae46040518060400160405280600a81526020017f6c6f636b5f636f756e740000000000000000000000000000000000000000000081525083604051602001612ab5929190613995565b60405160208183030381529060405280519060200120612adf60018461290790919063ffffffff16565b6124e8565b5050565b6000612af2612513565b9050612b0b8282600f0154612b6e90919063ffffffff16565b81600f01819055505050565b600080612b22612513565b905080600401600084815260200190815260200160002054915050919050565b60008183612b509190613e6e565b905092915050565b60008183612b669190613e3d565b905092915050565b60008183612b7c9190613de7565b905092915050565b6000612bea6040518060400160405280600a81526020017f6c6f636b5f636f756e7400000000000000000000000000000000000000000000815250604051602001612bcf919061397e565b60405160208183030381529060405280519060200120612b17565b9050612c646040518060400160405280600a81526020017f6c6f636b5f636f756e7400000000000000000000000000000000000000000000815250604051602001612c35919061397e565b60405160208183030381529060405280519060200120612c5f600184612b6e90919063ffffffff16565b6124e8565b50565b6000612ccf6040518060400160405280600a81526020017f6c6f636b5f636f756e740000000000000000000000000000000000000000000081525083604051602001612cb4929190613995565b60405160208183030381529060405280519060200120612b17565b9050612d4b6040518060400160405280600a81526020017f6c6f636b5f636f756e740000000000000000000000000000000000000000000081525083604051602001612d1c929190613995565b60405160208183030381529060405280519060200120612d46600184612b6e90919063ffffffff16565b6124e8565b5050565b6000612d59612513565b9050612d728282600e0154612b6e90919063ffffffff16565b81600e01819055505050565b6000612d88612513565b9050612da18282600d015461290790919063ffffffff16565b81600d01819055505050565b6000612db7612513565b9050612e0d828260100160008673ffffffffffffffffffffffffffffffffffffffff1673ffffffffffffffffffffffffffffffffffffffff1681526020019081526020016000205461290790919063ffffffff16565b8160100160008573ffffffffffffffffffffffffffffffffffffffff1673ffffffffffffffffffffffffffffffffffffffff16815260200190815260200160002081905550505050565b6000612e61612513565b9050612e7a8282600d0154612b6e90919063ffffffff16565b81600d01819055505050565b6000612e90612513565b9050612ee6828260100160008673ffffffffffffffffffffffffffffffffffffffff1673ffffffffffffffffffffffffffffffffffffffff16815260200190815260200160002054612b6e90919063ffffffff16565b8160100160008573ffffffffffffffffffffffffffffffffffffffff1673ffffffffffffffffffffffffffffffffffffffff16815260200190815260200160002081905550505050565b6040518061024001604052806000815260200160008152602001600081526020016000815260200160008152602001600081526020016000815260200160008152602001600081526020016000815260200160008152602001600081526020016000815260200160008152602001600081526020016000815260200160008152602001600081525090565b600081359050612fca8161408b565b92915050565b600081519050612fdf816140a2565b92915050565b600081359050612ff4816140b9565b92915050565b6000610240828403121561300d57600080fd5b613018610240613d8f565b905060006130288482850161319c565b600083015250602061303c8482850161319c565b60208301525060406130508482850161319c565b60408301525060606130648482850161319c565b60608301525060806130788482850161319c565b60808301525060a061308c8482850161319c565b60a08301525060c06130a08482850161319c565b60c08301525060e06130b48482850161319c565b60e0830152506101006130c98482850161319c565b610100830152506101206130df8482850161319c565b610120830152506101406130f58482850161319c565b6101408301525061016061310b8482850161319c565b610160830152506101806131218482850161319c565b610180830152506101a06131378482850161319c565b6101a0830152506101c061314d8482850161319c565b6101c0830152506101e06131638482850161319c565b6101e0830152506102006131798482850161319c565b6102008301525061022061318f8482850161319c565b6102208301525092915050565b6000813590506131ab816140c9565b92915050565b6000815190506131c0816140c9565b92915050565b6000602082840312156131d857600080fd5b60006131e684828501612fbb565b91505092915050565b60006020828403121561320157600080fd5b600061320f84828501612fd0565b91505092915050565b60006020828403121561322a57600080fd5b600061323884828501612fe5565b91505092915050565b6000806040838503121561325457600080fd5b600061326285828601612fe5565b92505060206132738582860161319c565b9150509250929050565b600080600080600080600060e0888a03121561329857600080fd5b60006132a68a828b01612fe5565b97505060206132b78a828b0161319c565b96505060406132c88a828b0161319c565b95505060606132d98a828b0161319c565b94505060806132ea8a828b0161319c565b93505060a06132fb8a828b0161319c565b92505060c061330c8a828b0161319c565b91505092959891949750929550565b6000610240828403121561332e57600080fd5b600061333c84828501612ffa565b91505092915050565b60006020828403121561335757600080fd5b60006133658482850161319c565b91505092915050565b60006020828403121561338057600080fd5b600061338e848285016131b1565b91505092915050565b6133a081613efc565b82525050565b6133b76133b282613f57565b613f9c565b82525050565b60006133c882613dc0565b6133d28185613ddc565b93506133e2818560208601613f69565b80840191505092915050565b60006133fb600783613ddc565b91507f6d696e696d756d000000000000000000000000000000000000000000000000006000830152600782019050919050565b600061343b602b83613dcb565b91507f5646696e69783a204d696e696d756d20616d6f756e7420726571756972656d6560008301527f6e74206e6f74206d65742e0000000000000000000000000000000000000000006020830152604082019050919050565b60006134a1602283613dcb565b91507f4c69624469616d6f6e643a204d75737420626520636f6e7472616374206f776e60008301527f65720000000000000000000000000000000000000000000000000000000000006020830152604082019050919050565b6000613507600d83613ddc565b91507f70656e616c7479506572696f64000000000000000000000000000000000000006000830152600d82019050919050565b6000613547600b83613ddc565b91507f70656e616c7479526174650000000000000000000000000000000000000000006000830152600b82019050919050565b6000613587602a83613dcb565b91507f5646696e69785661756c743a204e6f7420656e6f756768207646696e6978207460008301527f6f207769746864726177000000000000000000000000000000000000000000006020830152604082019050919050565b60006135ed600583613ddc565b91507f46494e49580000000000000000000000000000000000000000000000000000006000830152600582019050919050565b600061362d602c83613dcb565b91507f7646696e69785661756c743a20546869732068617320616c726561647920626560008301527f656e20756e6c6f636b65642e00000000000000000000000000000000000000006020830152604082019050919050565b6000613693601283613ddc565b91507f70656e616c747952617465446563696d616c00000000000000000000000000006000830152601282019050919050565b60006136d3600a83613ddc565b91507f6d756c7469706c696572000000000000000000000000000000000000000000006000830152600a82019050919050565b6000613713600683613ddc565b91507f706572696f6400000000000000000000000000000000000000000000000000006000830152600682019050919050565b6000613753601e83613ddc565b91507f5661756c7450656e616c747946616365742e6275726e5f6164647265737300006000830152601e82019050919050565b6000613793602283613dcb565b91507f5646696e69785661756c743a20596f7520617265206265696e672070656e616c60008301527f74790000000000000000000000000000000000000000000000000000000000006020830152604082019050919050565b610240820160008201516138036000850182613960565b5060208201516138166020850182613960565b5060408201516138296040850182613960565b50606082015161383c6060850182613960565b50608082015161384f6080850182613960565b5060a082015161386260a0850182613960565b5060c082015161387560c0850182613960565b5060e082015161388860e0850182613960565b5061010082015161389d610100850182613960565b506101208201516138b2610120850182613960565b506101408201516138c7610140850182613960565b506101608201516138dc610160850182613960565b506101808201516138f1610180850182613960565b506101a08201516139066101a0850182613960565b506101c082015161391b6101c0850182613960565b506101e08201516139306101e0850182613960565b50610200820151613945610200850182613960565b5061022082015161395a610220850182613960565b50505050565b61396981613f4d565b82525050565b61397881613f4d565b82525050565b600061398a82846133bd565b915081905092915050565b60006139a182856133bd565b91506139ad82846133a6565b6001820191508190509392505050565b60006139c982856133bd565b91506139d582846133a6565b6001820191506139e4826133ee565b91508190509392505050565b60006139fc82856133bd565b9150613a0882846133a6565b600182019150613a17826134fa565b91508190509392505050565b6000613a2f82856133bd565b9150613a3b82846133a6565b600182019150613a4a8261353a565b91508190509392505050565b6000613a6282856133bd565b9150613a6e82846133a6565b600182019150613a7d82613686565b91508190509392505050565b6000613a9582856133bd565b9150613aa182846133a6565b600182019150613ab0826136c6565b91508190509392505050565b6000613ac882856133bd565b9150613ad482846133a6565b600182019150613ae382613706565b91508190509392505050565b6000613afa826135e0565b9150819050919050565b6000613b0f82613746565b9150819050919050565b6000602082019050613b2e6000830184613397565b92915050565b6000606082019050613b496000830186613397565b613b566020830185613397565b613b63604083018461396f565b949350505050565b6000604082019050613b806000830185613397565b613b8d602083018461396f565b9392505050565b6000608082019050613ba96000830187613397565b613bb6602083018661396f565b613bc3604083018561396f565b613bd0606083018461396f565b95945050505050565b60006020820190508181036000830152613bf28161342e565b9050919050565b60006020820190508181036000830152613c1281613494565b9050919050565b60006020820190508181036000830152613c328161357a565b9050919050565b60006020820190508181036000830152613c5281613620565b9050919050565b60006020820190508181036000830152613c7281613786565b9050919050565b600061024082019050613c8f60008301846137ec565b92915050565b6000602082019050613caa600083018461396f565b92915050565b600060c082019050613cc5600083018961396f565b613cd2602083018861396f565b613cdf604083018761396f565b613cec606083018661396f565b613cf9608083018561396f565b613d0660a083018461396f565b979650505050505050565b600061010082019050613d27600083018b61396f565b613d34602083018a61396f565b613d41604083018961396f565b613d4e606083018861396f565b613d5b608083018761396f565b613d6860a083018661396f565b613d7560c083018561396f565b613d8260e083018461396f565b9998505050505050505050565b6000604051905081810181811067ffffffffffffffff82111715613db657613db561403b565b5b8060405250919050565b600081519050919050565b600082825260208201905092915050565b600081905092915050565b6000613df282613f4d565b9150613dfd83613f4d565b9250827fffffffffffffffffffffffffffffffffffffffffffffffffffffffffffffffff03821115613e3257613e31613fae565b5b828201905092915050565b6000613e4882613f4d565b9150613e5383613f4d565b925082613e6357613e62613fdd565b5b828204905092915050565b6000613e7982613f4d565b9150613e8483613f4d565b9250817fffffffffffffffffffffffffffffffffffffffffffffffffffffffffffffffff0483118215151615613ebd57613ebc613fae565b5b828202905092915050565b6000613ed382613f4d565b9150613ede83613f4d565b925082821015613ef157613ef0613fae565b5b828203905092915050565b6000613f0782613f2d565b9050919050565b60008115159050919050565b6000819050613f2882614077565b919050565b600073ffffffffffffffffffffffffffffffffffffffff82169050919050565b6000819050919050565b6000613f6282613f1a565b9050919050565b60005b83811015613f87578082015181840152602081019050613f6c565b83811115613f96576000848401525b50505050565b6000613fa78261406a565b9050919050565b7f4e487b7100000000000000000000000000000000000000000000000000000000600052601160045260246000fd5b7f4e487b7100000000000000000000000000000000000000000000000000000000600052601260045260246000fd5b7f4e487b7100000000000000000000000000000000000000000000000000000000600052602160045260246000fd5b7f4e487b7100000000000000000000000000000000000000000000000000000000600052604160045260246000fd5b60008160f81b9050919050565b600381106140885761408761400c565b5b50565b61409481613efc565b811461409f57600080fd5b50565b6140ab81613f0e565b81146140b657600080fd5b50565b600381106140c657600080fd5b50565b6140d281613f4d565b81146140dd57600080fd5b5056fea2646970667358221220f6e7f5d5d04635b48ec389d78b994c2cfecb1f4d3441f4f9129e9f682bd84b5d64736f6c63430008000033",
  "immutableReferences": {},
  "source": "// SPDX-License-Identifier: MIT\npragma solidity ^0.8.0;\n\nimport { LibDiamond } from \"../libraries/LibDiamond.sol\";\nimport \"../interfaces/IVaultFacet.sol\";\nimport \"../interfaces/IKIP7.sol\";\nimport \"../utils/math/SafeMath.sol\";\nimport \"../interfaces/IUsageFacet.sol\";\nimport \"../interfaces/IRewardFacet.sol\";\n\n\ncontract VaultFacet is IVaultFacet{\n    using SafeMath for uint256;\n\n    uint256 constant private MULTIPLIER_DIVISOR = 10;\n    string constant private KEY_LOCK_PERIOD = \"lock_period\";\n    string constant private KEY_LOCK_COUNT = \"lock_count\";\n\n    function lockCount(address _user) external override view returns(uint256) {\n        LibDiamond.DiamondStorage storage ds = LibDiamond.diamondStorage();\n        return ds.userLocksCount[_user];\n    }\n\n    \n    event FinixLock(address _user,uint256 indexed _lockAmount,uint256 _vFinixAmount,uint256 indexed _lockIndex,bytes32 indexed _lockKey);\n    function lock(LibDiamond.LockLevel _level,uint256 _lockAmount) external override {\n        LibDiamond.DiamondStorage storage ds = LibDiamond.diamondStorage();\n        (,uint256 multiplier_,uint256 minimum_, , , ) = _getLockPerioid(_level);\n        require(_lockAmount >= minimum_,\"VFinix: Minimum amount requirement not met.\");\n        address FINIX = LibDiamond.getAddress(keccak256(abi.encodePacked(\"FINIX\")));\n        IKIP7(FINIX).transferFrom(msg.sender, address(this), _lockAmount);\n        // Calculate vFINIX return\n        uint256 vFinixAmount = _lockAmount.mul(multiplier_).div(MULTIPLIER_DIVISOR);\n\n        uint256 userLocksCount_ = ds.userLocksCount[msg.sender];\n        uint256 userLocksAmount_ = ds.userLocksAmount[msg.sender];\n        bytes32 key = keccak256(abi.encode(msg.sender,userLocksCount_));\n        ds.locksMap[key] = LibDiamond.LockInfo(userLocksCount_,_level,_lockAmount,vFinixAmount,block.timestamp,0,0,false,false);\n        emit FinixLock(msg.sender,_lockAmount,vFinixAmount,userLocksCount_,key);\n        \n        ds.userLocksCount[msg.sender] = userLocksCount_.add(1);\n        ds.userLocksAmount[msg.sender] = userLocksAmount_.add(_lockAmount);\n        _increaseTotalLockCount();\n        _increaseTotalLevelLockCount(_level);\n        // update lock data\n        ds.totalFinixLockAtLevel[_level] = ds.totalFinixLockAtLevel[_level].add(_lockAmount);\n        ds.totalFinixLock = ds.totalFinixLock.add(_lockAmount);\n        // Harvest if applicable\n        // IRewardFacet(address(this)).harvest(msg.sender);\n        // mint vFINIX\n        _mintVFinix(msg.sender, vFinixAmount);\n        _increaseTotalSupplyAllTimeMint(vFinixAmount);\n        // mark deposit\n        IRewardFacet(address(this)).deposit(msg.sender,vFinixAmount);\n    }\n    event finixUnlock(address _user,uint256  _finixTranferAmount,uint256  _vfinixBurnAmount,uint256  _unlockIndex);\n\n    function unlock(uint256 _lockIndex) external override {\n        LibDiamond.DiamondStorage storage ds = LibDiamond.diamondStorage();\n        // Get FINIX Address from Eternal Storage\n        address FINIX = LibDiamond.getAddress(\n            keccak256(abi.encodePacked(\"FINIX\"))\n        );\n        // TDO: Yield Operation\n        IRewardFacet(address(this)).harvest(msg.sender);\n        // Get Lock info\n        bytes32 key = keccak256(abi.encode(msg.sender, _lockIndex));\n        LibDiamond.LockInfo storage lockInfo_ = ds.locksMap[key];\n        \n        require(lockInfo_.isPenalty == false,\"VFinixVault: You are being penalty\");\n\n        require(\n            lockInfo_.isUnlocked == false,\n            \"vFinixVault: This has already been unlocked.\"\n        );\n\n        // Check ending period\n        (uint256 period_, , , , ,) = _getLockPerioid(lockInfo_.level);\n        // TO FIX LOGIC\n        // require(block.timestamp > lockInfo_.lockTimestamp + period_,\"vFinixVault: Lock period is not ended yet.\");\n        // Check for available vFinix from all farms and pools staking\n        uint256 availableVotes = IUsageFacet(address(this)).getAvailableVotes(msg.sender);\n        \n        require(availableVotes >= lockInfo_.voteAmount,\"VFinixVault: Not enough vFinix to withdraw\");\n        \n        if (block.timestamp < lockInfo_.lockTimestamp + period_) {\n            // ((((lockInfo_.lockTimestamp + period_) - block.timestamp) * 10) / 86400 )/10; // \n                address burnAddress = LibDiamond.getAddress(keccak256(abi.encodePacked(\"VaultPenaltyFacet.burn_address\")));\n\n                lockInfo_.isPenalty = true;\n                lockInfo_.penaltyUnlockTimestamp = block.timestamp;\n                _burnVFinix(msg.sender, lockInfo_.voteAmount);\n                _mintVFinix(burnAddress, lockInfo_.voteAmount);\n       }else {\n            // Mark Unlock\n            lockInfo_.isUnlocked = true;\n            // Burn vFinix\n            _burnVFinix(msg.sender, lockInfo_.voteAmount);\n            \n            // Decreaase total Lock Amount\n            uint256 userLocksAmount_ = ds.userLocksAmount[msg.sender];\n            ds.userLocksAmount[msg.sender] = userLocksAmount_.sub(lockInfo_.lockAmount);\n            // Transfer back FINIX\n            IKIP7(FINIX).transfer(msg.sender, lockInfo_.lockAmount);\n            // update lock data\n            _decreaseTotalLockCount();\n            _decreaseTotalLevelLockCount(lockInfo_.level);\n            ds.totalFinixLockAtLevel[lockInfo_.level] = ds.totalFinixLockAtLevel[lockInfo_.level].sub(lockInfo_.lockAmount);\n            ds.totalFinixLock = ds.totalFinixLock.sub(lockInfo_.lockAmount);   \n            \n        }\n        _increaseTotalSupplyAllTimeBurn(lockInfo_.voteAmount);\n        emit finixUnlock(msg.sender,lockInfo_.lockAmount,lockInfo_.voteAmount,_lockIndex);\n    }\n    \n    function getTotalFinixLock() public override view returns(\n        uint256 totalFinixLock_,\n        uint256 totalFinixLockAtLevel1_,\n        uint256 totalFinixLockAtLevel2_,\n        uint256 totalFinixLockAtLevel3_,\n        uint256 totalLockCount_,\n        uint256 totalLockLevel1Count_,\n        uint256 totalLockLevel2Count_,\n        uint256 totalLockLevel3Count_) {\n\n        // \n        LibDiamond.DiamondStorage storage ds = LibDiamond.diamondStorage();\n        totalFinixLock_ = ds.totalFinixLock;\n        totalFinixLockAtLevel1_ = ds.totalFinixLockAtLevel[LibDiamond.LockLevel.Level1];\n        totalFinixLockAtLevel2_ = ds.totalFinixLockAtLevel[LibDiamond.LockLevel.Level2];\n        totalFinixLockAtLevel3_ = ds.totalFinixLockAtLevel[LibDiamond.LockLevel.Level3];\n        totalLockCount_ = LibDiamond.getUint(keccak256(abi.encodePacked(KEY_LOCK_COUNT)));\n        totalLockLevel1Count_ = LibDiamond.getUint(keccak256(abi.encodePacked(KEY_LOCK_COUNT,LibDiamond.LockLevel.Level1)));\n        totalLockLevel2Count_ = LibDiamond.getUint(keccak256(abi.encodePacked(KEY_LOCK_COUNT,LibDiamond.LockLevel.Level2)));\n        totalLockLevel3Count_ = LibDiamond.getUint(keccak256(abi.encodePacked(KEY_LOCK_COUNT,LibDiamond.LockLevel.Level3)));\n    }\n\n    function getAllLockPeriods () external override view returns(\n            LibDiamond.ParamLockPeriods memory param_\n        ) {\n\n        param_._period1 = LibDiamond.getUint(keccak256(abi.encodePacked(KEY_LOCK_PERIOD,LibDiamond.LockLevel.Level1,\"period\")));\n        param_._multiplier1 = LibDiamond.getUint(keccak256(abi.encodePacked(KEY_LOCK_PERIOD,LibDiamond.LockLevel.Level1,\"multiplier\")));\n        param_._minimum1 = LibDiamond.getUint(keccak256(abi.encodePacked(KEY_LOCK_PERIOD,LibDiamond.LockLevel.Level1,\"minimum\")));\n        param_._penaltyPeriod1 = LibDiamond.getUint(keccak256(abi.encodePacked(KEY_LOCK_PERIOD,LibDiamond.LockLevel.Level1,\"penaltyPeriod\")));\n        param_._penaltyRate1 = LibDiamond.getUint(keccak256(abi.encodePacked(KEY_LOCK_PERIOD,LibDiamond.LockLevel.Level1,\"penaltyRate\")));\n        param_._penaltyRateDecimal1 = LibDiamond.getUint(keccak256(abi.encodePacked(KEY_LOCK_PERIOD,LibDiamond.LockLevel.Level1,\"penaltyRateDecimal\")));\n\n        param_._period2 = LibDiamond.getUint(keccak256(abi.encodePacked(KEY_LOCK_PERIOD,LibDiamond.LockLevel.Level2,\"period\")));\n        param_._multiplier2 =LibDiamond.getUint(keccak256(abi.encodePacked(KEY_LOCK_PERIOD,LibDiamond.LockLevel.Level2,\"multiplier\")));\n        param_._minimum2 = LibDiamond.getUint(keccak256(abi.encodePacked(KEY_LOCK_PERIOD,LibDiamond.LockLevel.Level2,\"minimum\")));\n        param_._penaltyPeriod2 = LibDiamond.getUint(keccak256(abi.encodePacked(KEY_LOCK_PERIOD,LibDiamond.LockLevel.Level2,\"penaltyPeriod\")));\n        param_._penaltyRate2 = LibDiamond.getUint(keccak256(abi.encodePacked(KEY_LOCK_PERIOD,LibDiamond.LockLevel.Level2,\"penaltyRate\")));\n        param_._penaltyRateDecimal2 = LibDiamond.getUint(keccak256(abi.encodePacked(KEY_LOCK_PERIOD,LibDiamond.LockLevel.Level2,\"penaltyRateDecimal\")));\n\n        param_._period3 = LibDiamond.getUint(keccak256(abi.encodePacked(KEY_LOCK_PERIOD,LibDiamond.LockLevel.Level3,\"period\")));\n        param_._multiplier3 = LibDiamond.getUint(keccak256(abi.encodePacked(KEY_LOCK_PERIOD,LibDiamond.LockLevel.Level3,\"multiplier\")));\n        param_._minimum3 = LibDiamond.getUint(keccak256(abi.encodePacked(KEY_LOCK_PERIOD,LibDiamond.LockLevel.Level3,\"minimum\")));\n        param_._penaltyPeriod3 = LibDiamond.getUint(keccak256(abi.encodePacked(KEY_LOCK_PERIOD,LibDiamond.LockLevel.Level3,\"penaltyPeriod\")));\n        param_._penaltyRate3 = LibDiamond.getUint(keccak256(abi.encodePacked(KEY_LOCK_PERIOD,LibDiamond.LockLevel.Level3,\"penaltyRate\")));\n        param_._penaltyRateDecimal3 = LibDiamond.getUint(keccak256(abi.encodePacked(KEY_LOCK_PERIOD,LibDiamond.LockLevel.Level3,\"penaltyRateDecimal\")));\n    }\n\n    function setUpLockPeriods(\n        LibDiamond.ParamLockPeriods memory param_\n    ) external override {\n        LibDiamond.enforceIsContractOwner();\n\n        LibDiamond.setUint(keccak256(abi.encodePacked(KEY_LOCK_PERIOD,LibDiamond.LockLevel.Level1,\"period\")),param_._period1);\n        LibDiamond.setUint(keccak256(abi.encodePacked(KEY_LOCK_PERIOD,LibDiamond.LockLevel.Level1,\"multiplier\")),param_._multiplier1);\n        LibDiamond.setUint(keccak256(abi.encodePacked(KEY_LOCK_PERIOD,LibDiamond.LockLevel.Level1,\"minimum\")),param_._minimum1);\n        LibDiamond.setUint(keccak256(abi.encodePacked(KEY_LOCK_PERIOD,LibDiamond.LockLevel.Level1,\"penaltyPeriod\")),param_._penaltyPeriod1);\n        LibDiamond.setUint(keccak256(abi.encodePacked(KEY_LOCK_PERIOD,LibDiamond.LockLevel.Level1,\"penaltyRate\")),param_._penaltyRate1);\n        LibDiamond.setUint(keccak256(abi.encodePacked(KEY_LOCK_PERIOD,LibDiamond.LockLevel.Level1,\"penaltyRateDecimal\")),param_._penaltyRateDecimal1);\n\n        LibDiamond.setUint(keccak256(abi.encodePacked(KEY_LOCK_PERIOD,LibDiamond.LockLevel.Level2,\"period\")),param_._period2);\n        LibDiamond.setUint(keccak256(abi.encodePacked(KEY_LOCK_PERIOD,LibDiamond.LockLevel.Level2,\"multiplier\")),param_._multiplier2);\n        LibDiamond.setUint(keccak256(abi.encodePacked(KEY_LOCK_PERIOD,LibDiamond.LockLevel.Level2,\"minimum\")),param_._minimum2);\n        LibDiamond.setUint(keccak256(abi.encodePacked(KEY_LOCK_PERIOD,LibDiamond.LockLevel.Level2,\"penaltyPeriod\")),param_._penaltyPeriod2);\n        LibDiamond.setUint(keccak256(abi.encodePacked(KEY_LOCK_PERIOD,LibDiamond.LockLevel.Level2,\"penaltyRate\")),param_._penaltyRate2);\n        LibDiamond.setUint(keccak256(abi.encodePacked(KEY_LOCK_PERIOD,LibDiamond.LockLevel.Level2,\"penaltyRateDecimal\")),param_._penaltyRateDecimal2);\n\n        LibDiamond.setUint(keccak256(abi.encodePacked(KEY_LOCK_PERIOD,LibDiamond.LockLevel.Level3,\"period\")),param_._period3);\n        LibDiamond.setUint(keccak256(abi.encodePacked(KEY_LOCK_PERIOD,LibDiamond.LockLevel.Level3,\"multiplier\")),param_._multiplier3);\n        LibDiamond.setUint(keccak256(abi.encodePacked(KEY_LOCK_PERIOD,LibDiamond.LockLevel.Level3,\"minimum\")),param_._minimum3);\n        LibDiamond.setUint(keccak256(abi.encodePacked(KEY_LOCK_PERIOD,LibDiamond.LockLevel.Level3,\"penaltyPeriod\")),param_._penaltyPeriod3);\n        LibDiamond.setUint(keccak256(abi.encodePacked(KEY_LOCK_PERIOD,LibDiamond.LockLevel.Level3,\"penaltyRate\")),param_._penaltyRate3);\n        LibDiamond.setUint(keccak256(abi.encodePacked(KEY_LOCK_PERIOD,LibDiamond.LockLevel.Level3,\"penaltyRateDecimal\")),param_._penaltyRateDecimal3);\n    }\n\n    function setLockPeriod(LibDiamond.LockLevel _level,uint256 _period,uint256 _multiplier,uint256 _mininum,uint256 _penaltyPeriod,uint256 _penaltyRate,uint256 _penaltyRateDecimal) external override {\n        LibDiamond.enforceIsContractOwner();\n        LibDiamond.setUint(keccak256(abi.encodePacked(KEY_LOCK_PERIOD,_level,\"period\")),_period);\n        LibDiamond.setUint(keccak256(abi.encodePacked(KEY_LOCK_PERIOD,_level,\"multiplier\")),_multiplier);\n        LibDiamond.setUint(keccak256(abi.encodePacked(KEY_LOCK_PERIOD,_level,\"minimum\")),_mininum);\n        LibDiamond.setUint(keccak256(abi.encodePacked(KEY_LOCK_PERIOD,_level,\"penaltyPeriod\")),_penaltyPeriod);\n        LibDiamond.setUint(keccak256(abi.encodePacked(KEY_LOCK_PERIOD,_level,\"penaltyRate\")),_penaltyRate);\n        LibDiamond.setUint(keccak256(abi.encodePacked(KEY_LOCK_PERIOD,_level,\"penaltyRateDecimal\")),_penaltyRateDecimal);\n    }\n    function getLockPeriod(LibDiamond.LockLevel _level) external override view returns(uint256 period_,uint256 multiplier_,uint256 minimum_,uint256 penaltyPeriod_,uint256 penaltyRate_,uint256 penaltyRateDecimal_) {\n        return _getLockPerioid(_level);\n    }\n\n    function _getLockPerioid(LibDiamond.LockLevel _level) internal view returns(uint256 period_,uint256 multiplier_,uint256 minimum_,uint256 penaltyPeriod_,uint256 penaltyRate_,uint256 penaltyRateDecimal_) {\n        period_ = LibDiamond.getUint(keccak256(abi.encodePacked(KEY_LOCK_PERIOD,_level,\"period\")));\n        multiplier_ = LibDiamond.getUint(keccak256(abi.encodePacked(KEY_LOCK_PERIOD,_level,\"multiplier\")));\n        minimum_ = LibDiamond.getUint(keccak256(abi.encodePacked(KEY_LOCK_PERIOD,_level,\"minimum\")));\n        penaltyPeriod_ = LibDiamond.getUint(keccak256(abi.encodePacked(KEY_LOCK_PERIOD,_level,\"penaltyPeriod\")));\n        penaltyRate_ = LibDiamond.getUint(keccak256(abi.encodePacked(KEY_LOCK_PERIOD,_level,\"penaltyRate\")));\n        penaltyRateDecimal_ = LibDiamond.getUint(keccak256(abi.encodePacked(KEY_LOCK_PERIOD,_level,\"penaltyRateDecimal\")));\n    }\n    function _increaseTotalSupplyAllTimeMint(uint256 _amount) internal {\n        LibDiamond.DiamondStorage storage ds = LibDiamond.diamondStorage();\n        ds.totalSupplyAllTimeMint = ds.totalSupplyAllTimeMint.add(_amount);\n    }\n    function _increaseTotalSupplyAllTimeBurn(uint256 _amount) internal {\n        LibDiamond.DiamondStorage storage ds = LibDiamond.diamondStorage();\n        ds.totalSupplyAllTimeBurn = ds.totalSupplyAllTimeBurn.add(_amount);\n\n    }\n    function _mintVFinix(address _holder,uint256 _amount) internal {\n        LibDiamond.increaseTotalSupply(_amount);\n        LibDiamond.increaseBalance(_holder,_amount);\n        emit LibDiamond.Transfer(address(0), _holder, _amount);\n    }\n\n    function _burnVFinix(address _holder,uint256 _amount) internal {\n        LibDiamond.decreaseTotalSupply(_amount);\n        LibDiamond.decreaseBalance(_holder, _amount);\n        emit LibDiamond.Transfer(_holder, address(0), _amount);\n    } \n\n    function _increaseTotalLockCount() internal  {\n        uint256 totalLockCount = LibDiamond.getUint(keccak256(abi.encodePacked(KEY_LOCK_COUNT)));\n        LibDiamond.setUint(keccak256(abi.encodePacked(KEY_LOCK_COUNT)),totalLockCount.add(1));\n    }\n   \n\n    function _increaseTotalLevelLockCount(LibDiamond.LockLevel _level) internal  {\n        uint256 totalLockCount = LibDiamond.getUint(keccak256(abi.encodePacked(KEY_LOCK_COUNT,_level)));\n        LibDiamond.setUint(keccak256(abi.encodePacked(KEY_LOCK_COUNT,_level)),totalLockCount.add(1));\n    }\n\n     function _decreaseTotalLockCount() internal  {\n        uint256 totalLockCount = LibDiamond.getUint(keccak256(abi.encodePacked(KEY_LOCK_COUNT)));\n        LibDiamond.setUint(keccak256(abi.encodePacked(KEY_LOCK_COUNT)),totalLockCount.sub(1));\n    }\n\n    function _decreaseTotalLevelLockCount(LibDiamond.LockLevel _level) internal  {\n        uint256 totalLockCount = LibDiamond.getUint(keccak256(abi.encodePacked(KEY_LOCK_COUNT,_level)));\n        LibDiamond.setUint(keccak256(abi.encodePacked(KEY_LOCK_COUNT,_level)),totalLockCount.sub(1));\n    }\n\n}\n",
  "sourcePath": "/Users/kanthakarn/Documents/work/six-network/definix-vfinix/contracts/facets/VaultFacet.sol",
  "compiler": {
    "name": "solc",
    "version": "0.8.0+commit.c7dfd78e.Emscripten.clang"
  },
  "schemaVersion": "3.4.1",
  "updatedAt": "2021-10-26T09:23:55.140Z",
  "networkType": "ethereum",
  "devdoc": {
    "kind": "dev",
    "methods": {},
    "version": 1
  },
  "userdoc": {
    "kind": "user",
    "methods": {},
    "version": 1
  }
}