{
  "contractName": "VaultInfoFacet",
  "abi": [
    {
      "inputs": [
        {
          "internalType": "address",
          "name": "_user",
          "type": "address"
        },
        {
          "internalType": "uint256",
          "name": "_startIndex",
          "type": "uint256"
        },
        {
          "internalType": "uint256",
          "name": "_limit",
          "type": "uint256"
        }
      ],
      "name": "locks",
      "outputs": [
        {
          "components": [
            {
              "internalType": "uint256",
              "name": "id",
              "type": "uint256"
            },
            {
              "internalType": "enum LibDiamond.LockLevel",
              "name": "level",
              "type": "uint8"
            },
            {
              "internalType": "uint256",
              "name": "lockAmount",
              "type": "uint256"
            },
            {
              "internalType": "uint256",
              "name": "voteAmount",
              "type": "uint256"
            },
            {
              "internalType": "uint256",
              "name": "lockTimestamp",
              "type": "uint256"
            },
            {
              "internalType": "uint256",
              "name": "penaltyFinixAmount",
              "type": "uint256"
            },
            {
              "internalType": "uint256",
              "name": "penaltyUnlockTimestamp",
              "type": "uint256"
            },
            {
              "internalType": "bool",
              "name": "isPenalty",
              "type": "bool"
            },
            {
              "internalType": "bool",
              "name": "isUnlocked",
              "type": "bool"
            }
          ],
          "internalType": "struct LibDiamond.LockInfo[]",
          "name": "locks_",
          "type": "tuple[]"
        }
      ],
      "stateMutability": "view",
      "type": "function",
      "constant": true
    },
    {
      "inputs": [
        {
          "internalType": "address",
          "name": "_user",
          "type": "address"
        },
        {
          "internalType": "uint256",
          "name": "_startIndex",
          "type": "uint256"
        },
        {
          "internalType": "uint256",
          "name": "_limit",
          "type": "uint256"
        }
      ],
      "name": "locksDesc",
      "outputs": [
        {
          "components": [
            {
              "internalType": "uint256",
              "name": "id",
              "type": "uint256"
            },
            {
              "internalType": "enum LibDiamond.LockLevel",
              "name": "level",
              "type": "uint8"
            },
            {
              "internalType": "uint256",
              "name": "lockAmount",
              "type": "uint256"
            },
            {
              "internalType": "uint256",
              "name": "voteAmount",
              "type": "uint256"
            },
            {
              "internalType": "uint256",
              "name": "lockTimestamp",
              "type": "uint256"
            },
            {
              "internalType": "uint256",
              "name": "penaltyFinixAmount",
              "type": "uint256"
            },
            {
              "internalType": "uint256",
              "name": "penaltyUnlockTimestamp",
              "type": "uint256"
            },
            {
              "internalType": "bool",
              "name": "isPenalty",
              "type": "bool"
            },
            {
              "internalType": "bool",
              "name": "isUnlocked",
              "type": "bool"
            }
          ],
          "internalType": "struct LibDiamond.LockInfo[]",
          "name": "locks_",
          "type": "tuple[]"
        }
      ],
      "stateMutability": "view",
      "type": "function",
      "constant": true
    },
    {
      "inputs": [
        {
          "internalType": "bytes32",
          "name": "key",
          "type": "bytes32"
        }
      ],
      "name": "getLockMap",
      "outputs": [
        {
          "components": [
            {
              "internalType": "uint256",
              "name": "id",
              "type": "uint256"
            },
            {
              "internalType": "enum LibDiamond.LockLevel",
              "name": "level",
              "type": "uint8"
            },
            {
              "internalType": "uint256",
              "name": "lockAmount",
              "type": "uint256"
            },
            {
              "internalType": "uint256",
              "name": "voteAmount",
              "type": "uint256"
            },
            {
              "internalType": "uint256",
              "name": "lockTimestamp",
              "type": "uint256"
            },
            {
              "internalType": "uint256",
              "name": "penaltyFinixAmount",
              "type": "uint256"
            },
            {
              "internalType": "uint256",
              "name": "penaltyUnlockTimestamp",
              "type": "uint256"
            },
            {
              "internalType": "bool",
              "name": "isPenalty",
              "type": "bool"
            },
            {
              "internalType": "bool",
              "name": "isUnlocked",
              "type": "bool"
            }
          ],
          "internalType": "struct LibDiamond.LockInfo",
          "name": "lockInfo_",
          "type": "tuple"
        }
      ],
      "stateMutability": "view",
      "type": "function",
      "constant": true
    },
    {
      "inputs": [
        {
          "internalType": "address",
          "name": "_user",
          "type": "address"
        },
        {
          "internalType": "uint256",
          "name": "_lockIndex",
          "type": "uint256"
        }
      ],
      "name": "lockInfo",
      "outputs": [
        {
          "components": [
            {
              "internalType": "uint256",
              "name": "id",
              "type": "uint256"
            },
            {
              "internalType": "enum LibDiamond.LockLevel",
              "name": "level",
              "type": "uint8"
            },
            {
              "internalType": "uint256",
              "name": "lockAmount",
              "type": "uint256"
            },
            {
              "internalType": "uint256",
              "name": "voteAmount",
              "type": "uint256"
            },
            {
              "internalType": "uint256",
              "name": "lockTimestamp",
              "type": "uint256"
            },
            {
              "internalType": "uint256",
              "name": "penaltyFinixAmount",
              "type": "uint256"
            },
            {
              "internalType": "uint256",
              "name": "penaltyUnlockTimestamp",
              "type": "uint256"
            },
            {
              "internalType": "bool",
              "name": "isPenalty",
              "type": "bool"
            },
            {
              "internalType": "bool",
              "name": "isUnlocked",
              "type": "bool"
            }
          ],
          "internalType": "struct LibDiamond.LockInfo",
          "name": "lockInfo_",
          "type": "tuple"
        }
      ],
      "stateMutability": "view",
      "type": "function",
      "constant": true
    },
    {
      "inputs": [
        {
          "internalType": "address",
          "name": "_user",
          "type": "address"
        }
      ],
      "name": "getUserLockAmount",
      "outputs": [
        {
          "internalType": "uint256",
          "name": "",
          "type": "uint256"
        }
      ],
      "stateMutability": "view",
      "type": "function",
      "constant": true
    }
  ],
  "bytecode": "0x608060405234801561001057600080fd5b50611381806100206000396000f3fe608060405234801561001057600080fd5b50600436106100575760003560e01c80631bc1a3a41461005c5780636f8bda131461008c578063a5074bb7146100bc578063b2520a7c146100ec578063d317eaf51461011c575b600080fd5b61007660048036038101906100719190610d82565b61014c565b60405161008391906110f6565b60405180910390f35b6100a660048036038101906100a19190610de7565b6101a3565b6040516100b391906110b8565b60405180910390f35b6100d660048036038101906100d19190610e36565b610514565b6040516100e391906110da565b60405180910390f35b61010660048036038101906101019190610dab565b61064a565b60405161011391906110da565b60405180910390f35b61013660048036038101906101319190610de7565b6107af565b60405161014391906110b8565b60405180910390f35b600080610157610c62565b905080600a0160008473ffffffffffffffffffffffffffffffffffffffff1673ffffffffffffffffffffffffffffffffffffffff16815260200190815260200160002054915050919050565b606060006101af610c62565b905060008160090160008773ffffffffffffffffffffffffffffffffffffffff1673ffffffffffffffffffffffffffffffffffffffff168152602001908152602001600020549050808511806102055750600084105b1561028c57600067ffffffffffffffff81111561024b577f4e487b7100000000000000000000000000000000000000000000000000000000600052604160045260246000fd5b60405190808252806020026020018201604052801561028457816020015b610271610cbb565b8152602001906001900390816102695790505b50925061050b565b60006102a18683610c8f90919063ffffffff16565b9050600081861015806102b45750600086145b156102c1578190506102c5565b8590505b6000831115610508578067ffffffffffffffff81111561030e577f4e487b7100000000000000000000000000000000000000000000000000000000600052604160045260246000fd5b60405190808252806020026020018201604052801561034757816020015b610334610cbb565b81526020019060019003908161032c5790505b50945060005b818110156105065760008961036b838b610ca590919063ffffffff16565b60405160200161037c92919061108f565b60405160208183030381529060405280519060200120905085600801600082815260200190815260200160002060405180610120016040529081600082015481526020016001820160009054906101000a900460ff16600281111561040a577f4e487b7100000000000000000000000000000000000000000000000000000000600052602160045260246000fd5b6002811115610442577f4e487b7100000000000000000000000000000000000000000000000000000000600052602160045260246000fd5b815260200160028201548152602001600382015481526020016004820154815260200160058201548152602001600682015481526020016007820160009054906101000a900460ff161515151581526020016007820160019054906101000a900460ff1615151515815250508783815181106104e7577f4e487b7100000000000000000000000000000000000000000000000000000000600052603260045260246000fd5b60200260200101819052505080806104fe9061124b565b91505061034d565b505b50505b50509392505050565b61051c610cbb565b6000610526610c62565b905080600801600084815260200190815260200160002060405180610120016040529081600082015481526020016001820160009054906101000a900460ff16600281111561059e577f4e487b7100000000000000000000000000000000000000000000000000000000600052602160045260246000fd5b60028111156105d6577f4e487b7100000000000000000000000000000000000000000000000000000000600052602160045260246000fd5b815260200160028201548152602001600382015481526020016004820154815260200160058201548152602001600682015481526020016007820160009054906101000a900460ff161515151581526020016007820160019054906101000a900460ff161515151581525050915050919050565b610652610cbb565b600061065c610c62565b90506000848460405160200161067392919061108f565b60405160208183030381529060405280519060200120905081600801600082815260200190815260200160002060405180610120016040529081600082015481526020016001820160009054906101000a900460ff166002811115610701577f4e487b7100000000000000000000000000000000000000000000000000000000600052602160045260246000fd5b6002811115610739577f4e487b7100000000000000000000000000000000000000000000000000000000600052602160045260246000fd5b815260200160028201548152602001600382015481526020016004820154815260200160058201548152602001600682015481526020016007820160009054906101000a900460ff161515151581526020016007820160019054906101000a900460ff1615151515815250509250505092915050565b606060006107bb610c62565b905060008160090160008773ffffffffffffffffffffffffffffffffffffffff1673ffffffffffffffffffffffffffffffffffffffff168152602001908152602001600020549050808511806108115750600084105b1561089857600067ffffffffffffffff811115610857577f4e487b7100000000000000000000000000000000000000000000000000000000600052604160045260246000fd5b60405190808252806020026020018201604052801561089057816020015b61087d610cbb565b8152602001906001900390816108755790505b509250610c59565b60006108ad8683610c8f90919063ffffffff16565b9050600081861015806108c05750600086145b156108cd578190506108d1565b8590505b6000831115610c56578067ffffffffffffffff81111561091a577f4e487b7100000000000000000000000000000000000000000000000000000000600052604160045260246000fd5b60405190808252806020026020018201604052801561095357816020015b610940610cbb565b8152602001906001900390816109385790505b50945060008367ffffffffffffffff811115610998577f4e487b7100000000000000000000000000000000000000000000000000000000600052604160045260246000fd5b6040519080825280602002602001820160405280156109d157816020015b6109be610cbb565b8152602001906001900390816109b65790505b50905060005b82811015610b9d578560080160008b610a0c846109fe60018b610c8f90919063ffffffff16565b610c8f90919063ffffffff16565b604051602001610a1d92919061108f565b60405160208183030381529060405280519060200120815260200190815260200160002060405180610120016040529081600082015481526020016001820160009054906101000a900460ff166002811115610aa2577f4e487b7100000000000000000000000000000000000000000000000000000000600052602160045260246000fd5b6002811115610ada577f4e487b7100000000000000000000000000000000000000000000000000000000600052602160045260246000fd5b815260200160028201548152602001600382015481526020016004820154815260200160058201548152602001600682015481526020016007820160009054906101000a900460ff161515151581526020016007820160019054906101000a900460ff161515151581525050828281518110610b7f577f4e487b7100000000000000000000000000000000000000000000000000000000600052603260045260246000fd5b60200260200101819052508080610b959061124b565b9150506109d7565b5060005b82811015610c535781610bbd828b610ca590919063ffffffff16565b81518110610bf4577f4e487b7100000000000000000000000000000000000000000000000000000000600052603260045260246000fd5b6020026020010151878281518110610c35577f4e487b7100000000000000000000000000000000000000000000000000000000600052603260045260246000fd5b60200260200101819052508080610c4b9061124b565b915050610ba1565b50505b50505b50509392505050565b6000807fc8fcad8db84d3cc18b4c41d551ea0ee66dd599cde068d998e57d5e09332c131c90508091505090565b60008183610c9d91906111a0565b905092915050565b60008183610cb3919061114a565b905092915050565b6040518061012001604052806000815260200160006002811115610d08577f4e487b7100000000000000000000000000000000000000000000000000000000600052602160045260246000fd5b815260200160008152602001600081526020016000815260200160008152602001600081526020016000151581526020016000151581525090565b600081359050610d5281611306565b92915050565b600081359050610d678161131d565b92915050565b600081359050610d7c81611334565b92915050565b600060208284031215610d9457600080fd5b6000610da284828501610d43565b91505092915050565b60008060408385031215610dbe57600080fd5b6000610dcc85828601610d43565b9250506020610ddd85828601610d6d565b9150509250929050565b600080600060608486031215610dfc57600080fd5b6000610e0a86828701610d43565b9350506020610e1b86828701610d6d565b9250506040610e2c86828701610d6d565b9150509250925092565b600060208284031215610e4857600080fd5b6000610e5684828501610d58565b91505092915050565b6000610e6b8383610f03565b6101208301905092915050565b610e81816111d4565b82525050565b6000610e9282611121565b610e9c8185611139565b9350610ea783611111565b8060005b83811015610ed8578151610ebf8882610e5f565b9750610eca8361112c565b925050600181019050610eab565b5085935050505092915050565b610eee816111e6565b82525050565b610efd81611239565b82525050565b61012082016000820151610f1a6000850182611071565b506020820151610f2d6020850182610ef4565b506040820151610f406040850182611071565b506060820151610f536060850182611071565b506080820151610f666080850182611071565b5060a0820151610f7960a0850182611071565b5060c0820151610f8c60c0850182611071565b5060e0820151610f9f60e0850182610ee5565b50610100820151610fb4610100850182610ee5565b50505050565b61012082016000820151610fd16000850182611071565b506020820151610fe46020850182610ef4565b506040820151610ff76040850182611071565b50606082015161100a6060850182611071565b50608082015161101d6080850182611071565b5060a082015161103060a0850182611071565b5060c082015161104360c0850182611071565b5060e082015161105660e0850182610ee5565b5061010082015161106b610100850182610ee5565b50505050565b61107a8161122f565b82525050565b6110898161122f565b82525050565b60006040820190506110a46000830185610e78565b6110b16020830184611080565b9392505050565b600060208201905081810360008301526110d28184610e87565b905092915050565b6000610120820190506110f06000830184610fba565b92915050565b600060208201905061110b6000830184611080565b92915050565b6000819050602082019050919050565b600081519050919050565b6000602082019050919050565b600082825260208201905092915050565b60006111558261122f565b91506111608361122f565b9250827fffffffffffffffffffffffffffffffffffffffffffffffffffffffffffffffff0382111561119557611194611294565b5b828201905092915050565b60006111ab8261122f565b91506111b68361122f565b9250828210156111c9576111c8611294565b5b828203905092915050565b60006111df8261120f565b9050919050565b60008115159050919050565b6000819050919050565b600081905061120a826112f2565b919050565b600073ffffffffffffffffffffffffffffffffffffffff82169050919050565b6000819050919050565b6000611244826111fc565b9050919050565b60006112568261122f565b91507fffffffffffffffffffffffffffffffffffffffffffffffffffffffffffffffff82141561128957611288611294565b5b600182019050919050565b7f4e487b7100000000000000000000000000000000000000000000000000000000600052601160045260246000fd5b7f4e487b7100000000000000000000000000000000000000000000000000000000600052602160045260246000fd5b60038110611303576113026112c3565b5b50565b61130f816111d4565b811461131a57600080fd5b50565b611326816111f2565b811461133157600080fd5b50565b61133d8161122f565b811461134857600080fd5b5056fea2646970667358221220b258c747e1de7fc3212192dea10f38bcfdd154f60f95ede1997ef811a9afb3f964736f6c63430008000033",
  "immutableReferences": {},
  "source": "// SPDX-License-Identifier: MIT\npragma solidity ^0.8.0;\n\nimport { LibDiamond } from \"../libraries/LibDiamond.sol\";\nimport \"../interfaces/IVaultInfoFacet.sol\";\nimport \"../utils/math/SafeMath.sol\";\n\n\ncontract VaultInfoFacet is IVaultInfoFacet{\n    using SafeMath for uint256;\n\n  \n    function locks(address _user,uint256 _startIndex,uint256 _limit) external override view returns(LibDiamond.LockInfo[] memory locks_){\n        LibDiamond.DiamondStorage storage ds = LibDiamond.diamondStorage();\n        uint256 userLocksCount_ = ds.userLocksCount[_user];\n\n        if(_startIndex > userLocksCount_ || _limit < 0 ){\n            locks_= new LibDiamond.LockInfo[](0);\n        }else{\n            uint256 count = userLocksCount_.sub(_startIndex);\n            uint256 length;\n            if(_limit >= count || _limit == 0){\n                length = count;\n            }else{\n                length = _limit;\n            }\n            if(userLocksCount_ > 0) {\n                locks_= new LibDiamond.LockInfo[](length);\n                for (uint256 i = 0; i < length; i++) {\n                    bytes32 key = keccak256(abi.encode(_user,_startIndex.add(i)));\n                    locks_[i] = ds.locksMap[key];\n                }\n            }\n        }\n    }\n\n function locksDesc(address _user,uint256 _startIndex,uint256 _limit) external override view returns(LibDiamond.LockInfo[] memory locks_){\n        LibDiamond.DiamondStorage storage ds = LibDiamond.diamondStorage();\n        uint256 userLocksCount_ = ds.userLocksCount[_user];\n\n        if(_startIndex > userLocksCount_ || _limit < 0 ){\n            locks_= new LibDiamond.LockInfo[](0);\n        }else{\n            uint256 count = userLocksCount_.sub(_startIndex);\n            uint256 length;\n            if(_limit >= count || _limit == 0){\n                length = count;\n            }else{\n                length = _limit;\n            }\n            if(userLocksCount_ > 0) {\n                locks_= new LibDiamond.LockInfo[](length);\n                LibDiamond.LockInfo[] memory lockTmpDesc = new LibDiamond.LockInfo[](userLocksCount_);\n                for(uint256 i = 0; i < length; i++){\n                    lockTmpDesc[i] = ds.locksMap[keccak256(abi.encode(_user,userLocksCount_.sub(1).sub(i)))];\n                }\n\n                for (uint256 i = 0; i < length; i++) {\n                    // bytes32 key = _;\n                    locks_[i] = lockTmpDesc[_startIndex.add(i)];\n                }\n            }\n        }\n    }\n    function getLockMap(bytes32 key) external override view returns(LibDiamond.LockInfo memory lockInfo_) {\n        LibDiamond.DiamondStorage storage ds = LibDiamond.diamondStorage();\n        lockInfo_ = ds.locksMap[key];\n    }\n\n   \n    function lockInfo(address _user,uint256 _lockIndex) external override view returns(LibDiamond.LockInfo memory lockInfo_){\n        LibDiamond.DiamondStorage storage ds = LibDiamond.diamondStorage();\n        bytes32 key = keccak256(abi.encode(_user,_lockIndex));\n        lockInfo_ = ds.locksMap[key];\n    }\n\n    function getUserLockAmount(address _user) external override view returns(uint256) {\n        LibDiamond.DiamondStorage storage ds = LibDiamond.diamondStorage();\n        return ds.userLocksAmount[_user];\n    }\n}\n",
  "sourcePath": "/Users/kanthakarn/Documents/work/six-network/definix-vfinix/contracts/facets/VaultInfoFacet.sol",
  "compiler": {
    "name": "solc",
    "version": "0.8.0+commit.c7dfd78e.Emscripten.clang"
  },
  "schemaVersion": "3.4.1",
  "updatedAt": "2021-10-26T09:23:55.164Z",
  "networkType": "ethereum",
  "devdoc": {
    "kind": "dev",
    "methods": {},
    "version": 1
  },
  "userdoc": {
    "kind": "user",
    "methods": {},
    "version": 1
  }
}