{
  "contractName": "VaultFacet",
  "abi": [
    {
      "anonymous": false,
      "inputs": [
        {
          "indexed": false,
          "internalType": "address",
          "name": "_user",
          "type": "address"
        },
        {
          "indexed": true,
          "internalType": "uint256",
          "name": "_lockAmount",
          "type": "uint256"
        },
        {
          "indexed": false,
          "internalType": "uint256",
          "name": "_vFinixAmount",
          "type": "uint256"
        },
        {
          "indexed": true,
          "internalType": "uint256",
          "name": "_lockIndex",
          "type": "uint256"
        },
        {
          "indexed": true,
          "internalType": "bytes32",
          "name": "_lockKey",
          "type": "bytes32"
        }
      ],
      "name": "FinixLock",
      "type": "event"
    },
    {
      "anonymous": false,
      "inputs": [
        {
          "indexed": false,
          "internalType": "address",
          "name": "_user",
          "type": "address"
        },
        {
          "indexed": false,
          "internalType": "uint256",
          "name": "_finixTranferAmount",
          "type": "uint256"
        },
        {
          "indexed": false,
          "internalType": "uint256",
          "name": "_vfinixBurnAmount",
          "type": "uint256"
        },
        {
          "indexed": false,
          "internalType": "uint256",
          "name": "_unlockIndex",
          "type": "uint256"
        }
      ],
      "name": "finixUnlock",
      "type": "event"
    },
    {
      "anonymous": false,
      "inputs": [
        {
          "indexed": true,
          "internalType": "address",
          "name": "_user",
          "type": "address"
        },
        {
          "indexed": true,
          "internalType": "uint256",
          "name": "_unlockIndex",
          "type": "uint256"
        },
        {
          "indexed": true,
          "internalType": "enum LibDiamond.LockLevel",
          "name": "_level",
          "type": "uint8"
        },
        {
          "indexed": false,
          "internalType": "uint256",
          "name": "_vfinixBurnAmount",
          "type": "uint256"
        }
      ],
      "name": "finixUnlockPenalty",
      "type": "event"
    },
    {
      "inputs": [
        {
          "internalType": "address",
          "name": "_user",
          "type": "address"
        }
      ],
      "name": "lockCount",
      "outputs": [
        {
          "internalType": "uint256",
          "name": "",
          "type": "uint256"
        }
      ],
      "stateMutability": "view",
      "type": "function",
      "constant": true
    },
    {
      "inputs": [
        {
          "internalType": "enum LibDiamond.LockLevel",
          "name": "_level",
          "type": "uint8"
        },
        {
          "internalType": "uint256",
          "name": "_lockAmount",
          "type": "uint256"
        }
      ],
      "name": "lock",
      "outputs": [],
      "stateMutability": "nonpayable",
      "type": "function"
    },
    {
      "inputs": [
        {
          "internalType": "uint256",
          "name": "_lockIndex",
          "type": "uint256"
        }
      ],
      "name": "unlock",
      "outputs": [],
      "stateMutability": "nonpayable",
      "type": "function"
    },
    {
      "inputs": [],
      "name": "getTotalFinixLock",
      "outputs": [
        {
          "internalType": "uint256",
          "name": "totalFinixLock_",
          "type": "uint256"
        },
        {
          "internalType": "uint256",
          "name": "totalFinixLockAtLevel1_",
          "type": "uint256"
        },
        {
          "internalType": "uint256",
          "name": "totalFinixLockAtLevel2_",
          "type": "uint256"
        },
        {
          "internalType": "uint256",
          "name": "totalFinixLockAtLevel3_",
          "type": "uint256"
        },
        {
          "internalType": "uint256",
          "name": "totalLockCount_",
          "type": "uint256"
        },
        {
          "internalType": "uint256",
          "name": "totalLockLevel1Count_",
          "type": "uint256"
        },
        {
          "internalType": "uint256",
          "name": "totalLockLevel2Count_",
          "type": "uint256"
        },
        {
          "internalType": "uint256",
          "name": "totalLockLevel3Count_",
          "type": "uint256"
        }
      ],
      "stateMutability": "view",
      "type": "function",
      "constant": true
    },
    {
      "inputs": [
        {
          "components": [
            {
              "internalType": "uint256",
              "name": "_period1",
              "type": "uint256"
            },
            {
              "internalType": "uint256",
              "name": "_period2",
              "type": "uint256"
            },
            {
              "internalType": "uint256",
              "name": "_period3",
              "type": "uint256"
            },
            {
              "internalType": "uint256",
              "name": "_multiplier1",
              "type": "uint256"
            },
            {
              "internalType": "uint256",
              "name": "_multiplier2",
              "type": "uint256"
            },
            {
              "internalType": "uint256",
              "name": "_multiplier3",
              "type": "uint256"
            },
            {
              "internalType": "uint256",
              "name": "_minimum1",
              "type": "uint256"
            },
            {
              "internalType": "uint256",
              "name": "_minimum2",
              "type": "uint256"
            },
            {
              "internalType": "uint256",
              "name": "_minimum3",
              "type": "uint256"
            },
            {
              "internalType": "uint256",
              "name": "_penaltyPeriod1",
              "type": "uint256"
            },
            {
              "internalType": "uint256",
              "name": "_penaltyPeriod2",
              "type": "uint256"
            },
            {
              "internalType": "uint256",
              "name": "_penaltyPeriod3",
              "type": "uint256"
            },
            {
              "internalType": "uint256",
              "name": "_penaltyRate1",
              "type": "uint256"
            },
            {
              "internalType": "uint256",
              "name": "_penaltyRate2",
              "type": "uint256"
            },
            {
              "internalType": "uint256",
              "name": "_penaltyRate3",
              "type": "uint256"
            },
            {
              "internalType": "uint256",
              "name": "_penaltyRateDecimal1",
              "type": "uint256"
            },
            {
              "internalType": "uint256",
              "name": "_penaltyRateDecimal2",
              "type": "uint256"
            },
            {
              "internalType": "uint256",
              "name": "_penaltyRateDecimal3",
              "type": "uint256"
            }
          ],
          "internalType": "struct LibDiamond.ParamLockPeriods",
          "name": "param_",
          "type": "tuple"
        }
      ],
      "name": "setUpLockPeriods",
      "outputs": [],
      "stateMutability": "nonpayable",
      "type": "function"
    },
    {
      "inputs": [
        {
          "internalType": "enum LibDiamond.LockLevel",
          "name": "_level",
          "type": "uint8"
        },
        {
          "internalType": "uint256",
          "name": "_period",
          "type": "uint256"
        },
        {
          "internalType": "uint256",
          "name": "_multiplier",
          "type": "uint256"
        },
        {
          "internalType": "uint256",
          "name": "_mininum",
          "type": "uint256"
        },
        {
          "internalType": "uint256",
          "name": "_penaltyPeriod",
          "type": "uint256"
        },
        {
          "internalType": "uint256",
          "name": "_penaltyRate",
          "type": "uint256"
        },
        {
          "internalType": "uint256",
          "name": "_penaltyRateDecimal",
          "type": "uint256"
        }
      ],
      "name": "setLockPeriod",
      "outputs": [],
      "stateMutability": "nonpayable",
      "type": "function"
    },
    {
      "inputs": [
        {
          "internalType": "enum LibDiamond.LockLevel",
          "name": "_level",
          "type": "uint8"
        }
      ],
      "name": "getLockPeriod",
      "outputs": [
        {
          "internalType": "uint256",
          "name": "period_",
          "type": "uint256"
        },
        {
          "internalType": "uint256",
          "name": "multiplier_",
          "type": "uint256"
        },
        {
          "internalType": "uint256",
          "name": "minimum_",
          "type": "uint256"
        },
        {
          "internalType": "uint256",
          "name": "penaltyPeriod_",
          "type": "uint256"
        },
        {
          "internalType": "uint256",
          "name": "penaltyRate_",
          "type": "uint256"
        },
        {
          "internalType": "uint256",
          "name": "penaltyRateDecimal_",
          "type": "uint256"
        }
      ],
      "stateMutability": "view",
      "type": "function",
      "constant": true
    }
  ],
  "bytecode": "0x608060405234801561001057600080fd5b50613af1806100206000396000f3fe608060405234801561001057600080fd5b506004361061007d5760003560e01c8063b759d6031161005b578063b759d603146100d6578063bfe524481461010b578063df03458614610130578063f8b4cfc6146101605761007d565b80633955f2a4146100825780636198e3391461009e5780637066a399146100ba575b600080fd5b61009c60048036038101906100979190612d76565b61017c565b005b6100b860048036038101906100b39190612da0565b610929565b005b6100d460048036038101906100cf9190612cd8565b611227565b005b6100f060048036038101906100eb9190612c73565b6114a2565b6040516101029695949392919061368b565b60405180910390f35b6101136114c9565b6040516101279897969594939291906136ec565b60405180910390f35b61014a60048036038101906101459190612c21565b61182d565b6040516101579190613670565b60405180910390f35b61017a60048036038101906101759190612c9c565b611884565b005b610184611ec0565b6101f06040518060400160405280600b81526020017f6c6f636b5f706572696f6400000000000000000000000000000000000000000081525060006040516020016101d0929190613449565b604051602081830303815290604052805190602001208260000151611f5b565b61025c6040518060400160405280600b81526020017f6c6f636b5f706572696f64000000000000000000000000000000000000000000815250600060405160200161023c929190613416565b604051602081830303815290604052805190602001208260600151611f5b565b6102c86040518060400160405280600b81526020017f6c6f636b5f706572696f6400000000000000000000000000000000000000000081525060006040516020016102a892919061334a565b604051602081830303815290604052805190602001208260c00151611f5b565b6103356040518060400160405280600b81526020017f6c6f636b5f706572696f64000000000000000000000000000000000000000000815250600060405160200161031492919061337d565b60405160208183030381529060405280519060200120826101200151611f5b565b6103a26040518060400160405280600b81526020017f6c6f636b5f706572696f6400000000000000000000000000000000000000000081525060006040516020016103819291906133b0565b60405160208183030381529060405280519060200120826101800151611f5b565b61040f6040518060400160405280600b81526020017f6c6f636b5f706572696f6400000000000000000000000000000000000000000081525060006040516020016103ee9291906133e3565b60405160208183030381529060405280519060200120826101e00151611f5b565b61047b6040518060400160405280600b81526020017f6c6f636b5f706572696f64000000000000000000000000000000000000000000815250600160405160200161045b929190613449565b604051602081830303815290604052805190602001208260200151611f5b565b6104e76040518060400160405280600b81526020017f6c6f636b5f706572696f6400000000000000000000000000000000000000000081525060016040516020016104c7929190613416565b604051602081830303815290604052805190602001208260800151611f5b565b6105536040518060400160405280600b81526020017f6c6f636b5f706572696f64000000000000000000000000000000000000000000815250600160405160200161053392919061334a565b604051602081830303815290604052805190602001208260e00151611f5b565b6105c06040518060400160405280600b81526020017f6c6f636b5f706572696f64000000000000000000000000000000000000000000815250600160405160200161059f92919061337d565b60405160208183030381529060405280519060200120826101400151611f5b565b61062d6040518060400160405280600b81526020017f6c6f636b5f706572696f64000000000000000000000000000000000000000000815250600160405160200161060c9291906133b0565b60405160208183030381529060405280519060200120826101a00151611f5b565b61069a6040518060400160405280600b81526020017f6c6f636b5f706572696f6400000000000000000000000000000000000000000081525060016040516020016106799291906133e3565b60405160208183030381529060405280519060200120826102000151611f5b565b6107066040518060400160405280600b81526020017f6c6f636b5f706572696f6400000000000000000000000000000000000000000081525060026040516020016106e6929190613449565b604051602081830303815290604052805190602001208260400151611f5b565b6107726040518060400160405280600b81526020017f6c6f636b5f706572696f640000000000000000000000000000000000000000008152506002604051602001610752929190613416565b604051602081830303815290604052805190602001208260a00151611f5b565b6107df6040518060400160405280600b81526020017f6c6f636b5f706572696f6400000000000000000000000000000000000000000081525060026040516020016107be92919061334a565b60405160208183030381529060405280519060200120826101000151611f5b565b61084c6040518060400160405280600b81526020017f6c6f636b5f706572696f64000000000000000000000000000000000000000000815250600260405160200161082b92919061337d565b60405160208183030381529060405280519060200120826101600151611f5b565b6108b96040518060400160405280600b81526020017f6c6f636b5f706572696f6400000000000000000000000000000000000000000081525060026040516020016108989291906133b0565b60405160208183030381529060405280519060200120826101c00151611f5b565b6109266040518060400160405280600b81526020017f6c6f636b5f706572696f6400000000000000000000000000000000000000000081525060026040516020016109059291906133e3565b60405160208183030381529060405280519060200120826102200151611f5b565b50565b6000610933611f86565b905060006109646040516020016109499061347c565b60405160208183030381529060405280519060200120611fb3565b90503073ffffffffffffffffffffffffffffffffffffffff16630e5c011e336040518263ffffffff1660e01b815260040161099f91906134a6565b600060405180830381600087803b1580156109b957600080fd5b505af11580156109cd573d6000803e3d6000fd5b50505050600033846040516020016109e69291906134f8565b60405160208183030381529060405280519060200120905060008360080160008381526020019081526020016000209050600015158160070160009054906101000a900460ff16151514610a6f576040517f08c379a0000000000000000000000000000000000000000000000000000000008152600401610a6690613650565b60405180910390fd5b600015158160070160019054906101000a900460ff16151514610ac7576040517f08c379a0000000000000000000000000000000000000000000000000000000008152600401610abe90613630565b60405180910390fd5b6000610ae38260010160009054906101000a900460ff16611ffe565b5050505050905060003073ffffffffffffffffffffffffffffffffffffffff1663d3ec2acd336040518263ffffffff1660e01b8152600401610b2591906134a6565b60206040518083038186803b158015610b3d57600080fd5b505afa158015610b51573d6000803e3d6000fd5b505050506040513d601f19601f82011682018060405250810190610b759190612dc9565b90508260030154811015610bbe576040517f08c379a0000000000000000000000000000000000000000000000000000000008152600401610bb590613610565b60405180910390fd5b818360040154610bce91906137c2565b421015610dc1576000610c04604051602001610be990613491565b60405160208183030381529060405280519060200120611fb3565b90503073ffffffffffffffffffffffffffffffffffffffff16630e5c011e826040518263ffffffff1660e01b8152600401610c3f91906134a6565b600060405180830381600087803b158015610c5957600080fd5b505af1158015610c6d573d6000803e3d6000fd5b5050505060018460070160006101000a81548160ff021916908315150217905550428460060181905550610ca5338560030154612280565b610cb38185600301546122fd565b3073ffffffffffffffffffffffffffffffffffffffff1663407ceabc826040518263ffffffff1660e01b8152600401610cec91906134a6565b600060405180830381600087803b158015610d0657600080fd5b505af1158015610d1a573d6000803e3d6000fd5b505050508360010160009054906101000a900460ff166002811115610d68577f4e487b7100000000000000000000000000000000000000000000000000000000600052602160045260246000fd5b883373ffffffffffffffffffffffffffffffffffffffff167f43eec05bb4a79b675f00c3c63df75f7f447f9c2bb41e8136e2e0e4228ab88bbb8760030154604051610db39190613670565b60405180910390a4506110ae565b60018360070160016101000a81548160ff021916908315150217905550610dec338460030154612280565b600086600a0160003373ffffffffffffffffffffffffffffffffffffffff1673ffffffffffffffffffffffffffffffffffffffff168152602001908152602001600020549050610e4984600201548261237a90919063ffffffff16565b87600a0160003373ffffffffffffffffffffffffffffffffffffffff1673ffffffffffffffffffffffffffffffffffffffff168152602001908152602001600020819055508573ffffffffffffffffffffffffffffffffffffffff1663a9059cbb3386600201546040518363ffffffff1660e01b8152600401610ecd9291906134f8565b602060405180830381600087803b158015610ee757600080fd5b505af1158015610efb573d6000803e3d6000fd5b505050506040513d601f19601f82011682018060405250810190610f1f9190612c4a565b50610f28612390565b610f428460010160009054906101000a900460ff16612473565b610fef846002015488600c0160008760010160009054906101000a900460ff166002811115610f9a577f4e487b7100000000000000000000000000000000000000000000000000000000600052602160045260246000fd5b6002811115610fd2577f4e487b7100000000000000000000000000000000000000000000000000000000600052602160045260246000fd5b81526020019081526020016000205461237a90919063ffffffff16565b87600c0160008660010160009054906101000a900460ff16600281111561103f577f4e487b7100000000000000000000000000000000000000000000000000000000600052602160045260246000fd5b6002811115611077577f4e487b7100000000000000000000000000000000000000000000000000000000600052602160045260246000fd5b8152602001908152602001600020819055506110a4846002015488600b015461237a90919063ffffffff16565b87600b0181905550505b600115156110bc338961255b565b151514156111615760006111068460010160009054906101000a900460ff166040516020016110eb91906135a2565b60405160208183030381529060405280519060200120612596565b905061115f8460010160009054906101000a900460ff1660405160200161112d91906135a2565b6040516020818303038152906040528051906020012061115a86600201548461237a90919063ffffffff16565b611f5b565b505b3073ffffffffffffffffffffffffffffffffffffffff1663407ceabc336040518263ffffffff1660e01b815260040161119a91906134a6565b600060405180830381600087803b1580156111b457600080fd5b505af11580156111c8573d6000803e3d6000fd5b505050506111d983600301546125c1565b7fbd51e7b85833294fa3b641f07baa1f34589b18c2ed25996c8949afa23cc6e2be33846002015485600301548a604051611216949392919061355d565b60405180910390a150505050505050565b61122f611ec0565b6112966040518060400160405280600b81526020017f6c6f636b5f706572696f640000000000000000000000000000000000000000008152508860405160200161127a929190613449565b6040516020818303038152906040528051906020012087611f5b565b6112fd6040518060400160405280600b81526020017f6c6f636b5f706572696f64000000000000000000000000000000000000000000815250886040516020016112e1929190613416565b6040516020818303038152906040528051906020012086611f5b565b6113646040518060400160405280600b81526020017f6c6f636b5f706572696f640000000000000000000000000000000000000000008152508860405160200161134892919061334a565b6040516020818303038152906040528051906020012085611f5b565b6113cb6040518060400160405280600b81526020017f6c6f636b5f706572696f64000000000000000000000000000000000000000000815250886040516020016113af92919061337d565b6040516020818303038152906040528051906020012084611f5b565b6114326040518060400160405280600b81526020017f6c6f636b5f706572696f64000000000000000000000000000000000000000000815250886040516020016114169291906133b0565b6040516020818303038152906040528051906020012083611f5b565b6114996040518060400160405280600b81526020017f6c6f636b5f706572696f640000000000000000000000000000000000000000008152508860405160200161147d9291906133e3565b6040516020818303038152906040528051906020012082611f5b565b50505050505050565b6000806000806000806114b487611ffe565b95509550955095509550955091939550919395565b60008060008060008060008060006114df611f86565b905080600b0154985080600c016000806002811115611527577f4e487b7100000000000000000000000000000000000000000000000000000000600052602160045260246000fd5b600281111561155f577f4e487b7100000000000000000000000000000000000000000000000000000000600052602160045260246000fd5b815260200190815260200160002054975080600c016000600160028111156115b0577f4e487b7100000000000000000000000000000000000000000000000000000000600052602160045260246000fd5b60028111156115e8577f4e487b7100000000000000000000000000000000000000000000000000000000600052602160045260246000fd5b815260200190815260200160002054965080600c016000600280811115611638577f4e487b7100000000000000000000000000000000000000000000000000000000600052602160045260246000fd5b6002811115611670577f4e487b7100000000000000000000000000000000000000000000000000000000600052602160045260246000fd5b81526020019081526020016000205495506116e56040518060400160405280600a81526020017f6c6f636b5f636f756e74000000000000000000000000000000000000000000008152506040516020016116ca919061330b565b60405160208183030381529060405280519060200120612596565b945061174e6040518060400160405280600a81526020017f6c6f636b5f636f756e74000000000000000000000000000000000000000000008152506000604051602001611733929190613322565b60405160208183030381529060405280519060200120612596565b93506117b76040518060400160405280600a81526020017f6c6f636b5f636f756e7400000000000000000000000000000000000000000000815250600160405160200161179c929190613322565b60405160208183030381529060405280519060200120612596565b92506118206040518060400160405280600a81526020017f6c6f636b5f636f756e74000000000000000000000000000000000000000000008152506002604051602001611805929190613322565b60405160208183030381529060405280519060200120612596565b9150509091929394959697565b600080611838611f86565b90508060090160008473ffffffffffffffffffffffffffffffffffffffff1673ffffffffffffffffffffffffffffffffffffffff16815260200190815260200160002054915050919050565b600061188e611f86565b905060008061189c85611ffe565b5050509250925050808410156118e7576040517f08c379a00000000000000000000000000000000000000000000000000000000081526004016118de906135d0565b60405180910390fd5b60006119166040516020016118fb9061347c565b60405160208183030381529060405280519060200120611fb3565b90508073ffffffffffffffffffffffffffffffffffffffff166323b872dd3330886040518463ffffffff1660e01b8152600401611955939291906134c1565b602060405180830381600087803b15801561196f57600080fd5b505af1158015611983573d6000803e3d6000fd5b505050506040513d601f19601f820116820180604052508101906119a79190612c4a565b5060006119d0600a6119c286896125f090919063ffffffff16565b61260690919063ffffffff16565b905060008560090160003373ffffffffffffffffffffffffffffffffffffffff1673ffffffffffffffffffffffffffffffffffffffff168152602001908152602001600020549050600086600a0160003373ffffffffffffffffffffffffffffffffffffffff1673ffffffffffffffffffffffffffffffffffffffff16815260200190815260200160002054905060003383604051602001611a739291906134f8565b6040516020818303038152906040528051906020012090506040518061012001604052808481526020018b6002811115611ad6577f4e487b7100000000000000000000000000000000000000000000000000000000600052602160045260246000fd5b81526020018a81526020018581526020014281526020016000815260200160008152602001600015158152602001600015158152508860080160008381526020019081526020016000206000820151816000015560208201518160010160006101000a81548160ff02191690836002811115611b7b577f4e487b7100000000000000000000000000000000000000000000000000000000600052602160045260246000fd5b021790555060408201518160020155606082015181600301556080820151816004015560a0820151816005015560c0820151816006015560e08201518160070160006101000a81548160ff0219169083151502179055506101008201518160070160016101000a81548160ff02191690831515021790555090505080838a7f4d59d3a90adc412330c80c1d7838fb3075658ced387b288fd1dc7ef2ea7a1f3d3388604051611c2a9291906134f8565b60405180910390a4611c4660018461261c90919063ffffffff16565b8860090160003373ffffffffffffffffffffffffffffffffffffffff1673ffffffffffffffffffffffffffffffffffffffff16815260200190815260200160002081905550611c9e898361261c90919063ffffffff16565b88600a0160003373ffffffffffffffffffffffffffffffffffffffff1673ffffffffffffffffffffffffffffffffffffffff16815260200190815260200160002081905550611ceb612632565b611cf48a612715565b611d8c8989600c0160008d6002811115611d37577f4e487b7100000000000000000000000000000000000000000000000000000000600052602160045260246000fd5b6002811115611d6f577f4e487b7100000000000000000000000000000000000000000000000000000000600052602160045260246000fd5b81526020019081526020016000205461261c90919063ffffffff16565b88600c0160008c6002811115611dcb577f4e487b7100000000000000000000000000000000000000000000000000000000600052602160045260246000fd5b6002811115611e03577f4e487b7100000000000000000000000000000000000000000000000000000000600052602160045260246000fd5b815260200190815260200160002081905550611e2c8989600b015461261c90919063ffffffff16565b88600b0181905550611e3e33856122fd565b611e47846127fd565b3073ffffffffffffffffffffffffffffffffffffffff166347e7ef2433866040518363ffffffff1660e01b8152600401611e829291906134f8565b600060405180830381600087803b158015611e9c57600080fd5b505af1158015611eb0573d6000803e3d6000fd5b5050505050505050505050505050565b611ec8611f86565b60030160009054906101000a900473ffffffffffffffffffffffffffffffffffffffff1673ffffffffffffffffffffffffffffffffffffffff163373ffffffffffffffffffffffffffffffffffffffff1614611f59576040517f08c379a0000000000000000000000000000000000000000000000000000000008152600401611f50906135f0565b60405180910390fd5b565b6000611f65611f86565b90508181600401600085815260200190815260200160002081905550505050565b6000807fc8fcad8db84d3cc18b4c41d551ea0ee66dd599cde068d998e57d5e09332c131c90508091505090565b600080611fbe611f86565b905080600501600084815260200190815260200160002060009054906101000a900473ffffffffffffffffffffffffffffffffffffffff16915050919050565b60008060008060008061206d6040518060400160405280600b81526020017f6c6f636b5f706572696f6400000000000000000000000000000000000000000081525088604051602001612052929190613449565b60405160208183030381529060405280519060200120612596565b95506120d56040518060400160405280600b81526020017f6c6f636b5f706572696f64000000000000000000000000000000000000000000815250886040516020016120ba929190613416565b60405160208183030381529060405280519060200120612596565b945061213d6040518060400160405280600b81526020017f6c6f636b5f706572696f640000000000000000000000000000000000000000008152508860405160200161212292919061334a565b60405160208183030381529060405280519060200120612596565b93506121a56040518060400160405280600b81526020017f6c6f636b5f706572696f640000000000000000000000000000000000000000008152508860405160200161218a92919061337d565b60405160208183030381529060405280519060200120612596565b925061220d6040518060400160405280600b81526020017f6c6f636b5f706572696f64000000000000000000000000000000000000000000815250886040516020016121f29291906133b0565b60405160208183030381529060405280519060200120612596565b91506122756040518060400160405280600b81526020017f6c6f636b5f706572696f640000000000000000000000000000000000000000008152508860405160200161225a9291906133e3565b60405160208183030381529060405280519060200120612596565b905091939550919395565b6122898161282c565b612293828261285b565b600073ffffffffffffffffffffffffffffffffffffffff168273ffffffffffffffffffffffffffffffffffffffff167fddf252ad1be2c89b69c2b068fc378daa952ba7f163c4a11628f55a4df523b3ef836040516122f19190613670565b60405180910390a35050565b61230681612905565b6123108282612934565b8173ffffffffffffffffffffffffffffffffffffffff16600073ffffffffffffffffffffffffffffffffffffffff167fddf252ad1be2c89b69c2b068fc378daa952ba7f163c4a11628f55a4df523b3ef8360405161236e9190613670565b60405180910390a35050565b6000818361238891906138a3565b905092915050565b60006123f66040518060400160405280600a81526020017f6c6f636b5f636f756e74000000000000000000000000000000000000000000008152506040516020016123db919061330b565b60405160208183030381529060405280519060200120612596565b90506124706040518060400160405280600a81526020017f6c6f636b5f636f756e7400000000000000000000000000000000000000000000815250604051602001612441919061330b565b6040516020818303038152906040528051906020012061246b60018461237a90919063ffffffff16565b611f5b565b50565b60006124db6040518060400160405280600a81526020017f6c6f636b5f636f756e7400000000000000000000000000000000000000000000815250836040516020016124c0929190613322565b60405160208183030381529060405280519060200120612596565b90506125576040518060400160405280600a81526020017f6c6f636b5f636f756e740000000000000000000000000000000000000000000081525083604051602001612528929190613322565b6040516020818303038152906040528051906020012061255260018461237a90919063ffffffff16565b611f5b565b5050565b600061258e8383604051602001612573929190613521565b604051602081830303815290604052805190602001206129de565b905092915050565b6000806125a1611f86565b905080600401600084815260200190815260200160002054915050919050565b60006125cb611f86565b90506125e48282600f015461261c90919063ffffffff16565b81600f01819055505050565b600081836125fe9190613849565b905092915050565b600081836126149190613818565b905092915050565b6000818361262a91906137c2565b905092915050565b60006126986040518060400160405280600a81526020017f6c6f636b5f636f756e740000000000000000000000000000000000000000000081525060405160200161267d919061330b565b60405160208183030381529060405280519060200120612596565b90506127126040518060400160405280600a81526020017f6c6f636b5f636f756e74000000000000000000000000000000000000000000008152506040516020016126e3919061330b565b6040516020818303038152906040528051906020012061270d60018461261c90919063ffffffff16565b611f5b565b50565b600061277d6040518060400160405280600a81526020017f6c6f636b5f636f756e740000000000000000000000000000000000000000000081525083604051602001612762929190613322565b60405160208183030381529060405280519060200120612596565b90506127f96040518060400160405280600a81526020017f6c6f636b5f636f756e7400000000000000000000000000000000000000000000815250836040516020016127ca929190613322565b604051602081830303815290604052805190602001206127f460018461261c90919063ffffffff16565b611f5b565b5050565b6000612807611f86565b90506128208282600e015461261c90919063ffffffff16565b81600e01819055505050565b6000612836611f86565b905061284f8282600d015461237a90919063ffffffff16565b81600d01819055505050565b6000612865611f86565b90506128bb828260100160008673ffffffffffffffffffffffffffffffffffffffff1673ffffffffffffffffffffffffffffffffffffffff1681526020019081526020016000205461237a90919063ffffffff16565b8160100160008573ffffffffffffffffffffffffffffffffffffffff1673ffffffffffffffffffffffffffffffffffffffff16815260200190815260200160002081905550505050565b600061290f611f86565b90506129288282600d015461261c90919063ffffffff16565b81600d01819055505050565b600061293e611f86565b9050612994828260100160008673ffffffffffffffffffffffffffffffffffffffff1673ffffffffffffffffffffffffffffffffffffffff1681526020019081526020016000205461261c90919063ffffffff16565b8160100160008573ffffffffffffffffffffffffffffffffffffffff1673ffffffffffffffffffffffffffffffffffffffff16815260200190815260200160002081905550505050565b6000806129e9611f86565b905080600701600084815260200190815260200160002060009054906101000a900460ff16915050919050565b600081359050612a2581613a66565b92915050565b600081519050612a3a81613a7d565b92915050565b600081359050612a4f81613a94565b92915050565b60006102408284031215612a6857600080fd5b612a7361024061376a565b90506000612a8384828501612bf7565b6000830152506020612a9784828501612bf7565b6020830152506040612aab84828501612bf7565b6040830152506060612abf84828501612bf7565b6060830152506080612ad384828501612bf7565b60808301525060a0612ae784828501612bf7565b60a08301525060c0612afb84828501612bf7565b60c08301525060e0612b0f84828501612bf7565b60e083015250610100612b2484828501612bf7565b61010083015250610120612b3a84828501612bf7565b61012083015250610140612b5084828501612bf7565b61014083015250610160612b6684828501612bf7565b61016083015250610180612b7c84828501612bf7565b610180830152506101a0612b9284828501612bf7565b6101a0830152506101c0612ba884828501612bf7565b6101c0830152506101e0612bbe84828501612bf7565b6101e083015250610200612bd484828501612bf7565b61020083015250610220612bea84828501612bf7565b6102208301525092915050565b600081359050612c0681613aa4565b92915050565b600081519050612c1b81613aa4565b92915050565b600060208284031215612c3357600080fd5b6000612c4184828501612a16565b91505092915050565b600060208284031215612c5c57600080fd5b6000612c6a84828501612a2b565b91505092915050565b600060208284031215612c8557600080fd5b6000612c9384828501612a40565b91505092915050565b60008060408385031215612caf57600080fd5b6000612cbd85828601612a40565b9250506020612cce85828601612bf7565b9150509250929050565b600080600080600080600060e0888a031215612cf357600080fd5b6000612d018a828b01612a40565b9750506020612d128a828b01612bf7565b9650506040612d238a828b01612bf7565b9550506060612d348a828b01612bf7565b9450506080612d458a828b01612bf7565b93505060a0612d568a828b01612bf7565b92505060c0612d678a828b01612bf7565b91505092959891949750929550565b60006102408284031215612d8957600080fd5b6000612d9784828501612a55565b91505092915050565b600060208284031215612db257600080fd5b6000612dc084828501612bf7565b91505092915050565b600060208284031215612ddb57600080fd5b6000612de984828501612c0c565b91505092915050565b612dfb816138d7565b82525050565b612e0a81613932565b82525050565b612e21612e1c82613932565b613977565b82525050565b6000612e328261379b565b612e3c81856137b7565b9350612e4c818560208601613944565b80840191505092915050565b6000612e656007836137b7565b91507f6d696e696d756d000000000000000000000000000000000000000000000000006000830152600782019050919050565b6000612ea5602b836137a6565b91507f5646696e69783a204d696e696d756d20616d6f756e7420726571756972656d6560008301527f6e74206e6f74206d65742e0000000000000000000000000000000000000000006020830152604082019050919050565b6000612f0b6023836137a6565b91507f7666696e69782e546f705570466561747572652e546f74616c4c6f636b2e6c6560008301527f76656c00000000000000000000000000000000000000000000000000000000006020830152604082019050919050565b6000612f716022836137a6565b91507f4c69624469616d6f6e643a204d75737420626520636f6e7472616374206f776e60008301527f65720000000000000000000000000000000000000000000000000000000000006020830152604082019050919050565b6000612fd7600d836137b7565b91507f70656e616c7479506572696f64000000000000000000000000000000000000006000830152600d82019050919050565b6000613017600b836137b7565b91507f70656e616c7479526174650000000000000000000000000000000000000000006000830152600b82019050919050565b6000613057602a836137a6565b91507f5646696e69785661756c743a204e6f7420656e6f756768207646696e6978207460008301527f6f207769746864726177000000000000000000000000000000000000000000006020830152604082019050919050565b60006130bd6005836137b7565b91507f46494e49580000000000000000000000000000000000000000000000000000006000830152600582019050919050565b60006130fd602c836137a6565b91507f7646696e69785661756c743a20546869732068617320616c726561647920626560008301527f656e20756e6c6f636b65642e00000000000000000000000000000000000000006020830152604082019050919050565b60006131636012836137b7565b91507f70656e616c747952617465446563696d616c00000000000000000000000000006000830152601282019050919050565b60006131a3601f836137a6565b91507f7666696e69782e546f705570466561747572652e69734c6f636b546f705570006000830152602082019050919050565b60006131e3600a836137b7565b91507f6d756c7469706c696572000000000000000000000000000000000000000000006000830152600a82019050919050565b60006132236006836137b7565b91507f706572696f6400000000000000000000000000000000000000000000000000006000830152600682019050919050565b6000613263601e836137b7565b91507f5661756c7450656e616c747946616365742e6275726e5f6164647265737300006000830152601e82019050919050565b60006132a36022836137a6565b91507f5646696e69785661756c743a20596f7520617265206265696e672070656e616c60008301527f74790000000000000000000000000000000000000000000000000000000000006020830152604082019050919050565b61330581613928565b82525050565b60006133178284612e27565b915081905092915050565b600061332e8285612e27565b915061333a8284612e10565b6001820191508190509392505050565b60006133568285612e27565b91506133628284612e10565b60018201915061337182612e58565b91508190509392505050565b60006133898285612e27565b91506133958284612e10565b6001820191506133a482612fca565b91508190509392505050565b60006133bc8285612e27565b91506133c88284612e10565b6001820191506133d78261300a565b91508190509392505050565b60006133ef8285612e27565b91506133fb8284612e10565b60018201915061340a82613156565b91508190509392505050565b60006134228285612e27565b915061342e8284612e10565b60018201915061343d826131d6565b91508190509392505050565b60006134558285612e27565b91506134618284612e10565b60018201915061347082613216565b91508190509392505050565b6000613487826130b0565b9150819050919050565b600061349c82613256565b9150819050919050565b60006020820190506134bb6000830184612df2565b92915050565b60006060820190506134d66000830186612df2565b6134e36020830185612df2565b6134f060408301846132fc565b949350505050565b600060408201905061350d6000830185612df2565b61351a60208301846132fc565b9392505050565b60006060820190506135366000830185612df2565b61354360208301846132fc565b818103604083015261355481613196565b90509392505050565b60006080820190506135726000830187612df2565b61357f60208301866132fc565b61358c60408301856132fc565b61359960608301846132fc565b95945050505050565b60006040820190506135b76000830184612e01565b81810360208301526135c881612efe565b905092915050565b600060208201905081810360008301526135e981612e98565b9050919050565b6000602082019050818103600083015261360981612f64565b9050919050565b600060208201905081810360008301526136298161304a565b9050919050565b60006020820190508181036000830152613649816130f0565b9050919050565b6000602082019050818103600083015261366981613296565b9050919050565b600060208201905061368560008301846132fc565b92915050565b600060c0820190506136a060008301896132fc565b6136ad60208301886132fc565b6136ba60408301876132fc565b6136c760608301866132fc565b6136d460808301856132fc565b6136e160a08301846132fc565b979650505050505050565b600061010082019050613702600083018b6132fc565b61370f602083018a6132fc565b61371c60408301896132fc565b61372960608301886132fc565b61373660808301876132fc565b61374360a08301866132fc565b61375060c08301856132fc565b61375d60e08301846132fc565b9998505050505050505050565b6000604051905081810181811067ffffffffffffffff8211171561379157613790613a16565b5b8060405250919050565b600081519050919050565b600082825260208201905092915050565b600081905092915050565b60006137cd82613928565b91506137d883613928565b9250827fffffffffffffffffffffffffffffffffffffffffffffffffffffffffffffffff0382111561380d5761380c613989565b5b828201905092915050565b600061382382613928565b915061382e83613928565b92508261383e5761383d6139b8565b5b828204905092915050565b600061385482613928565b915061385f83613928565b9250817fffffffffffffffffffffffffffffffffffffffffffffffffffffffffffffffff048311821515161561389857613897613989565b5b828202905092915050565b60006138ae82613928565b91506138b983613928565b9250828210156138cc576138cb613989565b5b828203905092915050565b60006138e282613908565b9050919050565b60008115159050919050565b600081905061390382613a52565b919050565b600073ffffffffffffffffffffffffffffffffffffffff82169050919050565b6000819050919050565b600061393d826138f5565b9050919050565b60005b83811015613962578082015181840152602081019050613947565b83811115613971576000848401525b50505050565b600061398282613a45565b9050919050565b7f4e487b7100000000000000000000000000000000000000000000000000000000600052601160045260246000fd5b7f4e487b7100000000000000000000000000000000000000000000000000000000600052601260045260246000fd5b7f4e487b7100000000000000000000000000000000000000000000000000000000600052602160045260246000fd5b7f4e487b7100000000000000000000000000000000000000000000000000000000600052604160045260246000fd5b60008160f81b9050919050565b60038110613a6357613a626139e7565b5b50565b613a6f816138d7565b8114613a7a57600080fd5b50565b613a86816138e9565b8114613a9157600080fd5b50565b60038110613aa157600080fd5b50565b613aad81613928565b8114613ab857600080fd5b5056fea2646970667358221220f1adcfa8f1496d5f0cbd62791ddaf12a42b92b13e86f86503e19cd970f51c98364736f6c63430008000033",
  "immutableReferences": {},
  "source": "// SPDX-License-Identifier: MIT\npragma solidity ^0.8.0;\n\nimport { LibDiamond } from \"../libraries/LibDiamond.sol\";\nimport \"../interfaces/IVaultFacet.sol\";\nimport \"../interfaces/IKIP7.sol\";\nimport \"../utils/math/SafeMath.sol\";\nimport \"../interfaces/IUsageFacet.sol\";\nimport \"../interfaces/IRewardFacet.sol\";\n\n\ncontract VaultFacet is IVaultFacet{\n    using SafeMath for uint256;\n\n    uint256 constant private MULTIPLIER_DIVISOR = 10;\n    string constant private KEY_LOCK_PERIOD = \"lock_period\";\n    string constant private KEY_LOCK_COUNT = \"lock_count\";\n\n    function lockCount(address _user) external override view returns(uint256) {\n        LibDiamond.DiamondStorage storage ds = LibDiamond.diamondStorage();\n        return ds.userLocksCount[_user];\n    }\n\n    \n    event FinixLock(address _user,uint256 indexed _lockAmount,uint256 _vFinixAmount,uint256 indexed _lockIndex,bytes32 indexed _lockKey);\n    function lock(LibDiamond.LockLevel _level,uint256 _lockAmount) external override {\n        LibDiamond.DiamondStorage storage ds = LibDiamond.diamondStorage();\n        (,uint256 multiplier_,uint256 minimum_, , , ) = _getLockPerioid(_level);\n        require(_lockAmount >= minimum_,\"VFinix: Minimum amount requirement not met.\");\n        address FINIX = LibDiamond.getAddress(keccak256(abi.encodePacked(\"FINIX\")));\n        IKIP7(FINIX).transferFrom(msg.sender, address(this), _lockAmount);\n        // Calculate vFINIX return\n        uint256 vFinixAmount = _lockAmount.mul(multiplier_).div(MULTIPLIER_DIVISOR);\n\n        uint256 userLocksCount_ = ds.userLocksCount[msg.sender];\n        uint256 userLocksAmount_ = ds.userLocksAmount[msg.sender];\n        bytes32 key = keccak256(abi.encode(msg.sender,userLocksCount_));\n        ds.locksMap[key] = LibDiamond.LockInfo(userLocksCount_,_level,_lockAmount,vFinixAmount,block.timestamp,0,0,false,false);\n        emit FinixLock(msg.sender,_lockAmount,vFinixAmount,userLocksCount_,key);\n        \n        ds.userLocksCount[msg.sender] = userLocksCount_.add(1);\n        ds.userLocksAmount[msg.sender] = userLocksAmount_.add(_lockAmount);\n        _increaseTotalLockCount();\n        _increaseTotalLevelLockCount(_level);\n        // update lock data\n        ds.totalFinixLockAtLevel[_level] = ds.totalFinixLockAtLevel[_level].add(_lockAmount);\n        ds.totalFinixLock = ds.totalFinixLock.add(_lockAmount);\n        // Harvest if applicable\n        // IRewardFacet(address(this)).harvest(msg.sender);\n        // mint vFINIX\n        _mintVFinix(msg.sender, vFinixAmount);\n        _increaseTotalSupplyAllTimeMint(vFinixAmount);\n\n        // mark deposit\n        IRewardFacet(address(this)).deposit(msg.sender,vFinixAmount);\n    }\n    event finixUnlock(address _user,uint256  _finixTranferAmount,uint256  _vfinixBurnAmount,uint256  _unlockIndex);\n    event finixUnlockPenalty(address indexed _user, uint256 indexed _unlockIndex, LibDiamond.LockLevel indexed _level, uint256 _vfinixBurnAmount);\n\n    function unlock(uint256 _lockIndex) external override {\n        LibDiamond.DiamondStorage storage ds = LibDiamond.diamondStorage();\n        // Get FINIX Address from Eternal Storage\n        address FINIX = LibDiamond.getAddress(\n            keccak256(abi.encodePacked(\"FINIX\"))\n        );\n        // TDO: Yield Operation\n        IRewardFacet(address(this)).harvest(msg.sender);\n    \n        // Get Lock info\n        bytes32 key = keccak256(abi.encode(msg.sender, _lockIndex));\n        LibDiamond.LockInfo storage lockInfo_ = ds.locksMap[key];\n        \n        require(lockInfo_.isPenalty == false,\"VFinixVault: You are being penalty\");\n\n        require(\n            lockInfo_.isUnlocked == false,\n            \"vFinixVault: This has already been unlocked.\"\n        );\n        \n        // Check ending period\n        (uint256 period_, , , , ,) = _getLockPerioid(lockInfo_.level);\n        // TO FIX LOGIC\n        // require(block.timestamp > lockInfo_.lockTimestamp + period_,\"vFinixVault: Lock period is not ended yet.\");\n        // Check for available vFinix from all farms and pools staking\n        uint256 availableVotes = IUsageFacet(address(this)).getAvailableVotes(msg.sender);\n        \n        require(availableVotes >= lockInfo_.voteAmount,\"VFinixVault: Not enough vFinix to withdraw\");\n        \n        if (block.timestamp < lockInfo_.lockTimestamp + period_) {\n            // ((((lockInfo_.lockTimestamp + period_) - block.timestamp) * 10) / 86400 )/10; // \n                address burnAddress = LibDiamond.getAddress(keccak256(abi.encodePacked(\"VaultPenaltyFacet.burn_address\")));\n                IRewardFacet(address(this)).harvest(burnAddress);\n                lockInfo_.isPenalty = true;\n                lockInfo_.penaltyUnlockTimestamp = block.timestamp;\n                _burnVFinix(msg.sender, lockInfo_.voteAmount);\n                _mintVFinix(burnAddress, lockInfo_.voteAmount);\n                IRewardFacet(address(this)).updateUserDebt(burnAddress);\n                emit finixUnlockPenalty(msg.sender, _lockIndex, lockInfo_.level, lockInfo_.voteAmount);\n       }else {\n            // Mark Unlock\n            lockInfo_.isUnlocked = true;\n            // Burn vFinix\n            _burnVFinix(msg.sender, lockInfo_.voteAmount);\n            \n            // Decreaase total Lock Amount\n            uint256 userLocksAmount_ = ds.userLocksAmount[msg.sender];\n            ds.userLocksAmount[msg.sender] = userLocksAmount_.sub(lockInfo_.lockAmount);\n            // Transfer back FINIX\n            IKIP7(FINIX).transfer(msg.sender, lockInfo_.lockAmount);\n            // update lock data\n            _decreaseTotalLockCount();\n            _decreaseTotalLevelLockCount(lockInfo_.level);\n            ds.totalFinixLockAtLevel[lockInfo_.level] = ds.totalFinixLockAtLevel[lockInfo_.level].sub(lockInfo_.lockAmount);\n            ds.totalFinixLock = ds.totalFinixLock.sub(lockInfo_.lockAmount);   \n            \n        }\n\n        // decrease lock plus level\n        if(getIsLockTopUp(msg.sender,_lockIndex) == true){\n            uint256 _totalLockPlus = LibDiamond.getUint(keccak256(abi.encode(lockInfo_.level,\"vfinix.TopUpFeature.TotalLock.level\")));\n            LibDiamond.setUint(keccak256(abi.encode(lockInfo_.level,\"vfinix.TopUpFeature.TotalLock.level\")),_totalLockPlus.sub(lockInfo_.lockAmount));\n        }\n        IRewardFacet(address(this)).updateUserDebt(msg.sender);\n        _increaseTotalSupplyAllTimeBurn(lockInfo_.voteAmount);\n\n        emit finixUnlock(msg.sender,lockInfo_.lockAmount,lockInfo_.voteAmount,_lockIndex);\n    }\n    \n    function getIsLockTopUp(address _user,uint256 userLocksCount_) internal view returns(bool) {\n        return LibDiamond.getBool(keccak256(abi.encode(_user,userLocksCount_,\"vfinix.TopUpFeature.isLockTopUp\")));\n    }\n  \n    function getTotalFinixLock() public override view returns(\n        uint256 totalFinixLock_,\n        uint256 totalFinixLockAtLevel1_,\n        uint256 totalFinixLockAtLevel2_,\n        uint256 totalFinixLockAtLevel3_,\n        uint256 totalLockCount_,\n        uint256 totalLockLevel1Count_,\n        uint256 totalLockLevel2Count_,\n        uint256 totalLockLevel3Count_) {\n\n        // \n        LibDiamond.DiamondStorage storage ds = LibDiamond.diamondStorage();\n        totalFinixLock_ = ds.totalFinixLock;\n        totalFinixLockAtLevel1_ = ds.totalFinixLockAtLevel[LibDiamond.LockLevel.Level1];\n        totalFinixLockAtLevel2_ = ds.totalFinixLockAtLevel[LibDiamond.LockLevel.Level2];\n        totalFinixLockAtLevel3_ = ds.totalFinixLockAtLevel[LibDiamond.LockLevel.Level3];\n        totalLockCount_ = LibDiamond.getUint(keccak256(abi.encodePacked(KEY_LOCK_COUNT)));\n        totalLockLevel1Count_ = LibDiamond.getUint(keccak256(abi.encodePacked(KEY_LOCK_COUNT,LibDiamond.LockLevel.Level1)));\n        totalLockLevel2Count_ = LibDiamond.getUint(keccak256(abi.encodePacked(KEY_LOCK_COUNT,LibDiamond.LockLevel.Level2)));\n        totalLockLevel3Count_ = LibDiamond.getUint(keccak256(abi.encodePacked(KEY_LOCK_COUNT,LibDiamond.LockLevel.Level3)));\n    }\n\n   \n    function setUpLockPeriods(\n        LibDiamond.ParamLockPeriods memory param_\n    ) external override {\n        LibDiamond.enforceIsContractOwner();\n\n        LibDiamond.setUint(keccak256(abi.encodePacked(KEY_LOCK_PERIOD,LibDiamond.LockLevel.Level1,\"period\")),param_._period1);\n        LibDiamond.setUint(keccak256(abi.encodePacked(KEY_LOCK_PERIOD,LibDiamond.LockLevel.Level1,\"multiplier\")),param_._multiplier1);\n        LibDiamond.setUint(keccak256(abi.encodePacked(KEY_LOCK_PERIOD,LibDiamond.LockLevel.Level1,\"minimum\")),param_._minimum1);\n        LibDiamond.setUint(keccak256(abi.encodePacked(KEY_LOCK_PERIOD,LibDiamond.LockLevel.Level1,\"penaltyPeriod\")),param_._penaltyPeriod1);\n        LibDiamond.setUint(keccak256(abi.encodePacked(KEY_LOCK_PERIOD,LibDiamond.LockLevel.Level1,\"penaltyRate\")),param_._penaltyRate1);\n        LibDiamond.setUint(keccak256(abi.encodePacked(KEY_LOCK_PERIOD,LibDiamond.LockLevel.Level1,\"penaltyRateDecimal\")),param_._penaltyRateDecimal1);\n\n        LibDiamond.setUint(keccak256(abi.encodePacked(KEY_LOCK_PERIOD,LibDiamond.LockLevel.Level2,\"period\")),param_._period2);\n        LibDiamond.setUint(keccak256(abi.encodePacked(KEY_LOCK_PERIOD,LibDiamond.LockLevel.Level2,\"multiplier\")),param_._multiplier2);\n        LibDiamond.setUint(keccak256(abi.encodePacked(KEY_LOCK_PERIOD,LibDiamond.LockLevel.Level2,\"minimum\")),param_._minimum2);\n        LibDiamond.setUint(keccak256(abi.encodePacked(KEY_LOCK_PERIOD,LibDiamond.LockLevel.Level2,\"penaltyPeriod\")),param_._penaltyPeriod2);\n        LibDiamond.setUint(keccak256(abi.encodePacked(KEY_LOCK_PERIOD,LibDiamond.LockLevel.Level2,\"penaltyRate\")),param_._penaltyRate2);\n        LibDiamond.setUint(keccak256(abi.encodePacked(KEY_LOCK_PERIOD,LibDiamond.LockLevel.Level2,\"penaltyRateDecimal\")),param_._penaltyRateDecimal2);\n\n        LibDiamond.setUint(keccak256(abi.encodePacked(KEY_LOCK_PERIOD,LibDiamond.LockLevel.Level3,\"period\")),param_._period3);\n        LibDiamond.setUint(keccak256(abi.encodePacked(KEY_LOCK_PERIOD,LibDiamond.LockLevel.Level3,\"multiplier\")),param_._multiplier3);\n        LibDiamond.setUint(keccak256(abi.encodePacked(KEY_LOCK_PERIOD,LibDiamond.LockLevel.Level3,\"minimum\")),param_._minimum3);\n        LibDiamond.setUint(keccak256(abi.encodePacked(KEY_LOCK_PERIOD,LibDiamond.LockLevel.Level3,\"penaltyPeriod\")),param_._penaltyPeriod3);\n        LibDiamond.setUint(keccak256(abi.encodePacked(KEY_LOCK_PERIOD,LibDiamond.LockLevel.Level3,\"penaltyRate\")),param_._penaltyRate3);\n        LibDiamond.setUint(keccak256(abi.encodePacked(KEY_LOCK_PERIOD,LibDiamond.LockLevel.Level3,\"penaltyRateDecimal\")),param_._penaltyRateDecimal3);\n    }\n\n    function setLockPeriod(LibDiamond.LockLevel _level,uint256 _period,uint256 _multiplier,uint256 _mininum,uint256 _penaltyPeriod,uint256 _penaltyRate,uint256 _penaltyRateDecimal) external override {\n        LibDiamond.enforceIsContractOwner();\n        LibDiamond.setUint(keccak256(abi.encodePacked(KEY_LOCK_PERIOD,_level,\"period\")),_period);\n        LibDiamond.setUint(keccak256(abi.encodePacked(KEY_LOCK_PERIOD,_level,\"multiplier\")),_multiplier);\n        LibDiamond.setUint(keccak256(abi.encodePacked(KEY_LOCK_PERIOD,_level,\"minimum\")),_mininum);\n        LibDiamond.setUint(keccak256(abi.encodePacked(KEY_LOCK_PERIOD,_level,\"penaltyPeriod\")),_penaltyPeriod);\n        LibDiamond.setUint(keccak256(abi.encodePacked(KEY_LOCK_PERIOD,_level,\"penaltyRate\")),_penaltyRate);\n        LibDiamond.setUint(keccak256(abi.encodePacked(KEY_LOCK_PERIOD,_level,\"penaltyRateDecimal\")),_penaltyRateDecimal);\n    }\n    function getLockPeriod(LibDiamond.LockLevel _level) external override view returns(uint256 period_,uint256 multiplier_,uint256 minimum_,uint256 penaltyPeriod_,uint256 penaltyRate_,uint256 penaltyRateDecimal_) {\n        return _getLockPerioid(_level);\n    }\n\n    function _getLockPerioid(LibDiamond.LockLevel _level) internal view returns(uint256 period_,uint256 multiplier_,uint256 minimum_,uint256 penaltyPeriod_,uint256 penaltyRate_,uint256 penaltyRateDecimal_) {\n        period_ = LibDiamond.getUint(keccak256(abi.encodePacked(KEY_LOCK_PERIOD,_level,\"period\")));\n        multiplier_ = LibDiamond.getUint(keccak256(abi.encodePacked(KEY_LOCK_PERIOD,_level,\"multiplier\")));\n        minimum_ = LibDiamond.getUint(keccak256(abi.encodePacked(KEY_LOCK_PERIOD,_level,\"minimum\")));\n        penaltyPeriod_ = LibDiamond.getUint(keccak256(abi.encodePacked(KEY_LOCK_PERIOD,_level,\"penaltyPeriod\")));\n        penaltyRate_ = LibDiamond.getUint(keccak256(abi.encodePacked(KEY_LOCK_PERIOD,_level,\"penaltyRate\")));\n        penaltyRateDecimal_ = LibDiamond.getUint(keccak256(abi.encodePacked(KEY_LOCK_PERIOD,_level,\"penaltyRateDecimal\")));\n    }\n    function _increaseTotalSupplyAllTimeMint(uint256 _amount) internal {\n        LibDiamond.DiamondStorage storage ds = LibDiamond.diamondStorage();\n        ds.totalSupplyAllTimeMint = ds.totalSupplyAllTimeMint.add(_amount);\n    }\n    function _increaseTotalSupplyAllTimeBurn(uint256 _amount) internal {\n        LibDiamond.DiamondStorage storage ds = LibDiamond.diamondStorage();\n        ds.totalSupplyAllTimeBurn = ds.totalSupplyAllTimeBurn.add(_amount);\n\n    }\n    function _mintVFinix(address _holder,uint256 _amount) internal {\n        LibDiamond.increaseTotalSupply(_amount);\n        LibDiamond.increaseBalance(_holder,_amount);\n        emit LibDiamond.Transfer(address(0), _holder, _amount);\n    }\n\n    function _burnVFinix(address _holder,uint256 _amount) internal {\n        LibDiamond.decreaseTotalSupply(_amount);\n        LibDiamond.decreaseBalance(_holder, _amount);\n        emit LibDiamond.Transfer(_holder, address(0), _amount);\n    } \n\n    function _increaseTotalLockCount() internal  {\n        uint256 totalLockCount = LibDiamond.getUint(keccak256(abi.encodePacked(KEY_LOCK_COUNT)));\n        LibDiamond.setUint(keccak256(abi.encodePacked(KEY_LOCK_COUNT)),totalLockCount.add(1));\n    }\n   \n\n    function _increaseTotalLevelLockCount(LibDiamond.LockLevel _level) internal  {\n        uint256 totalLockCount = LibDiamond.getUint(keccak256(abi.encodePacked(KEY_LOCK_COUNT,_level)));\n        LibDiamond.setUint(keccak256(abi.encodePacked(KEY_LOCK_COUNT,_level)),totalLockCount.add(1));\n    }\n\n     function _decreaseTotalLockCount() internal  {\n        uint256 totalLockCount = LibDiamond.getUint(keccak256(abi.encodePacked(KEY_LOCK_COUNT)));\n        LibDiamond.setUint(keccak256(abi.encodePacked(KEY_LOCK_COUNT)),totalLockCount.sub(1));\n    }\n\n    function _decreaseTotalLevelLockCount(LibDiamond.LockLevel _level) internal  {\n        uint256 totalLockCount = LibDiamond.getUint(keccak256(abi.encodePacked(KEY_LOCK_COUNT,_level)));\n        LibDiamond.setUint(keccak256(abi.encodePacked(KEY_LOCK_COUNT,_level)),totalLockCount.sub(1));\n    }\n\n}\n",
  "sourcePath": "/Users/kanthakarn/Documents/work/six-network/definix-vfinix/contracts/facets/VaultFacet.sol",
  "compiler": {
    "name": "solc",
    "version": "0.8.0+commit.c7dfd78e.Emscripten.clang"
  },
  "schemaVersion": "3.4.1",
  "updatedAt": "2021-12-08T05:19:39.662Z",
  "networkType": "ethereum",
  "devdoc": {
    "kind": "dev",
    "methods": {},
    "version": 1
  },
  "userdoc": {
    "kind": "user",
    "methods": {},
    "version": 1
  }
}