{
  "contractName": "VaultFacet",
  "abi": [
    {
      "anonymous": false,
      "inputs": [
        {
          "indexed": false,
          "internalType": "address",
          "name": "_user",
          "type": "address"
        },
        {
          "indexed": true,
          "internalType": "uint256",
          "name": "_lockAmount",
          "type": "uint256"
        },
        {
          "indexed": false,
          "internalType": "uint256",
          "name": "_vFinixAmount",
          "type": "uint256"
        },
        {
          "indexed": true,
          "internalType": "uint256",
          "name": "_lockIndex",
          "type": "uint256"
        },
        {
          "indexed": true,
          "internalType": "bytes32",
          "name": "_lockKey",
          "type": "bytes32"
        }
      ],
      "name": "FinixLock",
      "type": "event"
    },
    {
      "anonymous": false,
      "inputs": [
        {
          "indexed": false,
          "internalType": "address",
          "name": "_user",
          "type": "address"
        },
        {
          "indexed": false,
          "internalType": "uint256",
          "name": "_finixTranferAmount",
          "type": "uint256"
        },
        {
          "indexed": false,
          "internalType": "uint256",
          "name": "_vfinixBurnAmount",
          "type": "uint256"
        },
        {
          "indexed": false,
          "internalType": "uint256",
          "name": "_unlockIndex",
          "type": "uint256"
        }
      ],
      "name": "finixUnlock",
      "type": "event"
    },
    {
      "inputs": [
        {
          "internalType": "address",
          "name": "_user",
          "type": "address"
        }
      ],
      "name": "lockCount",
      "outputs": [
        {
          "internalType": "uint256",
          "name": "",
          "type": "uint256"
        }
      ],
      "stateMutability": "view",
      "type": "function",
      "constant": true
    },
    {
      "inputs": [
        {
          "internalType": "address",
          "name": "_user",
          "type": "address"
        },
        {
          "internalType": "uint256",
          "name": "_startIndex",
          "type": "uint256"
        },
        {
          "internalType": "uint256",
          "name": "_endIndex",
          "type": "uint256"
        }
      ],
      "name": "locks",
      "outputs": [
        {
          "components": [
            {
              "internalType": "uint256",
              "name": "id",
              "type": "uint256"
            },
            {
              "internalType": "enum LibDiamond.LockLevel",
              "name": "level",
              "type": "uint8"
            },
            {
              "internalType": "uint256",
              "name": "lockAmount",
              "type": "uint256"
            },
            {
              "internalType": "uint256",
              "name": "voteAmount",
              "type": "uint256"
            },
            {
              "internalType": "uint256",
              "name": "lockTimestamp",
              "type": "uint256"
            },
            {
              "internalType": "uint256",
              "name": "penaltyFinixAmount",
              "type": "uint256"
            },
            {
              "internalType": "uint256",
              "name": "penaltyUnlockTimestamp",
              "type": "uint256"
            },
            {
              "internalType": "bool",
              "name": "isPenalty",
              "type": "bool"
            },
            {
              "internalType": "bool",
              "name": "isUnlocked",
              "type": "bool"
            }
          ],
          "internalType": "struct LibDiamond.LockInfo[]",
          "name": "locks_",
          "type": "tuple[]"
        }
      ],
      "stateMutability": "view",
      "type": "function",
      "constant": true
    },
    {
      "inputs": [
        {
          "internalType": "bytes32",
          "name": "key",
          "type": "bytes32"
        }
      ],
      "name": "getLockMap",
      "outputs": [
        {
          "components": [
            {
              "internalType": "uint256",
              "name": "id",
              "type": "uint256"
            },
            {
              "internalType": "enum LibDiamond.LockLevel",
              "name": "level",
              "type": "uint8"
            },
            {
              "internalType": "uint256",
              "name": "lockAmount",
              "type": "uint256"
            },
            {
              "internalType": "uint256",
              "name": "voteAmount",
              "type": "uint256"
            },
            {
              "internalType": "uint256",
              "name": "lockTimestamp",
              "type": "uint256"
            },
            {
              "internalType": "uint256",
              "name": "penaltyFinixAmount",
              "type": "uint256"
            },
            {
              "internalType": "uint256",
              "name": "penaltyUnlockTimestamp",
              "type": "uint256"
            },
            {
              "internalType": "bool",
              "name": "isPenalty",
              "type": "bool"
            },
            {
              "internalType": "bool",
              "name": "isUnlocked",
              "type": "bool"
            }
          ],
          "internalType": "struct LibDiamond.LockInfo",
          "name": "lockInfo_",
          "type": "tuple"
        }
      ],
      "stateMutability": "view",
      "type": "function",
      "constant": true
    },
    {
      "inputs": [
        {
          "internalType": "address",
          "name": "_user",
          "type": "address"
        },
        {
          "internalType": "uint256",
          "name": "_lockIndex",
          "type": "uint256"
        }
      ],
      "name": "lockInfo",
      "outputs": [
        {
          "components": [
            {
              "internalType": "uint256",
              "name": "id",
              "type": "uint256"
            },
            {
              "internalType": "enum LibDiamond.LockLevel",
              "name": "level",
              "type": "uint8"
            },
            {
              "internalType": "uint256",
              "name": "lockAmount",
              "type": "uint256"
            },
            {
              "internalType": "uint256",
              "name": "voteAmount",
              "type": "uint256"
            },
            {
              "internalType": "uint256",
              "name": "lockTimestamp",
              "type": "uint256"
            },
            {
              "internalType": "uint256",
              "name": "penaltyFinixAmount",
              "type": "uint256"
            },
            {
              "internalType": "uint256",
              "name": "penaltyUnlockTimestamp",
              "type": "uint256"
            },
            {
              "internalType": "bool",
              "name": "isPenalty",
              "type": "bool"
            },
            {
              "internalType": "bool",
              "name": "isUnlocked",
              "type": "bool"
            }
          ],
          "internalType": "struct LibDiamond.LockInfo",
          "name": "lockInfo_",
          "type": "tuple"
        }
      ],
      "stateMutability": "view",
      "type": "function",
      "constant": true
    },
    {
      "inputs": [
        {
          "internalType": "address",
          "name": "_user",
          "type": "address"
        }
      ],
      "name": "getUserLockAmount",
      "outputs": [
        {
          "internalType": "uint256",
          "name": "",
          "type": "uint256"
        }
      ],
      "stateMutability": "view",
      "type": "function",
      "constant": true
    },
    {
      "inputs": [
        {
          "internalType": "enum LibDiamond.LockLevel",
          "name": "_level",
          "type": "uint8"
        },
        {
          "internalType": "uint256",
          "name": "_lockAmount",
          "type": "uint256"
        }
      ],
      "name": "lock",
      "outputs": [],
      "stateMutability": "nonpayable",
      "type": "function"
    },
    {
      "inputs": [
        {
          "internalType": "uint256",
          "name": "_lockIndex",
          "type": "uint256"
        }
      ],
      "name": "unlock",
      "outputs": [],
      "stateMutability": "nonpayable",
      "type": "function"
    },
    {
      "inputs": [],
      "name": "getTotalFinixLock",
      "outputs": [
        {
          "internalType": "uint256",
          "name": "totalFinixLock_",
          "type": "uint256"
        },
        {
          "internalType": "uint256",
          "name": "totalFinixLockAtLevel1_",
          "type": "uint256"
        },
        {
          "internalType": "uint256",
          "name": "totalFinixLockAtLevel2_",
          "type": "uint256"
        },
        {
          "internalType": "uint256",
          "name": "totalFinixLockAtLevel3_",
          "type": "uint256"
        },
        {
          "internalType": "uint256",
          "name": "totalLockCount_",
          "type": "uint256"
        },
        {
          "internalType": "uint256",
          "name": "totalLockLevel1Count_",
          "type": "uint256"
        },
        {
          "internalType": "uint256",
          "name": "totalLockLevel2Count_",
          "type": "uint256"
        },
        {
          "internalType": "uint256",
          "name": "totalLockLevel3Count_",
          "type": "uint256"
        }
      ],
      "stateMutability": "view",
      "type": "function",
      "constant": true
    },
    {
      "inputs": [],
      "name": "getAllLockPeriods",
      "outputs": [
        {
          "components": [
            {
              "internalType": "uint256",
              "name": "_period1",
              "type": "uint256"
            },
            {
              "internalType": "uint256",
              "name": "_period2",
              "type": "uint256"
            },
            {
              "internalType": "uint256",
              "name": "_period3",
              "type": "uint256"
            },
            {
              "internalType": "uint256",
              "name": "_multiplier1",
              "type": "uint256"
            },
            {
              "internalType": "uint256",
              "name": "_multiplier2",
              "type": "uint256"
            },
            {
              "internalType": "uint256",
              "name": "_multiplier3",
              "type": "uint256"
            },
            {
              "internalType": "uint256",
              "name": "_minimum1",
              "type": "uint256"
            },
            {
              "internalType": "uint256",
              "name": "_minimum2",
              "type": "uint256"
            },
            {
              "internalType": "uint256",
              "name": "_minimum3",
              "type": "uint256"
            },
            {
              "internalType": "uint256",
              "name": "_penaltyPeriod1",
              "type": "uint256"
            },
            {
              "internalType": "uint256",
              "name": "_penaltyPeriod2",
              "type": "uint256"
            },
            {
              "internalType": "uint256",
              "name": "_penaltyPeriod3",
              "type": "uint256"
            },
            {
              "internalType": "uint256",
              "name": "_penaltyRate1",
              "type": "uint256"
            },
            {
              "internalType": "uint256",
              "name": "_penaltyRate2",
              "type": "uint256"
            },
            {
              "internalType": "uint256",
              "name": "_penaltyRate3",
              "type": "uint256"
            },
            {
              "internalType": "uint256",
              "name": "_penaltyRateDecimal1",
              "type": "uint256"
            },
            {
              "internalType": "uint256",
              "name": "_penaltyRateDecimal2",
              "type": "uint256"
            },
            {
              "internalType": "uint256",
              "name": "_penaltyRateDecimal3",
              "type": "uint256"
            }
          ],
          "internalType": "struct LibDiamond.ParamLockPeriods",
          "name": "param_",
          "type": "tuple"
        }
      ],
      "stateMutability": "view",
      "type": "function",
      "constant": true
    },
    {
      "inputs": [
        {
          "components": [
            {
              "internalType": "uint256",
              "name": "_period1",
              "type": "uint256"
            },
            {
              "internalType": "uint256",
              "name": "_period2",
              "type": "uint256"
            },
            {
              "internalType": "uint256",
              "name": "_period3",
              "type": "uint256"
            },
            {
              "internalType": "uint256",
              "name": "_multiplier1",
              "type": "uint256"
            },
            {
              "internalType": "uint256",
              "name": "_multiplier2",
              "type": "uint256"
            },
            {
              "internalType": "uint256",
              "name": "_multiplier3",
              "type": "uint256"
            },
            {
              "internalType": "uint256",
              "name": "_minimum1",
              "type": "uint256"
            },
            {
              "internalType": "uint256",
              "name": "_minimum2",
              "type": "uint256"
            },
            {
              "internalType": "uint256",
              "name": "_minimum3",
              "type": "uint256"
            },
            {
              "internalType": "uint256",
              "name": "_penaltyPeriod1",
              "type": "uint256"
            },
            {
              "internalType": "uint256",
              "name": "_penaltyPeriod2",
              "type": "uint256"
            },
            {
              "internalType": "uint256",
              "name": "_penaltyPeriod3",
              "type": "uint256"
            },
            {
              "internalType": "uint256",
              "name": "_penaltyRate1",
              "type": "uint256"
            },
            {
              "internalType": "uint256",
              "name": "_penaltyRate2",
              "type": "uint256"
            },
            {
              "internalType": "uint256",
              "name": "_penaltyRate3",
              "type": "uint256"
            },
            {
              "internalType": "uint256",
              "name": "_penaltyRateDecimal1",
              "type": "uint256"
            },
            {
              "internalType": "uint256",
              "name": "_penaltyRateDecimal2",
              "type": "uint256"
            },
            {
              "internalType": "uint256",
              "name": "_penaltyRateDecimal3",
              "type": "uint256"
            }
          ],
          "internalType": "struct LibDiamond.ParamLockPeriods",
          "name": "param_",
          "type": "tuple"
        }
      ],
      "name": "setUpLockPeriods",
      "outputs": [],
      "stateMutability": "nonpayable",
      "type": "function"
    },
    {
      "inputs": [
        {
          "internalType": "enum LibDiamond.LockLevel",
          "name": "_level",
          "type": "uint8"
        },
        {
          "internalType": "uint256",
          "name": "_period",
          "type": "uint256"
        },
        {
          "internalType": "uint256",
          "name": "_multiplier",
          "type": "uint256"
        },
        {
          "internalType": "uint256",
          "name": "_mininum",
          "type": "uint256"
        },
        {
          "internalType": "uint256",
          "name": "_penaltyPeriod",
          "type": "uint256"
        },
        {
          "internalType": "uint256",
          "name": "_penaltyRate",
          "type": "uint256"
        },
        {
          "internalType": "uint256",
          "name": "_penaltyRateDecimal",
          "type": "uint256"
        }
      ],
      "name": "setLockPeriod",
      "outputs": [],
      "stateMutability": "nonpayable",
      "type": "function"
    },
    {
      "inputs": [
        {
          "internalType": "enum LibDiamond.LockLevel",
          "name": "_level",
          "type": "uint8"
        }
      ],
      "name": "getLockPeriod",
      "outputs": [
        {
          "internalType": "uint256",
          "name": "period_",
          "type": "uint256"
        },
        {
          "internalType": "uint256",
          "name": "multiplier_",
          "type": "uint256"
        },
        {
          "internalType": "uint256",
          "name": "minimum_",
          "type": "uint256"
        },
        {
          "internalType": "uint256",
          "name": "penaltyPeriod_",
          "type": "uint256"
        },
        {
          "internalType": "uint256",
          "name": "penaltyRate_",
          "type": "uint256"
        },
        {
          "internalType": "uint256",
          "name": "penaltyRateDecimal_",
          "type": "uint256"
        }
      ],
      "stateMutability": "view",
      "type": "function",
      "constant": true
    }
  ],
  "bytecode": "0x608060405234801561001057600080fd5b50614b51806100206000396000f3fe608060405234801561001057600080fd5b50600436106100b45760003560e01c8063b2520a7c11610071578063b2520a7c1461019d578063b759d603146101cd578063bfe5244814610202578063c00b3de914610227578063df03458614610245578063f8b4cfc614610275576100b4565b80631bc1a3a4146100b95780633955f2a4146100e95780636198e339146101055780636f8bda13146101215780637066a39914610151578063a5074bb71461016d575b600080fd5b6100d360048036038101906100ce9190613869565b610291565b6040516100e0919061462d565b60405180910390f35b61010360048036038101906100fe9190613a72565b6102e8565b005b61011f600480360381019061011a9190613a9c565b610a95565b005b61013b600480360381019061013691906138ce565b6110f5565b6040516101489190614533565b60405180910390f35b61016b600480360381019061016691906139d4565b611393565b005b61018760048036038101906101829190613946565b61160e565b60405161019491906145f5565b60405180910390f35b6101b760048036038101906101b29190613892565b611744565b6040516101c491906145f5565b60405180910390f35b6101e760048036038101906101e2919061396f565b6118a9565b6040516101f996959493929190614648565b60405180910390f35b61020a6118d0565b60405161021e9897969594939291906146a9565b60405180910390f35b61022f611c34565b60405161023c9190614611565b60405180910390f35b61025f600480360381019061025a9190613869565b612429565b60405161026c919061462d565b60405180910390f35b61028f600480360381019061028a9190613998565b612480565b005b60008061029c612ab1565b905080600a0160008473ffffffffffffffffffffffffffffffffffffffff1673ffffffffffffffffffffffffffffffffffffffff16815260200190815260200160002054915050919050565b6102f0612ade565b61035c6040518060400160405280600b81526020017f6c6f636b5f706572696f64000000000000000000000000000000000000000000815250600060405160200161033c929190614416565b604051602081830303815290604052805190602001208260000151612b79565b6103c86040518060400160405280600b81526020017f6c6f636b5f706572696f6400000000000000000000000000000000000000000081525060006040516020016103a89291906143e3565b604051602081830303815290604052805190602001208260600151612b79565b6104346040518060400160405280600b81526020017f6c6f636b5f706572696f640000000000000000000000000000000000000000008152506000604051602001610414929190614317565b604051602081830303815290604052805190602001208260c00151612b79565b6104a16040518060400160405280600b81526020017f6c6f636b5f706572696f64000000000000000000000000000000000000000000815250600060405160200161048092919061434a565b60405160208183030381529060405280519060200120826101200151612b79565b61050e6040518060400160405280600b81526020017f6c6f636b5f706572696f6400000000000000000000000000000000000000000081525060006040516020016104ed92919061437d565b60405160208183030381529060405280519060200120826101800151612b79565b61057b6040518060400160405280600b81526020017f6c6f636b5f706572696f64000000000000000000000000000000000000000000815250600060405160200161055a9291906143b0565b60405160208183030381529060405280519060200120826101e00151612b79565b6105e76040518060400160405280600b81526020017f6c6f636b5f706572696f6400000000000000000000000000000000000000000081525060016040516020016105c7929190614416565b604051602081830303815290604052805190602001208260200151612b79565b6106536040518060400160405280600b81526020017f6c6f636b5f706572696f6400000000000000000000000000000000000000000081525060016040516020016106339291906143e3565b604051602081830303815290604052805190602001208260800151612b79565b6106bf6040518060400160405280600b81526020017f6c6f636b5f706572696f64000000000000000000000000000000000000000000815250600160405160200161069f929190614317565b604051602081830303815290604052805190602001208260e00151612b79565b61072c6040518060400160405280600b81526020017f6c6f636b5f706572696f64000000000000000000000000000000000000000000815250600160405160200161070b92919061434a565b60405160208183030381529060405280519060200120826101400151612b79565b6107996040518060400160405280600b81526020017f6c6f636b5f706572696f64000000000000000000000000000000000000000000815250600160405160200161077892919061437d565b60405160208183030381529060405280519060200120826101a00151612b79565b6108066040518060400160405280600b81526020017f6c6f636b5f706572696f6400000000000000000000000000000000000000000081525060016040516020016107e59291906143b0565b60405160208183030381529060405280519060200120826102000151612b79565b6108726040518060400160405280600b81526020017f6c6f636b5f706572696f640000000000000000000000000000000000000000008152506002604051602001610852929190614416565b604051602081830303815290604052805190602001208260400151612b79565b6108de6040518060400160405280600b81526020017f6c6f636b5f706572696f6400000000000000000000000000000000000000000081525060026040516020016108be9291906143e3565b604051602081830303815290604052805190602001208260a00151612b79565b61094b6040518060400160405280600b81526020017f6c6f636b5f706572696f64000000000000000000000000000000000000000000815250600260405160200161092a929190614317565b60405160208183030381529060405280519060200120826101000151612b79565b6109b86040518060400160405280600b81526020017f6c6f636b5f706572696f64000000000000000000000000000000000000000000815250600260405160200161099792919061434a565b60405160208183030381529060405280519060200120826101600151612b79565b610a256040518060400160405280600b81526020017f6c6f636b5f706572696f640000000000000000000000000000000000000000008152506002604051602001610a0492919061437d565b60405160208183030381529060405280519060200120826101c00151612b79565b610a926040518060400160405280600b81526020017f6c6f636b5f706572696f640000000000000000000000000000000000000000008152506002604051602001610a719291906143b0565b60405160208183030381529060405280519060200120826102200151612b79565b50565b6000610a9f612ab1565b90506000610ad0604051602001610ab590614449565b60405160208183030381529060405280519060200120612ba4565b90503073ffffffffffffffffffffffffffffffffffffffff16630e5c011e336040518263ffffffff1660e01b8152600401610b0b9190614473565b600060405180830381600087803b158015610b2557600080fd5b505af1158015610b39573d6000803e3d6000fd5b5050505060003384604051602001610b529291906144c5565b60405160208183030381529060405280519060200120905060008360080160008381526020019081526020016000209050600015158160070160009054906101000a900460ff16151514610bdb576040517f08c379a0000000000000000000000000000000000000000000000000000000008152600401610bd2906145d5565b60405180910390fd5b600015158160070160019054906101000a900460ff16151514610c33576040517f08c379a0000000000000000000000000000000000000000000000000000000008152600401610c2a906145b5565b60405180910390fd5b6000610c4f8260010160009054906101000a900460ff16612bef565b5050505050905060003073ffffffffffffffffffffffffffffffffffffffff1663d3ec2acd336040518263ffffffff1660e01b8152600401610c919190614473565b60206040518083038186803b158015610ca957600080fd5b505afa158015610cbd573d6000803e3d6000fd5b505050506040513d601f19601f82011682018060405250810190610ce19190613ac5565b90508260030154811015610d2a576040517f08c379a0000000000000000000000000000000000000000000000000000000008152600401610d2190614595565b60405180910390fd5b818360040154610d3a91906147b8565b421015610dba576000610d70604051602001610d559061445e565b60405160208183030381529060405280519060200120612ba4565b905060018460070160006101000a81548160ff021916908315150217905550428460060181905550610da6338560030154612e71565b610db4818560030154612eee565b506110a7565b60018360070160016101000a81548160ff021916908315150217905550610de5338460030154612e71565b600086600a0160003373ffffffffffffffffffffffffffffffffffffffff1673ffffffffffffffffffffffffffffffffffffffff168152602001908152602001600020549050610e42846002015482612f6b90919063ffffffff16565b87600a0160003373ffffffffffffffffffffffffffffffffffffffff1673ffffffffffffffffffffffffffffffffffffffff168152602001908152602001600020819055508573ffffffffffffffffffffffffffffffffffffffff1663a9059cbb3386600201546040518363ffffffff1660e01b8152600401610ec69291906144c5565b602060405180830381600087803b158015610ee057600080fd5b505af1158015610ef4573d6000803e3d6000fd5b505050506040513d601f19601f82011682018060405250810190610f18919061391d565b50610f21612f81565b610f3b8460010160009054906101000a900460ff16613064565b610fe8846002015488600c0160008760010160009054906101000a900460ff166002811115610f93577f4e487b7100000000000000000000000000000000000000000000000000000000600052602160045260246000fd5b6002811115610fcb577f4e487b7100000000000000000000000000000000000000000000000000000000600052602160045260246000fd5b815260200190815260200160002054612f6b90919063ffffffff16565b87600c0160008660010160009054906101000a900460ff166002811115611038577f4e487b7100000000000000000000000000000000000000000000000000000000600052602160045260246000fd5b6002811115611070577f4e487b7100000000000000000000000000000000000000000000000000000000600052602160045260246000fd5b81526020019081526020016000208190555061109d846002015488600b0154612f6b90919063ffffffff16565b87600b0181905550505b7fbd51e7b85833294fa3b641f07baa1f34589b18c2ed25996c8949afa23cc6e2be33846002015485600301548a6040516110e494939291906144ee565b60405180910390a150505050505050565b60606000611101612ab1565b905060008160090160008773ffffffffffffffffffffffffffffffffffffffff1673ffffffffffffffffffffffffffffffffffffffff1681526020019081526020016000205490506000841115611156578390505b600081111561138a578067ffffffffffffffff81111561119f577f4e487b7100000000000000000000000000000000000000000000000000000000600052604160045260246000fd5b6040519080825280602002602001820160405280156111d857816020015b6111c5613536565b8152602001906001900390816111bd5790505b50925060008590505b8181101561138857600087826040516020016111fe9291906144c5565b60405160208183030381529060405280519060200120905083600801600082815260200190815260200160002060405180610120016040529081600082015481526020016001820160009054906101000a900460ff16600281111561128c577f4e487b7100000000000000000000000000000000000000000000000000000000600052602160045260246000fd5b60028111156112c4577f4e487b7100000000000000000000000000000000000000000000000000000000600052602160045260246000fd5b815260200160028201548152602001600382015481526020016004820154815260200160058201548152602001600682015481526020016007820160009054906101000a900460ff161515151581526020016007820160019054906101000a900460ff161515151581525050858381518110611369577f4e487b7100000000000000000000000000000000000000000000000000000000600052603260045260246000fd5b602002602001018190525050808061138090614977565b9150506111e1565b505b50509392505050565b61139b612ade565b6114026040518060400160405280600b81526020017f6c6f636b5f706572696f64000000000000000000000000000000000000000000815250886040516020016113e6929190614416565b6040516020818303038152906040528051906020012087612b79565b6114696040518060400160405280600b81526020017f6c6f636b5f706572696f640000000000000000000000000000000000000000008152508860405160200161144d9291906143e3565b6040516020818303038152906040528051906020012086612b79565b6114d06040518060400160405280600b81526020017f6c6f636b5f706572696f64000000000000000000000000000000000000000000815250886040516020016114b4929190614317565b6040516020818303038152906040528051906020012085612b79565b6115376040518060400160405280600b81526020017f6c6f636b5f706572696f640000000000000000000000000000000000000000008152508860405160200161151b92919061434a565b6040516020818303038152906040528051906020012084612b79565b61159e6040518060400160405280600b81526020017f6c6f636b5f706572696f640000000000000000000000000000000000000000008152508860405160200161158292919061437d565b6040516020818303038152906040528051906020012083612b79565b6116056040518060400160405280600b81526020017f6c6f636b5f706572696f64000000000000000000000000000000000000000000815250886040516020016115e99291906143b0565b6040516020818303038152906040528051906020012082612b79565b50505050505050565b611616613536565b6000611620612ab1565b905080600801600084815260200190815260200160002060405180610120016040529081600082015481526020016001820160009054906101000a900460ff166002811115611698577f4e487b7100000000000000000000000000000000000000000000000000000000600052602160045260246000fd5b60028111156116d0577f4e487b7100000000000000000000000000000000000000000000000000000000600052602160045260246000fd5b815260200160028201548152602001600382015481526020016004820154815260200160058201548152602001600682015481526020016007820160009054906101000a900460ff161515151581526020016007820160019054906101000a900460ff161515151581525050915050919050565b61174c613536565b6000611756612ab1565b90506000848460405160200161176d9291906144c5565b60405160208183030381529060405280519060200120905081600801600082815260200190815260200160002060405180610120016040529081600082015481526020016001820160009054906101000a900460ff1660028111156117fb577f4e487b7100000000000000000000000000000000000000000000000000000000600052602160045260246000fd5b6002811115611833577f4e487b7100000000000000000000000000000000000000000000000000000000600052602160045260246000fd5b815260200160028201548152602001600382015481526020016004820154815260200160058201548152602001600682015481526020016007820160009054906101000a900460ff161515151581526020016007820160019054906101000a900460ff1615151515815250509250505092915050565b6000806000806000806118bb87612bef565b95509550955095509550955091939550919395565b60008060008060008060008060006118e6612ab1565b905080600b0154985080600c01600080600281111561192e577f4e487b7100000000000000000000000000000000000000000000000000000000600052602160045260246000fd5b6002811115611966577f4e487b7100000000000000000000000000000000000000000000000000000000600052602160045260246000fd5b815260200190815260200160002054975080600c016000600160028111156119b7577f4e487b7100000000000000000000000000000000000000000000000000000000600052602160045260246000fd5b60028111156119ef577f4e487b7100000000000000000000000000000000000000000000000000000000600052602160045260246000fd5b815260200190815260200160002054965080600c016000600280811115611a3f577f4e487b7100000000000000000000000000000000000000000000000000000000600052602160045260246000fd5b6002811115611a77577f4e487b7100000000000000000000000000000000000000000000000000000000600052602160045260246000fd5b8152602001908152602001600020549550611aec6040518060400160405280600a81526020017f6c6f636b5f636f756e7400000000000000000000000000000000000000000000815250604051602001611ad191906142d8565b6040516020818303038152906040528051906020012061314c565b9450611b556040518060400160405280600a81526020017f6c6f636b5f636f756e74000000000000000000000000000000000000000000008152506000604051602001611b3a9291906142ef565b6040516020818303038152906040528051906020012061314c565b9350611bbe6040518060400160405280600a81526020017f6c6f636b5f636f756e74000000000000000000000000000000000000000000008152506001604051602001611ba39291906142ef565b6040516020818303038152906040528051906020012061314c565b9250611c276040518060400160405280600a81526020017f6c6f636b5f636f756e74000000000000000000000000000000000000000000008152506002604051602001611c0c9291906142ef565b6040516020818303038152906040528051906020012061314c565b9150509091929394959697565b611c3c6135be565b611ca36040518060400160405280600b81526020017f6c6f636b5f706572696f640000000000000000000000000000000000000000008152506000604051602001611c88929190614416565b6040516020818303038152906040528051906020012061314c565b816000018181525050611d136040518060400160405280600b81526020017f6c6f636b5f706572696f640000000000000000000000000000000000000000008152506000604051602001611cf89291906143e3565b6040516020818303038152906040528051906020012061314c565b816060018181525050611d836040518060400160405280600b81526020017f6c6f636b5f706572696f640000000000000000000000000000000000000000008152506000604051602001611d68929190614317565b6040516020818303038152906040528051906020012061314c565b8160c0018181525050611df36040518060400160405280600b81526020017f6c6f636b5f706572696f640000000000000000000000000000000000000000008152506000604051602001611dd892919061434a565b6040516020818303038152906040528051906020012061314c565b81610120018181525050611e646040518060400160405280600b81526020017f6c6f636b5f706572696f640000000000000000000000000000000000000000008152506000604051602001611e4992919061437d565b6040516020818303038152906040528051906020012061314c565b81610180018181525050611ed56040518060400160405280600b81526020017f6c6f636b5f706572696f640000000000000000000000000000000000000000008152506000604051602001611eba9291906143b0565b6040516020818303038152906040528051906020012061314c565b816101e0018181525050611f466040518060400160405280600b81526020017f6c6f636b5f706572696f640000000000000000000000000000000000000000008152506001604051602001611f2b929190614416565b6040516020818303038152906040528051906020012061314c565b816020018181525050611fb66040518060400160405280600b81526020017f6c6f636b5f706572696f640000000000000000000000000000000000000000008152506001604051602001611f9b9291906143e3565b6040516020818303038152906040528051906020012061314c565b8160800181815250506120266040518060400160405280600b81526020017f6c6f636b5f706572696f64000000000000000000000000000000000000000000815250600160405160200161200b929190614317565b6040516020818303038152906040528051906020012061314c565b8160e00181815250506120966040518060400160405280600b81526020017f6c6f636b5f706572696f64000000000000000000000000000000000000000000815250600160405160200161207b92919061434a565b6040516020818303038152906040528051906020012061314c565b816101400181815250506121076040518060400160405280600b81526020017f6c6f636b5f706572696f6400000000000000000000000000000000000000000081525060016040516020016120ec92919061437d565b6040516020818303038152906040528051906020012061314c565b816101a00181815250506121786040518060400160405280600b81526020017f6c6f636b5f706572696f64000000000000000000000000000000000000000000815250600160405160200161215d9291906143b0565b6040516020818303038152906040528051906020012061314c565b816102000181815250506121e96040518060400160405280600b81526020017f6c6f636b5f706572696f6400000000000000000000000000000000000000000081525060026040516020016121ce929190614416565b6040516020818303038152906040528051906020012061314c565b8160400181815250506122596040518060400160405280600b81526020017f6c6f636b5f706572696f64000000000000000000000000000000000000000000815250600260405160200161223e9291906143e3565b6040516020818303038152906040528051906020012061314c565b8160a00181815250506122c96040518060400160405280600b81526020017f6c6f636b5f706572696f6400000000000000000000000000000000000000000081525060026040516020016122ae929190614317565b6040516020818303038152906040528051906020012061314c565b8161010001818152505061233a6040518060400160405280600b81526020017f6c6f636b5f706572696f64000000000000000000000000000000000000000000815250600260405160200161231f92919061434a565b6040516020818303038152906040528051906020012061314c565b816101600181815250506123ab6040518060400160405280600b81526020017f6c6f636b5f706572696f64000000000000000000000000000000000000000000815250600260405160200161239092919061437d565b6040516020818303038152906040528051906020012061314c565b816101c001818152505061241c6040518060400160405280600b81526020017f6c6f636b5f706572696f6400000000000000000000000000000000000000000081525060026040516020016124019291906143b0565b6040516020818303038152906040528051906020012061314c565b8161022001818152505090565b600080612434612ab1565b90508060090160008473ffffffffffffffffffffffffffffffffffffffff1673ffffffffffffffffffffffffffffffffffffffff16815260200190815260200160002054915050919050565b600061248a612ab1565b905060008061249885612bef565b5050509250925050808410156124e3576040517f08c379a00000000000000000000000000000000000000000000000000000000081526004016124da90614555565b60405180910390fd5b60006125126040516020016124f790614449565b60405160208183030381529060405280519060200120612ba4565b90508073ffffffffffffffffffffffffffffffffffffffff166323b872dd3330886040518463ffffffff1660e01b81526004016125519392919061448e565b602060405180830381600087803b15801561256b57600080fd5b505af115801561257f573d6000803e3d6000fd5b505050506040513d601f19601f820116820180604052508101906125a3919061391d565b5060006125cc600a6125be868961317790919063ffffffff16565b61318d90919063ffffffff16565b905060008560090160003373ffffffffffffffffffffffffffffffffffffffff1673ffffffffffffffffffffffffffffffffffffffff168152602001908152602001600020549050600086600a0160003373ffffffffffffffffffffffffffffffffffffffff1673ffffffffffffffffffffffffffffffffffffffff1681526020019081526020016000205490506000338360405160200161266f9291906144c5565b6040516020818303038152906040528051906020012090506040518061012001604052808481526020018b60028111156126d2577f4e487b7100000000000000000000000000000000000000000000000000000000600052602160045260246000fd5b81526020018a81526020018581526020014281526020016000815260200160008152602001600015158152602001600015158152508860080160008381526020019081526020016000206000820151816000015560208201518160010160006101000a81548160ff02191690836002811115612777577f4e487b7100000000000000000000000000000000000000000000000000000000600052602160045260246000fd5b021790555060408201518160020155606082015181600301556080820151816004015560a0820151816005015560c0820151816006015560e08201518160070160006101000a81548160ff0219169083151502179055506101008201518160070160016101000a81548160ff02191690831515021790555090505080838a7f4d59d3a90adc412330c80c1d7838fb3075658ced387b288fd1dc7ef2ea7a1f3d33886040516128269291906144c5565b60405180910390a46128426001846131a390919063ffffffff16565b8860090160003373ffffffffffffffffffffffffffffffffffffffff1673ffffffffffffffffffffffffffffffffffffffff1681526020019081526020016000208190555061289a89836131a390919063ffffffff16565b88600a0160003373ffffffffffffffffffffffffffffffffffffffff1673ffffffffffffffffffffffffffffffffffffffff168152602001908152602001600020819055506128e76131b9565b6128f08a61329c565b6129888989600c0160008d6002811115612933577f4e487b7100000000000000000000000000000000000000000000000000000000600052602160045260246000fd5b600281111561296b577f4e487b7100000000000000000000000000000000000000000000000000000000600052602160045260246000fd5b8152602001908152602001600020546131a390919063ffffffff16565b88600c0160008c60028111156129c7577f4e487b7100000000000000000000000000000000000000000000000000000000600052602160045260246000fd5b60028111156129ff577f4e487b7100000000000000000000000000000000000000000000000000000000600052602160045260246000fd5b815260200190815260200160002081905550612a288989600b01546131a390919063ffffffff16565b88600b01819055503073ffffffffffffffffffffffffffffffffffffffff16630e5c011e336040518263ffffffff1660e01b8152600401612a699190614473565b600060405180830381600087803b158015612a8357600080fd5b505af1158015612a97573d6000803e3d6000fd5b50505050612aa53385612eee565b50505050505050505050565b6000807fc8fcad8db84d3cc18b4c41d551ea0ee66dd599cde068d998e57d5e09332c131c90508091505090565b612ae6612ab1565b60030160009054906101000a900473ffffffffffffffffffffffffffffffffffffffff1673ffffffffffffffffffffffffffffffffffffffff163373ffffffffffffffffffffffffffffffffffffffff1614612b77576040517f08c379a0000000000000000000000000000000000000000000000000000000008152600401612b6e90614575565b60405180910390fd5b565b6000612b83612ab1565b90508181600401600085815260200190815260200160002081905550505050565b600080612baf612ab1565b905080600501600084815260200190815260200160002060009054906101000a900473ffffffffffffffffffffffffffffffffffffffff16915050919050565b600080600080600080612c5e6040518060400160405280600b81526020017f6c6f636b5f706572696f6400000000000000000000000000000000000000000081525088604051602001612c43929190614416565b6040516020818303038152906040528051906020012061314c565b9550612cc66040518060400160405280600b81526020017f6c6f636b5f706572696f6400000000000000000000000000000000000000000081525088604051602001612cab9291906143e3565b6040516020818303038152906040528051906020012061314c565b9450612d2e6040518060400160405280600b81526020017f6c6f636b5f706572696f6400000000000000000000000000000000000000000081525088604051602001612d13929190614317565b6040516020818303038152906040528051906020012061314c565b9350612d966040518060400160405280600b81526020017f6c6f636b5f706572696f6400000000000000000000000000000000000000000081525088604051602001612d7b92919061434a565b6040516020818303038152906040528051906020012061314c565b9250612dfe6040518060400160405280600b81526020017f6c6f636b5f706572696f6400000000000000000000000000000000000000000081525088604051602001612de392919061437d565b6040516020818303038152906040528051906020012061314c565b9150612e666040518060400160405280600b81526020017f6c6f636b5f706572696f6400000000000000000000000000000000000000000081525088604051602001612e4b9291906143b0565b6040516020818303038152906040528051906020012061314c565b905091939550919395565b612e7a81613384565b612e8482826133b3565b600073ffffffffffffffffffffffffffffffffffffffff168273ffffffffffffffffffffffffffffffffffffffff167fddf252ad1be2c89b69c2b068fc378daa952ba7f163c4a11628f55a4df523b3ef83604051612ee2919061462d565b60405180910390a35050565b612ef78161345d565b612f01828261348c565b8173ffffffffffffffffffffffffffffffffffffffff16600073ffffffffffffffffffffffffffffffffffffffff167fddf252ad1be2c89b69c2b068fc378daa952ba7f163c4a11628f55a4df523b3ef83604051612f5f919061462d565b60405180910390a35050565b60008183612f799190614899565b905092915050565b6000612fe76040518060400160405280600a81526020017f6c6f636b5f636f756e7400000000000000000000000000000000000000000000815250604051602001612fcc91906142d8565b6040516020818303038152906040528051906020012061314c565b90506130616040518060400160405280600a81526020017f6c6f636b5f636f756e740000000000000000000000000000000000000000000081525060405160200161303291906142d8565b6040516020818303038152906040528051906020012061305c600184612f6b90919063ffffffff16565b612b79565b50565b60006130cc6040518060400160405280600a81526020017f6c6f636b5f636f756e7400000000000000000000000000000000000000000000815250836040516020016130b19291906142ef565b6040516020818303038152906040528051906020012061314c565b90506131486040518060400160405280600a81526020017f6c6f636b5f636f756e7400000000000000000000000000000000000000000000815250836040516020016131199291906142ef565b60405160208183030381529060405280519060200120613143600184612f6b90919063ffffffff16565b612b79565b5050565b600080613157612ab1565b905080600401600084815260200190815260200160002054915050919050565b60008183613185919061483f565b905092915050565b6000818361319b919061480e565b905092915050565b600081836131b191906147b8565b905092915050565b600061321f6040518060400160405280600a81526020017f6c6f636b5f636f756e740000000000000000000000000000000000000000000081525060405160200161320491906142d8565b6040516020818303038152906040528051906020012061314c565b90506132996040518060400160405280600a81526020017f6c6f636b5f636f756e740000000000000000000000000000000000000000000081525060405160200161326a91906142d8565b604051602081830303815290604052805190602001206132946001846131a390919063ffffffff16565b612b79565b50565b60006133046040518060400160405280600a81526020017f6c6f636b5f636f756e7400000000000000000000000000000000000000000000815250836040516020016132e99291906142ef565b6040516020818303038152906040528051906020012061314c565b90506133806040518060400160405280600a81526020017f6c6f636b5f636f756e7400000000000000000000000000000000000000000000815250836040516020016133519291906142ef565b6040516020818303038152906040528051906020012061337b6001846131a390919063ffffffff16565b612b79565b5050565b600061338e612ab1565b90506133a78282600d0154612f6b90919063ffffffff16565b81600d01819055505050565b60006133bd612ab1565b90506134138282600e0160008673ffffffffffffffffffffffffffffffffffffffff1673ffffffffffffffffffffffffffffffffffffffff16815260200190815260200160002054612f6b90919063ffffffff16565b81600e0160008573ffffffffffffffffffffffffffffffffffffffff1673ffffffffffffffffffffffffffffffffffffffff16815260200190815260200160002081905550505050565b6000613467612ab1565b90506134808282600d01546131a390919063ffffffff16565b81600d01819055505050565b6000613496612ab1565b90506134ec8282600e0160008673ffffffffffffffffffffffffffffffffffffffff1673ffffffffffffffffffffffffffffffffffffffff168152602001908152602001600020546131a390919063ffffffff16565b81600e0160008573ffffffffffffffffffffffffffffffffffffffff1673ffffffffffffffffffffffffffffffffffffffff16815260200190815260200160002081905550505050565b6040518061012001604052806000815260200160006002811115613583577f4e487b7100000000000000000000000000000000000000000000000000000000600052602160045260246000fd5b815260200160008152602001600081526020016000815260200160008152602001600081526020016000151581526020016000151581525090565b6040518061024001604052806000815260200160008152602001600081526020016000815260200160008152602001600081526020016000815260200160008152602001600081526020016000815260200160008152602001600081526020016000815260200160008152602001600081526020016000815260200160008152602001600081525090565b60008135905061365881614aaf565b92915050565b60008151905061366d81614ac6565b92915050565b60008135905061368281614add565b92915050565b60008135905061369781614af4565b92915050565b600061024082840312156136b057600080fd5b6136bb610240614727565b905060006136cb8482850161383f565b60008301525060206136df8482850161383f565b60208301525060406136f38482850161383f565b60408301525060606137078482850161383f565b606083015250608061371b8482850161383f565b60808301525060a061372f8482850161383f565b60a08301525060c06137438482850161383f565b60c08301525060e06137578482850161383f565b60e08301525061010061376c8482850161383f565b610100830152506101206137828482850161383f565b610120830152506101406137988482850161383f565b610140830152506101606137ae8482850161383f565b610160830152506101806137c48482850161383f565b610180830152506101a06137da8482850161383f565b6101a0830152506101c06137f08482850161383f565b6101c0830152506101e06138068482850161383f565b6101e08301525061020061381c8482850161383f565b610200830152506102206138328482850161383f565b6102208301525092915050565b60008135905061384e81614b04565b92915050565b60008151905061386381614b04565b92915050565b60006020828403121561387b57600080fd5b600061388984828501613649565b91505092915050565b600080604083850312156138a557600080fd5b60006138b385828601613649565b92505060206138c48582860161383f565b9150509250929050565b6000806000606084860312156138e357600080fd5b60006138f186828701613649565b93505060206139028682870161383f565b92505060406139138682870161383f565b9150509250925092565b60006020828403121561392f57600080fd5b600061393d8482850161365e565b91505092915050565b60006020828403121561395857600080fd5b600061396684828501613673565b91505092915050565b60006020828403121561398157600080fd5b600061398f84828501613688565b91505092915050565b600080604083850312156139ab57600080fd5b60006139b985828601613688565b92505060206139ca8582860161383f565b9150509250929050565b600080600080600080600060e0888a0312156139ef57600080fd5b60006139fd8a828b01613688565b9750506020613a0e8a828b0161383f565b9650506040613a1f8a828b0161383f565b9550506060613a308a828b0161383f565b9450506080613a418a828b0161383f565b93505060a0613a528a828b0161383f565b92505060c0613a638a828b0161383f565b91505092959891949750929550565b60006102408284031215613a8557600080fd5b6000613a938482850161369d565b91505092915050565b600060208284031215613aae57600080fd5b6000613abc8482850161383f565b91505092915050565b600060208284031215613ad757600080fd5b6000613ae584828501613854565b91505092915050565b6000613afa8383613fd8565b6101208301905092915050565b613b10816148cd565b82525050565b6000613b2182614768565b613b2b818561478b565b9350613b3683614758565b8060005b83811015613b67578151613b4e8882613aee565b9750613b598361477e565b925050600181019050613b3a565b5085935050505092915050565b613b7d816148df565b82525050565b613b8c81614932565b82525050565b613ba3613b9e82614932565b6149c0565b82525050565b6000613bb482614773565b613bbe81856147ad565b9350613bce818560208601614944565b80840191505092915050565b6000613be76007836147ad565b91507f6d696e696d756d000000000000000000000000000000000000000000000000006000830152600782019050919050565b6000613c27602b8361479c565b91507f5646696e69783a204d696e696d756d20616d6f756e7420726571756972656d6560008301527f6e74206e6f74206d65742e0000000000000000000000000000000000000000006020830152604082019050919050565b6000613c8d60228361479c565b91507f4c69624469616d6f6e643a204d75737420626520636f6e7472616374206f776e60008301527f65720000000000000000000000000000000000000000000000000000000000006020830152604082019050919050565b6000613cf3600d836147ad565b91507f70656e616c7479506572696f64000000000000000000000000000000000000006000830152600d82019050919050565b6000613d33600b836147ad565b91507f70656e616c7479526174650000000000000000000000000000000000000000006000830152600b82019050919050565b6000613d73602a8361479c565b91507f5646696e69785661756c743a204e6f7420656e6f756768207646696e6978207460008301527f6f207769746864726177000000000000000000000000000000000000000000006020830152604082019050919050565b6000613dd96005836147ad565b91507f46494e49580000000000000000000000000000000000000000000000000000006000830152600582019050919050565b6000613e19602c8361479c565b91507f7646696e69785661756c743a20546869732068617320616c726561647920626560008301527f656e20756e6c6f636b65642e00000000000000000000000000000000000000006020830152604082019050919050565b6000613e7f6012836147ad565b91507f70656e616c747952617465446563696d616c00000000000000000000000000006000830152601282019050919050565b6000613ebf600a836147ad565b91507f6d756c7469706c696572000000000000000000000000000000000000000000006000830152600a82019050919050565b6000613eff6006836147ad565b91507f706572696f6400000000000000000000000000000000000000000000000000006000830152600682019050919050565b6000613f3f601e836147ad565b91507f5661756c7450656e616c747946616365742e6275726e5f6164647265737300006000830152601e82019050919050565b6000613f7f60228361479c565b91507f5646696e69785661756c743a20596f7520617265206265696e672070656e616c60008301527f74790000000000000000000000000000000000000000000000000000000000006020830152604082019050919050565b61012082016000820151613fef60008501826142ba565b5060208201516140026020850182613b83565b50604082015161401560408501826142ba565b50606082015161402860608501826142ba565b50608082015161403b60808501826142ba565b5060a082015161404e60a08501826142ba565b5060c082015161406160c08501826142ba565b5060e082015161407460e0850182613b74565b50610100820151614089610100850182613b74565b50505050565b610120820160008201516140a660008501826142ba565b5060208201516140b96020850182613b83565b5060408201516140cc60408501826142ba565b5060608201516140df60608501826142ba565b5060808201516140f260808501826142ba565b5060a082015161410560a08501826142ba565b5060c082015161411860c08501826142ba565b5060e082015161412b60e0850182613b74565b50610100820151614140610100850182613b74565b50505050565b6102408201600082015161415d60008501826142ba565b50602082015161417060208501826142ba565b50604082015161418360408501826142ba565b50606082015161419660608501826142ba565b5060808201516141a960808501826142ba565b5060a08201516141bc60a08501826142ba565b5060c08201516141cf60c08501826142ba565b5060e08201516141e260e08501826142ba565b506101008201516141f76101008501826142ba565b5061012082015161420c6101208501826142ba565b506101408201516142216101408501826142ba565b506101608201516142366101608501826142ba565b5061018082015161424b6101808501826142ba565b506101a08201516142606101a08501826142ba565b506101c08201516142756101c08501826142ba565b506101e082015161428a6101e08501826142ba565b5061020082015161429f6102008501826142ba565b506102208201516142b46102208501826142ba565b50505050565b6142c381614928565b82525050565b6142d281614928565b82525050565b60006142e48284613ba9565b915081905092915050565b60006142fb8285613ba9565b91506143078284613b92565b6001820191508190509392505050565b60006143238285613ba9565b915061432f8284613b92565b60018201915061433e82613bda565b91508190509392505050565b60006143568285613ba9565b91506143628284613b92565b60018201915061437182613ce6565b91508190509392505050565b60006143898285613ba9565b91506143958284613b92565b6001820191506143a482613d26565b91508190509392505050565b60006143bc8285613ba9565b91506143c88284613b92565b6001820191506143d782613e72565b91508190509392505050565b60006143ef8285613ba9565b91506143fb8284613b92565b60018201915061440a82613eb2565b91508190509392505050565b60006144228285613ba9565b915061442e8284613b92565b60018201915061443d82613ef2565b91508190509392505050565b600061445482613dcc565b9150819050919050565b600061446982613f32565b9150819050919050565b60006020820190506144886000830184613b07565b92915050565b60006060820190506144a36000830186613b07565b6144b06020830185613b07565b6144bd60408301846142c9565b949350505050565b60006040820190506144da6000830185613b07565b6144e760208301846142c9565b9392505050565b60006080820190506145036000830187613b07565b61451060208301866142c9565b61451d60408301856142c9565b61452a60608301846142c9565b95945050505050565b6000602082019050818103600083015261454d8184613b16565b905092915050565b6000602082019050818103600083015261456e81613c1a565b9050919050565b6000602082019050818103600083015261458e81613c80565b9050919050565b600060208201905081810360008301526145ae81613d66565b9050919050565b600060208201905081810360008301526145ce81613e0c565b9050919050565b600060208201905081810360008301526145ee81613f72565b9050919050565b60006101208201905061460b600083018461408f565b92915050565b6000610240820190506146276000830184614146565b92915050565b600060208201905061464260008301846142c9565b92915050565b600060c08201905061465d60008301896142c9565b61466a60208301886142c9565b61467760408301876142c9565b61468460608301866142c9565b61469160808301856142c9565b61469e60a08301846142c9565b979650505050505050565b6000610100820190506146bf600083018b6142c9565b6146cc602083018a6142c9565b6146d960408301896142c9565b6146e660608301886142c9565b6146f360808301876142c9565b61470060a08301866142c9565b61470d60c08301856142c9565b61471a60e08301846142c9565b9998505050505050505050565b6000604051905081810181811067ffffffffffffffff8211171561474e5761474d614a5f565b5b8060405250919050565b6000819050602082019050919050565b600081519050919050565b600081519050919050565b6000602082019050919050565b600082825260208201905092915050565b600082825260208201905092915050565b600081905092915050565b60006147c382614928565b91506147ce83614928565b9250827fffffffffffffffffffffffffffffffffffffffffffffffffffffffffffffffff03821115614803576148026149d2565b5b828201905092915050565b600061481982614928565b915061482483614928565b92508261483457614833614a01565b5b828204905092915050565b600061484a82614928565b915061485583614928565b9250817fffffffffffffffffffffffffffffffffffffffffffffffffffffffffffffffff048311821515161561488e5761488d6149d2565b5b828202905092915050565b60006148a482614928565b91506148af83614928565b9250828210156148c2576148c16149d2565b5b828203905092915050565b60006148d882614908565b9050919050565b60008115159050919050565b6000819050919050565b600081905061490382614a9b565b919050565b600073ffffffffffffffffffffffffffffffffffffffff82169050919050565b6000819050919050565b600061493d826148f5565b9050919050565b60005b83811015614962578082015181840152602081019050614947565b83811115614971576000848401525b50505050565b600061498282614928565b91507fffffffffffffffffffffffffffffffffffffffffffffffffffffffffffffffff8214156149b5576149b46149d2565b5b600182019050919050565b60006149cb82614a8e565b9050919050565b7f4e487b7100000000000000000000000000000000000000000000000000000000600052601160045260246000fd5b7f4e487b7100000000000000000000000000000000000000000000000000000000600052601260045260246000fd5b7f4e487b7100000000000000000000000000000000000000000000000000000000600052602160045260246000fd5b7f4e487b7100000000000000000000000000000000000000000000000000000000600052604160045260246000fd5b60008160f81b9050919050565b60038110614aac57614aab614a30565b5b50565b614ab8816148cd565b8114614ac357600080fd5b50565b614acf816148df565b8114614ada57600080fd5b50565b614ae6816148eb565b8114614af157600080fd5b50565b60038110614b0157600080fd5b50565b614b0d81614928565b8114614b1857600080fd5b5056fea2646970667358221220a7365040e91069a69629d910e87139e52d1c97da0621a7c65ef00760fd7e90eb64736f6c63430008000033",
  "immutableReferences": {},
  "source": "// SPDX-License-Identifier: MIT\npragma solidity ^0.8.0;\n\nimport { LibDiamond } from \"../libraries/LibDiamond.sol\";\nimport \"../interfaces/IVaultFacet.sol\";\nimport \"../interfaces/IKIP7.sol\";\nimport \"../utils/math/SafeMath.sol\";\nimport \"../interfaces/IUsageFacet.sol\";\nimport \"../interfaces/IRewardFacet.sol\";\n\n\ncontract VaultFacet is IVaultFacet{\n    using SafeMath for uint256;\n\n    uint256 constant private MULTIPLIER_DIVISOR = 10;\n    string constant private KEY_LOCK_PERIOD = \"lock_period\";\n    string constant private KEY_LOCK_COUNT = \"lock_count\";\n\n    function lockCount(address _user) external override view returns(uint256) {\n        LibDiamond.DiamondStorage storage ds = LibDiamond.diamondStorage();\n        return ds.userLocksCount[_user];\n    }\n\n    function locks(address _user,uint256 _startIndex,uint256 _endIndex) external override view returns(LibDiamond.LockInfo[] memory locks_){\n        LibDiamond.DiamondStorage storage ds = LibDiamond.diamondStorage();\n        uint256 userLocksCount_ = ds.userLocksCount[_user];\n        if(_endIndex > 0){\n            userLocksCount_ = _endIndex;\n        }\n        if(userLocksCount_ > 0) {\n            locks_= new LibDiamond.LockInfo[](userLocksCount_);\n            for (uint256 i = _startIndex; i < userLocksCount_; i++) {\n                bytes32 key = keccak256(abi.encode(_user,i));\n                locks_[i] = ds.locksMap[key];\n            }\n        }\n    }\n\n    function getLockMap(bytes32 key) external override view returns(LibDiamond.LockInfo memory lockInfo_) {\n        LibDiamond.DiamondStorage storage ds = LibDiamond.diamondStorage();\n        lockInfo_ = ds.locksMap[key];\n    }\n\n    function lockInfo(address _user,uint256 _lockIndex) external override view returns(LibDiamond.LockInfo memory lockInfo_){\n        LibDiamond.DiamondStorage storage ds = LibDiamond.diamondStorage();\n        bytes32 key = keccak256(abi.encode(_user,_lockIndex));\n        lockInfo_ = ds.locksMap[key];\n    }\n\n    function getUserLockAmount(address _user) external override view returns(uint256) {\n        LibDiamond.DiamondStorage storage ds = LibDiamond.diamondStorage();\n        return ds.userLocksAmount[_user];\n    }\n    event FinixLock(address _user,uint256 indexed _lockAmount,uint256 _vFinixAmount,uint256 indexed _lockIndex,bytes32 indexed _lockKey);\n    function lock(LibDiamond.LockLevel _level,uint256 _lockAmount) external override {\n        LibDiamond.DiamondStorage storage ds = LibDiamond.diamondStorage();\n        (,uint256 multiplier_,uint256 minimum_, , , ) = _getLockPerioid(_level);\n        require(_lockAmount >= minimum_,\"VFinix: Minimum amount requirement not met.\");\n        address FINIX = LibDiamond.getAddress(keccak256(abi.encodePacked(\"FINIX\")));\n        IKIP7(FINIX).transferFrom(msg.sender, address(this), _lockAmount);\n        // Calculate vFINIX return\n        uint256 vFinixAmount = _lockAmount.mul(multiplier_).div(MULTIPLIER_DIVISOR);\n\n        uint256 userLocksCount_ = ds.userLocksCount[msg.sender];\n        uint256 userLocksAmount_ = ds.userLocksAmount[msg.sender];\n        bytes32 key = keccak256(abi.encode(msg.sender,userLocksCount_));\n        ds.locksMap[key] = LibDiamond.LockInfo(userLocksCount_,_level,_lockAmount,vFinixAmount,block.timestamp,0,0,false,false);\n        emit FinixLock(msg.sender,_lockAmount,vFinixAmount,userLocksCount_,key);\n        \n        ds.userLocksCount[msg.sender] = userLocksCount_.add(1);\n        ds.userLocksAmount[msg.sender] = userLocksAmount_.add(_lockAmount);\n        _increaseTotalLockCount();\n        _increaseTotalLevelLockCount(_level);\n        // update lock data\n        ds.totalFinixLockAtLevel[_level] = ds.totalFinixLockAtLevel[_level].add(_lockAmount);\n        ds.totalFinixLock = ds.totalFinixLock.add(_lockAmount);\n        // Harvest if applicable\n        IRewardFacet(address(this)).harvest(msg.sender);\n        // mint vFINIX\n        _mintVFinix(msg.sender, vFinixAmount);\n    }\n    event finixUnlock(address _user,uint256  _finixTranferAmount,uint256  _vfinixBurnAmount,uint256  _unlockIndex);\n\n    function unlock(uint256 _lockIndex) external override {\n        LibDiamond.DiamondStorage storage ds = LibDiamond.diamondStorage();\n        // Get FINIX Address from Eternal Storage\n        address FINIX = LibDiamond.getAddress(\n            keccak256(abi.encodePacked(\"FINIX\"))\n        );\n        // TDO: Yield Operation\n        IRewardFacet(address(this)).harvest(msg.sender);\n        // Get Lock info\n        bytes32 key = keccak256(abi.encode(msg.sender, _lockIndex));\n        LibDiamond.LockInfo storage lockInfo_ = ds.locksMap[key];\n        \n        require(lockInfo_.isPenalty == false,\"VFinixVault: You are being penalty\");\n\n        require(\n            lockInfo_.isUnlocked == false,\n            \"vFinixVault: This has already been unlocked.\"\n        );\n\n        // Check ending period\n        (uint256 period_, , , , ,) = _getLockPerioid(lockInfo_.level);\n        // TO FIX LOGIC\n        // require(block.timestamp > lockInfo_.lockTimestamp + period_,\"vFinixVault: Lock period is not ended yet.\");\n        // Check for available vFinix from all farms and pools staking\n        uint256 availableVotes = IUsageFacet(address(this)).getAvailableVotes(msg.sender);\n        \n        require(availableVotes >= lockInfo_.voteAmount,\"VFinixVault: Not enough vFinix to withdraw\");\n        \n        if (block.timestamp < lockInfo_.lockTimestamp + period_) {\n            // ((((lockInfo_.lockTimestamp + period_) - block.timestamp) * 10) / 86400 )/10; // \n                address burnAddress = LibDiamond.getAddress(keccak256(abi.encodePacked(\"VaultPenaltyFacet.burn_address\")));\n\n                lockInfo_.isPenalty = true;\n                lockInfo_.penaltyUnlockTimestamp = block.timestamp;\n                _burnVFinix(msg.sender, lockInfo_.voteAmount);\n                _mintVFinix(burnAddress, lockInfo_.voteAmount);\n       }else {\n            // Mark Unlock\n            lockInfo_.isUnlocked = true;\n            // Burn vFinix\n            _burnVFinix(msg.sender, lockInfo_.voteAmount);\n            // Decreaase total Lock Amount\n            uint256 userLocksAmount_ = ds.userLocksAmount[msg.sender];\n            ds.userLocksAmount[msg.sender] = userLocksAmount_.sub(lockInfo_.lockAmount);\n            // Transfer back FINIX\n            IKIP7(FINIX).transfer(msg.sender, lockInfo_.lockAmount);\n            // update lock data\n            _decreaseTotalLockCount();\n            _decreaseTotalLevelLockCount(lockInfo_.level);\n            ds.totalFinixLockAtLevel[lockInfo_.level] = ds.totalFinixLockAtLevel[lockInfo_.level].sub(lockInfo_.lockAmount);\n            ds.totalFinixLock = ds.totalFinixLock.sub(lockInfo_.lockAmount);   \n        }\n        emit finixUnlock(msg.sender,lockInfo_.lockAmount,lockInfo_.voteAmount,_lockIndex);\n    }\n    \n    function getTotalFinixLock() public override view returns(\n        uint256 totalFinixLock_,\n        uint256 totalFinixLockAtLevel1_,\n        uint256 totalFinixLockAtLevel2_,\n        uint256 totalFinixLockAtLevel3_,\n        uint256 totalLockCount_,\n        uint256 totalLockLevel1Count_,\n        uint256 totalLockLevel2Count_,\n        uint256 totalLockLevel3Count_) {\n\n        // \n        LibDiamond.DiamondStorage storage ds = LibDiamond.diamondStorage();\n        totalFinixLock_ = ds.totalFinixLock;\n        totalFinixLockAtLevel1_ = ds.totalFinixLockAtLevel[LibDiamond.LockLevel.Level1];\n        totalFinixLockAtLevel2_ = ds.totalFinixLockAtLevel[LibDiamond.LockLevel.Level2];\n        totalFinixLockAtLevel3_ = ds.totalFinixLockAtLevel[LibDiamond.LockLevel.Level3];\n        totalLockCount_ = LibDiamond.getUint(keccak256(abi.encodePacked(KEY_LOCK_COUNT)));\n        totalLockLevel1Count_ = LibDiamond.getUint(keccak256(abi.encodePacked(KEY_LOCK_COUNT,LibDiamond.LockLevel.Level1)));\n        totalLockLevel2Count_ = LibDiamond.getUint(keccak256(abi.encodePacked(KEY_LOCK_COUNT,LibDiamond.LockLevel.Level2)));\n        totalLockLevel3Count_ = LibDiamond.getUint(keccak256(abi.encodePacked(KEY_LOCK_COUNT,LibDiamond.LockLevel.Level3)));\n    }\n\n    function getAllLockPeriods () external override view returns(\n            LibDiamond.ParamLockPeriods memory param_\n        ) {\n\n        param_._period1 = LibDiamond.getUint(keccak256(abi.encodePacked(KEY_LOCK_PERIOD,LibDiamond.LockLevel.Level1,\"period\")));\n        param_._multiplier1 = LibDiamond.getUint(keccak256(abi.encodePacked(KEY_LOCK_PERIOD,LibDiamond.LockLevel.Level1,\"multiplier\")));\n        param_._minimum1 = LibDiamond.getUint(keccak256(abi.encodePacked(KEY_LOCK_PERIOD,LibDiamond.LockLevel.Level1,\"minimum\")));\n        param_._penaltyPeriod1 = LibDiamond.getUint(keccak256(abi.encodePacked(KEY_LOCK_PERIOD,LibDiamond.LockLevel.Level1,\"penaltyPeriod\")));\n        param_._penaltyRate1 = LibDiamond.getUint(keccak256(abi.encodePacked(KEY_LOCK_PERIOD,LibDiamond.LockLevel.Level1,\"penaltyRate\")));\n        param_._penaltyRateDecimal1 = LibDiamond.getUint(keccak256(abi.encodePacked(KEY_LOCK_PERIOD,LibDiamond.LockLevel.Level1,\"penaltyRateDecimal\")));\n\n        param_._period2 = LibDiamond.getUint(keccak256(abi.encodePacked(KEY_LOCK_PERIOD,LibDiamond.LockLevel.Level2,\"period\")));\n        param_._multiplier2 =LibDiamond.getUint(keccak256(abi.encodePacked(KEY_LOCK_PERIOD,LibDiamond.LockLevel.Level2,\"multiplier\")));\n        param_._minimum2 = LibDiamond.getUint(keccak256(abi.encodePacked(KEY_LOCK_PERIOD,LibDiamond.LockLevel.Level2,\"minimum\")));\n        param_._penaltyPeriod2 = LibDiamond.getUint(keccak256(abi.encodePacked(KEY_LOCK_PERIOD,LibDiamond.LockLevel.Level2,\"penaltyPeriod\")));\n        param_._penaltyRate2 = LibDiamond.getUint(keccak256(abi.encodePacked(KEY_LOCK_PERIOD,LibDiamond.LockLevel.Level2,\"penaltyRate\")));\n        param_._penaltyRateDecimal2 = LibDiamond.getUint(keccak256(abi.encodePacked(KEY_LOCK_PERIOD,LibDiamond.LockLevel.Level2,\"penaltyRateDecimal\")));\n\n        param_._period3 = LibDiamond.getUint(keccak256(abi.encodePacked(KEY_LOCK_PERIOD,LibDiamond.LockLevel.Level3,\"period\")));\n        param_._multiplier3 = LibDiamond.getUint(keccak256(abi.encodePacked(KEY_LOCK_PERIOD,LibDiamond.LockLevel.Level3,\"multiplier\")));\n        param_._minimum3 = LibDiamond.getUint(keccak256(abi.encodePacked(KEY_LOCK_PERIOD,LibDiamond.LockLevel.Level3,\"minimum\")));\n        param_._penaltyPeriod3 = LibDiamond.getUint(keccak256(abi.encodePacked(KEY_LOCK_PERIOD,LibDiamond.LockLevel.Level3,\"penaltyPeriod\")));\n        param_._penaltyRate3 = LibDiamond.getUint(keccak256(abi.encodePacked(KEY_LOCK_PERIOD,LibDiamond.LockLevel.Level3,\"penaltyRate\")));\n        param_._penaltyRateDecimal3 = LibDiamond.getUint(keccak256(abi.encodePacked(KEY_LOCK_PERIOD,LibDiamond.LockLevel.Level3,\"penaltyRateDecimal\")));\n    }\n\n    function setUpLockPeriods(\n        LibDiamond.ParamLockPeriods memory param_\n    ) external override {\n        LibDiamond.enforceIsContractOwner();\n\n        LibDiamond.setUint(keccak256(abi.encodePacked(KEY_LOCK_PERIOD,LibDiamond.LockLevel.Level1,\"period\")),param_._period1);\n        LibDiamond.setUint(keccak256(abi.encodePacked(KEY_LOCK_PERIOD,LibDiamond.LockLevel.Level1,\"multiplier\")),param_._multiplier1);\n        LibDiamond.setUint(keccak256(abi.encodePacked(KEY_LOCK_PERIOD,LibDiamond.LockLevel.Level1,\"minimum\")),param_._minimum1);\n        LibDiamond.setUint(keccak256(abi.encodePacked(KEY_LOCK_PERIOD,LibDiamond.LockLevel.Level1,\"penaltyPeriod\")),param_._penaltyPeriod1);\n        LibDiamond.setUint(keccak256(abi.encodePacked(KEY_LOCK_PERIOD,LibDiamond.LockLevel.Level1,\"penaltyRate\")),param_._penaltyRate1);\n        LibDiamond.setUint(keccak256(abi.encodePacked(KEY_LOCK_PERIOD,LibDiamond.LockLevel.Level1,\"penaltyRateDecimal\")),param_._penaltyRateDecimal1);\n\n        LibDiamond.setUint(keccak256(abi.encodePacked(KEY_LOCK_PERIOD,LibDiamond.LockLevel.Level2,\"period\")),param_._period2);\n        LibDiamond.setUint(keccak256(abi.encodePacked(KEY_LOCK_PERIOD,LibDiamond.LockLevel.Level2,\"multiplier\")),param_._multiplier2);\n        LibDiamond.setUint(keccak256(abi.encodePacked(KEY_LOCK_PERIOD,LibDiamond.LockLevel.Level2,\"minimum\")),param_._minimum2);\n        LibDiamond.setUint(keccak256(abi.encodePacked(KEY_LOCK_PERIOD,LibDiamond.LockLevel.Level2,\"penaltyPeriod\")),param_._penaltyPeriod2);\n        LibDiamond.setUint(keccak256(abi.encodePacked(KEY_LOCK_PERIOD,LibDiamond.LockLevel.Level2,\"penaltyRate\")),param_._penaltyRate2);\n        LibDiamond.setUint(keccak256(abi.encodePacked(KEY_LOCK_PERIOD,LibDiamond.LockLevel.Level2,\"penaltyRateDecimal\")),param_._penaltyRateDecimal2);\n\n        LibDiamond.setUint(keccak256(abi.encodePacked(KEY_LOCK_PERIOD,LibDiamond.LockLevel.Level3,\"period\")),param_._period3);\n        LibDiamond.setUint(keccak256(abi.encodePacked(KEY_LOCK_PERIOD,LibDiamond.LockLevel.Level3,\"multiplier\")),param_._multiplier3);\n        LibDiamond.setUint(keccak256(abi.encodePacked(KEY_LOCK_PERIOD,LibDiamond.LockLevel.Level3,\"minimum\")),param_._minimum3);\n        LibDiamond.setUint(keccak256(abi.encodePacked(KEY_LOCK_PERIOD,LibDiamond.LockLevel.Level3,\"penaltyPeriod\")),param_._penaltyPeriod3);\n        LibDiamond.setUint(keccak256(abi.encodePacked(KEY_LOCK_PERIOD,LibDiamond.LockLevel.Level3,\"penaltyRate\")),param_._penaltyRate3);\n        LibDiamond.setUint(keccak256(abi.encodePacked(KEY_LOCK_PERIOD,LibDiamond.LockLevel.Level3,\"penaltyRateDecimal\")),param_._penaltyRateDecimal3);\n    }\n\n    function setLockPeriod(LibDiamond.LockLevel _level,uint256 _period,uint256 _multiplier,uint256 _mininum,uint256 _penaltyPeriod,uint256 _penaltyRate,uint256 _penaltyRateDecimal) external override {\n        LibDiamond.enforceIsContractOwner();\n        LibDiamond.setUint(keccak256(abi.encodePacked(KEY_LOCK_PERIOD,_level,\"period\")),_period);\n        LibDiamond.setUint(keccak256(abi.encodePacked(KEY_LOCK_PERIOD,_level,\"multiplier\")),_multiplier);\n        LibDiamond.setUint(keccak256(abi.encodePacked(KEY_LOCK_PERIOD,_level,\"minimum\")),_mininum);\n        LibDiamond.setUint(keccak256(abi.encodePacked(KEY_LOCK_PERIOD,_level,\"penaltyPeriod\")),_penaltyPeriod);\n        LibDiamond.setUint(keccak256(abi.encodePacked(KEY_LOCK_PERIOD,_level,\"penaltyRate\")),_penaltyRate);\n        LibDiamond.setUint(keccak256(abi.encodePacked(KEY_LOCK_PERIOD,_level,\"penaltyRateDecimal\")),_penaltyRateDecimal);\n    }\n    function getLockPeriod(LibDiamond.LockLevel _level) external override view returns(uint256 period_,uint256 multiplier_,uint256 minimum_,uint256 penaltyPeriod_,uint256 penaltyRate_,uint256 penaltyRateDecimal_) {\n        return _getLockPerioid(_level);\n    }\n\n    function _getLockPerioid(LibDiamond.LockLevel _level) internal view returns(uint256 period_,uint256 multiplier_,uint256 minimum_,uint256 penaltyPeriod_,uint256 penaltyRate_,uint256 penaltyRateDecimal_) {\n        period_ = LibDiamond.getUint(keccak256(abi.encodePacked(KEY_LOCK_PERIOD,_level,\"period\")));\n        multiplier_ = LibDiamond.getUint(keccak256(abi.encodePacked(KEY_LOCK_PERIOD,_level,\"multiplier\")));\n        minimum_ = LibDiamond.getUint(keccak256(abi.encodePacked(KEY_LOCK_PERIOD,_level,\"minimum\")));\n        penaltyPeriod_ = LibDiamond.getUint(keccak256(abi.encodePacked(KEY_LOCK_PERIOD,_level,\"penaltyPeriod\")));\n        penaltyRate_ = LibDiamond.getUint(keccak256(abi.encodePacked(KEY_LOCK_PERIOD,_level,\"penaltyRate\")));\n        penaltyRateDecimal_ = LibDiamond.getUint(keccak256(abi.encodePacked(KEY_LOCK_PERIOD,_level,\"penaltyRateDecimal\")));\n    }\n\n    function _mintVFinix(address _holder,uint256 _amount) internal {\n        LibDiamond.increaseTotalSupply(_amount);\n        LibDiamond.increaseBalance(_holder,_amount);\n        emit LibDiamond.Transfer(address(0), _holder, _amount);\n    }\n\n    function _burnVFinix(address _holder,uint256 _amount) internal {\n        LibDiamond.decreaseTotalSupply(_amount);\n        LibDiamond.decreaseBalance(_holder, _amount);\n        emit LibDiamond.Transfer(_holder, address(0), _amount);\n    } \n\n    function _increaseTotalLockCount() internal  {\n        uint256 totalLockCount = LibDiamond.getUint(keccak256(abi.encodePacked(KEY_LOCK_COUNT)));\n        LibDiamond.setUint(keccak256(abi.encodePacked(KEY_LOCK_COUNT)),totalLockCount.add(1));\n    }\n\n    function _increaseTotalLevelLockCount(LibDiamond.LockLevel _level) internal  {\n        uint256 totalLockCount = LibDiamond.getUint(keccak256(abi.encodePacked(KEY_LOCK_COUNT,_level)));\n        LibDiamond.setUint(keccak256(abi.encodePacked(KEY_LOCK_COUNT,_level)),totalLockCount.add(1));\n    }\n\n     function _decreaseTotalLockCount() internal  {\n        uint256 totalLockCount = LibDiamond.getUint(keccak256(abi.encodePacked(KEY_LOCK_COUNT)));\n        LibDiamond.setUint(keccak256(abi.encodePacked(KEY_LOCK_COUNT)),totalLockCount.sub(1));\n    }\n\n    function _decreaseTotalLevelLockCount(LibDiamond.LockLevel _level) internal  {\n        uint256 totalLockCount = LibDiamond.getUint(keccak256(abi.encodePacked(KEY_LOCK_COUNT,_level)));\n        LibDiamond.setUint(keccak256(abi.encodePacked(KEY_LOCK_COUNT,_level)),totalLockCount.sub(1));\n    }\n}\n",
  "sourcePath": "/Users/kanthakarn/Documents/work/six-network/definix-vfinix/contracts/facets/VaultFacet.sol",
  "compiler": {
    "name": "solc",
    "version": "0.8.0+commit.c7dfd78e.Emscripten.clang"
  },
  "schemaVersion": "3.4.1",
  "updatedAt": "2021-10-17T01:51:50.348Z",
  "networkType": "ethereum",
  "devdoc": {
    "kind": "dev",
    "methods": {},
    "version": 1
  },
  "userdoc": {
    "kind": "user",
    "methods": {},
    "version": 1
  }
}