{
  "contractName": "VaultTopUpFeatureFacet",
  "abi": [
    {
      "anonymous": false,
      "inputs": [
        {
          "indexed": false,
          "internalType": "address",
          "name": "_user",
          "type": "address"
        },
        {
          "indexed": true,
          "internalType": "uint256",
          "name": "_lockAmount",
          "type": "uint256"
        },
        {
          "indexed": false,
          "internalType": "uint256",
          "name": "_vFinixAmount",
          "type": "uint256"
        },
        {
          "indexed": true,
          "internalType": "uint256",
          "name": "_lockIndex",
          "type": "uint256"
        },
        {
          "indexed": true,
          "internalType": "bytes32",
          "name": "_lockKey",
          "type": "bytes32"
        }
      ],
      "name": "FinixLock",
      "type": "event"
    },
    {
      "anonymous": false,
      "inputs": [
        {
          "indexed": false,
          "internalType": "address",
          "name": "_user",
          "type": "address"
        },
        {
          "indexed": true,
          "internalType": "uint256",
          "name": "_lockAmount",
          "type": "uint256"
        },
        {
          "indexed": false,
          "internalType": "uint256",
          "name": "_vFinixAmount",
          "type": "uint256"
        },
        {
          "indexed": true,
          "internalType": "enum LibDiamond.LockLevel",
          "name": "_level",
          "type": "uint8"
        },
        {
          "indexed": true,
          "internalType": "uint256",
          "name": "_idLastMaxLv",
          "type": "uint256"
        }
      ],
      "name": "FinixLockPlus",
      "type": "event"
    },
    {
      "anonymous": false,
      "inputs": [
        {
          "indexed": false,
          "internalType": "address",
          "name": "_user",
          "type": "address"
        },
        {
          "indexed": true,
          "internalType": "uint256",
          "name": "_lockAmount",
          "type": "uint256"
        },
        {
          "indexed": false,
          "internalType": "uint256",
          "name": "_vFinixAmount",
          "type": "uint256"
        },
        {
          "indexed": true,
          "internalType": "enum LibDiamond.LockLevel",
          "name": "_level",
          "type": "uint8"
        },
        {
          "indexed": true,
          "internalType": "uint256",
          "name": "_lockInfoIdRef",
          "type": "uint256"
        }
      ],
      "name": "FinixLockPlusIncrease",
      "type": "event"
    },
    {
      "inputs": [
        {
          "internalType": "enum LibDiamond.LockLevel",
          "name": "_level",
          "type": "uint8"
        },
        {
          "internalType": "uint256",
          "name": "idLastMaxLv",
          "type": "uint256"
        },
        {
          "internalType": "uint256",
          "name": "_finixAmount",
          "type": "uint256"
        }
      ],
      "name": "lockPlus",
      "outputs": [],
      "stateMutability": "nonpayable",
      "type": "function"
    },
    {
      "inputs": [
        {
          "internalType": "enum LibDiamond.LockLevel",
          "name": "_level",
          "type": "uint8"
        }
      ],
      "name": "getTotalLockPlusLevel",
      "outputs": [
        {
          "internalType": "uint256",
          "name": "",
          "type": "uint256"
        }
      ],
      "stateMutability": "view",
      "type": "function",
      "constant": true
    },
    {
      "inputs": [],
      "name": "getTotalLockPlusLevels",
      "outputs": [
        {
          "internalType": "uint256",
          "name": "_totalFinixLockTopUpLv1",
          "type": "uint256"
        },
        {
          "internalType": "uint256",
          "name": "_totalFinixLockTopUpLv2",
          "type": "uint256"
        },
        {
          "internalType": "uint256",
          "name": "_totalFinixLockTopUpLv3",
          "type": "uint256"
        }
      ],
      "stateMutability": "view",
      "type": "function",
      "constant": true
    },
    {
      "inputs": [
        {
          "internalType": "uint256",
          "name": "_period",
          "type": "uint256"
        }
      ],
      "name": "setPeriodTopUpFeature",
      "outputs": [],
      "stateMutability": "nonpayable",
      "type": "function"
    },
    {
      "inputs": [],
      "name": "getPeriodTopUpFeature",
      "outputs": [
        {
          "internalType": "uint256",
          "name": "",
          "type": "uint256"
        }
      ],
      "stateMutability": "view",
      "type": "function",
      "constant": true
    },
    {
      "inputs": [
        {
          "internalType": "address",
          "name": "_user",
          "type": "address"
        }
      ],
      "name": "getIsTopUpLocks",
      "outputs": [
        {
          "internalType": "uint256[]",
          "name": "",
          "type": "uint256[]"
        }
      ],
      "stateMutability": "view",
      "type": "function",
      "constant": true
    },
    {
      "inputs": [
        {
          "internalType": "uint256",
          "name": "_level",
          "type": "uint256"
        }
      ],
      "name": "getTotalLockTopUpLevel",
      "outputs": [
        {
          "internalType": "uint256",
          "name": "",
          "type": "uint256"
        }
      ],
      "stateMutability": "view",
      "type": "function",
      "constant": true
    },
    {
      "inputs": [
        {
          "internalType": "address",
          "name": "_user",
          "type": "address"
        },
        {
          "internalType": "uint256",
          "name": "_lengthLockTopUp",
          "type": "uint256"
        }
      ],
      "name": "getIsTopUpLock",
      "outputs": [
        {
          "internalType": "uint256",
          "name": "",
          "type": "uint256"
        }
      ],
      "stateMutability": "view",
      "type": "function",
      "constant": true
    },
    {
      "inputs": [
        {
          "internalType": "address",
          "name": "_user",
          "type": "address"
        }
      ],
      "name": "getLengthTopUpLockUser",
      "outputs": [
        {
          "internalType": "uint256",
          "name": "",
          "type": "uint256"
        }
      ],
      "stateMutability": "view",
      "type": "function",
      "constant": true
    }
  ],
  "bytecode": "0x608060405234801561001057600080fd5b50612a4e806100206000396000f3fe608060405234801561001057600080fd5b50600436106100925760003560e01c80637ce89133116100665780637ce891331461011d57806383a3b7e91461014d578063a287c37d1461017d578063c75d56f71461019d578063d80b812c146101cd57610092565b80627739e014610097578063393352e3146100b55780636de16060146100d157806377d8eaae14610101575b600080fd5b61009f6101fd565b6040516100ac9190612625565b60405180910390f35b6100cf60048036038101906100ca9190611b4b565b610231565b005b6100eb60048036038101906100e69190611b4b565b61026a565b6040516100f89190612625565b60405180910390f35b61011b60048036038101906101169190611afc565b6102a2565b005b61013760048036038101906101329190611a45565b610e04565b6040516101449190612533565b60405180910390f35b61016760048036038101906101629190611a6e565b610f25565b6040516101749190612625565b60405180910390f35b610185610f60565b6040516101949392919061266e565b60405180910390f35b6101b760048036038101906101b29190611ad3565b61104e565b6040516101c49190612625565b60405180910390f35b6101e760048036038101906101e29190611a45565b6110a0565b6040516101f49190612625565b60405180910390f35b600061022c60405160200161021190612370565b604051602081830303815290604052805190602001206110d8565b905090565b610239611103565b61026760405160200161024b90612370565b604051602081830303815290604052805190602001208261119e565b50565b600061029b826040516020016102809190612640565b604051602081830303815290604052805190602001206110d8565b9050919050565b60006102ac6111c9565b9050600033846040516020016102c3929190612492565b6040516020818303038152906040528051906020012090506000826008016000838152602001908152602001600020905085600281111561032d577f4e487b7100000000000000000000000000000000000000000000000000000000600052602160045260246000fd5b8160010160009054906101000a900460ff166002811115610377577f4e487b7100000000000000000000000000000000000000000000000000000000600052602160045260246000fd5b146103b7576040517f08c379a00000000000000000000000000000000000000000000000000000000081526004016103ae906125c5565b60405180910390fd5b600015156103c533876111f6565b151514610407576040517f08c379a00000000000000000000000000000000000000000000000000000000081526004016103fe906125e5565b60405180910390fd5b600015158160070160019054906101000a900460ff1615151461045f576040517f08c379a0000000000000000000000000000000000000000000000000000000008152600401610456906125a5565b60405180910390fd5b600015158160070160009054906101000a900460ff161515146104b7576040517f08c379a00000000000000000000000000000000000000000000000000000000081526004016104ae90612605565b60405180910390fd5b6104bf611231565b73ffffffffffffffffffffffffffffffffffffffff166323b872dd3330876040518463ffffffff1660e01b81526004016104fb939291906123b5565b602060405180830381600087803b15801561051557600080fd5b505af1158015610529573d6000803e3d6000fd5b505050506040513d601f19601f8201168201806040525081019061054d9190611aaa565b503073ffffffffffffffffffffffffffffffffffffffff16630e5c011e336040518263ffffffff1660e01b8152600401610587919061239a565b600060405180830381600087803b1580156105a157600080fd5b505af11580156105b5573d6000803e3d6000fd5b5050505060006105c487611265565b5050505091505060006105f3600a6105e584896114e790919063ffffffff16565b6114fd90919063ffffffff16565b90506105fd6101fd565b610607338a611513565b6106119190612705565b42106109bc5760008560090160003373ffffffffffffffffffffffffffffffffffffffff1673ffffffffffffffffffffffffffffffffffffffff16815260200190815260200160002054905060003382604051602001610672929190612492565b6040516020818303038152906040528051906020012090506040518061012001604052808381526020018b60028111156106d5577f4e487b7100000000000000000000000000000000000000000000000000000000600052602160045260246000fd5b81526020018981526020018481526020014281526020016000815260200160008152602001600015158152602001600015158152508760080160008381526020019081526020016000206000820151816000015560208201518160010160006101000a81548160ff0219169083600281111561077a577f4e487b7100000000000000000000000000000000000000000000000000000000600052602160045260246000fd5b021790555060408201518160020155606082015181600301556080820151816004015560a0820151816005015560c0820151816006015560e08201518160070160006101000a81548160ff0219169083151502179055506101008201518160070160016101000a81548160ff0219169083151502179055509050508082897f4d59d3a90adc412330c80c1d7838fb3075658ced387b288fd1dc7ef2ea7a1f3d3387604051610829929190612492565b60405180910390a4610863338b6040516020016108479291906123ec565b604051602081830303815290604052805190602001208361119e565b610895338b604051602001610879929190612428565b604051602081830303815290604052805190602001204261119e565b60006108a0336110a0565b90506108d533846040516020016108b89291906124bb565b60405160208183030381529060405280519060200120600161154e565b61090733826040516020016108eb9291906124f7565b604051602081830303815290604052805190602001208461119e565b61094a3360405160200161091b9190612464565b6040516020818303038152906040528051906020012061094560018461158c90919063ffffffff16565b61119e565b6109526115a2565b61095b8b611685565b61096f60018461158c90919063ffffffff16565b8860090160003373ffffffffffffffffffffffffffffffffffffffff1673ffffffffffffffffffffffffffffffffffffffff16815260200190815260200160002081905550505050610b23565b60006109ef338a6040516020016109d49291906123ec565b604051602081830303815290604052805190602001206110d8565b905060003382604051602001610a06929190612492565b604051602081830303815290604052805190602001209050610a49888860080160008481526020019081526020016000206002015461158c90919063ffffffff16565b87600801600083815260200190815260200160002060020181905550610a90838860080160008481526020019081526020016000206003015461158c90919063ffffffff16565b87600801600083815260200190815260200160002060030181905550818a6002811115610ae6577f4e487b7100000000000000000000000000000000000000000000000000000000600052602160045260246000fd5b897f7b203e8f1a5eacb7da8ed4d6d11e4e17ceff21bb7cf8172fcaaff9f18cee51ec3387604051610b18929190612492565b60405180910390a450505b610b3a8686600b015461158c90919063ffffffff16565b85600b0181905550610bda8686600c0160008b6002811115610b85577f4e487b7100000000000000000000000000000000000000000000000000000000600052602160045260246000fd5b6002811115610bbd577f4e487b7100000000000000000000000000000000000000000000000000000000600052602160045260246000fd5b81526020019081526020016000205461158c90919063ffffffff16565b85600c0160008a6002811115610c19577f4e487b7100000000000000000000000000000000000000000000000000000000600052602160045260246000fd5b6002811115610c51577f4e487b7100000000000000000000000000000000000000000000000000000000600052602160045260246000fd5b815260200190815260200160002081905550610cb78686600a0160003373ffffffffffffffffffffffffffffffffffffffff1673ffffffffffffffffffffffffffffffffffffffff1681526020019081526020016000205461158c90919063ffffffff16565b85600a0160003373ffffffffffffffffffffffffffffffffffffffff1673ffffffffffffffffffffffffffffffffffffffff16815260200190815260200160002081905550610d06888761176d565b610d10338261179b565b610d1981611818565b3073ffffffffffffffffffffffffffffffffffffffff166347e7ef2433836040518363ffffffff1660e01b8152600401610d54929190612492565b600060405180830381600087803b158015610d6e57600080fd5b505af1158015610d82573d6000803e3d6000fd5b5050505086886002811115610dc0577f4e487b7100000000000000000000000000000000000000000000000000000000600052602160045260246000fd5b877f7bc4bab34eb26ea11a977d088f687a4835643f6aa3727bfdb3a51f061e2e7d283385604051610df2929190612492565b60405180910390a45050505050505050565b60606000610e11836110a0565b905060008167ffffffffffffffff811115610e55577f4e487b7100000000000000000000000000000000000000000000000000000000600052604160045260246000fd5b604051908082528060200260200182016040528015610e835781602001602082028036833780820191505090505b50905060005b82811015610f1a57610ec23382604051602001610ea79291906124f7565b604051602081830303815290604052805190602001206110d8565b828281518110610efb577f4e487b7100000000000000000000000000000000000000000000000000000000600052603260045260246000fd5b6020026020010181815250508080610f1290612886565b915050610e89565b508092505050919050565b6000610f588383604051602001610f3d9291906124f7565b604051602081830303815290604052805190602001206110d8565b905092915050565b6000806000610faf60006040518060600160405280602381526020016129f660239139604051602001610f94929190612555565b604051602081830303815290604052805190602001206110d8565b9250610ffb60016040518060600160405280602381526020016129f660239139604051602001610fe0929190612555565b604051602081830303815290604052805190602001206110d8565b915061104760026040518060600160405280602381526020016129f66023913960405160200161102c929190612555565b604051602081830303815290604052805190602001206110d8565b9050909192565b6000611099826040518060600160405280602381526020016129f66023913960405160200161107e929190612555565b604051602081830303815290604052805190602001206110d8565b9050919050565b60006110d1826040516020016110b69190612464565b604051602081830303815290604052805190602001206110d8565b9050919050565b6000806110e36111c9565b905080600401600084815260200190815260200160002054915050919050565b61110b6111c9565b60030160009054906101000a900473ffffffffffffffffffffffffffffffffffffffff1673ffffffffffffffffffffffffffffffffffffffff163373ffffffffffffffffffffffffffffffffffffffff161461119c576040517f08c379a000000000000000000000000000000000000000000000000000000000815260040161119390612585565b60405180910390fd5b565b60006111a86111c9565b90508181600401600085815260200190815260200160002081905550505050565b6000807fc8fcad8db84d3cc18b4c41d551ea0ee66dd599cde068d998e57d5e09332c131c90508091505090565b6000611229838360405160200161120e9291906124bb565b60405160208183030381529060405280519060200120611847565b905092915050565b600061126060405160200161124590612385565b6040516020818303038152906040528051906020012061187f565b905090565b6000806000806000806112d46040518060400160405280600b81526020017f6c6f636b5f706572696f64000000000000000000000000000000000000000000815250886040516020016112b992919061233d565b604051602081830303815290604052805190602001206110d8565b955061133c6040518060400160405280600b81526020017f6c6f636b5f706572696f640000000000000000000000000000000000000000008152508860405160200161132192919061230a565b604051602081830303815290604052805190602001206110d8565b94506113a46040518060400160405280600b81526020017f6c6f636b5f706572696f640000000000000000000000000000000000000000008152508860405160200161138992919061223e565b604051602081830303815290604052805190602001206110d8565b935061140c6040518060400160405280600b81526020017f6c6f636b5f706572696f64000000000000000000000000000000000000000000815250886040516020016113f1929190612271565b604051602081830303815290604052805190602001206110d8565b92506114746040518060400160405280600b81526020017f6c6f636b5f706572696f64000000000000000000000000000000000000000000815250886040516020016114599291906122a4565b604051602081830303815290604052805190602001206110d8565b91506114dc6040518060400160405280600b81526020017f6c6f636b5f706572696f64000000000000000000000000000000000000000000815250886040516020016114c19291906122d7565b604051602081830303815290604052805190602001206110d8565b905091939550919395565b600081836114f5919061278c565b905092915050565b6000818361150b919061275b565b905092915050565b6000611546838360405160200161152b929190612428565b604051602081830303815290604052805190602001206110d8565b905092915050565b60006115586111c9565b90508181600701600085815260200190815260200160002060006101000a81548160ff021916908315150217905550505050565b6000818361159a9190612705565b905092915050565b60006116086040518060400160405280600a81526020017f6c6f636b5f636f756e74000000000000000000000000000000000000000000008152506040516020016115ed91906121ff565b604051602081830303815290604052805190602001206110d8565b90506116826040518060400160405280600a81526020017f6c6f636b5f636f756e740000000000000000000000000000000000000000000081525060405160200161165391906121ff565b6040516020818303038152906040528051906020012061167d60018461158c90919063ffffffff16565b61119e565b50565b60006116ed6040518060400160405280600a81526020017f6c6f636b5f636f756e7400000000000000000000000000000000000000000000815250836040516020016116d2929190612216565b604051602081830303815290604052805190602001206110d8565b90506117696040518060400160405280600a81526020017f6c6f636b5f636f756e74000000000000000000000000000000000000000000008152508360405160200161173a929190612216565b6040516020818303038152906040528051906020012061176460018461158c90919063ffffffff16565b61119e565b5050565b60006117788361104e565b905061179683611791848461158c90919063ffffffff16565b6118ca565b505050565b6117a481611918565b6117ae8282611947565b8173ffffffffffffffffffffffffffffffffffffffff16600073ffffffffffffffffffffffffffffffffffffffff167fddf252ad1be2c89b69c2b068fc378daa952ba7f163c4a11628f55a4df523b3ef8360405161180c9190612625565b60405180910390a35050565b60006118226111c9565b905061183b8282600e015461158c90919063ffffffff16565b81600e01819055505050565b6000806118526111c9565b905080600701600084815260200190815260200160002060009054906101000a900460ff16915050919050565b60008061188a6111c9565b905080600501600084815260200190815260200160002060009054906101000a900473ffffffffffffffffffffffffffffffffffffffff16915050919050565b611914826040518060600160405280602381526020016129f6602391396040516020016118f8929190612555565b604051602081830303815290604052805190602001208261119e565b5050565b60006119226111c9565b905061193b8282600d015461158c90919063ffffffff16565b81600d01819055505050565b60006119516111c9565b90506119a7828260100160008673ffffffffffffffffffffffffffffffffffffffff1673ffffffffffffffffffffffffffffffffffffffff1681526020019081526020016000205461158c90919063ffffffff16565b8160100160008573ffffffffffffffffffffffffffffffffffffffff1673ffffffffffffffffffffffffffffffffffffffff16815260200190815260200160002081905550505050565b600081359050611a00816129a0565b92915050565b600081519050611a15816129b7565b92915050565b600081359050611a2a816129ce565b92915050565b600081359050611a3f816129de565b92915050565b600060208284031215611a5757600080fd5b6000611a65848285016119f1565b91505092915050565b60008060408385031215611a8157600080fd5b6000611a8f858286016119f1565b9250506020611aa085828601611a30565b9150509250929050565b600060208284031215611abc57600080fd5b6000611aca84828501611a06565b91505092915050565b600060208284031215611ae557600080fd5b6000611af384828501611a1b565b91505092915050565b600080600060608486031215611b1157600080fd5b6000611b1f86828701611a1b565b9350506020611b3086828701611a30565b9250506040611b4186828701611a30565b9150509250925092565b600060208284031215611b5d57600080fd5b6000611b6b84828501611a30565b91505092915050565b6000611b8083836121e1565b60208301905092915050565b611b95816127e6565b82525050565b6000611ba6826126b5565b611bb081856126d8565b9350611bbb836126a5565b8060005b83811015611bec578151611bd38882611b74565b9750611bde836126cb565b925050600181019050611bbf565b5085935050505092915050565b611c0281612841565b82525050565b611c19611c1482612841565b6128cf565b82525050565b6000611c2a826126c0565b611c3481856126e9565b9350611c44818560208601612853565b611c4d8161296e565b840191505092915050565b6000611c63826126c0565b611c6d81856126fa565b9350611c7d818560208601612853565b80840191505092915050565b6000611c966007836126fa565b91507f6d696e696d756d000000000000000000000000000000000000000000000000006000830152600782019050919050565b6000611cd66023836126e9565b91507f7666696e69782e546f705570466561747572652e546f74616c4c6f636b2e6c6560008301527f76656c00000000000000000000000000000000000000000000000000000000006020830152604082019050919050565b6000611d3c6022836126e9565b91507f4c69624469616d6f6e643a204d75737420626520636f6e7472616374206f776e60008301527f65720000000000000000000000000000000000000000000000000000000000006020830152604082019050919050565b6000611da2601d836126e9565b91507f5646696e69783a204964206d75737420646f6e277420756e6c6f636b2e0000006000830152602082019050919050565b6000611de2600d836126fa565b91507f70656e616c7479506572696f64000000000000000000000000000000000000006000830152600d82019050919050565b6000611e22600b836126fa565b91507f70656e616c7479526174650000000000000000000000000000000000000000006000830152600b82019050919050565b6000611e626023836126e9565b91507f7666696e69782e546f705570466561747572652e6c656e6774684c6f636b546f60008301527f70557000000000000000000000000000000000000000000000000000000000006020830152604082019050919050565b6000611ec8601b836126fa565b91507f7666696e69782e546f705570466561747572652e5f706572696f6400000000006000830152601b82019050919050565b6000611f08601e836126e9565b91507f5646696e69783a20596f7572204c6576656c20697320696e76616c69642e00006000830152602082019050919050565b6000611f48601a836126e9565b91507f7666696e69782e546f705570466561747572652e496e666f49640000000000006000830152602082019050919050565b6000611f886005836126fa565b91507f46494e49580000000000000000000000000000000000000000000000000000006000830152600582019050919050565b6000611fc86012836126fa565b91507f70656e616c747952617465446563696d616c00000000000000000000000000006000830152601282019050919050565b6000612008601d836126e9565b91507f7666696e69782e546f705570466561747572652e54696d657374616d700000006000830152602082019050919050565b6000612048601f836126e9565b91507f7666696e69782e546f705570466561747572652e69734c6f636b546f705570006000830152602082019050919050565b60006120886020836126e9565b91507f5646696e69783a204964206d75737420646f6e2774206c6f636b20706c75732e6000830152602082019050919050565b60006120c8600a836126fa565b91507f6d756c7469706c696572000000000000000000000000000000000000000000006000830152600a82019050919050565b60006121086006836126fa565b91507f706572696f6400000000000000000000000000000000000000000000000000006000830152600682019050919050565b60006121486023836126e9565b91507f7666696e69782e546f705570466561747572652e69734c6f636b546f7055704c60008301527f69737400000000000000000000000000000000000000000000000000000000006020830152604082019050919050565b60006121ae601e836126e9565b91507f5646696e69783a204964206d75737420646f6e27742070656e616c74792e00006000830152602082019050919050565b6121ea81612837565b82525050565b6121f981612837565b82525050565b600061220b8284611c58565b915081905092915050565b60006122228285611c58565b915061222e8284611c08565b6001820191508190509392505050565b600061224a8285611c58565b91506122568284611c08565b60018201915061226582611c89565b91508190509392505050565b600061227d8285611c58565b91506122898284611c08565b60018201915061229882611dd5565b91508190509392505050565b60006122b08285611c58565b91506122bc8284611c08565b6001820191506122cb82611e15565b91508190509392505050565b60006122e38285611c58565b91506122ef8284611c08565b6001820191506122fe82611fbb565b91508190509392505050565b60006123168285611c58565b91506123228284611c08565b600182019150612331826120bb565b91508190509392505050565b60006123498285611c58565b91506123558284611c08565b600182019150612364826120fb565b91508190509392505050565b600061237b82611ebb565b9150819050919050565b600061239082611f7b565b9150819050919050565b60006020820190506123af6000830184611b8c565b92915050565b60006060820190506123ca6000830186611b8c565b6123d76020830185611b8c565b6123e460408301846121f0565b949350505050565b60006060820190506124016000830185611b8c565b61240e6020830184611bf9565b818103604083015261241f81611f3b565b90509392505050565b600060608201905061243d6000830185611b8c565b61244a6020830184611bf9565b818103604083015261245b81611ffb565b90509392505050565b60006040820190506124796000830184611b8c565b818103602083015261248a81611e55565b905092915050565b60006040820190506124a76000830185611b8c565b6124b460208301846121f0565b9392505050565b60006060820190506124d06000830185611b8c565b6124dd60208301846121f0565b81810360408301526124ee8161203b565b90509392505050565b600060608201905061250c6000830185611b8c565b61251960208301846121f0565b818103604083015261252a8161213b565b90509392505050565b6000602082019050818103600083015261254d8184611b9b565b905092915050565b600060408201905061256a6000830185611bf9565b818103602083015261257c8184611c1f565b90509392505050565b6000602082019050818103600083015261259e81611d2f565b9050919050565b600060208201905081810360008301526125be81611d95565b9050919050565b600060208201905081810360008301526125de81611efb565b9050919050565b600060208201905081810360008301526125fe8161207b565b9050919050565b6000602082019050818103600083015261261e816121a1565b9050919050565b600060208201905061263a60008301846121f0565b92915050565b600060408201905061265560008301846121f0565b818103602083015261266681611cc9565b905092915050565b600060608201905061268360008301866121f0565b61269060208301856121f0565b61269d60408301846121f0565b949350505050565b6000819050602082019050919050565b600081519050919050565b600081519050919050565b6000602082019050919050565b600082825260208201905092915050565b600082825260208201905092915050565b600081905092915050565b600061271082612837565b915061271b83612837565b9250827fffffffffffffffffffffffffffffffffffffffffffffffffffffffffffffffff038211156127505761274f6128e1565b5b828201905092915050565b600061276682612837565b915061277183612837565b92508261278157612780612910565b5b828204905092915050565b600061279782612837565b91506127a283612837565b9250817fffffffffffffffffffffffffffffffffffffffffffffffffffffffffffffffff04831182151516156127db576127da6128e1565b5b828202905092915050565b60006127f182612817565b9050919050565b60008115159050919050565b60008190506128128261298c565b919050565b600073ffffffffffffffffffffffffffffffffffffffff82169050919050565b6000819050919050565b600061284c82612804565b9050919050565b60005b83811015612871578082015181840152602081019050612856565b83811115612880576000848401525b50505050565b600061289182612837565b91507fffffffffffffffffffffffffffffffffffffffffffffffffffffffffffffffff8214156128c4576128c36128e1565b5b600182019050919050565b60006128da8261297f565b9050919050565b7f4e487b7100000000000000000000000000000000000000000000000000000000600052601160045260246000fd5b7f4e487b7100000000000000000000000000000000000000000000000000000000600052601260045260246000fd5b7f4e487b7100000000000000000000000000000000000000000000000000000000600052602160045260246000fd5b6000601f19601f8301169050919050565b60008160f81b9050919050565b6003811061299d5761299c61293f565b5b50565b6129a9816127e6565b81146129b457600080fd5b50565b6129c0816127f8565b81146129cb57600080fd5b50565b600381106129db57600080fd5b50565b6129e781612837565b81146129f257600080fd5b5056fe7666696e69782e546f705570466561747572652e546f74616c4c6f636b2e6c6576656ca2646970667358221220a65d7b2e41d316f63b6380f4e650def4ba4db1db92966d3862966c76438e730664736f6c63430008000033",
  "immutableReferences": {},
  "source": "// SPDX-License-Identifier: MIT\npragma solidity ^0.8.0;\n\nimport { LibDiamond } from \"../libraries/LibDiamond.sol\";\nimport \"../interfaces/IVaultFacet.sol\";\nimport \"../interfaces/IKIP7.sol\";\nimport \"../utils/math/SafeMath.sol\";\nimport \"../interfaces/IUsageFacet.sol\";\nimport \"../interfaces/IRewardFacet.sol\";\n\n\ncontract VaultTopUpFeatureFacet {\n    using SafeMath for uint256;\n\n    uint256 constant private MULTIPLIER_DIVISOR = 10;\n    string constant private KEY_LOCK_PERIOD = \"lock_period\";\n    string constant private KEY_LOCK_COUNT = \"lock_count\";\n    string constant private KEY_TOTAL_LOCK_PLUS_LEVEL = \"vfinix.TopUpFeature.TotalLock.level\";\n\n    event FinixLock(address _user,uint256 indexed _lockAmount,uint256 _vFinixAmount,uint256 indexed _lockIndex,bytes32 indexed _lockKey);\n    event FinixLockPlusIncrease(address _user,uint256 indexed _lockAmount,uint256 _vFinixAmount,LibDiamond.LockLevel indexed _level,uint256 indexed _lockInfoIdRef);\n    event FinixLockPlus(address _user,uint256 indexed _lockAmount,uint256 _vFinixAmount,LibDiamond.LockLevel indexed _level,uint256 indexed _idLastMaxLv);\n\n    function lockPlus(LibDiamond.LockLevel _level,uint256 idLastMaxLv,uint256 _finixAmount) external {\n        LibDiamond.DiamondStorage storage ds = LibDiamond.diamondStorage();\n\n        bytes32 key = keccak256(abi.encode(msg.sender, idLastMaxLv));\n        LibDiamond.LockInfo storage lockInfo_ = ds.locksMap[key];\n        \n        require(lockInfo_.level == _level,\"VFinix: Your Level is invalid.\");\n        require(getIsLockTopUp(msg.sender,idLastMaxLv) == false,\"VFinix: Id must don't lock plus.\");\n        require(lockInfo_.isUnlocked == false,\"VFinix: Id must don't unlock.\");\n        require(lockInfo_.isPenalty == false,\"VFinix: Id must don't penalty.\");\n\n        IKIP7(getFinixAddress()).transferFrom(msg.sender, address(this), _finixAmount);\n        IRewardFacet(address(this)).harvest(msg.sender);\n\n        (,uint256 multiplier_, , , , ) = _getLockPerioid(_level);\n        uint256 vFinixAmount = _finixAmount.mul(multiplier_).div(MULTIPLIER_DIVISOR);\n        if(\n            block.timestamp >= getTopUpFeatureTimestamp(msg.sender, _level) + getPeriodTopUpFeature()\n        ){\n            uint256 userLocksCount_ = ds.userLocksCount[msg.sender];\n            bytes32 keyNewInfo = keccak256(abi.encode(msg.sender,userLocksCount_));\n            \n            ds.locksMap[keyNewInfo] = LibDiamond.LockInfo(userLocksCount_,_level,_finixAmount,vFinixAmount,block.timestamp,0,0,false,false);\n            emit FinixLock(msg.sender,_finixAmount,vFinixAmount,userLocksCount_,keyNewInfo);\n\n            LibDiamond.setUint(keccak256(abi.encode(msg.sender, _level,\"vfinix.TopUpFeature.InfoId\")),userLocksCount_);\n            LibDiamond.setUint(keccak256(abi.encode(msg.sender, _level,\"vfinix.TopUpFeature.Timestamp\")),block.timestamp);\n\n            uint256 lengthLockTopUp = getLengthTopUpLockUser(msg.sender);\n            LibDiamond.setBool(keccak256(abi.encode(msg.sender,userLocksCount_,\"vfinix.TopUpFeature.isLockTopUp\")),true);\n            LibDiamond.setUint(keccak256(abi.encode(msg.sender,lengthLockTopUp,\"vfinix.TopUpFeature.isLockTopUpList\")),userLocksCount_);\n            LibDiamond.setUint(keccak256(abi.encode(msg.sender,\"vfinix.TopUpFeature.lengthLockTopUp\")),lengthLockTopUp.add(1));\n                        \n            _increaseTotalLockCount();\n            _increaseTotalLevelLockCount(_level);\n        \n            ds.userLocksCount[msg.sender] = userLocksCount_.add(1);\n\n        }else{\n            uint256 lockInfoIdRef = LibDiamond.getUint(keccak256(abi.encode(msg.sender, _level,\"vfinix.TopUpFeature.InfoId\")));\n            bytes32 keylockInfo = keccak256(abi.encode(msg.sender,lockInfoIdRef));\n\n            ds.locksMap[keylockInfo].lockAmount = ds.locksMap[keylockInfo].lockAmount.add(_finixAmount);\n            ds.locksMap[keylockInfo].voteAmount = ds.locksMap[keylockInfo].voteAmount.add(vFinixAmount);\n\n            emit FinixLockPlusIncrease(msg.sender,_finixAmount,vFinixAmount,_level,lockInfoIdRef);\n        }   \n\n        ds.totalFinixLock = ds.totalFinixLock.add(_finixAmount);\n        ds.totalFinixLockAtLevel[_level] = ds.totalFinixLockAtLevel[_level].add(_finixAmount);\n        ds.userLocksAmount[msg.sender] = ds.userLocksAmount[msg.sender].add(_finixAmount);\n        _increaseTotalLockPlusLevel(_level,_finixAmount);\n        _mintVFinix(msg.sender, vFinixAmount);\n        _increaseTotalSupplyAllTimeMint(vFinixAmount);\n        IRewardFacet(address(this)).deposit(msg.sender,vFinixAmount);       \n\n        emit FinixLockPlus(msg.sender,_finixAmount,vFinixAmount,_level,idLastMaxLv);\n    }\n     function getIsLockTopUp(address _user,uint256 userLocksCount_) internal view returns(bool) {\n        return LibDiamond.getBool(keccak256(abi.encode(_user,userLocksCount_,\"vfinix.TopUpFeature.isLockTopUp\")));\n    }\n\n    function _increaseTotalLockPlusLevel(LibDiamond.LockLevel _level,uint256 _finixAmount) internal {\n        uint256 _totalLockPlus = getTotalLockPlusLevel(_level);\n        _setTotalLockPlusLevel(_level,_totalLockPlus.add(_finixAmount));\n    }\n\n    function _setTotalLockPlusLevel(LibDiamond.LockLevel _level,uint256 _finixAmount) internal {\n        LibDiamond.setUint(keccak256(abi.encode(_level,KEY_TOTAL_LOCK_PLUS_LEVEL)),_finixAmount);\n    }\n\n    function getTotalLockPlusLevel(LibDiamond.LockLevel _level) public view returns(uint256){\n        return LibDiamond.getUint(keccak256(abi.encode(_level,KEY_TOTAL_LOCK_PLUS_LEVEL)));\n    }\n     function getTotalLockPlusLevels() public view returns(uint256 _totalFinixLockTopUpLv1,uint256 _totalFinixLockTopUpLv2,uint256 _totalFinixLockTopUpLv3){\n        _totalFinixLockTopUpLv1 = LibDiamond.getUint(keccak256(abi.encode(LibDiamond.LockLevel.Level1,KEY_TOTAL_LOCK_PLUS_LEVEL)));\n        _totalFinixLockTopUpLv2 = LibDiamond.getUint(keccak256(abi.encode(LibDiamond.LockLevel.Level2,KEY_TOTAL_LOCK_PLUS_LEVEL)));\n        _totalFinixLockTopUpLv3 = LibDiamond.getUint(keccak256(abi.encode(LibDiamond.LockLevel.Level3,KEY_TOTAL_LOCK_PLUS_LEVEL)));\n    }\n\n    function setPeriodTopUpFeature(uint256 _period) public {\n        LibDiamond.enforceIsContractOwner();\n        LibDiamond.setUint(keccak256(abi.encodePacked(\"vfinix.TopUpFeature._period\")),_period);\n    }\n\n     function getPeriodTopUpFeature() public view returns(uint256){\n        return LibDiamond.getUint(keccak256(abi.encodePacked(\"vfinix.TopUpFeature._period\")));\n    }\n\n     function _increaseTotalSupplyAllTimeMint(uint256 _amount) internal {\n        LibDiamond.DiamondStorage storage ds = LibDiamond.diamondStorage();\n        ds.totalSupplyAllTimeMint = ds.totalSupplyAllTimeMint.add(_amount);\n    }\n\n     function _mintVFinix(address _holder,uint256 _amount) internal {\n        LibDiamond.increaseTotalSupply(_amount);\n        LibDiamond.increaseBalance(_holder,_amount);\n        emit LibDiamond.Transfer(address(0), _holder, _amount);\n    }\n\n     function _increaseTotalLockCount() internal  {\n        uint256 totalLockCount = LibDiamond.getUint(keccak256(abi.encodePacked(KEY_LOCK_COUNT)));\n        LibDiamond.setUint(keccak256(abi.encodePacked(KEY_LOCK_COUNT)),totalLockCount.add(1));\n    }\n\n     function _increaseTotalLevelLockCount(LibDiamond.LockLevel _level) internal  {\n        uint256 totalLockCount = LibDiamond.getUint(keccak256(abi.encodePacked(KEY_LOCK_COUNT,_level)));\n        LibDiamond.setUint(keccak256(abi.encodePacked(KEY_LOCK_COUNT,_level)),totalLockCount.add(1));\n    }\n\n    function _getLockPerioid(LibDiamond.LockLevel _level) internal view returns(uint256 period_,uint256 multiplier_,uint256 minimum_,uint256 penaltyPeriod_,uint256 penaltyRate_,uint256 penaltyRateDecimal_) {\n        period_ = LibDiamond.getUint(keccak256(abi.encodePacked(KEY_LOCK_PERIOD,_level,\"period\")));\n        multiplier_ = LibDiamond.getUint(keccak256(abi.encodePacked(KEY_LOCK_PERIOD,_level,\"multiplier\")));\n        minimum_ = LibDiamond.getUint(keccak256(abi.encodePacked(KEY_LOCK_PERIOD,_level,\"minimum\")));\n        penaltyPeriod_ = LibDiamond.getUint(keccak256(abi.encodePacked(KEY_LOCK_PERIOD,_level,\"penaltyPeriod\")));\n        penaltyRate_ = LibDiamond.getUint(keccak256(abi.encodePacked(KEY_LOCK_PERIOD,_level,\"penaltyRate\")));\n        penaltyRateDecimal_ = LibDiamond.getUint(keccak256(abi.encodePacked(KEY_LOCK_PERIOD,_level,\"penaltyRateDecimal\")));\n    }\n\n    function getIsTopUpLocks(address _user)public view returns(uint256[] memory){\n        uint256 topUpLocklength = getLengthTopUpLockUser(_user);\n\n        uint256[] memory _topUpLocks = new uint256[](topUpLocklength);\n        for(uint256 i = 0;i<topUpLocklength;i++){\n            _topUpLocks[i] = LibDiamond.getUint(keccak256(abi.encode(msg.sender,i,\"vfinix.TopUpFeature.isLockTopUpList\")));\n        }\n        return _topUpLocks;   \n    }\n\n    function getTotalLockTopUpLevel(uint256 _level) public view returns(uint256){\n        return LibDiamond.getUint(keccak256(abi.encode(_level,\"vfinix.TopUpFeature.TotalLock.level\")));\n    }\n\n    function getIsTopUpLock(address _user,uint256 _lengthLockTopUp)public view returns(uint256){\n        return LibDiamond.getUint(keccak256(abi.encode(_user,_lengthLockTopUp,\"vfinix.TopUpFeature.isLockTopUpList\")));\n    }\n\n    function getLengthTopUpLockUser(address _user)public view returns(uint256){\n        return LibDiamond.getUint(keccak256(abi.encode(_user,\"vfinix.TopUpFeature.lengthLockTopUp\")));\n    }\n    function getFinixAddress()internal view returns(address){\n        return LibDiamond.getAddress(keccak256(abi.encodePacked(\"FINIX\")));\n    }\n    function getTopUpFeatureTimestamp(address _user,LibDiamond.LockLevel _level) internal view returns(uint){\n        return LibDiamond.getUint(keccak256(abi.encode(_user, _level,\"vfinix.TopUpFeature.Timestamp\")));\n    }\n}\n",
  "sourcePath": "/Users/kanthakarn/Documents/work/six-network/definix-vfinix/contracts/facets/VaultTopUpFeatureFacet.sol",
  "compiler": {
    "name": "solc",
    "version": "0.8.0+commit.c7dfd78e.Emscripten.clang"
  },
  "schemaVersion": "3.4.1",
  "updatedAt": "2021-11-05T09:44:04.384Z",
  "networkType": "ethereum",
  "devdoc": {
    "kind": "dev",
    "methods": {},
    "version": 1
  },
  "userdoc": {
    "kind": "user",
    "methods": {},
    "version": 1
  }
}