{
  "contractName": "VaultInfoFacet",
  "abi": [
    {
      "inputs": [
        {
          "internalType": "address",
          "name": "_user",
          "type": "address"
        },
        {
          "internalType": "uint256",
          "name": "_startIndex",
          "type": "uint256"
        },
        {
          "internalType": "uint256",
          "name": "_limit",
          "type": "uint256"
        }
      ],
      "name": "locks",
      "outputs": [
        {
          "components": [
            {
              "internalType": "uint256",
              "name": "id",
              "type": "uint256"
            },
            {
              "internalType": "enum LibDiamond.LockLevel",
              "name": "level",
              "type": "uint8"
            },
            {
              "internalType": "uint256",
              "name": "lockAmount",
              "type": "uint256"
            },
            {
              "internalType": "uint256",
              "name": "voteAmount",
              "type": "uint256"
            },
            {
              "internalType": "uint256",
              "name": "lockTimestamp",
              "type": "uint256"
            },
            {
              "internalType": "uint256",
              "name": "penaltyFinixAmount",
              "type": "uint256"
            },
            {
              "internalType": "uint256",
              "name": "penaltyUnlockTimestamp",
              "type": "uint256"
            },
            {
              "internalType": "bool",
              "name": "isPenalty",
              "type": "bool"
            },
            {
              "internalType": "bool",
              "name": "isUnlocked",
              "type": "bool"
            }
          ],
          "internalType": "struct LibDiamond.LockInfo[]",
          "name": "locks_",
          "type": "tuple[]"
        },
        {
          "internalType": "uint256[]",
          "name": "locksTopup",
          "type": "uint256[]"
        }
      ],
      "stateMutability": "view",
      "type": "function",
      "constant": true
    },
    {
      "inputs": [
        {
          "internalType": "address",
          "name": "_user",
          "type": "address"
        },
        {
          "internalType": "uint256",
          "name": "_startIndex",
          "type": "uint256"
        },
        {
          "internalType": "uint256",
          "name": "_limit",
          "type": "uint256"
        }
      ],
      "name": "locksDesc",
      "outputs": [
        {
          "components": [
            {
              "internalType": "uint256",
              "name": "id",
              "type": "uint256"
            },
            {
              "internalType": "enum LibDiamond.LockLevel",
              "name": "level",
              "type": "uint8"
            },
            {
              "internalType": "uint256",
              "name": "lockAmount",
              "type": "uint256"
            },
            {
              "internalType": "uint256",
              "name": "voteAmount",
              "type": "uint256"
            },
            {
              "internalType": "uint256",
              "name": "lockTimestamp",
              "type": "uint256"
            },
            {
              "internalType": "uint256",
              "name": "penaltyFinixAmount",
              "type": "uint256"
            },
            {
              "internalType": "uint256",
              "name": "penaltyUnlockTimestamp",
              "type": "uint256"
            },
            {
              "internalType": "bool",
              "name": "isPenalty",
              "type": "bool"
            },
            {
              "internalType": "bool",
              "name": "isUnlocked",
              "type": "bool"
            }
          ],
          "internalType": "struct LibDiamond.LockInfo[]",
          "name": "locks_",
          "type": "tuple[]"
        },
        {
          "internalType": "uint256[]",
          "name": "locksTopup",
          "type": "uint256[]"
        }
      ],
      "stateMutability": "view",
      "type": "function",
      "constant": true
    },
    {
      "inputs": [
        {
          "internalType": "bytes32",
          "name": "key",
          "type": "bytes32"
        }
      ],
      "name": "getLockMap",
      "outputs": [
        {
          "components": [
            {
              "internalType": "uint256",
              "name": "id",
              "type": "uint256"
            },
            {
              "internalType": "enum LibDiamond.LockLevel",
              "name": "level",
              "type": "uint8"
            },
            {
              "internalType": "uint256",
              "name": "lockAmount",
              "type": "uint256"
            },
            {
              "internalType": "uint256",
              "name": "voteAmount",
              "type": "uint256"
            },
            {
              "internalType": "uint256",
              "name": "lockTimestamp",
              "type": "uint256"
            },
            {
              "internalType": "uint256",
              "name": "penaltyFinixAmount",
              "type": "uint256"
            },
            {
              "internalType": "uint256",
              "name": "penaltyUnlockTimestamp",
              "type": "uint256"
            },
            {
              "internalType": "bool",
              "name": "isPenalty",
              "type": "bool"
            },
            {
              "internalType": "bool",
              "name": "isUnlocked",
              "type": "bool"
            }
          ],
          "internalType": "struct LibDiamond.LockInfo",
          "name": "lockInfo_",
          "type": "tuple"
        }
      ],
      "stateMutability": "view",
      "type": "function",
      "constant": true
    },
    {
      "inputs": [
        {
          "internalType": "address",
          "name": "_user",
          "type": "address"
        },
        {
          "internalType": "uint256",
          "name": "_lockIndex",
          "type": "uint256"
        }
      ],
      "name": "lockInfo",
      "outputs": [
        {
          "components": [
            {
              "internalType": "uint256",
              "name": "id",
              "type": "uint256"
            },
            {
              "internalType": "enum LibDiamond.LockLevel",
              "name": "level",
              "type": "uint8"
            },
            {
              "internalType": "uint256",
              "name": "lockAmount",
              "type": "uint256"
            },
            {
              "internalType": "uint256",
              "name": "voteAmount",
              "type": "uint256"
            },
            {
              "internalType": "uint256",
              "name": "lockTimestamp",
              "type": "uint256"
            },
            {
              "internalType": "uint256",
              "name": "penaltyFinixAmount",
              "type": "uint256"
            },
            {
              "internalType": "uint256",
              "name": "penaltyUnlockTimestamp",
              "type": "uint256"
            },
            {
              "internalType": "bool",
              "name": "isPenalty",
              "type": "bool"
            },
            {
              "internalType": "bool",
              "name": "isUnlocked",
              "type": "bool"
            }
          ],
          "internalType": "struct LibDiamond.LockInfo",
          "name": "lockInfo_",
          "type": "tuple"
        }
      ],
      "stateMutability": "view",
      "type": "function",
      "constant": true
    },
    {
      "inputs": [
        {
          "internalType": "address",
          "name": "_user",
          "type": "address"
        },
        {
          "internalType": "uint256",
          "name": "_lockIndex",
          "type": "uint256"
        }
      ],
      "name": "lockSafeToUnlock",
      "outputs": [
        {
          "internalType": "bool",
          "name": "",
          "type": "bool"
        }
      ],
      "stateMutability": "view",
      "type": "function",
      "constant": true
    },
    {
      "inputs": [
        {
          "internalType": "address",
          "name": "_user",
          "type": "address"
        }
      ],
      "name": "getUserLockAmount",
      "outputs": [
        {
          "internalType": "uint256",
          "name": "",
          "type": "uint256"
        }
      ],
      "stateMutability": "view",
      "type": "function",
      "constant": true
    },
    {
      "inputs": [],
      "name": "getAllLockPeriods",
      "outputs": [
        {
          "components": [
            {
              "internalType": "uint256",
              "name": "_period1",
              "type": "uint256"
            },
            {
              "internalType": "uint256",
              "name": "_period2",
              "type": "uint256"
            },
            {
              "internalType": "uint256",
              "name": "_period3",
              "type": "uint256"
            },
            {
              "internalType": "uint256",
              "name": "_multiplier1",
              "type": "uint256"
            },
            {
              "internalType": "uint256",
              "name": "_multiplier2",
              "type": "uint256"
            },
            {
              "internalType": "uint256",
              "name": "_multiplier3",
              "type": "uint256"
            },
            {
              "internalType": "uint256",
              "name": "_minimum1",
              "type": "uint256"
            },
            {
              "internalType": "uint256",
              "name": "_minimum2",
              "type": "uint256"
            },
            {
              "internalType": "uint256",
              "name": "_minimum3",
              "type": "uint256"
            },
            {
              "internalType": "uint256",
              "name": "_penaltyPeriod1",
              "type": "uint256"
            },
            {
              "internalType": "uint256",
              "name": "_penaltyPeriod2",
              "type": "uint256"
            },
            {
              "internalType": "uint256",
              "name": "_penaltyPeriod3",
              "type": "uint256"
            },
            {
              "internalType": "uint256",
              "name": "_penaltyRate1",
              "type": "uint256"
            },
            {
              "internalType": "uint256",
              "name": "_penaltyRate2",
              "type": "uint256"
            },
            {
              "internalType": "uint256",
              "name": "_penaltyRate3",
              "type": "uint256"
            },
            {
              "internalType": "uint256",
              "name": "_penaltyRateDecimal1",
              "type": "uint256"
            },
            {
              "internalType": "uint256",
              "name": "_penaltyRateDecimal2",
              "type": "uint256"
            },
            {
              "internalType": "uint256",
              "name": "_penaltyRateDecimal3",
              "type": "uint256"
            }
          ],
          "internalType": "struct LibDiamond.ParamLockPeriods",
          "name": "param_",
          "type": "tuple"
        }
      ],
      "stateMutability": "view",
      "type": "function",
      "constant": true
    }
  ],
  "bytecode": "0x608060405234801561001057600080fd5b506126ff806100206000396000f3fe608060405234801561001057600080fd5b506004361061007d5760003560e01c8063b2520a7c1161005b578063b2520a7c14610113578063b7d158ea14610143578063c00b3de914610173578063d317eaf5146101915761007d565b80631bc1a3a4146100825780636f8bda13146100b2578063a5074bb7146100e3575b600080fd5b61009c60048036038101906100979190611926565b6101c2565b6040516100a991906123c2565b60405180910390f35b6100cc60048036038101906100c7919061198b565b610219565b6040516100da92919061231d565b60405180910390f35b6100fd60048036038101906100f891906119da565b6106bb565b60405161010a919061238a565b60405180910390f35b61012d6004803603810190610128919061194f565b6107f1565b60405161013a919061238a565b60405180910390f35b61015d6004803603810190610158919061194f565b610956565b60405161016a9190612354565b60405180910390f35b61017b610a7f565b60405161018891906123a6565b60405180910390f35b6101ab60048036038101906101a6919061198b565b611274565b6040516101b992919061231d565b60405180910390f35b6000806101cd61173b565b905080600a0160008473ffffffffffffffffffffffffffffffffffffffff1673ffffffffffffffffffffffffffffffffffffffff16815260200190815260200160002054915050919050565b606080600061022661173b565b905060008160090160008873ffffffffffffffffffffffffffffffffffffffff1673ffffffffffffffffffffffffffffffffffffffff168152602001908152602001600020549050808611156102f857600067ffffffffffffffff8111156102b7577f4e487b7100000000000000000000000000000000000000000000000000000000600052604160045260246000fd5b6040519080825280602002602001820160405280156102f057816020015b6102dd6117bf565b8152602001906001900390816102d55790505b509350610577565b600061030d878361176890919063ffffffff16565b9050600081871015806103205750600087145b1561032d57819050610331565b8690505b6000831115610574578067ffffffffffffffff81111561037a577f4e487b7100000000000000000000000000000000000000000000000000000000600052604160045260246000fd5b6040519080825280602002602001820160405280156103b357816020015b6103a06117bf565b8152602001906001900390816103985790505b50955060005b818110156105725760008a6103d7838c61177e90919063ffffffff16565b6040516020016103e89291906122b8565b60405160208183030381529060405280519060200120905085600801600082815260200190815260200160002060405180610120016040529081600082015481526020016001820160009054906101000a900460ff166002811115610476577f4e487b7100000000000000000000000000000000000000000000000000000000600052602160045260246000fd5b60028111156104ae577f4e487b7100000000000000000000000000000000000000000000000000000000600052602160045260246000fd5b815260200160028201548152602001600382015481526020016004820154815260200160058201548152602001600682015481526020016007820160009054906101000a900460ff161515151581526020016007820160019054906101000a900460ff161515151581525050888381518110610553577f4e487b7100000000000000000000000000000000000000000000000000000000600052603260045260246000fd5b602002602001018190525050808061056a906125aa565b9150506103b9565b505b50505b60006105a88860405160200161058d919061228a565b60405160208183030381529060405280519060200120611794565b90508067ffffffffffffffff8111156105ea577f4e487b7100000000000000000000000000000000000000000000000000000000600052604160045260246000fd5b6040519080825280602002602001820160405280156106185781602001602082028036833780820191505090505b50935060005b818110156106af57610657338260405160200161063c9291906122e1565b60405160208183030381529060405280519060200120611794565b858281518110610690577f4e487b7100000000000000000000000000000000000000000000000000000000600052603260045260246000fd5b60200260200101818152505080806106a7906125aa565b91505061061e565b50505050935093915050565b6106c36117bf565b60006106cd61173b565b905080600801600084815260200190815260200160002060405180610120016040529081600082015481526020016001820160009054906101000a900460ff166002811115610745577f4e487b7100000000000000000000000000000000000000000000000000000000600052602160045260246000fd5b600281111561077d577f4e487b7100000000000000000000000000000000000000000000000000000000600052602160045260246000fd5b815260200160028201548152602001600382015481526020016004820154815260200160058201548152602001600682015481526020016007820160009054906101000a900460ff161515151581526020016007820160019054906101000a900460ff161515151581525050915050919050565b6107f96117bf565b600061080361173b565b90506000848460405160200161081a9291906122b8565b60405160208183030381529060405280519060200120905081600801600082815260200190815260200160002060405180610120016040529081600082015481526020016001820160009054906101000a900460ff1660028111156108a8577f4e487b7100000000000000000000000000000000000000000000000000000000600052602160045260246000fd5b60028111156108e0577f4e487b7100000000000000000000000000000000000000000000000000000000600052602160045260246000fd5b815260200160028201548152602001600382015481526020016004820154815260200160058201548152602001600682015481526020016007820160009054906101000a900460ff161515151581526020016007820160019054906101000a900460ff1615151515815250509250505092915050565b60008061096161173b565b9050600084846040516020016109789291906122b8565b6040516020818303038152906040528051906020012090506000826008016000838152602001908152602001600020905060003073ffffffffffffffffffffffffffffffffffffffff1663b759d6038360010160009054906101000a900460ff166040518263ffffffff1660e01b81526004016109f5919061236f565b60c06040518083038186803b158015610a0d57600080fd5b505afa158015610a21573d6000803e3d6000fd5b505050506040513d601f19601f82011682018060405250810190610a459190611a03565b50505050509050808260040154610a5c9190612476565b421015610a70576000945050505050610a79565b60019450505050505b92915050565b610a87611847565b610aee6040518060400160405280600b81526020017f6c6f636b5f706572696f640000000000000000000000000000000000000000008152506000604051602001610ad3929190612257565b60405160208183030381529060405280519060200120611794565b816000018181525050610b5e6040518060400160405280600b81526020017f6c6f636b5f706572696f640000000000000000000000000000000000000000008152506000604051602001610b43929190612224565b60405160208183030381529060405280519060200120611794565b816060018181525050610bce6040518060400160405280600b81526020017f6c6f636b5f706572696f640000000000000000000000000000000000000000008152506000604051602001610bb3929190612158565b60405160208183030381529060405280519060200120611794565b8160c0018181525050610c3e6040518060400160405280600b81526020017f6c6f636b5f706572696f640000000000000000000000000000000000000000008152506000604051602001610c2392919061218b565b60405160208183030381529060405280519060200120611794565b81610120018181525050610caf6040518060400160405280600b81526020017f6c6f636b5f706572696f640000000000000000000000000000000000000000008152506000604051602001610c949291906121be565b60405160208183030381529060405280519060200120611794565b81610180018181525050610d206040518060400160405280600b81526020017f6c6f636b5f706572696f640000000000000000000000000000000000000000008152506000604051602001610d059291906121f1565b60405160208183030381529060405280519060200120611794565b816101e0018181525050610d916040518060400160405280600b81526020017f6c6f636b5f706572696f640000000000000000000000000000000000000000008152506001604051602001610d76929190612257565b60405160208183030381529060405280519060200120611794565b816020018181525050610e016040518060400160405280600b81526020017f6c6f636b5f706572696f640000000000000000000000000000000000000000008152506001604051602001610de6929190612224565b60405160208183030381529060405280519060200120611794565b816080018181525050610e716040518060400160405280600b81526020017f6c6f636b5f706572696f640000000000000000000000000000000000000000008152506001604051602001610e56929190612158565b60405160208183030381529060405280519060200120611794565b8160e0018181525050610ee16040518060400160405280600b81526020017f6c6f636b5f706572696f640000000000000000000000000000000000000000008152506001604051602001610ec692919061218b565b60405160208183030381529060405280519060200120611794565b81610140018181525050610f526040518060400160405280600b81526020017f6c6f636b5f706572696f640000000000000000000000000000000000000000008152506001604051602001610f379291906121be565b60405160208183030381529060405280519060200120611794565b816101a0018181525050610fc36040518060400160405280600b81526020017f6c6f636b5f706572696f640000000000000000000000000000000000000000008152506001604051602001610fa89291906121f1565b60405160208183030381529060405280519060200120611794565b816102000181815250506110346040518060400160405280600b81526020017f6c6f636b5f706572696f640000000000000000000000000000000000000000008152506002604051602001611019929190612257565b60405160208183030381529060405280519060200120611794565b8160400181815250506110a46040518060400160405280600b81526020017f6c6f636b5f706572696f640000000000000000000000000000000000000000008152506002604051602001611089929190612224565b60405160208183030381529060405280519060200120611794565b8160a00181815250506111146040518060400160405280600b81526020017f6c6f636b5f706572696f6400000000000000000000000000000000000000000081525060026040516020016110f9929190612158565b60405160208183030381529060405280519060200120611794565b816101000181815250506111856040518060400160405280600b81526020017f6c6f636b5f706572696f64000000000000000000000000000000000000000000815250600260405160200161116a92919061218b565b60405160208183030381529060405280519060200120611794565b816101600181815250506111f66040518060400160405280600b81526020017f6c6f636b5f706572696f6400000000000000000000000000000000000000000081525060026040516020016111db9291906121be565b60405160208183030381529060405280519060200120611794565b816101c00181815250506112676040518060400160405280600b81526020017f6c6f636b5f706572696f64000000000000000000000000000000000000000000815250600260405160200161124c9291906121f1565b60405160208183030381529060405280519060200120611794565b8161022001818152505090565b606080600061128161173b565b905060008160090160008873ffffffffffffffffffffffffffffffffffffffff1673ffffffffffffffffffffffffffffffffffffffff1681526020019081526020016000205490508086111561135357600067ffffffffffffffff811115611312577f4e487b7100000000000000000000000000000000000000000000000000000000600052604160045260246000fd5b60405190808252806020026020018201604052801561134b57816020015b6113386117bf565b8152602001906001900390816113305790505b5093506115f7565b6000611368878361176890919063ffffffff16565b90506000818710158061137b5750600087145b156113885781905061138c565b8690505b60008311156115f4578067ffffffffffffffff8111156113d5577f4e487b7100000000000000000000000000000000000000000000000000000000600052604160045260246000fd5b60405190808252806020026020018201604052801561140e57816020015b6113fb6117bf565b8152602001906001900390816113f35790505b50955060005b818110156115f25760008a611457836114498d61143b60018b61176890919063ffffffff16565b61176890919063ffffffff16565b61176890919063ffffffff16565b6040516020016114689291906122b8565b60405160208183030381529060405280519060200120905085600801600082815260200190815260200160002060405180610120016040529081600082015481526020016001820160009054906101000a900460ff1660028111156114f6577f4e487b7100000000000000000000000000000000000000000000000000000000600052602160045260246000fd5b600281111561152e577f4e487b7100000000000000000000000000000000000000000000000000000000600052602160045260246000fd5b815260200160028201548152602001600382015481526020016004820154815260200160058201548152602001600682015481526020016007820160009054906101000a900460ff161515151581526020016007820160019054906101000a900460ff1615151515815250508883815181106115d3577f4e487b7100000000000000000000000000000000000000000000000000000000600052603260045260246000fd5b60200260200101819052505080806115ea906125aa565b915050611414565b505b50505b60006116288860405160200161160d919061228a565b60405160208183030381529060405280519060200120611794565b90508067ffffffffffffffff81111561166a577f4e487b7100000000000000000000000000000000000000000000000000000000600052604160045260246000fd5b6040519080825280602002602001820160405280156116985781602001602082028036833780820191505090505b50935060005b8181101561172f576116d733826040516020016116bc9291906122e1565b60405160208183030381529060405280519060200120611794565b858281518110611710577f4e487b7100000000000000000000000000000000000000000000000000000000600052603260045260246000fd5b6020026020010181815250508080611727906125aa565b91505061169e565b50505050935093915050565b6000807fc8fcad8db84d3cc18b4c41d551ea0ee66dd599cde068d998e57d5e09332c131c90508091505090565b6000818361177691906124cc565b905092915050565b6000818361178c9190612476565b905092915050565b60008061179f61173b565b905080600401600084815260200190815260200160002054915050919050565b604051806101200160405280600081526020016000600281111561180c577f4e487b7100000000000000000000000000000000000000000000000000000000600052602160045260246000fd5b815260200160008152602001600081526020016000815260200160008152602001600081526020016000151581526020016000151581525090565b6040518061024001604052806000815260200160008152602001600081526020016000815260200160008152602001600081526020016000815260200160008152602001600081526020016000815260200160008152602001600081526020016000815260200160008152602001600081526020016000815260200160008152602001600081525090565b6000813590506118e181612684565b92915050565b6000813590506118f68161269b565b92915050565b60008135905061190b816126b2565b92915050565b600081519050611920816126b2565b92915050565b60006020828403121561193857600080fd5b6000611946848285016118d2565b91505092915050565b6000806040838503121561196257600080fd5b6000611970858286016118d2565b9250506020611981858286016118fc565b9150509250929050565b6000806000606084860312156119a057600080fd5b60006119ae868287016118d2565b93505060206119bf868287016118fc565b92505060406119d0868287016118fc565b9150509250925092565b6000602082840312156119ec57600080fd5b60006119fa848285016118e7565b91505092915050565b60008060008060008060c08789031215611a1c57600080fd5b6000611a2a89828a01611911565b9650506020611a3b89828a01611911565b9550506040611a4c89828a01611911565b9450506060611a5d89828a01611911565b9350506080611a6e89828a01611911565b92505060a0611a7f89828a01611911565b9150509295509295509295565b6000611a988383611e58565b6101208301905092915050565b6000611ab1838361213a565b60208301905092915050565b611ac681612500565b82525050565b6000611ad7826123fd565b611ae18185612438565b9350611aec836123dd565b8060005b83811015611b1d578151611b048882611a8c565b9750611b0f8361241e565b925050600181019050611af0565b5085935050505092915050565b6000611b3582612408565b611b3f8185612449565b9350611b4a836123ed565b8060005b83811015611b7b578151611b628882611aa5565b9750611b6d8361242b565b925050600181019050611b4e565b5085935050505092915050565b611b9181612512565b82525050565b611ba081612512565b82525050565b611baf81612565565b82525050565b611bbe81612565565b82525050565b611bd5611bd082612565565b6125f3565b82525050565b6000611be682612413565b611bf0818561246b565b9350611c00818560208601612577565b80840191505092915050565b6000611c1960078361246b565b91507f6d696e696d756d000000000000000000000000000000000000000000000000006000830152600782019050919050565b6000611c59600d8361246b565b91507f70656e616c7479506572696f64000000000000000000000000000000000000006000830152600d82019050919050565b6000611c99600b8361246b565b91507f70656e616c7479526174650000000000000000000000000000000000000000006000830152600b82019050919050565b6000611cd960238361245a565b91507f7666696e69782e546f705570466561747572652e6c656e6774684c6f636b546f60008301527f70557000000000000000000000000000000000000000000000000000000000006020830152604082019050919050565b6000611d3f60128361246b565b91507f70656e616c747952617465446563696d616c00000000000000000000000000006000830152601282019050919050565b6000611d7f600a8361246b565b91507f6d756c7469706c696572000000000000000000000000000000000000000000006000830152600a82019050919050565b6000611dbf60068361246b565b91507f706572696f6400000000000000000000000000000000000000000000000000006000830152600682019050919050565b6000611dff60238361245a565b91507f7666696e69782e546f705570466561747572652e69734c6f636b546f7055704c60008301527f69737400000000000000000000000000000000000000000000000000000000006020830152604082019050919050565b61012082016000820151611e6f600085018261213a565b506020820151611e826020850182611ba6565b506040820151611e95604085018261213a565b506060820151611ea8606085018261213a565b506080820151611ebb608085018261213a565b5060a0820151611ece60a085018261213a565b5060c0820151611ee160c085018261213a565b5060e0820151611ef460e0850182611b88565b50610100820151611f09610100850182611b88565b50505050565b61012082016000820151611f26600085018261213a565b506020820151611f396020850182611ba6565b506040820151611f4c604085018261213a565b506060820151611f5f606085018261213a565b506080820151611f72608085018261213a565b5060a0820151611f8560a085018261213a565b5060c0820151611f9860c085018261213a565b5060e0820151611fab60e0850182611b88565b50610100820151611fc0610100850182611b88565b50505050565b61024082016000820151611fdd600085018261213a565b506020820151611ff0602085018261213a565b506040820151612003604085018261213a565b506060820151612016606085018261213a565b506080820151612029608085018261213a565b5060a082015161203c60a085018261213a565b5060c082015161204f60c085018261213a565b5060e082015161206260e085018261213a565b5061010082015161207761010085018261213a565b5061012082015161208c61012085018261213a565b506101408201516120a161014085018261213a565b506101608201516120b661016085018261213a565b506101808201516120cb61018085018261213a565b506101a08201516120e06101a085018261213a565b506101c08201516120f56101c085018261213a565b506101e082015161210a6101e085018261213a565b5061020082015161211f61020085018261213a565b5061022082015161213461022085018261213a565b50505050565b6121438161255b565b82525050565b6121528161255b565b82525050565b60006121648285611bdb565b91506121708284611bc4565b60018201915061217f82611c0c565b91508190509392505050565b60006121978285611bdb565b91506121a38284611bc4565b6001820191506121b282611c4c565b91508190509392505050565b60006121ca8285611bdb565b91506121d68284611bc4565b6001820191506121e582611c8c565b91508190509392505050565b60006121fd8285611bdb565b91506122098284611bc4565b60018201915061221882611d32565b91508190509392505050565b60006122308285611bdb565b915061223c8284611bc4565b60018201915061224b82611d72565b91508190509392505050565b60006122638285611bdb565b915061226f8284611bc4565b60018201915061227e82611db2565b91508190509392505050565b600060408201905061229f6000830184611abd565b81810360208301526122b081611ccc565b905092915050565b60006040820190506122cd6000830185611abd565b6122da6020830184612149565b9392505050565b60006060820190506122f66000830185611abd565b6123036020830184612149565b818103604083015261231481611df2565b90509392505050565b600060408201905081810360008301526123378185611acc565b9050818103602083015261234b8184611b2a565b90509392505050565b60006020820190506123696000830184611b97565b92915050565b60006020820190506123846000830184611bb5565b92915050565b6000610120820190506123a06000830184611f0f565b92915050565b6000610240820190506123bc6000830184611fc6565b92915050565b60006020820190506123d76000830184612149565b92915050565b6000819050602082019050919050565b6000819050602082019050919050565b600081519050919050565b600081519050919050565b600081519050919050565b6000602082019050919050565b6000602082019050919050565b600082825260208201905092915050565b600082825260208201905092915050565b600082825260208201905092915050565b600081905092915050565b60006124818261255b565b915061248c8361255b565b9250827fffffffffffffffffffffffffffffffffffffffffffffffffffffffffffffffff038211156124c1576124c0612605565b5b828201905092915050565b60006124d78261255b565b91506124e28361255b565b9250828210156124f5576124f4612605565b5b828203905092915050565b600061250b8261253b565b9050919050565b60008115159050919050565b6000819050919050565b600081905061253682612670565b919050565b600073ffffffffffffffffffffffffffffffffffffffff82169050919050565b6000819050919050565b600061257082612528565b9050919050565b60005b8381101561259557808201518184015260208101905061257a565b838111156125a4576000848401525b50505050565b60006125b58261255b565b91507fffffffffffffffffffffffffffffffffffffffffffffffffffffffffffffffff8214156125e8576125e7612605565b5b600182019050919050565b60006125fe82612663565b9050919050565b7f4e487b7100000000000000000000000000000000000000000000000000000000600052601160045260246000fd5b7f4e487b7100000000000000000000000000000000000000000000000000000000600052602160045260246000fd5b60008160f81b9050919050565b6003811061268157612680612634565b5b50565b61268d81612500565b811461269857600080fd5b50565b6126a48161251e565b81146126af57600080fd5b50565b6126bb8161255b565b81146126c657600080fd5b5056fea264697066735822122018a6b06480abcbec960acb6317245a56210a7408622e502d25fa30beba1ae43a64736f6c63430008000033",
  "immutableReferences": {},
  "source": "// SPDX-License-Identifier: MIT\npragma solidity ^0.8.0;\n\nimport { LibDiamond } from \"../libraries/LibDiamond.sol\";\nimport \"../interfaces/IVaultInfoFacet.sol\";\nimport \"../interfaces/IVaultFacet.sol\";\nimport \"../utils/math/SafeMath.sol\";\n\n\ncontract VaultInfoFacet is IVaultInfoFacet{\n    using SafeMath for uint256;\n    string constant private KEY_LOCK_PERIOD = \"lock_period\";\n  \n    function locks(address _user,uint256 _startIndex,uint256 _limit) external override view returns(LibDiamond.LockInfo[] memory locks_,uint256[] memory locksTopup){\n        LibDiamond.DiamondStorage storage ds = LibDiamond.diamondStorage();\n        uint256 userLocksCount_ = ds.userLocksCount[_user];\n\n        if(_startIndex > userLocksCount_){\n            locks_= new LibDiamond.LockInfo[](0);\n        }else{\n            uint256 count = userLocksCount_.sub(_startIndex);\n            uint256 length;\n            if(_limit >= count || _limit == 0){\n                length = count;\n            }else{\n                length = _limit;\n            }\n            if(userLocksCount_ > 0) {\n                locks_= new LibDiamond.LockInfo[](length);\n                for (uint256 i = 0; i < length; i++) {\n                    bytes32 key = keccak256(abi.encode(_user,_startIndex.add(i)));\n                    locks_[i] = ds.locksMap[key];\n                }\n            }\n        }\n        uint256 _locksTopupLength = LibDiamond.getUint(keccak256(abi.encode(_user,\"vfinix.TopUpFeature.lengthLockTopUp\")));\n        locksTopup = new uint256[](_locksTopupLength);\n        for(uint256 i = 0; i < _locksTopupLength; i++){\n            locksTopup[i] = LibDiamond.getUint(keccak256(abi.encode(msg.sender,i,\"vfinix.TopUpFeature.isLockTopUpList\")));\n        }\n\n    }\n    \n    \n\n function locksDesc(address _user,uint256 _startIndex,uint256 _limit) external override view returns(LibDiamond.LockInfo[] memory locks_,uint256[] memory locksTopup){\n        LibDiamond.DiamondStorage storage ds = LibDiamond.diamondStorage();\n        uint256 userLocksCount_ = ds.userLocksCount[_user];\n\n        if(_startIndex > userLocksCount_){\n            locks_= new LibDiamond.LockInfo[](0);\n        }else{\n            uint256 count = userLocksCount_.sub(_startIndex);\n            uint256 length;\n            if(_limit >= count || _limit == 0){\n                length = count;\n            }else{\n                length = _limit;\n            }\n            if(userLocksCount_ > 0) {\n                locks_= new LibDiamond.LockInfo[](length);\n                for (uint256 i = 0; i < length; i++) {\n                    bytes32 key = keccak256(abi.encode(_user,(userLocksCount_.sub(1)).sub(_startIndex).sub(i)));\n                    locks_[i] = ds.locksMap[key];\n                }\n            }\n        }\n        uint256 _locksTopupLength = LibDiamond.getUint(keccak256(abi.encode(_user,\"vfinix.TopUpFeature.lengthLockTopUp\")));\n        locksTopup = new uint256[](_locksTopupLength);\n        for(uint256 i = 0; i < _locksTopupLength; i++){\n            locksTopup[i] = LibDiamond.getUint(keccak256(abi.encode(msg.sender,i,\"vfinix.TopUpFeature.isLockTopUpList\")));\n        }\n    }\n\n    \n    function getLockMap(bytes32 key) external override view returns(LibDiamond.LockInfo memory lockInfo_) {\n        LibDiamond.DiamondStorage storage ds = LibDiamond.diamondStorage();\n        lockInfo_ = ds.locksMap[key];\n    }\n\n   \n    function lockInfo(address _user,uint256 _lockIndex) external override view returns(LibDiamond.LockInfo memory lockInfo_){\n        LibDiamond.DiamondStorage storage ds = LibDiamond.diamondStorage();\n        bytes32 key = keccak256(abi.encode(_user,_lockIndex));\n        lockInfo_ = ds.locksMap[key];\n    }\n\n    function lockSafeToUnlock(address _user, uint256 _lockIndex) external override view returns (bool) {\n        LibDiamond.DiamondStorage storage ds = LibDiamond.diamondStorage();\n\n        // Get Lock info\n        bytes32 key = keccak256(abi.encode(_user, _lockIndex));\n        LibDiamond.LockInfo storage lockInfo_ = ds.locksMap[key];\n\n        // Check ending period\n        (uint256 period_, , , , ,) = IVaultFacet(address(this)).getLockPeriod(lockInfo_.level);\n\n        if (block.timestamp < lockInfo_.lockTimestamp + period_) {\n            return false;\n        }\n        return true;\n    }\n\n    function getUserLockAmount(address _user) external override view returns(uint256) {\n        LibDiamond.DiamondStorage storage ds = LibDiamond.diamondStorage();\n        return ds.userLocksAmount[_user];\n    }\n     function getAllLockPeriods () external override view returns(\n            LibDiamond.ParamLockPeriods memory param_\n        ) {\n\n        param_._period1 = LibDiamond.getUint(keccak256(abi.encodePacked(KEY_LOCK_PERIOD,LibDiamond.LockLevel.Level1,\"period\")));\n        param_._multiplier1 = LibDiamond.getUint(keccak256(abi.encodePacked(KEY_LOCK_PERIOD,LibDiamond.LockLevel.Level1,\"multiplier\")));\n        param_._minimum1 = LibDiamond.getUint(keccak256(abi.encodePacked(KEY_LOCK_PERIOD,LibDiamond.LockLevel.Level1,\"minimum\")));\n        param_._penaltyPeriod1 = LibDiamond.getUint(keccak256(abi.encodePacked(KEY_LOCK_PERIOD,LibDiamond.LockLevel.Level1,\"penaltyPeriod\")));\n        param_._penaltyRate1 = LibDiamond.getUint(keccak256(abi.encodePacked(KEY_LOCK_PERIOD,LibDiamond.LockLevel.Level1,\"penaltyRate\")));\n        param_._penaltyRateDecimal1 = LibDiamond.getUint(keccak256(abi.encodePacked(KEY_LOCK_PERIOD,LibDiamond.LockLevel.Level1,\"penaltyRateDecimal\")));\n\n        param_._period2 = LibDiamond.getUint(keccak256(abi.encodePacked(KEY_LOCK_PERIOD,LibDiamond.LockLevel.Level2,\"period\")));\n        param_._multiplier2 =LibDiamond.getUint(keccak256(abi.encodePacked(KEY_LOCK_PERIOD,LibDiamond.LockLevel.Level2,\"multiplier\")));\n        param_._minimum2 = LibDiamond.getUint(keccak256(abi.encodePacked(KEY_LOCK_PERIOD,LibDiamond.LockLevel.Level2,\"minimum\")));\n        param_._penaltyPeriod2 = LibDiamond.getUint(keccak256(abi.encodePacked(KEY_LOCK_PERIOD,LibDiamond.LockLevel.Level2,\"penaltyPeriod\")));\n        param_._penaltyRate2 = LibDiamond.getUint(keccak256(abi.encodePacked(KEY_LOCK_PERIOD,LibDiamond.LockLevel.Level2,\"penaltyRate\")));\n        param_._penaltyRateDecimal2 = LibDiamond.getUint(keccak256(abi.encodePacked(KEY_LOCK_PERIOD,LibDiamond.LockLevel.Level2,\"penaltyRateDecimal\")));\n\n        param_._period3 = LibDiamond.getUint(keccak256(abi.encodePacked(KEY_LOCK_PERIOD,LibDiamond.LockLevel.Level3,\"period\")));\n        param_._multiplier3 = LibDiamond.getUint(keccak256(abi.encodePacked(KEY_LOCK_PERIOD,LibDiamond.LockLevel.Level3,\"multiplier\")));\n        param_._minimum3 = LibDiamond.getUint(keccak256(abi.encodePacked(KEY_LOCK_PERIOD,LibDiamond.LockLevel.Level3,\"minimum\")));\n        param_._penaltyPeriod3 = LibDiamond.getUint(keccak256(abi.encodePacked(KEY_LOCK_PERIOD,LibDiamond.LockLevel.Level3,\"penaltyPeriod\")));\n        param_._penaltyRate3 = LibDiamond.getUint(keccak256(abi.encodePacked(KEY_LOCK_PERIOD,LibDiamond.LockLevel.Level3,\"penaltyRate\")));\n        param_._penaltyRateDecimal3 = LibDiamond.getUint(keccak256(abi.encodePacked(KEY_LOCK_PERIOD,LibDiamond.LockLevel.Level3,\"penaltyRateDecimal\")));\n    }\n\n}\n",
  "sourcePath": "/Users/kanthakarn/Documents/work/six-network/definix-vfinix/contracts/facets/VaultInfoFacet.sol",
  "compiler": {
    "name": "solc",
    "version": "0.8.0+commit.c7dfd78e.Emscripten.clang"
  },
  "schemaVersion": "3.4.1",
  "updatedAt": "2021-12-08T05:19:39.710Z",
  "networkType": "ethereum",
  "devdoc": {
    "kind": "dev",
    "methods": {},
    "version": 1
  },
  "userdoc": {
    "kind": "user",
    "methods": {},
    "version": 1
  }
}