{
  "contractName": "VaultInfoFacet",
  "abi": [
    {
      "inputs": [
        {
          "internalType": "address",
          "name": "_user",
          "type": "address"
        },
        {
          "internalType": "uint256",
          "name": "_startIndex",
          "type": "uint256"
        },
        {
          "internalType": "uint256",
          "name": "_limit",
          "type": "uint256"
        }
      ],
      "name": "locks",
      "outputs": [
        {
          "components": [
            {
              "internalType": "uint256",
              "name": "id",
              "type": "uint256"
            },
            {
              "internalType": "enum LibDiamond.LockLevel",
              "name": "level",
              "type": "uint8"
            },
            {
              "internalType": "uint256",
              "name": "lockAmount",
              "type": "uint256"
            },
            {
              "internalType": "uint256",
              "name": "voteAmount",
              "type": "uint256"
            },
            {
              "internalType": "uint256",
              "name": "lockTimestamp",
              "type": "uint256"
            },
            {
              "internalType": "uint256",
              "name": "penaltyFinixAmount",
              "type": "uint256"
            },
            {
              "internalType": "uint256",
              "name": "penaltyUnlockTimestamp",
              "type": "uint256"
            },
            {
              "internalType": "bool",
              "name": "isPenalty",
              "type": "bool"
            },
            {
              "internalType": "bool",
              "name": "isUnlocked",
              "type": "bool"
            }
          ],
          "internalType": "struct LibDiamond.LockInfo[]",
          "name": "locks_",
          "type": "tuple[]"
        },
        {
          "internalType": "uint256[]",
          "name": "locksTopup",
          "type": "uint256[]"
        }
      ],
      "stateMutability": "view",
      "type": "function",
      "constant": true
    },
    {
      "inputs": [
        {
          "internalType": "address",
          "name": "_user",
          "type": "address"
        },
        {
          "internalType": "uint256",
          "name": "_startIndex",
          "type": "uint256"
        },
        {
          "internalType": "uint256",
          "name": "_limit",
          "type": "uint256"
        }
      ],
      "name": "locksDesc",
      "outputs": [
        {
          "components": [
            {
              "internalType": "uint256",
              "name": "id",
              "type": "uint256"
            },
            {
              "internalType": "enum LibDiamond.LockLevel",
              "name": "level",
              "type": "uint8"
            },
            {
              "internalType": "uint256",
              "name": "lockAmount",
              "type": "uint256"
            },
            {
              "internalType": "uint256",
              "name": "voteAmount",
              "type": "uint256"
            },
            {
              "internalType": "uint256",
              "name": "lockTimestamp",
              "type": "uint256"
            },
            {
              "internalType": "uint256",
              "name": "penaltyFinixAmount",
              "type": "uint256"
            },
            {
              "internalType": "uint256",
              "name": "penaltyUnlockTimestamp",
              "type": "uint256"
            },
            {
              "internalType": "bool",
              "name": "isPenalty",
              "type": "bool"
            },
            {
              "internalType": "bool",
              "name": "isUnlocked",
              "type": "bool"
            }
          ],
          "internalType": "struct LibDiamond.LockInfo[]",
          "name": "locks_",
          "type": "tuple[]"
        },
        {
          "internalType": "uint256[]",
          "name": "locksTopup",
          "type": "uint256[]"
        }
      ],
      "stateMutability": "view",
      "type": "function",
      "constant": true
    },
    {
      "inputs": [
        {
          "internalType": "bytes32",
          "name": "key",
          "type": "bytes32"
        }
      ],
      "name": "getLockMap",
      "outputs": [
        {
          "components": [
            {
              "internalType": "uint256",
              "name": "id",
              "type": "uint256"
            },
            {
              "internalType": "enum LibDiamond.LockLevel",
              "name": "level",
              "type": "uint8"
            },
            {
              "internalType": "uint256",
              "name": "lockAmount",
              "type": "uint256"
            },
            {
              "internalType": "uint256",
              "name": "voteAmount",
              "type": "uint256"
            },
            {
              "internalType": "uint256",
              "name": "lockTimestamp",
              "type": "uint256"
            },
            {
              "internalType": "uint256",
              "name": "penaltyFinixAmount",
              "type": "uint256"
            },
            {
              "internalType": "uint256",
              "name": "penaltyUnlockTimestamp",
              "type": "uint256"
            },
            {
              "internalType": "bool",
              "name": "isPenalty",
              "type": "bool"
            },
            {
              "internalType": "bool",
              "name": "isUnlocked",
              "type": "bool"
            }
          ],
          "internalType": "struct LibDiamond.LockInfo",
          "name": "lockInfo_",
          "type": "tuple"
        }
      ],
      "stateMutability": "view",
      "type": "function",
      "constant": true
    },
    {
      "inputs": [
        {
          "internalType": "address",
          "name": "_user",
          "type": "address"
        },
        {
          "internalType": "uint256",
          "name": "_lockIndex",
          "type": "uint256"
        }
      ],
      "name": "lockInfo",
      "outputs": [
        {
          "components": [
            {
              "internalType": "uint256",
              "name": "id",
              "type": "uint256"
            },
            {
              "internalType": "enum LibDiamond.LockLevel",
              "name": "level",
              "type": "uint8"
            },
            {
              "internalType": "uint256",
              "name": "lockAmount",
              "type": "uint256"
            },
            {
              "internalType": "uint256",
              "name": "voteAmount",
              "type": "uint256"
            },
            {
              "internalType": "uint256",
              "name": "lockTimestamp",
              "type": "uint256"
            },
            {
              "internalType": "uint256",
              "name": "penaltyFinixAmount",
              "type": "uint256"
            },
            {
              "internalType": "uint256",
              "name": "penaltyUnlockTimestamp",
              "type": "uint256"
            },
            {
              "internalType": "bool",
              "name": "isPenalty",
              "type": "bool"
            },
            {
              "internalType": "bool",
              "name": "isUnlocked",
              "type": "bool"
            }
          ],
          "internalType": "struct LibDiamond.LockInfo",
          "name": "lockInfo_",
          "type": "tuple"
        }
      ],
      "stateMutability": "view",
      "type": "function",
      "constant": true
    },
    {
      "inputs": [
        {
          "internalType": "address",
          "name": "_user",
          "type": "address"
        },
        {
          "internalType": "uint256",
          "name": "_lockIndex",
          "type": "uint256"
        }
      ],
      "name": "lockSafeToUnlock",
      "outputs": [
        {
          "internalType": "bool",
          "name": "",
          "type": "bool"
        }
      ],
      "stateMutability": "view",
      "type": "function",
      "constant": true
    },
    {
      "inputs": [
        {
          "internalType": "address",
          "name": "_user",
          "type": "address"
        }
      ],
      "name": "getUserLockAmount",
      "outputs": [
        {
          "internalType": "uint256",
          "name": "",
          "type": "uint256"
        }
      ],
      "stateMutability": "view",
      "type": "function",
      "constant": true
    }
  ],
  "bytecode": "0x608060405234801561001057600080fd5b50611954806100206000396000f3fe608060405234801561001057600080fd5b50600436106100625760003560e01c80631bc1a3a4146100675780636f8bda1314610097578063a5074bb7146100c8578063b2520a7c146100f8578063b7d158ea14610128578063d317eaf514610158575b600080fd5b610081600480360381019061007c919061106d565b610189565b60405161008e919061167f565b60405180910390f35b6100b160048036038101906100ac91906110d2565b6101e0565b6040516100bf9291906115f6565b60405180910390f35b6100e260048036038101906100dd9190611121565b610682565b6040516100ef9190611663565b60405180910390f35b610112600480360381019061010d9190611096565b6107b8565b60405161011f9190611663565b60405180910390f35b610142600480360381019061013d9190611096565b61091d565b60405161014f919061162d565b60405180910390f35b610172600480360381019061016d91906110d2565b610a46565b6040516101809291906115f6565b60405180910390f35b600080610194610f0d565b905080600a0160008473ffffffffffffffffffffffffffffffffffffffff1673ffffffffffffffffffffffffffffffffffffffff16815260200190815260200160002054915050919050565b60608060006101ed610f0d565b905060008160090160008873ffffffffffffffffffffffffffffffffffffffff1673ffffffffffffffffffffffffffffffffffffffff168152602001908152602001600020549050808611156102bf57600067ffffffffffffffff81111561027e577f4e487b7100000000000000000000000000000000000000000000000000000000600052604160045260246000fd5b6040519080825280602002602001820160405280156102b757816020015b6102a4610f91565b81526020019060019003908161029c5790505b50935061053e565b60006102d48783610f3a90919063ffffffff16565b9050600081871015806102e75750600087145b156102f4578190506102f8565b8690505b600083111561053b578067ffffffffffffffff811115610341577f4e487b7100000000000000000000000000000000000000000000000000000000600052604160045260246000fd5b60405190808252806020026020018201604052801561037a57816020015b610367610f91565b81526020019060019003908161035f5790505b50955060005b818110156105395760008a61039e838c610f5090919063ffffffff16565b6040516020016103af929190611591565b60405160208183030381529060405280519060200120905085600801600082815260200190815260200160002060405180610120016040529081600082015481526020016001820160009054906101000a900460ff16600281111561043d577f4e487b7100000000000000000000000000000000000000000000000000000000600052602160045260246000fd5b6002811115610475577f4e487b7100000000000000000000000000000000000000000000000000000000600052602160045260246000fd5b815260200160028201548152602001600382015481526020016004820154815260200160058201548152602001600682015481526020016007820160009054906101000a900460ff161515151581526020016007820160019054906101000a900460ff16151515158152505088838151811061051a577f4e487b7100000000000000000000000000000000000000000000000000000000600052603260045260246000fd5b60200260200101819052505080806105319061181e565b915050610380565b505b50505b600061056f886040516020016105549190611563565b60405160208183030381529060405280519060200120610f66565b90508067ffffffffffffffff8111156105b1577f4e487b7100000000000000000000000000000000000000000000000000000000600052604160045260246000fd5b6040519080825280602002602001820160405280156105df5781602001602082028036833780820191505090505b50935060005b818110156106765761061e33826040516020016106039291906115ba565b60405160208183030381529060405280519060200120610f66565b858281518110610657577f4e487b7100000000000000000000000000000000000000000000000000000000600052603260045260246000fd5b602002602001018181525050808061066e9061181e565b9150506105e5565b50505050935093915050565b61068a610f91565b6000610694610f0d565b905080600801600084815260200190815260200160002060405180610120016040529081600082015481526020016001820160009054906101000a900460ff16600281111561070c577f4e487b7100000000000000000000000000000000000000000000000000000000600052602160045260246000fd5b6002811115610744577f4e487b7100000000000000000000000000000000000000000000000000000000600052602160045260246000fd5b815260200160028201548152602001600382015481526020016004820154815260200160058201548152602001600682015481526020016007820160009054906101000a900460ff161515151581526020016007820160019054906101000a900460ff161515151581525050915050919050565b6107c0610f91565b60006107ca610f0d565b9050600084846040516020016107e1929190611591565b60405160208183030381529060405280519060200120905081600801600082815260200190815260200160002060405180610120016040529081600082015481526020016001820160009054906101000a900460ff16600281111561086f577f4e487b7100000000000000000000000000000000000000000000000000000000600052602160045260246000fd5b60028111156108a7577f4e487b7100000000000000000000000000000000000000000000000000000000600052602160045260246000fd5b815260200160028201548152602001600382015481526020016004820154815260200160058201548152602001600682015481526020016007820160009054906101000a900460ff161515151581526020016007820160019054906101000a900460ff1615151515815250509250505092915050565b600080610928610f0d565b90506000848460405160200161093f929190611591565b6040516020818303038152906040528051906020012090506000826008016000838152602001908152602001600020905060003073ffffffffffffffffffffffffffffffffffffffff1663b759d6038360010160009054906101000a900460ff166040518263ffffffff1660e01b81526004016109bc9190611648565b60c06040518083038186803b1580156109d457600080fd5b505afa1580156109e8573d6000803e3d6000fd5b505050506040513d601f19601f82011682018060405250810190610a0c919061114a565b50505050509050808260040154610a23919061171d565b421015610a37576000945050505050610a40565b60019450505050505b92915050565b6060806000610a53610f0d565b905060008160090160008873ffffffffffffffffffffffffffffffffffffffff1673ffffffffffffffffffffffffffffffffffffffff16815260200190815260200160002054905080861115610b2557600067ffffffffffffffff811115610ae4577f4e487b7100000000000000000000000000000000000000000000000000000000600052604160045260246000fd5b604051908082528060200260200182016040528015610b1d57816020015b610b0a610f91565b815260200190600190039081610b025790505b509350610dc9565b6000610b3a8783610f3a90919063ffffffff16565b905060008187101580610b4d5750600087145b15610b5a57819050610b5e565b8690505b6000831115610dc6578067ffffffffffffffff811115610ba7577f4e487b7100000000000000000000000000000000000000000000000000000000600052604160045260246000fd5b604051908082528060200260200182016040528015610be057816020015b610bcd610f91565b815260200190600190039081610bc55790505b50955060005b81811015610dc45760008a610c2983610c1b8d610c0d60018b610f3a90919063ffffffff16565b610f3a90919063ffffffff16565b610f3a90919063ffffffff16565b604051602001610c3a929190611591565b60405160208183030381529060405280519060200120905085600801600082815260200190815260200160002060405180610120016040529081600082015481526020016001820160009054906101000a900460ff166002811115610cc8577f4e487b7100000000000000000000000000000000000000000000000000000000600052602160045260246000fd5b6002811115610d00577f4e487b7100000000000000000000000000000000000000000000000000000000600052602160045260246000fd5b815260200160028201548152602001600382015481526020016004820154815260200160058201548152602001600682015481526020016007820160009054906101000a900460ff161515151581526020016007820160019054906101000a900460ff161515151581525050888381518110610da5577f4e487b7100000000000000000000000000000000000000000000000000000000600052603260045260246000fd5b6020026020010181905250508080610dbc9061181e565b915050610be6565b505b50505b6000610dfa88604051602001610ddf9190611563565b60405160208183030381529060405280519060200120610f66565b90508067ffffffffffffffff811115610e3c577f4e487b7100000000000000000000000000000000000000000000000000000000600052604160045260246000fd5b604051908082528060200260200182016040528015610e6a5781602001602082028036833780820191505090505b50935060005b81811015610f0157610ea93382604051602001610e8e9291906115ba565b60405160208183030381529060405280519060200120610f66565b858281518110610ee2577f4e487b7100000000000000000000000000000000000000000000000000000000600052603260045260246000fd5b6020026020010181815250508080610ef99061181e565b915050610e70565b50505050935093915050565b6000807fc8fcad8db84d3cc18b4c41d551ea0ee66dd599cde068d998e57d5e09332c131c90508091505090565b60008183610f489190611773565b905092915050565b60008183610f5e919061171d565b905092915050565b600080610f71610f0d565b905080600401600084815260200190815260200160002054915050919050565b6040518061012001604052806000815260200160006002811115610fde577f4e487b7100000000000000000000000000000000000000000000000000000000600052602160045260246000fd5b815260200160008152602001600081526020016000815260200160008152602001600081526020016000151581526020016000151581525090565b600081359050611028816118d9565b92915050565b60008135905061103d816118f0565b92915050565b60008135905061105281611907565b92915050565b60008151905061106781611907565b92915050565b60006020828403121561107f57600080fd5b600061108d84828501611019565b91505092915050565b600080604083850312156110a957600080fd5b60006110b785828601611019565b92505060206110c885828601611043565b9150509250929050565b6000806000606084860312156110e757600080fd5b60006110f586828701611019565b935050602061110686828701611043565b925050604061111786828701611043565b9150509250925092565b60006020828403121561113357600080fd5b60006111418482850161102e565b91505092915050565b60008060008060008060c0878903121561116357600080fd5b600061117189828a01611058565b965050602061118289828a01611058565b955050604061119389828a01611058565b94505060606111a489828a01611058565b93505060806111b589828a01611058565b92505060a06111c689828a01611058565b9150509295509295509295565b60006111df83836113d7565b6101208301905092915050565b60006111f88383611545565b60208301905092915050565b61120d816117a7565b82525050565b600061121e826116ba565b61122881856116ea565b93506112338361169a565b8060005b8381101561126457815161124b88826111d3565b9750611256836116d0565b925050600181019050611237565b5085935050505092915050565b600061127c826116c5565b61128681856116fb565b9350611291836116aa565b8060005b838110156112c25781516112a988826111ec565b97506112b4836116dd565b925050600181019050611295565b5085935050505092915050565b6112d8816117b9565b82525050565b6112e7816117b9565b82525050565b6112f68161180c565b82525050565b6113058161180c565b82525050565b600061131860238361170c565b91507f7666696e69782e546f705570466561747572652e6c656e6774684c6f636b546f60008301527f70557000000000000000000000000000000000000000000000000000000000006020830152604082019050919050565b600061137e60238361170c565b91507f7666696e69782e546f705570466561747572652e69734c6f636b546f7055704c60008301527f69737400000000000000000000000000000000000000000000000000000000006020830152604082019050919050565b610120820160008201516113ee6000850182611545565b50602082015161140160208501826112ed565b5060408201516114146040850182611545565b5060608201516114276060850182611545565b50608082015161143a6080850182611545565b5060a082015161144d60a0850182611545565b5060c082015161146060c0850182611545565b5060e082015161147360e08501826112cf565b506101008201516114886101008501826112cf565b50505050565b610120820160008201516114a56000850182611545565b5060208201516114b860208501826112ed565b5060408201516114cb6040850182611545565b5060608201516114de6060850182611545565b5060808201516114f16080850182611545565b5060a082015161150460a0850182611545565b5060c082015161151760c0850182611545565b5060e082015161152a60e08501826112cf565b5061010082015161153f6101008501826112cf565b50505050565b61154e81611802565b82525050565b61155d81611802565b82525050565b60006040820190506115786000830184611204565b81810360208301526115898161130b565b905092915050565b60006040820190506115a66000830185611204565b6115b36020830184611554565b9392505050565b60006060820190506115cf6000830185611204565b6115dc6020830184611554565b81810360408301526115ed81611371565b90509392505050565b600060408201905081810360008301526116108185611213565b905081810360208301526116248184611271565b90509392505050565b600060208201905061164260008301846112de565b92915050565b600060208201905061165d60008301846112fc565b92915050565b600061012082019050611679600083018461148e565b92915050565b60006020820190506116946000830184611554565b92915050565b6000819050602082019050919050565b6000819050602082019050919050565b600081519050919050565b600081519050919050565b6000602082019050919050565b6000602082019050919050565b600082825260208201905092915050565b600082825260208201905092915050565b600082825260208201905092915050565b600061172882611802565b915061173383611802565b9250827fffffffffffffffffffffffffffffffffffffffffffffffffffffffffffffffff0382111561176857611767611867565b5b828201905092915050565b600061177e82611802565b915061178983611802565b92508282101561179c5761179b611867565b5b828203905092915050565b60006117b2826117e2565b9050919050565b60008115159050919050565b6000819050919050565b60008190506117dd826118c5565b919050565b600073ffffffffffffffffffffffffffffffffffffffff82169050919050565b6000819050919050565b6000611817826117cf565b9050919050565b600061182982611802565b91507fffffffffffffffffffffffffffffffffffffffffffffffffffffffffffffffff82141561185c5761185b611867565b5b600182019050919050565b7f4e487b7100000000000000000000000000000000000000000000000000000000600052601160045260246000fd5b7f4e487b7100000000000000000000000000000000000000000000000000000000600052602160045260246000fd5b600381106118d6576118d5611896565b5b50565b6118e2816117a7565b81146118ed57600080fd5b50565b6118f9816117c5565b811461190457600080fd5b50565b61191081611802565b811461191b57600080fd5b5056fea2646970667358221220998d8c86b5d54c7db9aee04b8df3f7c6bfe09ee23a6bf7f0ad0cd801216d574d64736f6c63430008000033",
  "immutableReferences": {},
  "source": "// SPDX-License-Identifier: MIT\npragma solidity ^0.8.0;\n\nimport { LibDiamond } from \"../libraries/LibDiamond.sol\";\nimport \"../interfaces/IVaultInfoFacet.sol\";\nimport \"../interfaces/IVaultFacet.sol\";\nimport \"../utils/math/SafeMath.sol\";\n\n\ncontract VaultInfoFacet is IVaultInfoFacet{\n    using SafeMath for uint256;\n\n  \n    function locks(address _user,uint256 _startIndex,uint256 _limit) external override view returns(LibDiamond.LockInfo[] memory locks_,uint256[] memory locksTopup){\n        LibDiamond.DiamondStorage storage ds = LibDiamond.diamondStorage();\n        uint256 userLocksCount_ = ds.userLocksCount[_user];\n\n        if(_startIndex > userLocksCount_){\n            locks_= new LibDiamond.LockInfo[](0);\n        }else{\n            uint256 count = userLocksCount_.sub(_startIndex);\n            uint256 length;\n            if(_limit >= count || _limit == 0){\n                length = count;\n            }else{\n                length = _limit;\n            }\n            if(userLocksCount_ > 0) {\n                locks_= new LibDiamond.LockInfo[](length);\n                for (uint256 i = 0; i < length; i++) {\n                    bytes32 key = keccak256(abi.encode(_user,_startIndex.add(i)));\n                    locks_[i] = ds.locksMap[key];\n                }\n            }\n        }\n        uint256 _locksTopupLength = LibDiamond.getUint(keccak256(abi.encode(_user,\"vfinix.TopUpFeature.lengthLockTopUp\")));\n        locksTopup = new uint256[](_locksTopupLength);\n        for(uint256 i = 0; i < _locksTopupLength; i++){\n            locksTopup[i] = LibDiamond.getUint(keccak256(abi.encode(msg.sender,i,\"vfinix.TopUpFeature.isLockTopUpList\")));\n        }\n\n    }\n    \n    \n\n function locksDesc(address _user,uint256 _startIndex,uint256 _limit) external override view returns(LibDiamond.LockInfo[] memory locks_,uint256[] memory locksTopup){\n        LibDiamond.DiamondStorage storage ds = LibDiamond.diamondStorage();\n        uint256 userLocksCount_ = ds.userLocksCount[_user];\n\n        if(_startIndex > userLocksCount_){\n            locks_= new LibDiamond.LockInfo[](0);\n        }else{\n            uint256 count = userLocksCount_.sub(_startIndex);\n            uint256 length;\n            if(_limit >= count || _limit == 0){\n                length = count;\n            }else{\n                length = _limit;\n            }\n            if(userLocksCount_ > 0) {\n                locks_= new LibDiamond.LockInfo[](length);\n                for (uint256 i = 0; i < length; i++) {\n                    bytes32 key = keccak256(abi.encode(_user,(userLocksCount_.sub(1)).sub(_startIndex).sub(i)));\n                    locks_[i] = ds.locksMap[key];\n                }\n            }\n        }\n        uint256 _locksTopupLength = LibDiamond.getUint(keccak256(abi.encode(_user,\"vfinix.TopUpFeature.lengthLockTopUp\")));\n        locksTopup = new uint256[](_locksTopupLength);\n        for(uint256 i = 0; i < _locksTopupLength; i++){\n            locksTopup[i] = LibDiamond.getUint(keccak256(abi.encode(msg.sender,i,\"vfinix.TopUpFeature.isLockTopUpList\")));\n        }\n    }\n\n    \n    function getLockMap(bytes32 key) external override view returns(LibDiamond.LockInfo memory lockInfo_) {\n        LibDiamond.DiamondStorage storage ds = LibDiamond.diamondStorage();\n        lockInfo_ = ds.locksMap[key];\n    }\n\n   \n    function lockInfo(address _user,uint256 _lockIndex) external override view returns(LibDiamond.LockInfo memory lockInfo_){\n        LibDiamond.DiamondStorage storage ds = LibDiamond.diamondStorage();\n        bytes32 key = keccak256(abi.encode(_user,_lockIndex));\n        lockInfo_ = ds.locksMap[key];\n    }\n\n    function lockSafeToUnlock(address _user, uint256 _lockIndex) external override view returns (bool) {\n        LibDiamond.DiamondStorage storage ds = LibDiamond.diamondStorage();\n\n        // Get Lock info\n        bytes32 key = keccak256(abi.encode(_user, _lockIndex));\n        LibDiamond.LockInfo storage lockInfo_ = ds.locksMap[key];\n\n        // Check ending period\n        (uint256 period_, , , , ,) = IVaultFacet(address(this)).getLockPeriod(lockInfo_.level);\n\n        if (block.timestamp < lockInfo_.lockTimestamp + period_) {\n            return false;\n        }\n        return true;\n    }\n\n    function getUserLockAmount(address _user) external override view returns(uint256) {\n        LibDiamond.DiamondStorage storage ds = LibDiamond.diamondStorage();\n        return ds.userLocksAmount[_user];\n    }\n}\n",
  "sourcePath": "/Users/kanthakarn/Documents/work/six-network/definix-vfinix/contracts/facets/VaultInfoFacet.sol",
  "compiler": {
    "name": "solc",
    "version": "0.8.0+commit.c7dfd78e.Emscripten.clang"
  },
  "schemaVersion": "3.4.1",
  "updatedAt": "2021-11-09T08:03:33.590Z",
  "networkType": "ethereum",
  "devdoc": {
    "kind": "dev",
    "methods": {},
    "version": 1
  },
  "userdoc": {
    "kind": "user",
    "methods": {},
    "version": 1
  }
}