{
  "contractName": "VaultPenaltyFacet",
  "abi": [
    {
      "anonymous": false,
      "inputs": [
        {
          "indexed": false,
          "internalType": "address",
          "name": "_user",
          "type": "address"
        },
        {
          "indexed": false,
          "internalType": "uint256",
          "name": "_lockAmount",
          "type": "uint256"
        },
        {
          "indexed": false,
          "internalType": "uint256",
          "name": "_penaltyAmount",
          "type": "uint256"
        },
        {
          "indexed": false,
          "internalType": "uint256",
          "name": "_lockIndex",
          "type": "uint256"
        }
      ],
      "name": "finixClaimWithPenalty",
      "type": "event"
    },
    {
      "inputs": [
        {
          "internalType": "uint256",
          "name": "_lockIndex",
          "type": "uint256"
        }
      ],
      "name": "claimWithPenalty",
      "outputs": [],
      "stateMutability": "nonpayable",
      "type": "function"
    },
    {
      "inputs": [
        {
          "internalType": "address",
          "name": "_burnAddress",
          "type": "address"
        }
      ],
      "name": "setBurnAddress",
      "outputs": [],
      "stateMutability": "nonpayable",
      "type": "function"
    },
    {
      "inputs": [],
      "name": "getBurnAddress",
      "outputs": [
        {
          "internalType": "address",
          "name": "_burnAddress",
          "type": "address"
        }
      ],
      "stateMutability": "view",
      "type": "function",
      "constant": true
    },
    {
      "inputs": [
        {
          "internalType": "address",
          "name": "_penaltyFinixAddress",
          "type": "address"
        }
      ],
      "name": "setPenaltyFinixAddress",
      "outputs": [],
      "stateMutability": "nonpayable",
      "type": "function"
    },
    {
      "inputs": [],
      "name": "getPenaltyFinixAddress",
      "outputs": [
        {
          "internalType": "address",
          "name": "_burnAddress",
          "type": "address"
        }
      ],
      "stateMutability": "view",
      "type": "function",
      "constant": true
    }
  ],
  "bytecode": "0x608060405234801561001057600080fd5b50611ab4806100206000396000f3fe608060405234801561001057600080fd5b50600436106100575760003560e01c806320eb97c11461005c57806338b39d29146100785780634b0e7216146100965780638366db1f146100b2578063e36479dd146100ce575b600080fd5b610076600480360381019061007191906110eb565b6100ec565b005b61008061072b565b60405161008d9190611658565b60405180910390f35b6100b060048036038101906100ab9190611099565b610796565b005b6100cc60048036038101906100c79190611099565b610806565b005b6100d6610859565b6040516100e39190611658565b60405180910390f35b60006100f66108a7565b9050600061012760405160200161010c90611643565b604051602081830303815290604052805190602001206108d4565b9050600061013361072b565b9050600061013f610859565b90503073ffffffffffffffffffffffffffffffffffffffff16630e5c011e836040518263ffffffff1660e01b815260040161017a9190611658565b600060405180830381600087803b15801561019457600080fd5b505af11580156101a8573d6000803e3d6000fd5b50505050600033866040516020016101c1929190611673565b60405160208183030381529060405280519060200120905060008560080160008381526020019081526020016000209050600015158160070160019054906101000a900460ff1615151461024a576040517f08c379a000000000000000000000000000000000000000000000000000000000815260040161024190611701565b60405180910390fd5b600115158160070160009054906101000a900460ff161515146102a2576040517f08c379a000000000000000000000000000000000000000000000000000000000815260040161029990611721565b60405180910390fd5b60008060006102c18460010160009054906101000a900460ff1661091f565b9550955095505050508284600601546102da91906117a3565b421161031b576040517f08c379a000000000000000000000000000000000000000000000000000000000815260040161031290611741565b60405180910390fd5b600061034682610338858860020154610ba190919063ffffffff16565b610bb790919063ffffffff16565b905060018560070160016101000a81548160ff021916908315150217905550610373888660030154610bcd565b60008a600a0160003373ffffffffffffffffffffffffffffffffffffffff1673ffffffffffffffffffffffffffffffffffffffff1681526020019081526020016000205490506103d0866002015482610c4a90919063ffffffff16565b8b600a0160003373ffffffffffffffffffffffffffffffffffffffff1673ffffffffffffffffffffffffffffffffffffffff168152602001908152602001600020819055508973ffffffffffffffffffffffffffffffffffffffff1663a9059cbb33610449858a60020154610c4a90919063ffffffff16565b6040518363ffffffff1660e01b8152600401610466929190611673565b602060405180830381600087803b15801561048057600080fd5b505af1158015610494573d6000803e3d6000fd5b505050506040513d601f19601f820116820180604052508101906104b891906110c2565b508973ffffffffffffffffffffffffffffffffffffffff1663a9059cbb89846040518363ffffffff1660e01b81526004016104f4929190611673565b602060405180830381600087803b15801561050e57600080fd5b505af1158015610522573d6000803e3d6000fd5b505050506040513d601f19601f8201168201806040525081019061054691906110c2565b50818660050181905550610558610c60565b6105728660010160009054906101000a900460ff16610d43565b61061f86600201548c600c0160008960010160009054906101000a900460ff1660028111156105ca577f4e487b7100000000000000000000000000000000000000000000000000000000600052602160045260246000fd5b6002811115610602577f4e487b7100000000000000000000000000000000000000000000000000000000600052602160045260246000fd5b815260200190815260200160002054610c4a90919063ffffffff16565b8b600c0160008860010160009054906101000a900460ff16600281111561066f577f4e487b7100000000000000000000000000000000000000000000000000000000600052602160045260246000fd5b60028111156106a7577f4e487b7100000000000000000000000000000000000000000000000000000000600052602160045260246000fd5b8152602001908152602001600020819055506106d486600201548c600b0154610c4a90919063ffffffff16565b8b600b01819055507f43e6096389be4cf2bcbb7db180c2cce8e7df8e67b8a4025fd27d0e7070b2f217338760020154848f604051610715949392919061169c565b60405180910390a1505050505050505050505050565b60006107916040518060400160405280601e81526020017f5661756c7450656e616c747946616365742e6275726e5f61646472657373000081525060405160200161077691906114d2565b604051602081830303815290604052805190602001206108d4565b905090565b61079e610e2b565b6108036040518060400160405280601e81526020017f5661756c7450656e616c747946616365742e6275726e5f6164647265737300008152506040516020016107e791906114d2565b6040516020818303038152906040528051906020012082610ec6565b50565b61080e610e2b565b610856604051806060016040528060218152602001611a5e6021913960405160200161083a91906114d2565b6040516020818303038152906040528051906020012082610ec6565b50565b60006108a2604051806060016040528060218152602001611a5e6021913960405160200161088791906114d2565b604051602081830303815290604052805190602001206108d4565b905090565b6000807fc8fcad8db84d3cc18b4c41d551ea0ee66dd599cde068d998e57d5e09332c131c90508091505090565b6000806108df6108a7565b905080600501600084815260200190815260200160002060009054906101000a900473ffffffffffffffffffffffffffffffffffffffff16915050919050565b60008060008060008061098e6040518060400160405280600b81526020017f6c6f636b5f706572696f6400000000000000000000000000000000000000000081525088604051602001610973929190611610565b60405160208183030381529060405280519060200120610f2b565b95506109f66040518060400160405280600b81526020017f6c6f636b5f706572696f64000000000000000000000000000000000000000000815250886040516020016109db9291906115dd565b60405160208183030381529060405280519060200120610f2b565b9450610a5e6040518060400160405280600b81526020017f6c6f636b5f706572696f6400000000000000000000000000000000000000000081525088604051602001610a43929190611511565b60405160208183030381529060405280519060200120610f2b565b9350610ac66040518060400160405280600b81526020017f6c6f636b5f706572696f6400000000000000000000000000000000000000000081525088604051602001610aab929190611544565b60405160208183030381529060405280519060200120610f2b565b9250610b2e6040518060400160405280600b81526020017f6c6f636b5f706572696f6400000000000000000000000000000000000000000081525088604051602001610b13929190611577565b60405160208183030381529060405280519060200120610f2b565b9150610b966040518060400160405280600b81526020017f6c6f636b5f706572696f6400000000000000000000000000000000000000000081525088604051602001610b7b9291906115aa565b60405160208183030381529060405280519060200120610f2b565b905091939550919395565b60008183610baf919061182a565b905092915050565b60008183610bc591906117f9565b905092915050565b610bd681610f56565b610be08282610f85565b600073ffffffffffffffffffffffffffffffffffffffff168273ffffffffffffffffffffffffffffffffffffffff167fddf252ad1be2c89b69c2b068fc378daa952ba7f163c4a11628f55a4df523b3ef83604051610c3e9190611761565b60405180910390a35050565b60008183610c589190611884565b905092915050565b6000610cc66040518060400160405280600a81526020017f6c6f636b5f636f756e7400000000000000000000000000000000000000000000815250604051602001610cab91906114d2565b60405160208183030381529060405280519060200120610f2b565b9050610d406040518060400160405280600a81526020017f6c6f636b5f636f756e7400000000000000000000000000000000000000000000815250604051602001610d1191906114d2565b60405160208183030381529060405280519060200120610d3b600184610c4a90919063ffffffff16565b61102f565b50565b6000610dab6040518060400160405280600a81526020017f6c6f636b5f636f756e740000000000000000000000000000000000000000000081525083604051602001610d909291906114e9565b60405160208183030381529060405280519060200120610f2b565b9050610e276040518060400160405280600a81526020017f6c6f636b5f636f756e740000000000000000000000000000000000000000000081525083604051602001610df89291906114e9565b60405160208183030381529060405280519060200120610e22600184610c4a90919063ffffffff16565b61102f565b5050565b610e336108a7565b60030160009054906101000a900473ffffffffffffffffffffffffffffffffffffffff1673ffffffffffffffffffffffffffffffffffffffff163373ffffffffffffffffffffffffffffffffffffffff1614610ec4576040517f08c379a0000000000000000000000000000000000000000000000000000000008152600401610ebb906116e1565b60405180910390fd5b565b6000610ed06108a7565b90508181600501600085815260200190815260200160002060006101000a81548173ffffffffffffffffffffffffffffffffffffffff021916908373ffffffffffffffffffffffffffffffffffffffff160217905550505050565b600080610f366108a7565b905080600401600084815260200190815260200160002054915050919050565b6000610f606108a7565b9050610f798282600d0154610c4a90919063ffffffff16565b81600d01819055505050565b6000610f8f6108a7565b9050610fe58282600e0160008673ffffffffffffffffffffffffffffffffffffffff1673ffffffffffffffffffffffffffffffffffffffff16815260200190815260200160002054610c4a90919063ffffffff16565b81600e0160008573ffffffffffffffffffffffffffffffffffffffff1673ffffffffffffffffffffffffffffffffffffffff16815260200190815260200160002081905550505050565b60006110396108a7565b90508181600401600085815260200190815260200160002081905550505050565b60008135905061106981611a18565b92915050565b60008151905061107e81611a2f565b92915050565b60008135905061109381611a46565b92915050565b6000602082840312156110ab57600080fd5b60006110b98482850161105a565b91505092915050565b6000602082840312156110d457600080fd5b60006110e28482850161106f565b91505092915050565b6000602082840312156110fd57600080fd5b600061110b84828501611084565b91505092915050565b61111d816118b8565b82525050565b61113461112f82611913565b611958565b82525050565b60006111458261177c565b61114f8185611798565b935061115f818560208601611925565b80840191505092915050565b6000611178600783611798565b91507f6d696e696d756d000000000000000000000000000000000000000000000000006000830152600782019050919050565b60006111b8602283611787565b91507f4c69624469616d6f6e643a204d75737420626520636f6e7472616374206f776e60008301527f65720000000000000000000000000000000000000000000000000000000000006020830152604082019050919050565b600061121e600d83611798565b91507f70656e616c7479506572696f64000000000000000000000000000000000000006000830152600d82019050919050565b600061125e600b83611798565b91507f70656e616c7479526174650000000000000000000000000000000000000000006000830152600b82019050919050565b600061129e600583611798565b91507f46494e49580000000000000000000000000000000000000000000000000000006000830152600582019050919050565b60006112de602c83611787565b91507f7646696e69785661756c743a20546869732068617320616c726561647920626560008301527f656e20756e6c6f636b65642e00000000000000000000000000000000000000006020830152604082019050919050565b6000611344602683611787565b91507f5646696e69785661756c743a20596f7520617265206e6f74206265696e67207060008301527f656e616c747900000000000000000000000000000000000000000000000000006020830152604082019050919050565b60006113aa601283611798565b91507f70656e616c747952617465446563696d616c00000000000000000000000000006000830152601282019050919050565b60006113ea600a83611798565b91507f6d756c7469706c696572000000000000000000000000000000000000000000006000830152600a82019050919050565b600061142a600683611798565b91507f706572696f6400000000000000000000000000000000000000000000000000006000830152600682019050919050565b600061146a602483611787565b91507f5646696e69785661756c743a20596f752061726520696e2070656e616c74792060008301527f74696d65000000000000000000000000000000000000000000000000000000006020830152604082019050919050565b6114cc81611909565b82525050565b60006114de828461113a565b915081905092915050565b60006114f5828561113a565b91506115018284611123565b6001820191508190509392505050565b600061151d828561113a565b91506115298284611123565b6001820191506115388261116b565b91508190509392505050565b6000611550828561113a565b915061155c8284611123565b60018201915061156b82611211565b91508190509392505050565b6000611583828561113a565b915061158f8284611123565b60018201915061159e82611251565b91508190509392505050565b60006115b6828561113a565b91506115c28284611123565b6001820191506115d18261139d565b91508190509392505050565b60006115e9828561113a565b91506115f58284611123565b600182019150611604826113dd565b91508190509392505050565b600061161c828561113a565b91506116288284611123565b6001820191506116378261141d565b91508190509392505050565b600061164e82611291565b9150819050919050565b600060208201905061166d6000830184611114565b92915050565b60006040820190506116886000830185611114565b61169560208301846114c3565b9392505050565b60006080820190506116b16000830187611114565b6116be60208301866114c3565b6116cb60408301856114c3565b6116d860608301846114c3565b95945050505050565b600060208201905081810360008301526116fa816111ab565b9050919050565b6000602082019050818103600083015261171a816112d1565b9050919050565b6000602082019050818103600083015261173a81611337565b9050919050565b6000602082019050818103600083015261175a8161145d565b9050919050565b600060208201905061177660008301846114c3565b92915050565b600081519050919050565b600082825260208201905092915050565b600081905092915050565b60006117ae82611909565b91506117b983611909565b9250827fffffffffffffffffffffffffffffffffffffffffffffffffffffffffffffffff038211156117ee576117ed61196a565b5b828201905092915050565b600061180482611909565b915061180f83611909565b92508261181f5761181e611999565b5b828204905092915050565b600061183582611909565b915061184083611909565b9250817fffffffffffffffffffffffffffffffffffffffffffffffffffffffffffffffff04831182151516156118795761187861196a565b5b828202905092915050565b600061188f82611909565b915061189a83611909565b9250828210156118ad576118ac61196a565b5b828203905092915050565b60006118c3826118e9565b9050919050565b60008115159050919050565b60008190506118e482611a04565b919050565b600073ffffffffffffffffffffffffffffffffffffffff82169050919050565b6000819050919050565b600061191e826118d6565b9050919050565b60005b83811015611943578082015181840152602081019050611928565b83811115611952576000848401525b50505050565b6000611963826119f7565b9050919050565b7f4e487b7100000000000000000000000000000000000000000000000000000000600052601160045260246000fd5b7f4e487b7100000000000000000000000000000000000000000000000000000000600052601260045260246000fd5b7f4e487b7100000000000000000000000000000000000000000000000000000000600052602160045260246000fd5b60008160f81b9050919050565b60038110611a1557611a146119c8565b5b50565b611a21816118b8565b8114611a2c57600080fd5b50565b611a38816118ca565b8114611a4357600080fd5b50565b611a4f81611909565b8114611a5a57600080fd5b5056fe5661756c7450656e616c747946616365742e70656e616c74795f61646472657373a264697066735822122036a178fb0c150dbf1674dd2ed6faed591ecccac32e53d2e2d8e3301b7a5661b764736f6c63430008000033",
  "immutableReferences": {},
  "source": "// SPDX-License-Identifier: MIT\npragma solidity ^0.8.0;\n\nimport { LibDiamond } from \"../libraries/LibDiamond.sol\";\nimport \"../interfaces/IVaultPenaltyFacet.sol\";\nimport \"../interfaces/IKIP7.sol\";\nimport \"../utils/math/SafeMath.sol\";\nimport \"../interfaces/IUsageFacet.sol\";\nimport \"../interfaces/IRewardFacet.sol\";\n\n\ncontract VaultPenaltyFacet is IVaultPenaltyFacet {\n    using SafeMath for uint256;\n\n    uint256 constant private MULTIPLIER_DIVISOR = 10;\n    string constant private KEY_LOCK_PERIOD = \"lock_period\";\n    string constant private KEY_LOCK_COUNT = \"lock_count\";\n    string constant private BURN_ADDRESS_KEY = \"VaultPenaltyFacet.burn_address\";\n    string constant private PENALTY_ADDRESS_KEY = \"VaultPenaltyFacet.penalty_address\";\n\n  \n    event finixClaimWithPenalty(address _user,uint256 _lockAmount,uint256 _penaltyAmount, uint256 _lockIndex);\n\n    function claimWithPenalty(uint256 _lockIndex) external override{\n            LibDiamond.DiamondStorage storage ds = LibDiamond.diamondStorage();\n            // Get FINIX Address from Eternal Storage\n            address FINIX = LibDiamond.getAddress(\n                keccak256(abi.encodePacked(\"FINIX\"))\n            );\n            // TDO: Yield Operation\n            address burnAddress = getBurnAddress();\n            address penaltyFinixAddress = getPenaltyFinixAddress();\n            IRewardFacet(address(this)).harvest(burnAddress);\n            // Get Lock info\n            bytes32 key = keccak256(abi.encode(msg.sender, _lockIndex));\n            LibDiamond.LockInfo storage lockInfo_ = ds.locksMap[key];\n            \n\n            require(lockInfo_.isUnlocked == false,\"vFinixVault: This has already been unlocked.\");\n            require(lockInfo_.isPenalty == true ,\"VFinixVault: You are not being penalty\");\n\n            (, , ,uint256 penaltyPeriod_,uint256 penaltyRate_,uint256 penaltyRateDecimal_) = _getLockPerioid(lockInfo_.level);\n            require(block.timestamp > lockInfo_.penaltyUnlockTimestamp + penaltyPeriod_ ,\"VFinixVault: You are in penalty time\");\n            // calculate penalty finix\n            uint256 penaltyAmount = lockInfo_.lockAmount.mul(penaltyRate_).div(penaltyRateDecimal_);\n            // Mark Unlock\n            lockInfo_.isUnlocked = true;\n            // Burn vFinix\n            _burnVFinix(burnAddress, lockInfo_.voteAmount);\n            // Decreaase total Lock Amount\n            uint256 userLocksAmount_ = ds.userLocksAmount[msg.sender];\n            ds.userLocksAmount[msg.sender] = userLocksAmount_.sub(lockInfo_.lockAmount);\n            // Transfer back FINIX\n            // _calculatePenaltyFinix(lockInfo_.lockAmount,)\n\n            IKIP7(FINIX).transfer(msg.sender, lockInfo_.lockAmount.sub(penaltyAmount));\n            IKIP7(FINIX).transfer(penaltyFinixAddress, penaltyAmount);\n            lockInfo_.penaltyFinixAmount = penaltyAmount;\n            // update lock data\n            _decreaseTotalLockCount();\n            _decreaseTotalLevelLockCount(lockInfo_.level);\n            ds.totalFinixLockAtLevel[lockInfo_.level] = ds.totalFinixLockAtLevel[lockInfo_.level].sub(lockInfo_.lockAmount);\n            ds.totalFinixLock = ds.totalFinixLock.sub(lockInfo_.lockAmount);\n            // emit finixClaimWithPenalty(msg.sender, lockInfo_.level, lockInfo_.lockAmount, lockInfo_.voteAmount, lockInfo_.penaltyUnlockTimestamp , _lockIndex, key);\n            emit finixClaimWithPenalty(msg.sender, lockInfo_.lockAmount, penaltyAmount, _lockIndex);\n    }\n    function setBurnAddress(\n      address _burnAddress\n    ) external {\n        LibDiamond.enforceIsContractOwner();\n        LibDiamond.setAddress(keccak256(abi.encodePacked(BURN_ADDRESS_KEY)),_burnAddress);\n    }\n    function getBurnAddress() public view returns(address _burnAddress) {\n        _burnAddress = LibDiamond.getAddress(keccak256(abi.encodePacked(BURN_ADDRESS_KEY)));\n    }\n\n    function setPenaltyFinixAddress(\n      address _penaltyFinixAddress\n    ) external {\n        LibDiamond.enforceIsContractOwner();\n        LibDiamond.setAddress(keccak256(abi.encodePacked(PENALTY_ADDRESS_KEY)),_penaltyFinixAddress);\n    }\n     function getPenaltyFinixAddress() public view returns(address _burnAddress) {\n        _burnAddress = LibDiamond.getAddress(keccak256(abi.encodePacked(PENALTY_ADDRESS_KEY)));\n    }\n   function _getLockPerioid(LibDiamond.LockLevel _level) internal view returns(uint256 period_,uint256 multiplier_,uint256 minimum_,uint256 penaltyPeriod_,uint256 penaltyRate_,uint256 penaltyRateDecimal_) {\n        period_ = LibDiamond.getUint(keccak256(abi.encodePacked(KEY_LOCK_PERIOD,_level,\"period\")));\n        multiplier_ = LibDiamond.getUint(keccak256(abi.encodePacked(KEY_LOCK_PERIOD,_level,\"multiplier\")));\n        minimum_ = LibDiamond.getUint(keccak256(abi.encodePacked(KEY_LOCK_PERIOD,_level,\"minimum\")));\n        penaltyPeriod_ = LibDiamond.getUint(keccak256(abi.encodePacked(KEY_LOCK_PERIOD,_level,\"penaltyPeriod\")));\n        penaltyRate_ = LibDiamond.getUint(keccak256(abi.encodePacked(KEY_LOCK_PERIOD,_level,\"penaltyRate\")));\n        penaltyRateDecimal_ = LibDiamond.getUint(keccak256(abi.encodePacked(KEY_LOCK_PERIOD,_level,\"penaltyRateDecimal\")));\n    }\n     function _mintVFinix(address _holder,uint256 _amount) internal {\n        LibDiamond.increaseTotalSupply(_amount);\n        LibDiamond.increaseBalance(_holder,_amount);\n        emit LibDiamond.Transfer(address(0), _holder, _amount);\n    }\n\n    function _burnVFinix(address _holder,uint256 _amount) internal {\n        LibDiamond.decreaseTotalSupply(_amount);\n        LibDiamond.decreaseBalance(_holder, _amount);\n        emit LibDiamond.Transfer(_holder, address(0), _amount);\n    } \n    function _increaseTotalLockCount() internal  {\n        uint256 totalLockCount = LibDiamond.getUint(keccak256(abi.encodePacked(KEY_LOCK_COUNT)));\n        LibDiamond.setUint(keccak256(abi.encodePacked(KEY_LOCK_COUNT)),totalLockCount.add(1));\n    }\n\n    function _increaseTotalLevelLockCount(LibDiamond.LockLevel _level) internal  {\n        uint256 totalLockCount = LibDiamond.getUint(keccak256(abi.encodePacked(KEY_LOCK_COUNT,_level)));\n        LibDiamond.setUint(keccak256(abi.encodePacked(KEY_LOCK_COUNT,_level)),totalLockCount.add(1));\n    }\n\n     function _decreaseTotalLockCount() internal  {\n        uint256 totalLockCount = LibDiamond.getUint(keccak256(abi.encodePacked(KEY_LOCK_COUNT)));\n        LibDiamond.setUint(keccak256(abi.encodePacked(KEY_LOCK_COUNT)),totalLockCount.sub(1));\n    }\n\n    function _decreaseTotalLevelLockCount(LibDiamond.LockLevel _level) internal  {\n        uint256 totalLockCount = LibDiamond.getUint(keccak256(abi.encodePacked(KEY_LOCK_COUNT,_level)));\n        LibDiamond.setUint(keccak256(abi.encodePacked(KEY_LOCK_COUNT,_level)),totalLockCount.sub(1));\n    }\n}\n",
  "sourcePath": "/Users/kanthakarn/Documents/work/six-network/definix-vfinix/contracts/facets/VaultPenaltyFacet.sol",
  "compiler": {
    "name": "solc",
    "version": "0.8.0+commit.c7dfd78e.Emscripten.clang"
  },
  "schemaVersion": "3.4.1",
  "updatedAt": "2021-10-17T01:51:50.369Z",
  "networkType": "ethereum",
  "devdoc": {
    "kind": "dev",
    "methods": {},
    "version": 1
  },
  "userdoc": {
    "kind": "user",
    "methods": {},
    "version": 1
  }
}