{
  "contractName": "VotingFacet",
  "abi": [
    {
      "anonymous": false,
      "inputs": [
        {
          "indexed": true,
          "internalType": "address",
          "name": "recaller",
          "type": "address"
        },
        {
          "indexed": true,
          "internalType": "uint256",
          "name": "proposalIndex",
          "type": "uint256"
        }
      ],
      "name": "RecallVote",
      "type": "event"
    },
    {
      "anonymous": false,
      "inputs": [
        {
          "indexed": true,
          "internalType": "address",
          "name": "voter",
          "type": "address"
        },
        {
          "indexed": true,
          "internalType": "uint256",
          "name": "proposalIndex",
          "type": "uint256"
        },
        {
          "indexed": false,
          "internalType": "uint256",
          "name": "optionIndex",
          "type": "uint256"
        },
        {
          "indexed": false,
          "internalType": "uint256",
          "name": "votingPowers",
          "type": "uint256"
        }
      ],
      "name": "Vote",
      "type": "event"
    },
    {
      "inputs": [
        {
          "internalType": "uint256",
          "name": "_proposalIndex",
          "type": "uint256"
        }
      ],
      "name": "isParticipated",
      "outputs": [
        {
          "internalType": "bool",
          "name": "",
          "type": "bool"
        }
      ],
      "stateMutability": "view",
      "type": "function"
    },
    {
      "inputs": [
        {
          "internalType": "uint256",
          "name": "_proposalIndex",
          "type": "uint256"
        },
        {
          "internalType": "address",
          "name": "user",
          "type": "address"
        }
      ],
      "name": "isUserParticipated",
      "outputs": [
        {
          "internalType": "bool",
          "name": "",
          "type": "bool"
        }
      ],
      "stateMutability": "view",
      "type": "function"
    },
    {
      "inputs": [
        {
          "internalType": "uint256",
          "name": "_proposalIndex",
          "type": "uint256"
        },
        {
          "internalType": "uint256[]",
          "name": "_votingPowers",
          "type": "uint256[]"
        }
      ],
      "name": "vote",
      "outputs": [],
      "stateMutability": "nonpayable",
      "type": "function"
    },
    {
      "inputs": [
        {
          "internalType": "uint256",
          "name": "_proposalIndex",
          "type": "uint256"
        }
      ],
      "name": "isClaimable",
      "outputs": [
        {
          "internalType": "bool",
          "name": "",
          "type": "bool"
        }
      ],
      "stateMutability": "view",
      "type": "function"
    },
    {
      "inputs": [
        {
          "internalType": "uint256",
          "name": "_proposalIndex",
          "type": "uint256"
        },
        {
          "internalType": "address",
          "name": "user",
          "type": "address"
        }
      ],
      "name": "isUserClaimable",
      "outputs": [
        {
          "internalType": "bool",
          "name": "",
          "type": "bool"
        }
      ],
      "stateMutability": "view",
      "type": "function"
    },
    {
      "inputs": [
        {
          "internalType": "uint256",
          "name": "_proposalIndex",
          "type": "uint256"
        }
      ],
      "name": "recallVotesFromProposal",
      "outputs": [],
      "stateMutability": "nonpayable",
      "type": "function"
    }
  ],
  "bytecode": "0x608060405234801561001057600080fd5b50611e81806100206000396000f3fe608060405234801561001057600080fd5b50600436106100625760003560e01c80631b737392146100675780632d055b7d14610097578063460c47ff146100c75780637055d368146100f757806389610a0914610113578063d73df0a114610143575b600080fd5b610081600480360381019061007c91906117c1565b61015f565b60405161008e9190611af4565b60405180910390f35b6100b160048036038101906100ac91906117c1565b610173565b6040516100be9190611af4565b60405180910390f35b6100e160048036038101906100dc919061176f565b610187565b6040516100ee9190611af4565b60405180910390f35b610111600480360381019061010c91906117fd565b61019a565b005b61012d6004803603810190610128919061176f565b6108b2565b60405161013a9190611af4565b60405180910390f35b61015d6004803603810190610158919061176f565b6108c4565b005b600061016b8383610d7d565b905092915050565b600061017f8383610e7d565b905092915050565b60006101938233610e7d565b9050919050565b60006101a4610ef3565b905060008160090185815481106101e4577f4e487b7100000000000000000000000000000000000000000000000000000000600052603260045260246000fd5b90600052602060002090600a020190508060050154848490501461023d576040517f08c379a000000000000000000000000000000000000000000000000000000000815260040161023490611b66565b60405180910390fd5b61028885858580806020026020016040519081016040528093929190818152602001838360200280828437600081840152601f19601f82011690508083019250505050505050610f20565b6102c7576040517f08c379a00000000000000000000000000000000000000000000000000000000081526004016102be90611be6565b60405180910390fd5b806003015442101561030e576040517f08c379a000000000000000000000000000000000000000000000000000000000815260040161030590611bc6565b60405180910390fd5b8060040154421115610355576040517f08c379a000000000000000000000000000000000000000000000000000000000815260040161034c90611b46565b60405180910390fd5b61035f8533610e7d565b6105465760005b81600501548110156104d55760008585838181106103ad577f4e487b7100000000000000000000000000000000000000000000000000000000600052603260045260246000fd5b9050602002013511156104c25761040586828787858181106103f8577f4e487b7100000000000000000000000000000000000000000000000000000000600052603260045260246000fd5b9050602002013533611027565b61046b600184601101600089815260200190815260200160002060003373ffffffffffffffffffffffffffffffffffffffff1673ffffffffffffffffffffffffffffffffffffffff1681526020019081526020016000205461157090919063ffffffff16565b83601101600088815260200190815260200160002060003373ffffffffffffffffffffffffffffffffffffffff1673ffffffffffffffffffffffffffffffffffffffff168152602001908152602001600020819055505b80806104cd90611da5565b915050610366565b50600182601001600087815260200190815260200160002060003373ffffffffffffffffffffffffffffffffffffffff1673ffffffffffffffffffffffffffffffffffffffff16815260200190815260200160002060006101000a81548160ff0219169083151502179055506108ab565b60005b81600501548110156108a957600083600d016000888152602001908152602001600020600083815260200190815260200160002060003373ffffffffffffffffffffffffffffffffffffffff1673ffffffffffffffffffffffffffffffffffffffff16815260200190815260200160002054118015610607575060008585838181106105fe577f4e487b7100000000000000000000000000000000000000000000000000000000600052603260045260246000fd5b90506020020135115b1561065c57610657868287878581811061064a577f4e487b7100000000000000000000000000000000000000000000000000000000600052603260045260246000fd5b9050602002013533611027565b610896565b816008015483601101600088815260200190815260200160002060003373ffffffffffffffffffffffffffffffffffffffff1673ffffffffffffffffffffffffffffffffffffffff16815260200190815260200160002054108015610700575060008585838181106106f7577f4e487b7100000000000000000000000000000000000000000000000000000000600052603260045260246000fd5b90506020020135115b15610811576107508682878785818110610743577f4e487b7100000000000000000000000000000000000000000000000000000000600052603260045260246000fd5b9050602002013533611027565b6107b6600184601101600089815260200190815260200160002060003373ffffffffffffffffffffffffffffffffffffffff1673ffffffffffffffffffffffffffffffffffffffff1681526020019081526020016000205461157090919063ffffffff16565b83601101600088815260200190815260200160002060003373ffffffffffffffffffffffffffffffffffffffff1673ffffffffffffffffffffffffffffffffffffffff16815260200190815260200160002081905550610895565b600085858381811061084c577f4e487b7100000000000000000000000000000000000000000000000000000000600052603260045260246000fd5b905060200201351115610894576040517f08c379a000000000000000000000000000000000000000000000000000000000815260040161088b90611b86565b60405180910390fd5b5b5b80806108a190611da5565b915050610549565b505b5050505050565b60006108bd82611586565b9050919050565b600061092a6040518060400160405280600e81526020017f7666696e69782e6164647265737300000000000000000000000000000000000081525060405160200161090f9190611ac2565b60405160208183030381529060405280519060200120611685565b905060008173ffffffffffffffffffffffffffffffffffffffff16639620f521336040518263ffffffff1660e01b81526004016109679190611ad9565b60206040518083038186803b15801561097f57600080fd5b505afa158015610993573d6000803e3d6000fd5b505050506040513d601f19601f820116820180604052508101906109b79190611798565b9050600081116109fc576040517f08c379a00000000000000000000000000000000000000000000000000000000081526004016109f390611c26565b60405180910390fd5b610a0583611586565b610a44576040517f08c379a0000000000000000000000000000000000000000000000000000000008152600401610a3b90611ba6565b60405180910390fd5b6000610a4e610ef3565b90506000816009018581548110610a8e577f4e487b7100000000000000000000000000000000000000000000000000000000600052603260045260246000fd5b90600052602060002090600a0201905080600401544211610ae4576040517f08c379a0000000000000000000000000000000000000000000000000000000008152600401610adb90611c06565b60405180910390fd5b600080600090505b8260050154811015610c6657600084600d016000898152602001908152602001600020600083815260200190815260200160002060003373ffffffffffffffffffffffffffffffffffffffff1673ffffffffffffffffffffffffffffffffffffffff168152602001908152602001600020549050610bd68186600d0160008b8152602001908152602001600020600085815260200190815260200160002060003373ffffffffffffffffffffffffffffffffffffffff1673ffffffffffffffffffffffffffffffffffffffff168152602001908152602001600020546116d090919063ffffffff16565b85600d0160008a8152602001908152602001600020600084815260200190815260200160002060003373ffffffffffffffffffffffffffffffffffffffff1673ffffffffffffffffffffffffffffffffffffffff16815260200190815260200160002081905550610c50818461157090919063ffffffff16565b9250508080610c5e90611da5565b915050610aec565b508473ffffffffffffffffffffffffffffffffffffffff1663279b5c436040518060400160405280601881526020017f7666696e69782e766f74696e672e736572766963655f69640000000000000000815250604051602001610cc99190611ac2565b6040516020818303038152906040528051906020012033846040518463ffffffff1660e01b8152600401610cff93929190611b0f565b600060405180830381600087803b158015610d1957600080fd5b505af1158015610d2d573d6000803e3d6000fd5b50505050853373ffffffffffffffffffffffffffffffffffffffff167fef19c3ff03beccb2ef47aeb1cf00eab3ea00f37a42fa97a93358ccbe41545fcf60405160405180910390a3505050505050565b600080610d88610ef3565b90506000816009018581548110610dc8577f4e487b7100000000000000000000000000000000000000000000000000000000600052603260045260246000fd5b90600052602060002090600a020190506000805b8260050154811015610e7057600084600d016000898152602001908152602001600020600083815260200190815260200160002060008873ffffffffffffffffffffffffffffffffffffffff1673ffffffffffffffffffffffffffffffffffffffff168152602001908152602001600020541115610e5d5760019150610e70565b8080610e6890611da5565b915050610ddc565b5080935050505092915050565b600080610e88610ef3565b905080601001600085815260200190815260200160002060008473ffffffffffffffffffffffffffffffffffffffff1673ffffffffffffffffffffffffffffffffffffffff16815260200190815260200160002060009054906101000a900460ff1691505092915050565b6000807fc8fcad8db84d3cc18b4c41d551ea0ee66dd599cde068d998e57d5e09332c131c90508091505090565b600080610f2b610ef3565b90506000816009018581548110610f6b577f4e487b7100000000000000000000000000000000000000000000000000000000600052603260045260246000fd5b90600052602060002090600a020190506000600190506000805b8360050154811015611019576000878281518110610fcc577f4e487b7100000000000000000000000000000000000000000000000000000000600052603260045260246000fd5b60200260200101511115610ff157610fee60018361157090919063ffffffff16565b91505b83600801548211156110065760009250611019565b808061101190611da5565b915050610f85565b508194505050505092915050565b600061108d6040518060400160405280600e81526020017f7666696e69782e616464726573730000000000000000000000000000000000008152506040516020016110729190611ac2565b60405160208183030381529060405280519060200120611685565b90506000611099610ef3565b905060008160090187815481106110d9577f4e487b7100000000000000000000000000000000000000000000000000000000600052603260045260246000fd5b90600052602060002090600a0201905060008160060154905060008473ffffffffffffffffffffffffffffffffffffffff1663d3ec2acd876040518263ffffffff1660e01b815260040161112d9190611ad9565b60206040518083038186803b15801561114557600080fd5b505afa158015611159573d6000803e3d6000fd5b505050506040513d601f19601f8201168201806040525081019061117d9190611798565b905081871015801561118f5750868110155b6111ce576040517f08c379a00000000000000000000000000000000000000000000000000000000081526004016111c590611b86565b60405180910390fd5b8473ffffffffffffffffffffffffffffffffffffffff1663c35f91c56040518060400160405280601881526020017f7666696e69782e766f74696e672e736572766963655f696400000000000000008152506040516020016112309190611ac2565b60405160208183030381529060405280519060200120888a6040518463ffffffff1660e01b815260040161126693929190611b0f565b600060405180830381600087803b15801561128057600080fd5b505af1158015611294573d6000803e3d6000fd5b505050506112af87846007015461157090919063ffffffff16565b836007018190555061131087846009018a815481106112f7577f4e487b7100000000000000000000000000000000000000000000000000000000600052603260045260246000fd5b906000526020600020015461157090919063ffffffff16565b83600901898154811061134c577f4e487b7100000000000000000000000000000000000000000000000000000000600052603260045260246000fd5b90600052602060002001819055506113d08785600d0160008c815260200190815260200160002060008b815260200190815260200160002060008973ffffffffffffffffffffffffffffffffffffffff1673ffffffffffffffffffffffffffffffffffffffff1681526020019081526020016000205461157090919063ffffffff16565b84600d0160008b815260200190815260200160002060008a815260200190815260200160002060008873ffffffffffffffffffffffffffffffffffffffff1673ffffffffffffffffffffffffffffffffffffffff168152602001908152602001600020819055506114ad8785600e0160008c815260200190815260200160002060008b815260200190815260200160002060008973ffffffffffffffffffffffffffffffffffffffff1673ffffffffffffffffffffffffffffffffffffffff1681526020019081526020016000205461157090919063ffffffff16565b84600e0160008b815260200190815260200160002060008a815260200190815260200160002060008873ffffffffffffffffffffffffffffffffffffffff1673ffffffffffffffffffffffffffffffffffffffff16815260200190815260200160002081905550888673ffffffffffffffffffffffffffffffffffffffff167f6c7eb2743ec28489909706ea440d909129004996be657d36c6e9add778546abf8a8a60405161155d929190611c46565b60405180910390a3505050505050505050565b6000818361157e9190611c96565b905092915050565b600080611591610ef3565b905060008160090184815481106115d1577f4e487b7100000000000000000000000000000000000000000000000000000000600052603260045260246000fd5b90600052602060002090600a020190506000805b826005015481101561167957600084600d016000888152602001908152602001600020600083815260200190815260200160002060003373ffffffffffffffffffffffffffffffffffffffff1673ffffffffffffffffffffffffffffffffffffffff1681526020019081526020016000205411156116665760019150611679565b808061167190611da5565b9150506115e5565b50809350505050919050565b600080611690610ef3565b905080600501600084815260200190815260200160002060009054906101000a900473ffffffffffffffffffffffffffffffffffffffff16915050919050565b600081836116de9190611cec565b905092915050565b6000813590506116f581611e1d565b92915050565b60008083601f84011261170d57600080fd5b8235905067ffffffffffffffff81111561172657600080fd5b60208301915083602082028301111561173e57600080fd5b9250929050565b60008135905061175481611e34565b92915050565b60008151905061176981611e34565b92915050565b60006020828403121561178157600080fd5b600061178f84828501611745565b91505092915050565b6000602082840312156117aa57600080fd5b60006117b88482850161175a565b91505092915050565b600080604083850312156117d457600080fd5b60006117e285828601611745565b92505060206117f3858286016116e6565b9150509250929050565b60008060006040848603121561181257600080fd5b600061182086828701611745565b935050602084013567ffffffffffffffff81111561183d57600080fd5b611849868287016116fb565b92509250509250925092565b61185e81611d20565b82525050565b61186d81611d32565b82525050565b61187c81611d3e565b82525050565b600061188d82611c6f565b6118978185611c8b565b93506118a7818560208601611d72565b80840191505092915050565b60006118c0600883611c7a565b91507f566f746520656e640000000000000000000000000000000000000000000000006000830152602082019050919050565b6000611900601083611c7a565b91507f57726f6e672061727261792073697a65000000000000000000000000000000006000830152602082019050919050565b6000611940600c83611c7a565b91507f496e76616c696420566f746500000000000000000000000000000000000000006000830152602082019050919050565b6000611980601883611c7a565b91507f4e6f20766f746520696e20746869732070726f706f73616c00000000000000006000830152602082019050919050565b60006119c0600e83611c7a565b91507f566f7465206e6f742073746172740000000000000000000000000000000000006000830152602082019050919050565b6000611a00602083611c7a565b91507f566f7465206d6f7265207468616e20566f7465206c696d69742063686f6963656000830152602082019050919050565b6000611a40600c83611c7a565b91507f566f7465206e6f7420656e6400000000000000000000000000000000000000006000830152602082019050919050565b6000611a80601583611c7a565b91507f4e6f20766f74656420696e2070726f706f73616c7300000000000000000000006000830152602082019050919050565b611abc81611d68565b82525050565b6000611ace8284611882565b915081905092915050565b6000602082019050611aee6000830184611855565b92915050565b6000602082019050611b096000830184611864565b92915050565b6000606082019050611b246000830186611873565b611b316020830185611855565b611b3e6040830184611ab3565b949350505050565b60006020820190508181036000830152611b5f816118b3565b9050919050565b60006020820190508181036000830152611b7f816118f3565b9050919050565b60006020820190508181036000830152611b9f81611933565b9050919050565b60006020820190508181036000830152611bbf81611973565b9050919050565b60006020820190508181036000830152611bdf816119b3565b9050919050565b60006020820190508181036000830152611bff816119f3565b9050919050565b60006020820190508181036000830152611c1f81611a33565b9050919050565b60006020820190508181036000830152611c3f81611a73565b9050919050565b6000604082019050611c5b6000830185611ab3565b611c686020830184611ab3565b9392505050565b600081519050919050565b600082825260208201905092915050565b600081905092915050565b6000611ca182611d68565b9150611cac83611d68565b9250827fffffffffffffffffffffffffffffffffffffffffffffffffffffffffffffffff03821115611ce157611ce0611dee565b5b828201905092915050565b6000611cf782611d68565b9150611d0283611d68565b925082821015611d1557611d14611dee565b5b828203905092915050565b6000611d2b82611d48565b9050919050565b60008115159050919050565b6000819050919050565b600073ffffffffffffffffffffffffffffffffffffffff82169050919050565b6000819050919050565b60005b83811015611d90578082015181840152602081019050611d75565b83811115611d9f576000848401525b50505050565b6000611db082611d68565b91507fffffffffffffffffffffffffffffffffffffffffffffffffffffffffffffffff821415611de357611de2611dee565b5b600182019050919050565b7f4e487b7100000000000000000000000000000000000000000000000000000000600052601160045260246000fd5b611e2681611d20565b8114611e3157600080fd5b50565b611e3d81611d68565b8114611e4857600080fd5b5056fea2646970667358221220047aa3899d64169cb66d65c6157483885506265479c95a24813e1ac7a3db0b1964736f6c63430008000033",
  "immutableReferences": {},
  "source": "// SPDX-License-Identifier: MIT\npragma solidity ^0.8.0;\nimport {LibDiamond} from \"../libraries/LibDiamond.sol\";\nimport {LibKeyChain} from \"../libraries/LibKeyChain.sol\";\nimport \"../interfaces/IVotingFacet.sol\";\nimport \"../interfaces/IUsageFacet.sol\";\nimport \"../libraries/math/SafeMath.sol\";\n\ncontract VotingFacet is IVotingFacet {\n    using SafeMath for uint256;\n\n    event Vote(\n        address indexed voter,\n        uint256 indexed proposalIndex,\n        uint256 optionIndex,\n        uint256 votingPowers\n    );\n    event RecallVote(address indexed recaller, uint256 indexed proposalIndex);\n\n    function isParticipated(uint256 _proposalIndex)\n        external\n        view\n        override\n        returns (bool)\n    {\n        return _isParticipated(_proposalIndex, msg.sender);\n    }\n\n    function isUserParticipated(uint256 _proposalIndex, address user)\n        external\n        view\n        returns (bool)\n    {\n        return _isParticipated(_proposalIndex, user);\n    }\n\n    function _isParticipated(uint256 proposalIndex, address voter)\n        internal\n        view\n        returns (bool)\n    {\n        LibDiamond.DiamondStorage storage ds = LibDiamond.diamondStorage();\n        return ds.participates[proposalIndex][voter];\n    }\n\n    function _isLimit(uint256 proposalIndex, uint256[] memory votingPowers)\n        internal\n        view\n        returns (bool)\n    {\n        LibDiamond.DiamondStorage storage ds = LibDiamond.diamondStorage();\n        LibDiamond.Proposal storage proposal = ds.proposals[proposalIndex];\n\n        bool isLimited = true;\n        uint256 count = 0;\n\n        for (uint256 i = 0; i < proposal.optionsCount; i++) {\n            if (votingPowers[i] > 0) {\n                count = count.add(1);\n            }\n            if (count > proposal.voteLimit) {\n                isLimited = false;\n                break;\n            }\n        }\n        return isLimited;\n    }\n\n    function vote(uint256 _proposalIndex, uint256[] calldata _votingPowers)\n        external\n        override\n    {\n        LibDiamond.DiamondStorage storage ds = LibDiamond.diamondStorage();\n        LibDiamond.Proposal storage proposal = ds.proposals[_proposalIndex];\n\n        //check array size\n        require(\n            _votingPowers.length == proposal.optionsCount,\n            \"Wrong array size\"\n        );\n        require(\n            _isLimit(_proposalIndex, _votingPowers),\n            \"Vote more than Vote limit choice\"\n        );\n\n        //check start-end time\n        require(block.timestamp >= proposal.startTimestamp, \"Vote not start\");\n        require(block.timestamp <= proposal.endTimestamp, \"Vote end\");\n\n        //case1: new voter (not Participate)\n        if (!_isParticipated(_proposalIndex, msg.sender)) {\n            for (uint256 i = 0; i < proposal.optionsCount; i++) {\n                if (_votingPowers[i] > 0) {\n                    _addVoteToproposal(\n                        _proposalIndex,\n                        i,\n                        _votingPowers[i],\n                        msg.sender\n                    );\n                    //Increase Voter Count\n                    ds.voterCount[_proposalIndex][msg.sender] = ds\n                    .voterCount[_proposalIndex][msg.sender].add(1);\n                }\n            }\n            ds.participates[_proposalIndex][msg.sender] = true;\n        }\n        //case2: Participated\n        else {\n            for (uint256 i = 0; i < proposal.optionsCount; i++) {\n                // //case2.1: vote equal vote limit\n                if (\n                    (ds.currentVotePowers[_proposalIndex][i][msg.sender] > 0) &&\n                    (_votingPowers[i] > 0)\n                ) {\n                    _addVoteToproposal(\n                        _proposalIndex,\n                        i,\n                        _votingPowers[i],\n                        msg.sender\n                    );\n                    //case2.2: vote less than vote limit\n                } else if (\n                    (ds.voterCount[_proposalIndex][msg.sender] <\n                        proposal.voteLimit) && (_votingPowers[i] > 0)\n                ) {\n                    _addVoteToproposal(\n                        _proposalIndex,\n                        i,\n                        _votingPowers[i],\n                        msg.sender\n                    );\n                    //Increase Voter Count\n                    ds.voterCount[_proposalIndex][msg.sender] = ds\n                    .voterCount[_proposalIndex][msg.sender].add(1);\n\n                    //case2.3: Invalid vote\n                } else if (_votingPowers[i] > 0) {\n                    revert(\"Invalid Vote\");\n                }\n            }\n        }\n    }\n\n    function _addVoteToproposal(\n        uint256 proposalIndex,\n        uint256 optionIndex,\n        uint256 votingPowers,\n        address voter\n    ) internal {\n        address VFINIX = LibDiamond.getAddress(\n            keccak256(abi.encodePacked(LibKeyChain.KEY_VFINIX_ADDRESS))\n        );\n\n        LibDiamond.DiamondStorage storage ds = LibDiamond.diamondStorage();\n        LibDiamond.Proposal storage proposal = ds.proposals[proposalIndex];\n\n        uint256 minimunVotingPower = proposal.minimumVotingPower;\n        uint256 availableVotes = IUsageFacet(VFINIX).getAvailableVotes(voter);\n\n        //check vote available\n        require(\n            (votingPowers >= minimunVotingPower) &&\n                (availableVotes >= votingPowers),\n            \"Invalid Vote\"\n        );\n\n        IUsageFacet(VFINIX).addVotesToService(\n            keccak256(\n                abi.encodePacked((LibKeyChain.KEY_VFINIX_VOTING_SERVICE_ID))\n            ),\n            voter,\n            votingPowers\n        );\n\n        //Increase Total Voting power\n        proposal.totalVotingPower = proposal.totalVotingPower.add(votingPowers);\n\n        //Increase Option Voting power\n        proposal.optionVotingPower[optionIndex] = proposal\n            .optionVotingPower[optionIndex]\n            .add(votingPowers);\n\n        //Increase Option Voter power\n        ds.currentVotePowers[proposalIndex][optionIndex][voter] = ds\n        .currentVotePowers[proposalIndex][optionIndex][voter].add(votingPowers);\n\n        //Increase Option Voter power\n        ds.votedPowers[proposalIndex][optionIndex][voter] = ds\n        .votedPowers[proposalIndex][optionIndex][voter].add(votingPowers);\n\n        emit Vote(voter, proposalIndex, optionIndex, votingPowers);\n    }\n\n    function isClaimable(uint256 _proposalIndex)\n        external\n        view\n        override\n        returns (bool)\n    {\n        return _isClaimable(_proposalIndex);\n    }\n\n    function _isClaimable(uint256 proposalIndex) internal view returns (bool) {\n        LibDiamond.DiamondStorage storage ds = LibDiamond.diamondStorage();\n        LibDiamond.Proposal storage proposal = ds.proposals[proposalIndex];\n        bool isEmptyVoted = false;\n        for (uint256 i = 0; i < proposal.optionsCount; i++) {\n            if (ds.currentVotePowers[proposalIndex][i][msg.sender] > 0) {\n                isEmptyVoted = true;\n                break;\n            }\n        }\n        return isEmptyVoted;\n    }\n\n    function isUserClaimable(uint256 _proposalIndex, address user) external view returns (bool) {\n        return _isUserClaimable(_proposalIndex, user);\n    }\n\n    function _isUserClaimable(uint256 proposalIndex, address user) internal view returns (bool) {\n        LibDiamond.DiamondStorage storage ds = LibDiamond.diamondStorage();\n        LibDiamond.Proposal storage proposal = ds.proposals[proposalIndex];\n        bool claimable = false;\n        for (uint256 i = 0; i < proposal.optionsCount; i++) {\n            if (ds.currentVotePowers[proposalIndex][i][user] > 0) {\n                claimable = true;\n                break;\n            }\n        }\n        return claimable;\n    }\n\n    function recallVotesFromProposal(uint256 _proposalIndex) external override {\n        address VFINIX = LibDiamond.getAddress(\n            keccak256(abi.encodePacked(LibKeyChain.KEY_VFINIX_ADDRESS))\n        );\n\n        uint256 totalUsingVotes = IUsageFacet(VFINIX).getTotalUsingVotes(\n            msg.sender\n        );\n\n        require(totalUsingVotes > 0, \"No voted in proposals\");\n\n        require(_isClaimable(_proposalIndex), \"No vote in this proposal\");\n\n        LibDiamond.DiamondStorage storage ds = LibDiamond.diamondStorage();\n        LibDiamond.Proposal storage proposal = ds.proposals[_proposalIndex];\n\n        require(block.timestamp > proposal.endTimestamp, \"Vote not end\");\n\n        uint256 usingVotes;\n        for (uint256 i = 0; i < proposal.optionsCount; i++) {\n            uint256 optionVotedPower = ds.currentVotePowers[_proposalIndex][i][\n                msg.sender\n            ];\n            ds.currentVotePowers[_proposalIndex][i][msg.sender] = ds\n            .currentVotePowers[_proposalIndex][i][msg.sender].sub(\n                    optionVotedPower\n                );\n\n            usingVotes = usingVotes.add(optionVotedPower);\n        }\n\n        IUsageFacet(VFINIX).removeVotesFromService(\n            keccak256(\n                abi.encodePacked(LibKeyChain.KEY_VFINIX_VOTING_SERVICE_ID)\n            ),\n            msg.sender,\n            usingVotes\n        );\n        emit RecallVote(msg.sender, _proposalIndex);\n    }\n}\n",
  "sourcePath": "/Users/kanthakarn/Documents/work/six-network/tmp/definix-vfinix-voting/contracts/facets/VotingFacet.sol",
  "compiler": {
    "name": "solc",
    "version": "0.8.0+commit.c7dfd78e.Emscripten.clang"
  },
  "schemaVersion": "3.4.1",
  "updatedAt": "2022-02-03T07:30:38.590Z",
  "devdoc": {
    "kind": "dev",
    "methods": {},
    "version": 1
  },
  "userdoc": {
    "kind": "user",
    "methods": {},
    "version": 1
  }
}